:02000004080AE8
:1000000000000A08102A0A08000004000600050182
:0800100004026C000000000076
:1000180060270A0809480A4908B5884205D0094AEC
:10002800824202D0121A02F07BFB0748074A0021DD
:10003800121A02F080FB064808BD00BF000300202A
:10004800E4290A080403002004030020E40800202F
:10005800E408002070B501F039FB074B074C1E4639
:10006800E41AA4080025A54204D056F8253098477C
:100078000135F8E770BD00BFA4290A08D8290A0885
:1000880000F0C6B808B500F0D5F8BDE8084001F0A2
:10009800DBBA01F091B90078B0FA80F040097047F6
:1000A80001230370704700002DE9F04101210A2067
:1000B80001F030FD01210B2001F02CFD01210C2065
:1000C80001F028FD01210D2001F024FD00210A2066
:1000D80001F031FD00210B2001F02DFD00210C2045
:1000E80001F029FD00210D2001F025FD4FF4FA70E3
:1000F80001F074FA01F072FD404901F0A7FC01F02B
:100108006DFD01F0A7FC0A2001F068FA01210A2020
:1001180001F011FD01210B2001F00DFD01210C2042
:1001280001F009FD01210D2001F005FD0A2001F073
:1001380055FA00210B2001F0FEFC314F00210C2064
:1001480001F0F9FC00210D2001F0F5FC01213846F1
:1001580000F0C8FC4FF47A783021384600F073F983
:10016800284EC7F804800A2001F038FA01210B2034
:1001780001F0E1FC0121304600F0B4FC31213046A9
:1001880000F061F9204D0A20C6F8048001F026FA33
:1001980001210C2001F0CFFC0121284600F0A2FC2F
:1001A8003221284600F04FF9184C0A20C5F804807F
:1001B80001F014FA01210D2001F0BDFC01212046B7
:1001C80000F090FC3321204600F03DF90A20C4F8E5
:1001D800048001F003FA3846002100F050FA304656
:1001E800002100F04CFA2846002100F048FA204689
:1001F800BDE8F041002100F042BA00BFA08601002E
:100208000C030020240300203C030020540300209A
:1002180008B501F011FB4FF4165101F0F3FA01F0A3
:100228000BFB034901F033F9BDE80840FFF73CBF79
:1002380074270A081FB500F0A5FF464C2368C01AAA
:1002480063281BD900F09EFF02A92060424800F0F5
:1002580028FF70B101F0F0FABDF90C20BDF90830A3
:100268000192BDF90A20012100923C4A01F069F986
:1002780004E001F0E1FA3A4901F009F901F0DCFA89
:10028800384901F0F1F801F0D7FA0446364800F091
:1002980031FA0A220146204601F051F901F0CCFA60
:1002A800324901F0E1F801F0C7FA314901F0DCF810
:1002B80001F0C2FA04462F4800F01CFA0A2201464F
:1002C800204601F03CF901F0B7FA284901F0CCF8D2
:1002D80001F0B2FA284901F0C7F801F0ADFA044676
:1002E800264800F007FA0A220146204601F027F9BD
:1002F80001F0A2FA1D4901F0B7F801F09DFA204972
:1003080001F0B2F801F098FA04461E4800F0F2F93C
:100318000A220146204601F012F9134800F010FAAB
:1003280088B9144800F00CFA68B9144800F008FAC3
:1003380048B9144800F004FA28B901F07DFA01F030
:100348009AF804B010BD01F077FA0F4901F08CF863
:10035800F3E700BF080300206C0300207D270A088C
:1003680086270A0890270A080C0300209A270A08FB
:100378009E270A0824030020A8270A083C03002017
:10038800B2270A0854030020BC270A0810B500F059
:10039800C1FE114800F036F8104800F033F8104854
:1003A80000F030F80F4800F02DF80021012000F08F
:1003B800E3FF032000F0D0FF01F010FC0A4C0146D7
:1003C80000222046112300F099FE2046BDE8104087
:1003D800064A074901F022BC0C0300202403002030
:1003E8003C030020540300206C0300200403002079
:1003F800DD0F0A080368C9B29B6818470368C9B2C9
:100408009B68184729224270002242600272704796
:1004180070B5044615460E4601F0E0FB617801F020
:1004280030FB01F0DBFB036831469B68984701F01D
:10043800D5FB036829469B68984701F0CFFB01F07C
:1004480028FB207070BD38B505460C4601F07F02C8
:100458008A21FFF7DDFF6C7038BD70B5044615467C
:100468000E4601F0BBFB617801F00BFB01F0B6FB17
:10047800036831469B68984701F0B0FB290AFFF7EB
:10048800BDFF01F0ABFBE9B2FFF7B8FF01F0A6FB37
:1004980001F0FFFA207070BD70B5054614460E468F
:1004A80001F09CFB697801F0ECFA01F097FB036816
:1004B80031469B68984701F091FB210EFFF79AFFA0
:1004C80001F08CFBC4F30741FFF794FF01F086FBB2
:1004D800C4F30721FFF78EFF01F080FBE1B2FFF7BD
:1004E80089FF01F07BFB01F0D4FA287070BD38B5A4
:1004F80004460D4601F072FB617801F0C2FA01F082
:100508006DFB036829469B68984701F067FB01F07B
:10051800C0FA207001F062FB0122617801F0A9FAAB
:1005280001F05CFB03685B699847C0B238BD38B519
:1005380004460D4601F052FB617801F0A2FA01F081
:100548004DFB036829469B68984701F047FB01F07B
:10055800A0FA207001F042FB6178022201F089FACA
:1005680001F03CFB03685B699847044601F036FBE1
:1005780003685B69984740EA042080B238BDF8B543
:10058800064614461D460F4601F028FB717801F017
:1005980078FA01F023FB036839469B68984725449D
:1005A800AC4207D001F01AFB036814F8011B9B68E2
:1005B8009847F5E701F012FB01F06BFA3070F8BDCF
:1005C800F8B5064614461D460F4601F007FB71783C
:1005D80001F057FA01F002FB036839469B68984717
:1005E80001F0FCFA01F055FA307001F0F7FA2A46EA
:1005F800717801F03EFA2544AC4207D001F0EEFADA
:1006080003685B69984704F8010BF5E7F8BD00003B
:1006180070B50D4606460021284602F02BF8B0B901
:10062800284601F0ADFD0CA3D3E9002301F07AFEC2
:1006380068B94FF08641284601F07EFE02F042F884
:10064800442182B23046FFF708FF012070BD002028
:1006580070BD00BFAFF30080A4703D0AD7FF7F4094
:1006680008B509B9502102E0012906D17021FFF728
:100678003EFF01304000C0B208BDFF2008BD38B5BC
:1006880004460D4601228021FFF7C2FE0122FF2108
:100698002046FFF7BDFE002211462046FFF7B8FEB0
:1006A800227C91212046FFF7B3FE0122002120463B
:1006B800FFF7AEFE0022FF212046FFF7A9FE002229
:1006C80080212046FFF7A4FE6DB1F8212046FFF7F0
:1006D8002EFF00B145432A4604212046FFF7DCFEE1
:1006E8000422002101E0294602222046BDE83840C4
:1006F800FFF78EBE38B5044600F044FDE0601321D4
:100708002046FFF7F4FE43070ED16368002BF6D0AE
:1007180000F038FDE368C01A63689842EFD90123F6
:1007280023724FF6FF7038BD1E212046FFF7FFFEEB
:100738000546012220460B21FFF76AFE284638BDF0
:1007480003460022007A1A727047F8B504460F462D
:10075800164680210122FFF75BFE0122FF21204679
:10076800FFF756FE002211462046FFF751FE0622EB
:10077800FF212046FFF74CFE83212046FFF7B7FEF6
:1007880040F00402D2B283212046FFF741FE07223F
:10079800FF212046FFF73CFE012281212046FFF77A
:1007A80037FE012280212046FFF732FE6B2294217A
:1007B8002046FFF72DFE002283212046FFF728FE62
:1007C80000F0E0FCE06083212046FFF790FE05463C
:1007D80058B96368002BF6D000F0D4FCE368C01A5F
:1007E80063689842EFD92846F8BD01222046832144
:1007F800FFF70EFE92212046FFF779FE00F07F03F7
:10080800C0F3C0103B700022307081212046FFF7F2
:10081800FFFD06222046FF21FFF7FAFD832120462F
:10082800FFF765FE832102462046FFF7F1FD2046CB
:100838000122FF21FFF7ECFD204601220021FFF7EE
:10084800E7FD20460022FF21FFF7E2FD20460022B7
:100858008021FFF7DDFD0120F8BD10B50C46012110
:10086800FFF745FEC0F300132370C0F3C003A37065
:10087800C0F380036370C0F38013C0F3C010E3704B
:10088800207110BD4FF6FF73984228BF1846C3B2B7
:10089800000A03FA00F0013080B27047B0F5803FDB
:1008A80001D278B101E04FF6FF700138002330F033
:1008B800FF019AB203F1010301D04008F7E740EACB
:1008C800022080B270470000084B4FF47A725943F7
:1008D80010B501F5FA714FF4FA64B1FBF2F3B1FB0C
:1008E800F4F100FB0310B0FBF2F010BD002F3A004A
:1008F80070B50E46002114460546FFF7B1FE4621A5
:1009080020802846FFF7F3FD013080B22178A080CF
:10091800FFF7DAFF5121E0602846FFF708FEFFF7EE
:10092800B1FF2178E080FFF7CFFF702120612846D2
:10093800FFF7DDFD01304000C0B26080712128461C
:10094800FFF7F5FDFFF79EFF2081F37813B1E388E9
:10095800C01A2081A1782089FFF7B6FF606170BDB9
:1009680010B5044688B06946FFF777FF02AA6946C2
:100978002046FFF7BDFF9DF800301BB1059800F633
:10098800845001E040F636309DF802302BB1059BCB
:1009980003F2B22300EB430006E09DF801301BB1DF
:1009A800059B03F5257318449DF803301BB1069B7E
:1009B80003F5257318449DF804301BB1079B03F217
:1009C80026231844606108B010BD0000084B4FF49E
:1009D8007A7259434FF4FA6301F5FA71B1FBF3F3F4
:1009E800B1FBF2F102FB0030B0FBF1F0704700BF41
:1009F800002F3A0044F61F63F0B5994289B00646C5
:100A08000D4642D96946FFF728FF02AA69463046D3
:100A1800FFF76EFF9DF800301BB1059800F63630E1
:100A280001E040F6E8009DF802302BB1059B03F287
:100A3800B22300EB430006E09DF801301BB1059B93
:100A480003F5257318449DF803701FB1069B03F541
:100A5800257318449DF80440ACB100F22620854265
:100A680013D39DF80A10281AFFF7B0FF17B1BDF885
:100A78000E301844FFF712FF712102463046FFF787
:100A8800ECFC756102E0012400E00024204609B076
:100A9800F0BD38B541F0010200210446FFF7B8FC6B
:100AA80000F070FBE06013212046FFF720FD10F0F6
:100AB80007050BD16368002BF5D000F063FBE368F2
:100AC800C01A63689842EED9284638BD20460122EC
:100AD8000B21FFF79DFC002220461146FFF798FCEA
:100AE800012038BDF0B5044685B049B18921FFF72A
:100AF800FEFC40F00102D2B289212046FFF788FCB3
:100B0800002288212046FFF783FC0122802120460D
:100B1800FFF77EFC0122FF212046FFF779FC002227
:100B280011462046FFF774FC91212046FFF7DFFCB1
:100B38000122207400212046FFF76AFC0022FF21D1
:100B48002046FFF765FC002280212046FFF760FC65
:100B580060212046FFF7CBFC40F01202D2B26021A0
:100B68002046FFF755FC4FF07A512046FFF750FD1D
:100B7800FF2201212046FFF74BFC0DF107020DF182
:100B880006012046FFF7E1FD08B900251DE206230E
:100B980002AAB0212046FFF713FD0122FF212046BB
:100BA800FFF736FC00224F212046FFF731FC2C22AC
:100BB8004E212046FFF72CFC0022FF212046FFF79C
:100BC80027FC00252046B621B422FFF721FC294640
:100BD8009DF807309DF80660002B14BF0C200020FC
:100BE8000127EBB2DA0898420DF1100E03F0070363
:100BF800724401D88E4208D112F808EC07FA03F3C0
:100C08002EEA030302F8083C07E012F8082C42FA1F
:100C180003F3DB0744BF0131C9B20135302DE0D100
:100C2800062302AAB0212046FFF7A9FC0122FF21D2
:100C38002046FFF7EDFB002211462046FFF7E8FBB0
:100C48000022FF212046FFF7E3FB0022092120466E
:100C5800FFF7DEFB002210212046FFF7D9FB002218
:100C680011212046FFF7D4FB012224212046FFF75B
:100C7800CFFBFF2225212046FFF7CAFB0022752162
:100C88002046FFF7C5FB0122FF212046FFF7C0FBE6
:100C98002C224E212046FFF7BBFB0022482120468C
:100CA800FFF7B6FB202229462046FFF7B1FB0022BA
:100CB800FF212046FFF7ACFB092229462046FFF713
:100CC800A7FB002254212046FFF7A2FB0422312172
:100CD8002046FFF79DFB032232212046FFF798FBB1
:100CE800832240212046FFF793FB252246212046F8
:100CF800FFF78EFB002260212046FFF789FB0022C8
:100D080027212046FFF784FB062250212046FFF7C3
:100D18007FFB002251212046FFF77AFB96225221C1
:100D28002046FFF775FB082256212046FFF770FB87
:100D38002A4657212046FFF76BFB002261212046F7
:100D4800FFF766FB002262212046FFF761FB0022C5
:100D580064212046FFF75CFB002265212046FFF74F
:100D680057FBA02266212046FFF752FB0122FF21F4
:100D78002046FFF74DFB322222212046FFF748FB91
:100D8800142247212046FFF743FBFF224921204632
:100D9800FFF73EFB00224A212046FFF739FB0022DD
:100DA800FF212046FFF734FB0A227A212046FFF76D
:100DB8002FFB00227B212046FFF72AFB21227821E6
:100DC8002046FFF725FB0122FF212046FFF720FBE5
:100DD800342223212046FFF71BFB00224221204614
:100DE800FFF716FBFF2244212046FFF711FB2622BE
:100DF80045212046FFF70CFB052246212046FFF738
:100E080007FB402211462046FFF702FB06220E216F
:100E18002046FFF7FDFA1A2220212046FFF7F8FAAC
:100E2800402243212046FFF7F3FA0022FF21204603
:100E3800FFF7EEFA032234212046FFF7E9FA4422AD
:100E480035212046FFF7E4FA0122FF212046FFF76B
:100E5800DFFA042231212046FFF7DAFA09224B2172
:100E68002046FFF7D5FA05224C212046FFF7D0FA95
:100E780004224D212046FFF7CBFA0022FF2120460D
:100E8800FFF7C6FA002244212046FFF7C1FA2022C4
:100E980045212046FFF7BCFA082247212046FFF7E4
:100EA800B7FA282248212046FFF7B2FA0022672124
:100EB8002046FFF7ADFA042270212046FFF7A8FA72
:100EC800012271212046FFF7A3FAFE227221204653
:100ED800FFF79EFA002276212046FFF799FA0022B2
:100EE80077212046FFF794FA0122FF212046FFF7D9
:100EF8008FFA01220D212046FFF78AFA0022FF21EE
:100F08002046FFF785FA012280212046FFF780FA64
:100F1800F82201212046FFF77BFA0122FF21204613
:100F2800FFF776FA01228E212046FFF771FA012297
:100F380000212046FFF76CFA0022FF212046FFF728
:100F480067FA002280212046FFF762FA04220A216C
:100F58002046FFF75DFA84212046FFF7C8FA84216E
:100F680000F0EF022046FFF753FA01220B2120463A
:100F7800FFF74EFA2046FFF7F3FCE82260610121F3
:100F88002046FFF745FA61692046FFF733FD012245
:100F980011462046FFF73CFA40212046FFF779FD2D
:100FA80000283FF4F2AD022201212046FFF730FA73
:100FB80000212046FFF76DFD054600283FF4E5AD0A
:100FC800E82201212046FFF723FA284605B0F0BDA4
:100FD80000F0A0B8704710B50446FFF75AF820464D
:100FE80010BDF8B505461E460F46017CC06841F0A5
:100FF8001801144600F045FDE868012E036888BF13
:1010080047F080079B68394698472644A642E86817
:1010180005D0036814F8011B9B689847F6E700F0B1
:1010280038FDB0FA80F04009F8BDF8B504461E4610
:101038000F46017CC06841F01801154600F021FDFB
:10104800E068012E036888BF47F080079B6839462F
:101058009847E06800F01DFDA8B9217C324641F0B0
:101068001801E06800F008FD2E44AE420DD0E0689B
:1010780003681B69984740B1E06803685B69984753
:1010880005F8010BF1E70020F8BD0120F8BD13B504
:10109800036801AA9C680123A0479DF8040002B0D8
:1010A80010BDF7B50C4607210646FFF7F0FF00F024
:1010B8000800002814BF012500251BD033686A46A4
:1010C8009F68282106233046B8479DF801209DF8DF
:1010D800003043EA022323809DF803209DF8023064
:1010E80043EA022363809DF805209DF8043043EA13
:1010F8000223A380284603B0F0BD000010B543606A
:10110800024BC1600360027410BD00BFD0270A08FB
:1011180000F000B808B5024B1B681B68019308BDB6
:10112800B001060808B5024B1B689B68019308BD0F
:10113800B001060808B5024B1B68DB68019308BDBF
:10114800B001060808B5024B1B681B69019308BD6E
:10115800B001060808B5024B1B68DB69019308BD9E
:10116800B401060808B5024B1B681B6A019308BD49
:10117800B401060808B5024B1B685B68019308BDFB
:101188009C01060808B5024B1B685B69019308BD02
:101198009C01060808B5024B1B681B6B019308BD30
:1011A800D001060808B5024B1B689B69019308BD6E
:1011B800C401060808B5024B1B685B6A019308BDA9
:1011C800C401060808B5024B1B689B6A019308BD59
:1011D800C401060808B5024B1B68DB6A019308BD09
:1011E800C401060808B5024B1B681B6B019308BDB8
:1011F800C401060808B5024B1B685B6B019308BD68
:10120800C401060808B5024B1B689B6B019308BD17
:10121800C401060808B5024B1B681B6C019308BD86
:10122800C401060808B5024B1B681B6C019308BD76
:10123800AC01060808B5024B1B68DB6C019308BDBE
:10124800AC01060808B5024B1B685B6D019308BD2D
:10125800AC01060808B5024B1B689B6D019308BDDD
:10126800AC01060808B5024B1B68DB6D019308BD8D
:10127800AC01060808B5024B1B681B6E019308BD3C
:10128800AC01060808B5024B1B685B6E019308BDEC
:10129800AC01060808B5024B1B689B6E019308BD9C
:1012A800AC01060808B5024B1B68DB6E019308BD4C
:1012B800AC01060808B5024B1B681B6F019308BDFB
:1012C800AC01060808B5024B1B685B6F019308BDAB
:1012D800AC01060808B5034B1B68D3F880300193AE
:1012E80008BD0000AC01060808B5024B1B681B6866
:1012F800019308BDD801060808B5024B1B685B6856
:10130800019308BDD801060808B5024B1B681B6984
:10131800019308BDD801060808B5024B1B685B6934
:10132800019308BDD801060808B5024B1B689B69E4
:10133800019308BDD801060808B5024B1B68DB6994
:10134800019308BDD801060808B5024B1B681B6A43
:10135800019308BDD801060808B5024B1B685B68F5
:10136800019308BDA401060808B5024B1B685B6918
:10137800019308BDA401060808B5024B1B68DB6A87
:10138800019308BDA401060808B5024B1B685B6EF3
:10139800019308BDA401060808B5024B1B689B6EA3
:1013A800019308BDA401060808B5024B1B681B6918
:1013B800019308BDC801060808B5024B1B685B68A5
:1013C800019308BDA001060808B5024B1B685B6ABB
:1013D800019308BDA0010608704710B50446FEF742
:1013E80058FE204610BD000070B504460E46074B57
:1013F8000025036040F80C5FFFF7CCFE30462671ED
:10140800FFF7A8FEA560204670BD00BFE8270A08C0
:101418000079FFF7A7BE0020FFF79EBFF8B5064684
:101428000D468F180024BD420CD0336815F8011BF7
:101438009B6830469847002801DB0444F3E7002CFA
:1014480008BF04462046F8BD70B505460C46084658
:1014580049B101F078F92B68024621462846BDE8D3
:101468007040DB68184770BD08B5FFF7EDFF08BD91
:1014780003689B68184738B50D210546FFF7F8FF44
:101488000A2104462846FFF7F3FF204438BD38B543
:101498000546FFF7D9FF04462846FFF7ECFF20442E
:1014A80038BD012A98BF0A2230B50B468BB00021FF
:1014B8008DF824100DF12304B3FBF2F505FB12336C
:1014C800DBB2092B94BF30333733DBB2214604F843
:1014D80001392B46002DEFD1FFF7B6FF0BB030BD19
:1014E80010B422B90368C9B29B6810BC1847D2B2BD
:1014F80010BCFFF7D6BFFFF7F3BF2DE9F041074651
:101508000E4615462AB9BDE8F0410368C9B29B6882
:1015180018470A2A02D1002901DA04E0D2B2BDE84C
:10152800F041FFF7BEBF2D21FFF7A2FF2A46044670
:1015380071423846FFF7B5FF2044BDE8F081FFF758
:10154800DCBF0CB42DE9F04387B000AF07F13804D5
:1015580054F8049B05460E4623464A461421381D76
:101568003C60FFF731FF132805D8391D2846FFF7DF
:101578006BFF044613E000F1080323F00703E84675
:10158800ADEB030D411C23464A4668463C60FFF715
:101598001BFF69462846FFF757FF0446C5461EB19C
:1015A8002846FFF768FF044420461C37BD46BDE8BF
:1015B800F04302B070470000014A024B1A607047BE
:1015C800A8280A0880030020024B1A68024B1A60F8
:1015D800704700BF00030020840300200021FFF7AC
:1015E800C3BE000008B5144B33B100F025F90368F9
:1015F8001B699847002816DC104B33B100F0C2F97C
:1016080003681B699847002810DC0D4B0BB1AFF33A
:1016180000800C4B7BB100F04BF903681B699847BD
:10162800002806DC08BDAFF30080E5E7AFF30080D3
:10163800EBE7AFF3008008BD0000000000000000E9
:10164800000000000000000008B5FFF7CBFFFFF71F
:1016580099FD014B186008BD100800200248034A94
:101668000349121A01F05CB80040024004400240ED
:10167800E0290A080020704737B5436804460A2B5A
:101688000ED0502B1CD1104B1D68CDB1037D4FF4EB
:1016980000710093C26800F110038068A84707E052
:1016A80000F11003C2684FF400718068FFF7E2FF91
:1016B80030B1002220461146FFF76EFE012000E0FF
:1016C800002003B030BD00BF8803002038B50C4CA3
:1016D8000C4D2368AB420C4B0CBF012200221A7040
:1016E80002D0FFF7BBFF2560084B1BB1FFF742FD97
:1016F800AFF30080BDE8384000210548FFF744BE3D
:10170800004002401E1C279A8C03002000000000A5
:1017180081160A08704710B50446FEF7BAFC204641
:1017280010BDF8B50F4600F10806051D002416F88F
:10173800011D0A223846FFF7DEFEAE42044407D0F8
:10174800002CF4D02E213846FFF792FE0444EEE731
:101758002046F8BD10B59DF8084044EA032343EA43
:10176800024242EA016104234160037510BD000092
:1017780037B5044D05609DF818500095FFF7EAFF4E
:1017880003B030BD04290A0841747047704700212E
:10179800007CFFF7C9BD0121007CFFF7C5BD007CB7
:1017A800FFF7BABD007CFFF7AFBD38B50446007C33
:1017B8000D46FFF7B1FD002801DC607C20B1294609
:1017C800207CFFF7B9FD012038BD007CFFF7BCBDC8
:1017D80010B50446FEF75DFC204610BD10B5044662
:1017E800002363604FF47A73A360054B08462360B7
:1017F8000123217463741146FFF776FD204610BD5E
:1018080018290A080022007CFFF776BD10B50446A7
:101818001422002100F08FFF054B20466360054B22
:10182800E36040F2011323818123238210BD00BFAE
:10183800150400209403002030B50E4D87B001A890
:10184800FFF7E4FF296811F0010410D12846FEF7DC
:1018580022FC60B101AA21460748FFF7BFFF2846CE
:10186800FEF71EFC054A0649034800F0D7F902486E
:1018780007B030BD900300201805002004030020A5
:1018880095170A0810B504461422002100F053FFEA
:10189800054B20466360054BE36040F2011323814A
:1018A8008123238210BD00BFC80500203005002019
:1018B80010B50E4C86B001A8FFF7E4FF2368DB07DC
:1018C80010D42046FEF7E7FB60B101AA01210848C1
:1018D800FFF784FF2046FEF7E3FB064A0649044863
:1018E80000F09CF9024806B010BD00BF2C0500208E
:1018F800B40500200403002095170A0870474174B6
:101908007047007CFFF786BC007CFFF75BBC007C5F
:10191800FFF768BC007CFFF75DBC007CFFF76ABC82
:1019280010B50446FEF7B5FB204610BD70B5457CE2
:1019380004460E4625B9007CFFF76CFC002805DD3F
:101948003146207CBDE87040FFF734BC284670BDA6
:1019580010B5044608461146002262604FF47A72B8
:10196800A260054A20742260012262741A46FFF7B9
:1019780019FC204610BD00BF48290A08007CFFF763
:1019880041BC000038B50C4D296811F0010411D193
:101998002846FEF780FB68B1084A2146084B0948EB
:1019A800FFF7D6FF2846FEF77BFB074A074905489D
:1019B80000F034F9034838BD6407002068070020A8
:1019C800E0060020CC0600200403002005190A08C0
:1019D8007047F8B5064615460C468F18BC4206D027
:1019E800336814F8011B9B6830469847F6E7284689
:1019F800F8BD0022007CFFF73DBC0021007CFFF70A
:101A080041BC0021007CFFF745BC0021007CFFF7AA
:101A180049BC0021007CFFF74DBC10B50446FEF719
:101A280038FB204610BD000010B5044608464FF4A8
:101A38007A73A360044B0021207461602360FFF770
:101A480049FC204610BD00BF78290A080022007C06
:101A5800FFF7E8BB00231A461946007CFFF7EABBEC
:101A680013B50024007C0094FFF7ECFBC0B202B071
:101A780010BD0123FFF7F4BF0123D2B2C9B2FFF7AB
:101A8800EFBF0022007CFFF7E5BB0022007CFFF7D8
:101A9800E9BB0121FFF7F9BF0021007CFFF712BC69
:101AA8007047002211461046FFF77EBC0348044BDE
:101AB800044A0549036000F0B1B800BFEC070020F4
:101AC800A0290A0804030020A91A0A0810B5044628
:101AD8000F48FFF79DFC28B1A4F10D03022B01D894
:101AE800002010BD00F07AF8FFF7D6FF08B1012CEE
:101AF800F6D9FFF747FFFFF741FF18B1A4F112032A
:101B0800012BEDD9172C8CBF0020012010BD00BF80
:101B1800F0070020172838B504460D460AD8FF29D3
:101B280008D0FFF7D3FF28B129462046BDE8384042
:101B3800FFF7F8BA38BD38B504460D46FFF7FAFA8C
:101B4800FF2810D0062804D84D2323FA00F0C30735
:101B580009D42046FFF7BAFF28B129462046BDE838
:101B68003840FFF7EFBA38BD70B50C4C0C4E0D4D30
:101B780000212046FFF738FC20460B4C3246294608
:101B880000F04CF801212046FFF72EFC324629468A
:101B98002046BDE8704000F041B800BFF0070020C3
:101BA80004030020E1130A080008002013B5084CBC
:101BB80000231A46194600932046FFF7D9FD204610
:101BC800044A054902B0BDE8104000F027B800BF3C
:101BD80014080020040300201D170A0838B50B4D0F
:101BE800296811F001040FD12846FEF754FA58B1BC
:101BF80021460748FFF718FF2846FEF751FA054A1D
:101C08000549034800F00AF8014838BD2C080020AF
:101C18003008002004030020D9190A080B460146A1
:101C2800184600F06FBD0000184B1A68D1075CBF5A
:101C380001221A60164B1A68D2075CBF01221A608B
:101C4800144B1A68D0075CBF01221A60124B1A683D
:101C5800D1075CBF01221A60104B1A68D2075CBF1B
:101C680001221A600E4B1A68D0075CBF01221A6065
:101C78000C4B1A68D1075CBF01221A600A4B1A681C
:101C8800D2075CBF01221A60704700BF60080020BD
:101C98005C08002058080020540800205008002044
:101CA8004C0800204808002044080020244B1A68EB
:101CB800D0075CBF01221A60224B1A68D1075CBFAB
:101CC80001221A60204B1A68D2075CBF01221A60F1
:101CD8001E4B1A68D0075CBF01221A601C4B1A6899
:101CE800D1075CBF01221A601A4B1A68D2075CBF81
:101CF80001221A60184B1A68D0075CBF01221A60CB
:101D0800164B1A68D1075CBF01221A60144B1A6877
:101D1800D2075CBF01221A60124B1A68D0075CBF59
:101D280001221A60104B1A68D1075CBF01221A60A1
:101D38000E4B1A68D2075CBF01221A60704700BFB9
:101D4800900800208C0800208808002084080020C3
:101D5800800800207C0800207808002074080020F3
:101D6800700800206C080020680800206408002023
:101D7800244B1A68D0075CBF01221A60224B1A68EC
:101D8800D1075CBF01221A60204B1A68D2075CBFDA
:101D980001221A601E4B1A68D0075CBF01221A6024
:101DA8001C4B1A68D1075CBF01221A601A4B1A68CB
:101DB800D2075CBF01221A60184B1A68D0075CBFB3
:101DC80001221A60164B1A68D1075CBF01221A60FB
:101DD800144B1A68D2075CBF01221A60124B1A68AA
:101DE800D0075CBF01221A60104B1A68D1075CBF8C
:101DF80001221A600E4B1A68D2075CBF01221A60D2
:101E0800704700BFC0080020BC080020B8080020A8
:101E1800B4080020B0080020AC080020A808002062
:101E2800A4080020A00800209C0800209808002092
:101E380094080020184B1A68D1075CBF01221A6069
:101E4800164B1A68D2075CBF01221A60144B1A6835
:101E5800D0075CBF01221A60124B1A68D1075CBF19
:101E680001221A60104B1A68D2075CBF01221A605F
:101E78000E4B1A68D0075CBF01221A600C4B1A6817
:101E8800D1075CBF01221A600A4B1A68D2075CBFEF
:101E980001221A60704700BFE0080020DC0800201B
:101EA800D8080020D4080020D0080020CC08002042
:101EB800C8080020C408002081F0004102E000BFEB
:101EC80083F0004330B54FEA41044FEA430594EAF2
:101ED800050F08BF90EA020F1FBF54EA000C55EA2D
:101EE800020C7FEA645C7FEA655C00F0E2804FEAFE
:101EF8005454D4EB5555B8BF6D420CDD2C4480EAE0
:101F0800020281EA030382EA000083EA010180EA0F
:101F1800020281EA0303362D88BF30BD11F0004F5D
:101F28004FEA01314FF4801C4CEA113102D0404293
:101F380061EB410113F0004F4FEA03334CEA1333CE
:101F480002D0524263EB430394EA050F00F0A780E6
:101F5800A4F10104D5F1200E0DDB02FA0EFC22FAE1
:101F680005F2801841F1000103FA0EF2801843FAD5
:101F780005F359410EE0A5F120050EF1200E012AC6
:101F880003FA0EFC28BF4CF0020C43FA05F3C01804
:101F980051EBE37101F0004507D54FF0000EDCF17D
:101FA800000C7EEB00006EEB0101B1F5801F1BD326
:101FB800B1F5001F0CD349085FEA30004FEA3C0C2A
:101FC80004F101044FEA445212F5800F80F09A8020
:101FD800BCF1004F08BF5FEA500C50F1000041EB24
:101FE800045141EA050130BD5FEA4C0C404141EB28
:101FF800010111F4801FA4F10104E9D191F0000F4F
:1020080004BF01460020B1FA81F308BF2033A3F1D1
:102018000B03B3F120020CDA0C3208DD02F1140CC8
:10202800C2F10C0201FA0CF021FA02F10CE002F103
:102038001402D8BFC2F1200C01FA02F120FA0CFCFC
:10204800DCBF41EA0C019040E41AA2BF01EB045145
:10205800294330BD6FEA04041F3C1CDA0C340EDC43
:1020680004F11404C4F1200220FA04F001FA02F386
:1020780040EA030021FA04F345EA030130BDC4F144
:102088000C04C4F1200220FA02F001FA04F340EA39
:102098000300294630BD21FA04F0294630BD94F0EA
:1020A800000F83F4801306BF81F480110134013DD1
:1020B8004EE77FEA645C18BF7FEA655C29D094EA42
:1020C800050F08BF90EA020F05D054EA000C04BFC0
:1020D8001946104630BD91EA030F1EBF00210020AB
:1020E80030BD5FEA545C05D14000494128BF41F04A
:1020F800004130BD14F580043CBF01F5801130BDAE
:1021080001F0004545F0FE4141F470014FF0000038
:1021180030BD7FEA645C1ABF194610467FEA655CE9
:102128001CBF0B46024650EA013406BF52EA03358B
:1021380091EA030F41F4002130BD00BF90F0000F79
:1021480004BF0021704730B54FF4806404F13204B5
:102158004FF000054FF0000150E700BF90F0000F6E
:1021680004BF0021704730B54FF4806404F1320495
:1021780010F0004548BF40424FF000013EE700BF65
:1021880042004FEAE2014FEA31014FEA02701FBFF5
:1021980012F07F4393F07F4F81F06051704792F0C7
:1021A800000F14BF93F07F4F704730B54FF4607441
:1021B80001F0004521F0004120E700BF50EA01028C
:1021C80008BF704730B54FF000050AE050EA010239
:1021D80008BF704730B511F0004502D5404261EBA9
:1021E80041014FF4806404F132045FEA915C3FF4EA
:1021F800DCAE4FF003025FEADC0C18BF03325FEA83
:10220800DC0C18BF033202EBDC02C2F1200300FA37
:1022180003FC20FA02F001FA03FE40EA0E0021FA5C
:1022280002F11444C1E600BF4FF0FF3C06E000BFD6
:102238004FF0010C02E000BF4FF0010C4DF804CD47
:102248004FEA410C7FEA6C5C4FEA430C18BF7FEA07
:102258006C5C1BD001B050EA410C0CBF52EA430C35
:1022680091EA030F02BF90EA020F0020704710F1B5
:10227800000F91EA030F58BF994208BF90422CBF44
:10228800D8176FEAE37040F0010070474FEA410C3D
:102298007FEA6C5C02D150EA013C07D14FEA430C5B
:1022A8007FEA6C5CD6D152EA033CD3D05DF8040BCC
:1022B800704700BF8446104662468C4619466346FE
:1022C80000E000BF01B5FFF7B7FF002848BF10F1D5
:1022D800000F01BD4DF808EDFFF7F4FF0CBF01201A
:1022E80000205DF808FB00BF4DF808EDFFF7EAFF96
:1022F80034BF012000205DF808FB00BF4DF808ED51
:10230800FFF7E0FF94BF012000205DF808FB00BF45
:102318004DF808EDFFF7CEFF94BF012000205DF8CF
:1023280008FB00BF4DF808EDFFF7C4FF34BF0120DC
:1023380000205DF808FB00BF4FF0FF0C1CEAD052EC
:102348001EBF1CEAD15392EA0C0F93EA0C0F6FD010
:102358001A4480EA010C400218BF5FEA41211ED0EE
:102368004FF0006343EA501043EA5111A0FB0131DA
:102378000CF00040B1F5000F3EBF490041EAD371AF
:102388005B0040EA010062F17F02FD2A1DD8B3F12B
:10239800004F40EBC25008BF20F00100704790F09A
:1023A800000F0CF0004C08BF49024CEA502040EAEC
:1023B80051207F3AC2BFD2F1FF0340EAC2507047B2
:1023C80040F400004FF00003013A5DDC12F1190FF0
:1023D800DCBF00F000407047C2F10002410021FA62
:1023E80002F1C2F1200200FA02FC5FEA310040F17A
:1023F800000053EA4C0308BF20EADC70704792F0F3
:10240800000F00F0004C02BF400010F4000F013A2A
:10241800F9D040EA0C0093F0000F01F0004C02BF25
:10242800490011F4000F013BF9D041EA0C018FE794
:102438000CEAD15392EA0C0F18BF93EA0C0F0AD09A
:1024480030F0004C18BF31F0004CD8D180EA0100C0
:1024580000F00040704790F0000F17BF90F0004F59
:10246800084691F0000F91F0004F14D092EA0C0F3B
:1024780001D142020FD193EA0C0F03D14B0218BFCE
:10248800084608D180EA010000F0004040F0FE4014
:1024980040F40000704740F0FE4040F440007047B0
:1024A8004FF0FF0C1CEAD0521EBF1CEAD15392EA2F
:1024B8000C0F93EA0C0F69D0A2EB030280EA010C1F
:1024C80049024FEA402037D04FF0805343EA1111B8
:1024D80043EA10130CF000408B4238BF5B0042F116
:1024E8007D024FF4000C8B4224BF5B1A40EA0C00BB
:1024F800B3EB510F24BFA3EB510340EA5C00B3EBED
:10250800910F24BFA3EB910340EA9C00B3EBD10FDA
:1025180024BFA3EBD10340EADC001B0118BF5FEA2C
:102528001C1CE0D1FD2A3FF650AF8B4240EBC25055
:1025380008BF20F0010070470CF0004C4CEA502016
:102548007F32C2BFD2F1FF0340EAC250704740F465
:1025580000004FF00003013A37E792F0000F00F057
:10256800004C02BF400010F4000F013AF9D040EAD5
:102578000C0093F0000F01F0004C02BF490011F469
:10258800000F013BF9D041EA0C0195E70CEAD15361
:1025980092EA0C0F08D142027FF47DAF93EA0C0F48
:1025A8007FF470AF084676E793EA0C0F04D14B022C
:1025B8003FF44CAF08466EE730F0004C18BF31F0DE
:1025C800004CCAD130F000427FF45CAF31F00043D8
:1025D8007FF43CAF5FE700BF4FF0FF3C06E000BF71
:1025E8004FF0010C02E000BF4FF0010C4DF804CD94
:1025F8004FEA40024FEA41037FEA226C18BF7FEAA4
:10260800236C11D001B052EA530C18BF90EA010FA5
:1026180058BFB2EB030088BFC81738BF6FEAE17034
:1026280018BF40F0010070477FEA226C02D15FEAD0
:10263800402C05D17FEA236CE4D15FEA412CE1D03C
:102648005DF8040B704700BF844608466146FFE703
:102658000FB5FFF7C9FF002848BF10F1000F0FBDE5
:102668004DF808EDFFF7F4FF0CBF012000205DF8DE
:1026780008FB00BF4DF808EDFFF7EAFF34BF012063
:1026880000205DF808FB00BF4DF808EDFFF7E0FFFC
:1026980094BF012000205DF808FB00BF4DF808ED4D
:1026A800FFF7D2FF94BF012000205DF808FB00BFB0
:1026B8004DF808EDFFF7C8FF34BF012000205DF892
:1026C80008FB00BF42000ED2B2F1FE4F0BD34FF011
:1026D8009E03B3EB126209D44FEA002343F0004390
:1026E80023FA02F070474FF00000704712F1610FB3
:1026F80001D1420202D14FF0FF3070474FF0000085
:10270800704700BF10B5054C13462CB10A46014668
:102718000220AFF3008010BD204610BD000000006D
:1027280010B5431E0A44914204D011F8014B03F836
:10273800014FF8E710BD03460244934202D003F864
:10274800011BFAE77047034613F8012B002AFBD157
:10275800181A0138704700001D000A085D000A08B1
:1027680089000A088D000A0800000000537461728D
:1027780074696E670025642C25642C2564006E6FCF
:102788002073616D706C650073656E736F722030B5
:102798003A00207C200073656E736F7220313A0016
:1027A80073656E736F7220323A0073656E736F7261
:1027B80020333A002054494D454F5554000000003D
:1027C8000000000000000000DD0F0A08DF0F0A0803
:1027D80033100A08EB0F0A08000000000000000090
:1027E800E1130A08E3130A0866006C6E00666E00BF
:1027F800636F64650064657461696C000D0A002587
:102808003031307520005D20002C200028293A2026
:1028180000205B00636F6465203D2000256900642B
:10282800657461696C73203D2000626175640053B2
:10283800657269616C0055534253657269616C3108
:10284800007479706500706172616D00636D640079
:10285800696400686E64007374726D0066696C74F4
:10286800006C766C0061646448616E646C6572002B
:1028780072656D6F766548616E646C657200656E31
:10288800756D48616E646C657273004A534F4E53A0
:10289800747265616D4C6F6748616E646C65720037
:1028A800617070006E6F6E650074726163650069B7
:1028B8006E666F007761726E006572726F7200707B
:1028C800616E696300616C6C005A00252B303364BB
:1028D8003A253032750025592D256D2D256454254E
:1028E800483A254D3A2553257A0061736374696D1A
:1028F8006500000000000000000000002B170A0817
:102908001D170A081F170A08000000000000000031
:1029180095170A08D9170A08B3170A0825140A08C8
:10292800AD170A0897170A089F170A08D3170A0845
:10293800A7170A0891170A08000000000000000005
:1029480005190A0829190A0835190A0825140A0850
:1029580011190A081D190A0817190A0823190A085B
:1029680007190A080B190A080000000000000000F7
:10297800D9190A08231A0A08FB190A08DB190A08D0
:10298800031A0A080B1A0A08131A0A081B1A0A0853
:102998000000000000000000AB1A0A0895030A08AE
:1029A800D90F0A0819110A081F140A08C1150A08BC
:1029B800D1150A08B51A0A08711B0A08B51B0A08B6
:1029C800311C0A08B51C0A08791D0A083D1E0A08A8
:0829D8000000000000000000F7
:0429E00000000000F3
:0429E400F2280A08C3
:1029E800FFFFFFFF00000102030405060708090AAC
:1029F8000B0C0D0E0F101112131415161718191AA7
:082A08001B1C1D1E1F202800ED
:042A100078563412AE
:04000005080A0018CD
:00000001FF
