:02000004080AE8
:1000000000000A0860150A08000004000600050147
:0800100004026C000000000076
:10001800A0120A0809480A4908B5884205D0094AC1
:10002800824202D0121A01F01BF90748074A002140
:10003800121A01F020F9064808BD00BF000300208D
:1000480034150A080403002004030020A80800202F
:10005800A808002070B500F057FD074B074C1E4656
:10006800E41AA4080025A54204D056F8253098477C
:100078000135F8E770BD00BFF8140A082C150A0806
:1000880000F0BAB808B500F0DBF8BDE8084000F0A9
:10009800F9BC00F0AFBB0078B0FA80F040097047B7
:1000A80001230370704703681847012A02D0022A07
:1000B80002D004E0016002E00B6800B10360002098
:1000C8007047000010B5054C0548214600F0B0F90E
:1000D800B4F90020034B1A6010BD00BF08030020CC
:1000E800100300204003002010B501230371436969
:1000F800044613B183690C3098470023237110BD5F
:1001080007B5002302A941F8043D00F061FA20B9BF
:10011800019810B103689B68984703B05DF804FB29
:1001280010B58368044613B1032201469847204658
:1001380010BD07B58068002338B18DE80A00022198
:1001480000F04EFAB0FA80F0400903B05DF804FB05
:1001580038B50E4B0446036083688BB100226FF0FC
:100168000041FFF7E6FF237903F0FF051BB10120EB
:1001780000F052FCF7E72946A06800F021FAA560D4
:1001880004F10C00FFF7CCFF204638BDBC120A086A
:1001980010B50446FFF7DCFF2046FFF77AFF20463C
:1001A80010BD00001FB500F0DFFE104900F068FE2A
:1001B80000F0DAFE00F068FE4FF4FA7000F02CFC54
:1001C80001A800F008F9502101A800F011F901A9CF
:1001D800074800F065F9044600F04CFD2346054A3F
:1001E800012100F0CDFB04B010BD00BFA0860100C6
:1001F80010030020C8120A0813B500F03BFD0F4C8D
:100208004FF4165100F01CFDFFF7CCFF00221146F9
:100218002046FFF78EFFA06840B100236FF0004230
:100228008DE80C0019461A4600F0DAF94FF47A7096
:1002380002B0BDE8104000F0EFBB00BF240300206F
:1002480008B500F017FD034B0A221968BDE80840FD
:1002580000F08CBB4003002070B588B000F088F92E
:100268000021012000F0A6FA032000F093FA204BA9
:1002780004AE049302AA1F4C96E803001E4B82E8C2
:100288000300236004F10C0393E8030086E80300ED
:1002980092E8030083E80300184B00256361A36913
:1002A80025710793164BA560A361164A234664215E
:1002B8000195009504F10800069500F079F930469B
:1002C800114EFFF72DFF32461049204600F06CFE14
:1002D80000F04AFE0E4C11232A460146204600F043
:1002E8003BF932460B49204600F05EFE08B070BD6F
:1002F800CD000A0824030020BC120A08B3000A082B
:10030800AF000A0809010A080403002059010A0875
:100318001003002025030A0800F02AB9704710B519
:100328000446FFF7B6FE204610BDF8B505461E4642
:100338000F46017CC06841F01801144600F0B8FD72
:10034800E868012E036888BF47F080079B68394634
:1003580098472644A642E86805D0036814F8011BAC
:100368009B689847F6E700F0ABFDB0FA80F04009CB
:10037800F8BDF8B504461E460F46017CC06841F03A
:100388001801154600F094FDE068012E036888BF47
:1003980047F080079B6839469847E06800F090FD71
:1003A800A8B9217C324641F01801E06800F07BFDD5
:1003B8002E44AE420DD0E06803681B69984740B1EF
:1003C800E06803685B69984705F8010BF1E70020CE
:1003D800F8BD0120F8BD0022027042708270C27020
:1003E800027142718271C2710272427282727047E6
:1003F80041F007010170704713B5036801AA9C68B2
:100408000123A0479DF8040002B010BD38B5054689
:100418000A240F212846FFF7EFFF33284FF0010089
:1004280005D000F0F9FA013CF3D1204638BD38BDBB
:10043800F7B50C4607210646FFF7DEFF00F0080077
:10044800002814BF012500251BD033686A469F6821
:10045800282106233046B8479DF801209DF8003032
:1004680043EA022323809DF803209DF8023043EAE3
:10047800022363809DF805209DF8043043EA022397
:10048800A380284603B0F0BD37B502AC036804F872
:10049800042DDD6822460123A84703B030BD0000C3
:1004A80070B504460D46FFF7B1FF064628B900F0BF
:1004B800E1FB284900F002FA49E02A782021204689
:1004C800FFF7E2FF6A7821212046FFF7DDFFAA78CF
:1004D80022212046FFF7D8FFEA7823212046FFF79C
:1004E800D3FF2A7924212046FFF7CEFF6A792521F8
:1004F8002046FFF7C9FFAB791BB126212046FFF73D
:100508007BFFAA7A2E212046FFF7BEFFAB785B0659
:100518001DD5EA7932212046FFF7B6FF2A7A332122
:100528002046FFF7B1FF6368002B0ADB6A7A204692
:1005380022723021FFF7A8FF31212046FFF75CFF28
:1005480005E00022227230212046FFF79DFF304649
:1005580070BD00BFF0120A0810B54360024BC160BD
:100568000360027410BD00BFE0120A0800F000B872
:1005780008B5024B1B681B68019308BDB00106084B
:1005880008B5024B1B68DB69019308BDB401060876
:1005980008B5024B1B685B68019308BD9C010608FF
:1005A80008B5024B1B685B69019308BD9C010608EE
:1005B80008B5024B1B681B6A019308BDD0010608E9
:1005C80008B5024B1B685B6A019308BDD001060899
:1005D80008B5024B1B689B6A019308BDD001060849
:1005E80008B5024B1B68DB6A019308BDD0010608F9
:1005F80008B5024B1B681B6B019308BDD0010608A8
:1006080008B5024B1B689B69019308BDC401060825
:1006180008B5024B1B685B6A019308BDC401060854
:1006280008B5024B1B689B6A019308BDC401060804
:1006380008B5024B1B68DB6A019308BDC4010608B4
:1006480008B5024B1B681B6B019308BDC401060863
:1006580008B5024B1B685B6B019308BDC401060813
:1006680008B5024B1B681B6C019308BDC401060842
:1006780008B5024B1B681B6C019308BDAC0106084A
:1006880008B5024B1B68DB6C019308BDAC0106087A
:1006980008B5024B1B685B6D019308BDAC010608E9
:1006A80008B5024B1B689B6D019308BDAC01060899
:1006B80008B5024B1B68DB6D019308BDAC01060849
:1006C80008B5024B1B681B6E019308BDAC010608F8
:1006D80008B5024B1B685B6E019308BDAC010608A8
:1006E80008B5024B1B689B6E019308BDAC01060858
:1006F80008B5024B1B68DB6E019308BDAC01060808
:1007080008B5024B1B681B6F019308BDAC010608B6
:1007180008B5034B1B68D3F88030019308BD00006F
:10072800AC01060808B5024B1B681B68019308BD9D
:10073800D801060808B5024B1B685B68019308BD21
:10074800D801060808B5024B1B681B69019308BD50
:10075800D801060808B5024B1B685B69019308BD00
:10076800D801060808B5024B1B689B69019308BDB0
:10077800D801060808B5024B1B68DB69019308BD60
:10078800D801060808B5024B1B681B6A019308BD0F
:10079800D801060808B5024B1B685B68019308BDC1
:1007A800A401060808B5024B1B685B69019308BDE4
:1007B800A401060808B5024B1B68DB6A019308BD53
:1007C800A401060808B5024B1B685B6E019308BDBF
:1007D800A401060808B5024B1B689B6E019308BD6F
:1007E800A401060808B5024B1B681B69019308BDE4
:1007F800C801060808B5024B1B685B68019308BD71
:10080800A001060808B5024B1B685B6A019308BD86
:10081800A0010608704710B50446FFF73AFC2046C9
:1008280010BD000070B504460E46074B0025036056
:1008380040F80C5FFFF7DCFE30462671FFF7A0FE9C
:10084800A560204670BD00BF3C130A080020FFF7D2
:10085800A1BFF8B506460D468F180024BD420CD03E
:10086800336815F8011B9B6830469847002801DB60
:100878000444F3E7002C08BF04462046F8BD70B5D1
:1008880005460C46084649B100F0FDFC2B680246B7
:1008980021462846BDE87040DB68184770BD0368EC
:1008A8009B68184738B50D210546FFF7F8FF0A2160
:1008B80004462846FFF7F3FF204438BD38B50546FF
:1008C800FFF7DDFF04462846FFF7ECFF204438BD5C
:1008D800012A98BF0A2230B50B468BB000218DF84B
:1008E80024100DF12304B3FBF2F505FB1233DBB240
:1008F800092B94BF30333733DBB2214604F8013972
:100908002B46002DEFD1FFF7BAFF0BB030BD10B466
:1009180022B90368C9B29B6810BC1847D2B210BC90
:10092800FFF7D6BFFFF7F3BF2DE9F04107460E46A4
:1009380015462AB9BDE8F0410368C9B29B68184753
:100948000A2A02D1002901DA04E0D2B2BDE8F04156
:10095800FFF7BEBF2D21FFF7A2FF2A4604467142CA
:100968003846FFF7B5FF2044BDE8F08138B50546A5
:10097800FFF7DAFF04462846FFF794FF204438BD06
:100988000CB42DE9F04387B000AF07F1380454F8F0
:10099800049B05460E4623464A461421381D3C60F2
:1009A800FFF730FF132805D8391D2846FFF767FFE2
:1009B800044613E000F1080323F00703E846ADEB13
:1009C800030D411C23464A4668463C60FFF71AFF60
:1009D80069462846FFF753FF0446C5461EB1284618
:1009E800FFF760FF044420461C37BD46BDE8F043CE
:1009F80002B07047014A024B1A607047FC130A089C
:100A080044030020024B1A68024B1A60704700BF6B
:100A180000030020480300200021FFF7C3BE0000A8
:100A280008B5144B33B100F025F903681B699847E2
:100A3800002816DC104B33B100F0BEF903681B69BF
:100A48009847002810DC0D4B0BB1AFF300800C4B1E
:100A58007BB100F04BF903681B699847002806DC56
:100A680008BDAFF30080E5E7AFF30080EBE7AFF335
:100A7800008008BD00000000000000000000000029
:100A88000000000008B5FFF7CBFFFFF789FD014B19
:100A9800186008BDD40700200248034A0349121A07
:100AA80000F0DEBB004002400440024030150A0856
:100AB8000020704737B5436804460A2B0ED0502BE8
:100AC8001CD1104B1D68CDB1037D4FF4007100930C
:100AD800C26800F110038068A84707E000F110031E
:100AE800C2684FF400718068FFF7E2FF30B100225E
:100AF80020461146FFF76EFE012000E0002003B0FB
:100B080030BD00BF4C03002038B50C4C0C4D236899
:100B1800AB420C4B0CBF012200221A7002D0FFF727
:100B2800BBFF2560084B1BB1FFF732FDAFF3008018
:100B3800BDE8384000210548FFF744BE00400240A8
:100B48001E1C279A5003002000000000BD0A0A0856
:100B5800704710B50446FFF79CFA204610BDF8B55B
:100B68000F4600F10806051D002416F8011D0A228B
:100B78003846FFF7D7FEAE42044407D0002CF4D025
:100B88002E213846FFF78BFE0444EEE72046F8BDD9
:100B980010B59DF8084044EA032343EA024242EABA
:100BA800016104234160037510BD000037B5044D91
:100BB80005609DF818500095FFF7EAFF03B030BDB7
:100BC80058140A084174704770470021007CFFF7E9
:100BD800C9BD0121007CFFF7C5BD007CFFF7BABD88
:100BE800007CFFF7AFBD38B50446007C0D46FFF723
:100BF800B1FD002801DC607C20B12946207CFFF78C
:100C0800B9FD012038BD007CFFF7BCBD10B5044616
:100C1800FFF73FFA204610BD10B504460023636075
:100C28004FF47A73A360054B0846236001232174AF
:100C380063741146FFF776FD204610BD6C140A0850
:100C48000022007CFFF776BD10B50446142200216F
:100C580000F011FB054B20466360054BE36040F252
:100C6800011323818123238210BD00BFD9030020F3
:100C78005803002030B50E4D87B001A8FFF7E4FFF8
:100C8800296811F0010410D12846FFF704FA60B171
:100C980001AA21460748FFF7BFFF2846FFF700FAD9
:100CA800054A0649034800F07FF9024807B030BDFD
:100CB80054030020DC04002004030020D10B0A08A0
:100CC80010B504461422002100F0D5FA054B204641
:100CD8006360054BE36040F2011323818123238283
:100CE80010BD00BF8C050020F404002010B50E4C88
:100CF80086B001A8FFF7E4FF2368DB0710D420467D
:100D0800FFF7C9F960B101AA01210848FFF784FF7C
:100D18002046FFF7C5F9064A0649044800F044F999
:100D2800024806B010BD00BFF0040020780500207E
:100D380004030020D10B0A08704741747047007CF7
:100D4800FFF78EBC007CFFF76BBC007CFFF778BC1C
:100D5800007CFFF76DBC007CFFF77ABC10B5044639
:100D6800FFF797F9204610BD70B5457C04460E463E
:100D780025B9007CFFF774FC002805DD3146207C8E
:100D8800BDE87040FFF744BC284670BD10B5044666
:100D980008461146002262604FF47A72A260054A42
:100DA80020742260012262741A46FFF729FC20464B
:100DB80010BD00BF9C140A0838B50C4D296811F005
:100DC800010411D12846FFF766F968B1084A21469F
:100DD800084B0948FFF7DAFF2846FFF761F9074A89
:100DE8000749054800F0E0F8034838BD2807002007
:100DF8002C070020A40600209006002004030020F1
:100E0800410D0A087047F8B5064615460C468F1876
:100E1800BC4206D0336814F8011B9B6830469847DB
:100E2800F6E72846F8BD0022007CFFF749BC002100
:100E3800007CFFF74DBC0021007CFFF751BC00216E
:100E4800007CFFF755BC0021007CFFF759BC10B5AA
:100E58000446FFF71EF9204610BD000010B50446F1
:100E680008464FF47A73A360044B00212074616034
:100E78002360FFF74DFC204610BD00BFCC140A08C4
:100E88000022007CFFF7F4BB00231A461946007CB9
:100E9800FFF7F6BB13B50024007C0094FFF7F8FBBE
:100EA800C0B202B010BD0123D2B2C9B2FFF7F2BF7F
:100EB8000022007CFFF7F4BB0022007CFFF7F8BBA0
:100EC8000121FFF7F9BF7047002211461046FFF7CE
:100ED80089BC00000348044B044A0549036000F03C
:100EE80063B800BFB0070020F4140A080403002008
:100EF800CF0E0A0870B50C4C0C4E0D4D0021204643
:100F0800FFF790FC20460B4C3246294600F04CF87F
:100F180001212046FFF786FC324629462046BDE8D7
:100F2800704000F041B800BFB4070020040300205F
:100F38001D080A08C407002013B5084C00231A46E8
:100F4800194600932046FFF731FE2046044A05491A
:100F580002B0BDE8104000F027B800BFD807002055
:100F680004030020590B0A0838B50B4D296811F005
:100F780001040FD12846FFF78EF858B121460748DB
:100F8800FFF76CFF2846FFF78BF8054A0549034829
:100F980000F00AF8014838BDF0070020F4070020E7
:100FA800040300200D0E0A080B460146184600F0FF
:100FB80049B90000184B1A68D1075CBF01221A60B2
:100FC800164B1A68D2075CBF01221A60144B1A68C4
:100FD800D0075CBF01221A60124B1A68D1075CBFA8
:100FE80001221A60104B1A68D2075CBF01221A60EE
:100FF8000E4B1A68D0075CBF01221A600C4B1A68A6
:10100800D1075CBF01221A600A4B1A68D2075CBF7D
:1010180001221A60704700BF240800202008002021
:101028001C080020180800201408002010080020C0
:101038000C08002008080020244B1A68D0075CBF61
:1010480001221A60224B1A68D1075CBF01221A607C
:10105800204B1A68D2075CBF01221A601E4B1A681F
:10106800D0075CBF01221A601C4B1A68D1075CBF0D
:1010780001221A601A4B1A68D2075CBF01221A6053
:10108800184B1A68D0075CBF01221A60164B1A6801
:10109800D1075CBF01221A60144B1A68D2075CBFE3
:1010A80001221A60124B1A68D0075CBF01221A602D
:1010B800104B1A68D1075CBF01221A600E4B1A68E0
:1010C800D2075CBF01221A60704700BF5408002095
:1010D800500800204C080020480800204408002040
:1010E800400800203C080020380800203408002070
:1010F800300800202C08002028080020244B1A68FB
:10110800D0075CBF01221A60224B1A68D1075CBF66
:1011180001221A60204B1A68D2075CBF01221A60AC
:101128001E4B1A68D0075CBF01221A601C4B1A6854
:10113800D1075CBF01221A601A4B1A68D2075CBF3C
:1011480001221A60184B1A68D0075CBF01221A6086
:10115800164B1A68D1075CBF01221A60144B1A6833
:10116800D2075CBF01221A60124B1A68D0075CBF15
:1011780001221A60104B1A68D1075CBF01221A605D
:101188000E4B1A68D2075CBF01221A60704700BF75
:1011980084080020800800207C08002078080020AF
:1011A80074080020700800206C08002068080020DF
:1011B80064080020600800205C080020580800200F
:1011C800184B1A68D1075CBF01221A60164B1A68BF
:1011D800D2075CBF01221A60144B1A68D0075CBFA3
:1011E80001221A60124B1A68D1075CBF01221A60EB
:1011F800104B1A68D2075CBF01221A600E4B1A689E
:10120800D0075CBF01221A600C4B1A68D1075CBF7B
:1012180001221A600A4B1A68D2075CBF01221A60C1
:10122800704700BFA4080020A00800209C080020E8
:101238009808002094080020900800208C080020BE
:101248008808002010B5054C13462CB10A46014603
:101258000220AFF3008010BD204610BD0000000042
:1012680010B5431E0A44914204D011F8014B03F80B
:10127800014FF8E710BD03460244934202D003F839
:10128800011BFAE77047034613F8012B002AFBD12C
:10129800181A0138704700001D000A085D000A0886
:1012A80089000A088D000A080000000000000000FC
:1012B8000000000059010A0899010A08F1000A080B
:1012C8007365747570537563636573733D25640046
:1012D800000000000000000025030A0827030A0890
:1012E8007B030A0833030A08646576696365206E20
:1012F8006F7420666F756E640072657365747469C7
:101308006E67206C6173744D6F76656D656E7420C1
:10131800696E74315F7372633D3078257800726549
:1013280063616C6962726174696E67000000000035
:10133800000000001D080A081F080A0866006C6EF5
:1013480000666E00636F64650064657461696C00B3
:101358000D0A00253031307520005D20002C20005A
:1013680028293A2000205B00636F6465203D200037
:1013780025690064657461696C73203D20006261B1
:1013880075640053657269616C0055534253657208
:1013980069616C31007479706500706172616D000B
:1013A800636D6400696400686E64007374726D0034
:1013B80066696C74006C766C0061646448616E6484
:1013C8006C65720072656D6F766548616E646C65F8
:1013D8007200656E756D48616E646C657273004A63
:1013E800534F4E53747265616D4C6F6748616E64FC
:1013F8006C657200617070006E6F6E65007472616A
:10140800636500696E666F007761726E006572725F
:101418006F720070616E696300616C6C005A002520
:101428002B3033643A253032750025592D256D2D22
:1014380025645425483A254D3A2553257A00617389
:101448006374696D65000000000000000000000082
:10145800670B0A08590B0A085B0B0A080000000012
:1014680000000000D10B0A08150C0A08EF0B0A0847
:101478005B080A08E90B0A08D30B0A08DB0B0A0801
:101488000F0C0A08E30B0A08CD0B0A08000000003D
:1014980000000000410D0A08650D0A08710D0A08D0
:1014A8005B080A084D0D0A08590D0A08530D0A0869
:1014B8005F0D0A08430D0A08470D0A0800000000DE
:1014C800000000000D0E0A08570E0A082F0E0A0821
:1014D8000F0E0A08370E0A083F0E0A08470E0A08B8
:1014E8004F0E0A080000000000000000D10E0A0894
:1014F80061020A0821030A0875050A0855080A083E
:10150800FD090A080D0A0A08DD0E0A08FD0E0A0878
:10151800410F0A08BD0F0A0841100A0805110A08F8
:08152800C9110A0800000000CF
:0415300000000000B7
:0415340046140A0847
:10153800FFFFFFFF00000102030405060708090A70
:101548000B0C0D0E0F101112131415161718191A6B
:081558001B1C1D1E1F202800B2
:041560007856341273
:04000005080A0018CD
:00000001FF
