:02000004080AE8
:1000000000000A0848350A0800000400060005013F
:0800100004026C000000000076
:1000180014310A0809480A4908B5884205D0094A2E
:10002800824202D0121A03F055F80748074A002105
:10003800121A03F05AF8064808BD00BF0003002052
:10004800B4340A086C0300206C030020D80900208F
:10005800D809002070B502F009FA074B074C1E4674
:10006800E41AA4080025A54204D056F8253098477C
:100078000135F8E770BD00BF40340A08A8340A0803
:1000880001F06EB908B501F035FABDE8084002F094
:10009800ABB901F063BC0078B0FA80F04009704752
:1000A800012303707047704710B50446FFF7F1FF4E
:1000B800204610BDF8B505461E460F46017CC068AF
:1000C80041F01801144601F02EFDE868012E03687E
:1000D80088BF47F080079B68394698472644B44252
:1000E800E86805D0036814F8011B9B689847F6E791
:1000F80001F021FDB0FA80F04009F8BDF8B50446DA
:100108001E460F46017CC06841F01801154601F0F3
:100118000AFDE068012E036888BF47F080079B68E6
:1001280039469847E06801F006FDA8B9217C3246B7
:10013800E06841F0180101F0F1FC2E44B5420DD001
:10014800E06803681B69984740B1E06803685B6929
:10015800984705F8010BF1E70020F8BD0120F8BD2C
:100168000022027042708270C27002714271827104
:10017800C271027242728272704741F007010170C7
:10018800704713B5036801AA9C680123A0479DF82E
:10019800040002B010BD38B505460A2428460F21D0
:1001A800FFF7EFFF33284FF0010005D001F0E6FB21
:1001B800013CF3D1204638BD38BD13B502AB03F876
:1001C800042D0268D4681A460123A04702B010BD66
:1001D80070B504460D46FFF7DEFF064628B902F063
:1001E80059F8284901F06DFD49E0204620212A7878
:1001F800FFF7E3FF204621216A78FFF7DEFF20465C
:100208002221AA78FFF7D9FF20462321EA78FFF7B1
:10021800D4FF204624212A79FFF7CFFF2046252145
:100228006A79FFF7CAFFAB791BB120462621FFF791
:10023800A8FF20462E21AA7AFFF7BFFFAB785B06FE
:100248001DD520463221EA79FFF7B7FF2046332132
:100258002A7AFFF7B2FF6368002B0ADB6A7A204626
:1002680022723021FFF7A9FF20463121FFF789FFCD
:1002780005E00022227220463021FFF79EFF30461B
:1002880070BD00BF40310A0810B54360024BC16021
:100298000360027410BD00BF30310A0808B50A4B6C
:1002A80000220A491A7001230B7009490A70094A89
:1002B8001370094B02221A70084B08221A7001F0B9
:1002C800DBF9074B186008BD77030020790300208D
:1002D80075030020760300207403002078030020B3
:1002E800700300200368C9B29B6818470368C9B245
:1002F8009B681847292242700022426002727047A8
:1003080070B5044615460E4602F072F9617801F0A0
:100318000AFC02F06DF9036831469B68984702F0C1
:1003280067F9036829469B68984702F061F901F06C
:1003380002FC207070BD38B50C4605468A2104F0D1
:100348007F02FFF7DDFF6C7038BD70B504461546B7
:100358000E4602F04DF9617801F0E5FB02F048F92C
:10036800036831469B68984702F042F9290AFFF76B
:10037800BDFF02F03DF9E9B2FFF7B8FF02F038F926
:1003880001F0D9FB207070BD70B5054614460E46C5
:1003980002F02EF9697801F0C6FB02F029F903682A
:1003A80031469B68984702F023F9210EFFF79AFF20
:1003B80002F01EF9C4F30741FFF794FF02F018F9A1
:1003C800C4F30721FFF78EFF02F012F9E1B2FFF73D
:1003D80089FF02F00DF901F0AEFB287070BD38B549
:1003E80004460D4602F004F9617801F09CFB02F026
:1003F800FFF8036829469B68984702F0F9F801F06E
:100408009AFB207002F0F4F86178012201F083FB76
:1004180002F0EEF803685B699847C0B238BD38B59A
:1004280004460D4602F0E4F8617801F07CFB02F026
:10043800DFF8036829469B68984702F0D9F801F06D
:100448007AFB207002F0D4F86178022201F063FB95
:1004580002F0CEF803685B699847044602F0C8F8D2
:1004680003685B69984740EA042080B238BDF8B554
:10047800064614461D460F4602F0BAF8717801F098
:1004880052FB02F0B5F8036839469B689847254443
:10049800AC4207D002F0ACF8036814F8011B9B6863
:1004A8009847F5E702F0A4F801F045FB3070F8BD75
:1004B800F8B5064615461C460F4602F099F87178BD
:1004C80001F031FB02F094F8036839469B689847BD
:1004D80002F08EF801F02FFB307002F089F8224606
:1004E800717801F018FB2C44A54207D002F080F87F
:1004F80003685B69984705F8010BF5E7F8BD00004C
:1005080070B506460D460846002102F08DFDB0B9CB
:10051800284602F00FFB0CA3D3E9002302F0DCFB12
:1005280068B94FF08641284602F0E0FB02F0A4FDCE
:10053800442182B23046FFF708FF012070BD002039
:1005480070BD00BFAFF30080A4703D0AD7FF7F40A5
:1005580008B509B9502102E0012906D17021FFF739
:100568003EFF01304000C0B208BDFF2008BD38B5CD
:1005780004460D4601228021FFF7C2FE2046FF21D6
:100588000122FFF7BDFE00210A462046FFF7B8FE0C
:1005980020469121227CFFF7B3FE2046002101224C
:1005A800FFF7AEFE2046FF210022FFF7A9FE2046F6
:1005B80080210022FFF7A4FE20466DB1F821FFF745
:1005C8002EFF00B14543204604212A46FFF7DCFEF2
:1005D80020460021042201E029460222BDE83840D5
:1005E800FFF78EBEF8B504460F4616468021012255
:1005F800FFF786FE2046FF210122FFF781FE00213A
:100608000A462046FFF77CFE06222046FF21FFF718
:1006180077FE83212046FFF7E2FE40F004028321A3
:100628002046D2B2FFF76CFE2046FF210722FFF7D3
:1006380067FE204681210122FFF762FE20468021C5
:100648000122FFF75DFE204694216B22FFF758FE3A
:10065800204683210022FFF753FE01F005F8E060F1
:1006680020468321FFF7BBFE054658B96368002B77
:10067800F6D000F0F9FFE368C01A63689842EFD932
:100688002846F8BD204601228321FFF739FE20467F
:100698009221FFF7A4FE00F07F03C0F3C0103B7067
:1006A8008121307000222046FFF72AFE20460622CC
:1006B800FF21FFF725FE20468321FFF790FE8321C7
:1006C80002462046FFF71CFE2046FF210122FFF7C5
:1006D80017FE204600210122FFF712FE2046FF21C7
:1006E8000022FFF70DFE204680210022FFF708FEBA
:1006F8000120F8BD10B50C460121FFF770FEC0F3CC
:1007080000132370C0F3C003A370C0F380036370A9
:10071800C0F38013C0F3C010E370207110BD4FF612
:10072800FF73984228BF1846C3B2C0F3072003FAE4
:1007380000F0013080B27047B0F5803F01D278B147
:1007480001E04FF6FF700138002330F0FF019AB244
:1007580003F1010301D04008F7E740EA022080B224
:1007680070470000064B59434FF47A7301F5FA714C
:10077800B1FBF3F1484300EB5100B0FBF3F07047D5
:10078800002F3A0070B50E46002114460546FFF7C3
:10079800DFFE462120802846FFF721FE013080B287
:1007A8002178A080FFF7DEFF5121E0602846FFF79F
:1007B80036FEFFF7B4FF2178E080FFF7D3FF702102
:1007C80020612846FFF70BFE01304000C0B2608070
:1007D80071212846FFF723FEFFF7A1FF2081F37858
:1007E80013B1E388C01A20812089A178FFF7BAFFE6
:1007F800606170BD10B5044688B06946FFF77AFF9E
:100808002046694602AAFFF7BDFF9DF800301BB1DC
:10081800059800F6845001E040F636309DF8023025
:100828002BB1059B03F2B22300EB430006E09DF8D1
:1008380001301BB1059B03F5257318449DF803305F
:100848001BB1069B03F5257318449DF804301BB1B2
:10085800079B03F226231844606108B010BD00000E
:10086800064B59434FF47A7301F5FA71B1FBF3F172
:10087800584300EB5100B0FBF1F07047002F3A00ED
:1008880044F61F63F0B5994289B006460D4642D931
:100898006946FFF72FFF3046694602AAFFF772FF45
:1008A8009DF800301BB1059800F6363001E040F69F
:1008B800E8009DF802302BB1059B03F2B22300EB50
:1008C800430006E09DF801301BB1059B03F5257335
:1008D80018449DF803701FB1069B03F5257318444F
:1008E8009DF80440ACB100F22620A84213D8281A7B
:1008F8009DF80A10FFF7B4FF17B1BDF80E30184481
:10090800FFF71AFF712102463046FFF71EFD756199
:1009180002E0012400E00024204609B0F0BD38B50B
:1009280041F0010200210446FFF7EAFC00F09CFEBA
:10093800E06020461321FFF752FD10F007050BD1A8
:100948006368002BF5D000F08FFEE368C01A636877
:100958009842EED9284638BD20460B210122FFF7E0
:10096800CFFC002120460A46FFF7CAFC012038BD0B
:10097800F0B5044685B049B18921FFF730FD40F054
:10098800010289212046D2B2FFF7BAFC204688210D
:100998000022FFF7B5FC204680210122FFF7B0FCBA
:1009A8002046FF210122FFF7ABFC00210A46204622
:1009B800FFF7A6FC91212046FFF711FD00212074C6
:1009C80001222046FFF79CFC2046FF210022FFF76A
:1009D80097FC002220468021FFF792FC60212046E8
:1009E800FFF7FDFC40F01202D2B220466021FFF76B
:1009F80087FC4FF07A512046FFF782FD20460121FF
:100A0800FF22FFF77DFC20460DF106010DF10702DC
:100A1800FFF7E8FD08B900251BE206232046B021B0
:100A280002AAFFF745FD2046FF210122FFF768FCD7
:100A380020464F210022FFF763FC20464E212C223E
:100A4800FFF75EFC2046FF210022FFF759FC002536
:100A5800B6212046B422FFF753FC29469DF80730FB
:100A68009DF80670002B14BF0C260026EAB2D308A6
:100A7800B24204A802F00702034401D3B94209D1E3
:100A8800012000FA02F213F8080C20EA020203F827
:100A9800082C06E013F8083C1341DB0744BF01317A
:100AA800C9B20135302DE1D106232046B02102AA72
:100AB800FFF7DDFC2046FF210122FFF721FC002182
:100AC8000A462046FFF71CFC2046FF210022FFF7BC
:100AD80017FC204609210022FFF712FC20461021AE
:100AE8000022FFF70DFC204611210022FFF708FC29
:100AF800204624210122FFF703FC20462521FF225E
:100B0800FFF7FEFB204675210022FFF7F9FB204680
:100B1800FF210122FFF7F4FB20464E212C22FFF78C
:100B2800EFFB204648210022FFF7EAFB2046294632
:100B38002022FFF7E5FB2046FF210022FFF7E0FB1C
:100B4800204629460922FFF7DBFB204654210022D4
:100B5800FFF7D6FB204631210422FFF7D1FB2046C0
:100B680032210322FFF7CCFB204640218322FFF7E6
:100B7800C7FB204646212522FFF7C2FB20466021FD
:100B88000022FFF7BDFB204627210022FFF7B8FB14
:100B9800204650210622FFF7B3FB204651210022B0
:100BA800FFF7AEFB204652219622FFF7A9FB20460D
:100BB80056210822FFF7A4FB204657212A46FFF7B3
:100BC8009FFB204661210022FFF79AFB2046622105
:100BD8000022FFF795FB204664210022FFF790FBD7
:100BE800204665210022FFF78BFB20466621A022C4
:100BF800FFF786FB2046FF210122FFF781FB2046F5
:100C080022213222FFF77CFB204647211422FFF7DE
:100C180077FB20464921FF22FFF772FB20464A2135
:100C28000022FFF76DFB2046FF210022FFF768FB3B
:100C380020467A210A22FFF763FB20467B21002207
:100C4800FFF75EFB204678212122FFF759FB20465B
:100C5800FF210122FFF754FB204623213422FFF70E
:100C68004FFB204642210022FFF74AFB2046442141
:100C7800FF22FFF745FB204645212622FFF740FBD0
:100C8800204646210522FFF73BFB40210A46204625
:100C9800FFF736FB20460E210622FFF731FB2046E0
:100CA80020211A22FFF72CFB204643214022FFF780
:100CB80027FB2046FF210022FFF722FB2046342194
:100CC8000322FFF71DFB204635214422FFF718FBBE
:100CD8002046FF210122FFF713FB20463121042281
:100CE800FFF70EFB20464B210922FFF709FB2046A0
:100CF8004C210522FFF704FB20464D210422FFF773
:100D0800FFFA2046FF210022FFF7FAFA2046442185
:100D18000022FFF7F5FA204645212022FFF7F0FAD6
:100D2800204647210822FFF7EBFA204648212822CF
:100D3800FFF7E6FA204667210022FFF7E1FA20468E
:100D480070210422FFF7DCFA204671210122FFF707
:100D5800D7FA20467221FE22FFF7D2FA20467621E2
:100D68000022FFF7CDFA204677210022FFF7C8FAC4
:100D78002046FF210122FFF7C3FA20460D21012258
:100D8800FFF7BEFA2046FF210022FFF7B9FA2046F6
:100D980080210122FFF7B4FA20460121F822FFF74B
:100DA800AFFA2046FF210122FFF7AAFA20468E213A
:100DB8000122FFF7A5FA204600210122FFF7A0FA39
:100DC8002046FF210022FFF79BFA204680210022BF
:100DD800FFF796FA042220460A21FFF791FA8421A8
:100DE8002046FFF7FCFA842100F0EF022046FFF7C7
:100DF80087FA0B2101222046FFF782FA2046FFF7E7
:100E0800F9FCE822606101212046FFF779FA61695F
:100E18002046FFF735FD012120460A46FFF770FA04
:100E280020464021FFF77BFD00283FF4F4AD204623
:100E380001210222FFF764FA20460021FFF76FFD27
:100E4800054600283FF4E7AD20460121E822FFF7D8
:100E580057FA284605B0F0BD08B50A4B00220A49E2
:100E68001A7001230B7009490A70094A1370094B5B
:100E780002221A70084B08221A7000F0FDFB074B7B
:100E8800186008BD7E030020840300207C03002036
:100E98007D0300207B0300207A03002080030020CC
:100EA80008B5054B188801F053FB044B003018BFF8
:100EB8000120187008BD00BF140300204C03002057
:100EC80008B5054B188801F043FB044B003018BFE8
:100ED8000120187008BD00BF1C0300203803002043
:100EE80008B5054B188801F033FB044B003018BFD8
:100EF8000120187008BD00BF3C0300200C0300202F
:100F080008B5054B188801F023FB044B003018BFC7
:100F18000120187008BD00BF4003002060030020B6
:100F280008B5054B188801F013FB044B003018BFB7
:100F38000120187008BD00BF000300202404002011
:100F48002DE9F0410A20012101F0D8FA0B200121F6
:100F580001F0D4FA0C20012101F0D0FA0D20012172
:100F680001F0CCFA0A20002101F0D9FA0B20002167
:100F780001F0D5FA0C20002101F0D1FA00210D2052
:100F880001F0CDFA4FF4FA7000F0F8FC01F030FBF4
:100F9800404900F0ADFD01F02BFB00F0ADFD0A204B
:100FA80000F0ECFC0A20012101F0B9FA0B20012124
:100FB80001F0B5FA0C20012101F0B1FA01210D2050
:100FC80001F0ADFA0A2000F0D9FC0B20002101F055
:100FD800A6FA314F0C20002101F0A1FA0D200021C2
:100FE80001F09DFA38460121FFF7C2FC4FF47A78E8
:100FF80038463021FFF79FF9284EC7F804800A20A9
:1010080000F0BCFC0B20012101F089FA30460121D7
:10101800FFF7AEFC30463121FFF78DF9204D0A204D
:10102800C6F8048000F0AAFC0C20012101F077FA30
:1010380028460121FFF79CFC28463221FFF77BF95F
:10104800184C0A20C5F8048000F098FC0D200121F6
:1010580001F065FA20460121FFF78AFC204633217A
:10106800FFF769F90A20C4F8048000F087FC3846C5
:101078000A21FFF77CFA30460A21FFF778FA28465A
:101088000A21FFF774FA2046BDE8F0410A21FFF76C
:101098006EBA00BFA086010028040020D4030020F7
:1010A80088030020EC0300201FB501A8FFF758F8BB
:1010B80001A85021FFF761F801A90648FFF788F851
:1010C800044601F0E7F80121034A234600F031FE07
:1010D80004B010BDBC03002084310A0808B50648D6
:1010E80040F2DC5100F060FEBDE80840034840F2E1
:1010F800DC5100F059BE00BF08040020AC030020FA
:1011080038B50C2800F2F380DFE810F00D0012006B
:10111800C0001B003C006400200047006F002F0047
:1011280083005B00CE00724C216801F2DC5194E030
:10113800704840F2A46100F037FE6F4840F2145145
:101148007FE06E4B196801F2DC5148E06C4B6D4A48
:101158001B6812689B1A6C4A126893420EDA674B36
:101168001968C1F5BB61043110E0654B654A1B681D
:1011780012689B1A644A126893423FDB634A1268FA
:10118800934217DA624B196801F2DC51594889B267
:1011980000F00AFE564B196864E0594B594A1B681F
:1011A80012689B1A584A12689342D8DB574A126849
:1011B80093420FDB574B00221A60574B01221A70DB
:1011C80038BD4F4B4F4A1B6812689A1A534B1B681D
:1011D8009A4256DA4E4B1968C1F5BB61043145484D
:1011E80089B200F0E1FD424B59E0454B454A1B6886
:1011F80012689B1A444A12689342D7DA444B3D4816
:101208001968C1F5BB61043189B200F0CDFD444BCA
:10121800C1E73B4B3B4A1B6812689B1A414A12685C
:10122800934211DA3A4C33482168C1F5BB61043165
:1012380089B200F0B9FD2168C1F5BB6104312E48BF
:1012480089B200F0B1FDB8E7374A126893420CDA68
:101258002F4C2168C1F5BB61043189B2254800F0E3
:10126800A3FD216801F2DC51E9E7304A012313703C
:101278002F4A13702F4A13702F4A137000222F4BD6
:1012880033E02F490868C1188A420ADA204B194806
:10129800196801F2DC5189B200F086FD204B19680B
:1012A800CAE72849096816E0154B1A68154B1B68E8
:1012B800D21A254B1B689A428CDB24490968C81846
:1012C800824287DB224805686C181C44A242DDDB99
:1012D80020480068284401440B449A42FFF652AF64
:1012E8001D4B66221A701D4B00221A7065E738BD27
:1012F8002403002008040020AC0300205003002031
:101308001804002004040020180300202C030020E7
:1013180020030020A4030020A803002008030020C5
:101328005403002044030020300300204C03002015
:10133800380300200C030020600300201D04002057
:10134800340300200403002010030020640300205D
:10135800280300205C0300204204002040040020F1
:101368002DE9F3474F4CDFF880A120880021DFF8F2
:101378007C9101F0C3F8DFF87881BAF80000002109
:1013880001F0BCF8484FB9F80000002101F0B6F8A8
:10139800464DB8F80000002101F0B0F8444E3888F6
:1013A800002101F0ABF82888012101F0A7F80121FC
:1013B800308801F0A3F800F06DFF4FF4165100F0EB
:1013C8004FFFFFF7BDFDFFF76FFE20880024394966
:1013D80002224FF0FF33009400F0B6FB3649022298
:1013E8004FF0FF33BAF80000009400F0ADFB33492A
:1013F80002224FF0FF33B9F80000009400F0A4FB7C
:101408002F4902224FF0FF33B8F80000009400F093
:101418009BFB38882B4922464FF0FF33009400F09D
:1014280093FB2988B4254FF408724FF4166300948F
:101438000195254800F0EDFC234840F2DC5100F00E
:10144800B3FC4FF408724FF4166331888DE830000E
:101458001E4800F0DEFC1D4840F2DC5100F0A4FC00
:101468001B4B01221A701B4B1B782BB900F012FF83
:10147800194900F026FCF6E700F00CFF174900F0C8
:1014880020FC41F2883000F079FA00F003FF14499B
:1014980000F017FC00F0E8F8124B186002B0BDE845
:1014A800F08700BF14030020000300205803002029
:1014B80048030020A90E0A08C90E0A08E90E0A08FE
:1014C800090F0A08290F0A08AC03002008040020A5
:1014D800A80300202404002022320A0834320A0813
:1014E8004D320A08040400201C0300203C0300209D
:1014F8004003002010B51A4B1A4C1B7813B11A4B35
:101508001B7873B9194B1A7822B9194A21681160E6
:1015180001221A700A20FFF7F3FD00F0BBFE1549FF
:1015280011E0154B1B7813B1144B1B781BB9002025
:10153800FFF7E6FD09E00D4B187830B9FFF7E0FD3D
:1015480000F0A8FE0E4900F0BCFB0E4B1B781BB93F
:101558000D4A1370FFF7C2FD00F086F8206010BD39
:101568004C03002018040020380300201D0400202C
:101578000404002051320A08600300200C030020F4
:1015880061320A0824040020A803002038B51E4B45
:1015980000241C701D4B01251D701D4B02221C7060
:1015A8001C4B1D701C4B1A701C4B08221A7000F043
:1015B80063F81B4B18601B48FEF79CFE1A48FEF7A1
:1015C80099FE1A48FEF796FE1948FEF793FE194849
:1015D80000F00AFC184800F007FC2146284600F0F5
:1015E8009DF9032000F08AF901F002F8134D014635
:1015F800224628461123FEF747FE2846BDE8384014
:101608000F49104A01F068B81C040020D0030020DC
:1016180041040020A1030020A0030020A90300200A
:101628002004002028040020D40300208803002080
:10163800EC030020AC03002008040020BC030020B9
:10164800AF000A086C03002008B5024B1B681B6B2F
:10165800019308BDD001060808B5024B1B685B68FA
:10166800019308BD9C01060808B5024B1B685B691D
:10167800019308BD9C01060808B5024B1B681B684E
:10168800019308BDB001060808B5024B1B685B68EA
:10169800019308BDB001060808B5024B1B689B689A
:1016A800019308BDB001060808B5024B1B68DB684A
:1016B800019308BDB001060808B5024B1B681B69F9
:1016C800019308BDB001060808B5024B1B685B69A9
:1016D800019308BDB001060808B5024B1B689B6959
:1016E800019308BDB001060808B5024B1B68DB6909
:1016F800019308BDB001060808B5024B1B681B6CB6
:10170800019308BDAC01060808B5024B1B68DB6CE9
:10171800019308BDAC01060808B5024B1B685B6D58
:10172800019308BDAC01060808B5024B1B689B6D08
:10173800019308BDAC01060808B5024B1B68DB6DB8
:10174800019308BDAC01060808B5024B1B681B6E67
:10175800019308BDAC01060808B5024B1B685B6E17
:10176800019308BDAC01060808B5024B1B689B6EC7
:10177800019308BDAC01060808B5024B1B68DB6E77
:10178800019308BDAC01060808B5024B1B681B6F26
:10179800019308BDAC01060808B5024B1B685B6FD6
:1017A800019308BDAC01060808B5034B1B68D3F8C4
:1017B8008030019308BD0000AC01060808B5024B53
:1017C8001B681B69019308BDA801060808B5024BF0
:1017D8001B685B69019308BDA801060808B5024BA0
:1017E8001B689B69019308BDA801060808B5024B50
:1017F8001B68DB69019308BDB401060808B5024BF4
:101808001B681B6A019308BDB401060808B5024BA2
:101818001B689B69019308BDC401060808B5024B03
:101828001B685B6A019308BDC401060808B5024B32
:101838001B689B6A019308BDC401060808B5024BE2
:101848001B68DB6A019308BDC401060808B5024B92
:101858001B681B6B019308BDC401060808B5024B41
:101868001B685B6B019308BDC401060808B5024BF1
:101878001B689B6B019308BDC401060808B5024BA1
:101888001B681B6C019308BDC401060808B5024B10
:101898001B681B68019308BDD801060808B5024BF0
:1018A8001B685B68019308BDD801060808B5024BA0
:1018B8001B681B69019308BDD801060808B5024BCF
:1018C8001B685B69019308BDD801060808B5024B7F
:1018D8001B689B69019308BDD801060808B5024B2F
:1018E8001B68DB69019308BDD801060808B5024BDF
:1018F8001B681B6A019308BDD801060808B5024B8E
:101908001B685B68019308BDA401060808B5024B73
:101918001B685B69019308BDA401060808B5024B62
:101928001B68DB6A019308BDA401060808B5024BD1
:101938001B685B6E019308BDA401060808B5024B3D
:101948001B689B6E019308BDA401060808B5024BED
:101958001B681B69019308BDC801060808B5024B3E
:101968001B685B68019308BDA001060808B5024B17
:101978001B685B6A019308BDA00106080021FFF7F8
:10198800C5BF0000084B002208491A7001230B70DC
:1019980007490A70074A1370074B02221A70074B4F
:1019A80008221A70704700BF47040020480400202E
:1019B800450400204604002044040020430400207D
:1019C800084B002208491A7001230B7007490A7056
:1019D800074A1370074B02221A70074B08221A7025
:1019E800704700BF4D0400204E0400204B04002027
:1019F8004C0400204A04002049040020084B00221F
:101A080008491A7001230B7007490A70074A1370B6
:101A1800074B02221A70074B08221A70704700BF42
:101A280053040020540400205104002052040020D4
:101A3800500400204F040020084B002208491A7067
:101A480001230B7007490A70074A1370074B0222DB
:101A58001A70074B08221A70704700BF59040020FB
:101A68005A0400205704002058040020560400207F
:101A7800550400207047F8B5064615460C468F18E1
:101A8800BC4206D0336830469B6814F8011B98475F
:101A9800F6E72846F8BD007C0022FFF755BE007C1B
:101AA8000021FFF759BE007C0021FFF75DBE007CD6
:101AB8000021FFF761BE007C0021FFF765BE10B56D
:101AC8000446FEF7E6FA204610BD000010B50446AD
:101AD8004FF47A728260054A002343600260017401
:101AE80008461946FFF760FE204610BD70320A0806
:101AF800007C0022FFF700BE0021007C0A460B464E
:101B0800FFF702BE13B50024007C0094FFF704FE23
:101B1800C0B202B010BD0123FFF7F4BFC9B2D2B200
:101B28000123FFF7EFBF007C0022FFF7FDBD007C1B
:101B38000022FFF701BE0121FFF7F9BF007C002159
:101B4800FFF72ABE00470000F0B51C4685B00E46D8
:101B580015460746FFF7C8FD002294424FF00403DC
:101B680003928DF80C30B4BF13469DF828303846E0
:101B7800A4BF8DF80E3003AB0093054932462B46BF
:101B8800A8BF8DF80D40FFF7A7FD012005B0F0BDF7
:101B98004D1B0A08704710B50446FEF77AFA20462E
:101BA80010BDF8B50F4600F10806051D002416F80B
:101BB800011D38460A2200F0BAF8AE42044407D0A4
:101BC800002CF4D038462E2100F06CF80444EEE7DF
:101BD8002046F8BD10B59DF8084044EA032343EABF
:101BE800024242EA016104234160037510BD00000E
:101BF80037B50446044D05609DF818500095FFF769
:101C0800E9FF204603B030BD98320A08014A024B6A
:101C18001A60704760330A085C040020084B0022F1
:101C280008491A7001230B7007490A70074A137094
:101C3800074B02221A70074B08221A70704700BF20
:101C4800640400206504002062040020630400206E
:101C58006104002060040020F8B506460D468F1880
:101C68000024BD420CD0336830469B6815F8011B30
:101C78009847002801DB0444F3E7002C08BF04461A
:101C88002046F8BD70B505460C46084649B101F036
:101C980034FA2B68024621462846BDE87040DB68C6
:101CA800184770BD03689B68184738B50D2105466D
:101CB800FFF7F8FF0A2104462846FFF7F3FF204400
:101CC80038BD38B50546FFF7DDFF04462846FFF75F
:101CD800ECFF204438BD012A98BF0A2230B50B46D4
:101CE8008BB000218DF824100DF12304B3FBF2F51D
:101CF80005FB1233DBB2092B94BF30333733DBB229
:101D0800214604F801392B46002DEFD1FFF7BAFF21
:101D18000BB030BD10B52AB9BDE810400368C9B290
:101D28009B681847D2B2BDE81040FFF7D4BFFFF751
:101D3800F1BF0CB42DE9F04387B000AF07F13804C8
:101D480054F8049B05460E46381D14214A4623467E
:101D58003C60FFF70BFE1328014605D82846391DBD
:101D6800FFF790FF044613E000F1080323F0070390
:101D7800E846ADEB030D6846234601314A463C6010
:101D8800FFF7F4FD69462846FFF77CFF0446C54681
:101D98001EB12846FFF789FF044420461C37BD467C
:101DA800BDE8F04302B070470246008803B2013331
:101DB8000AD053889288994203D391420B4628BF90
:101DC80013461946FFF70ABD70474FF6FF73B42252
:101DD80002814FF408720380428000234FF4166298
:101DE800C3808280C360704710B50446FFF7EDFFDB
:101DF800204610BD10B50446008803B2013306D052
:101E0800FFF7E4FC2046FFF7E0FF012010BD0020AB
:101E180010BD2DE9F04104460D46084602219046C2
:101E28001F46FFF731FC022801D0002619E028469A
:101E380000F040FB06460028F7D0B4F90030013323
:101E480002D02046FFF7D6FFBDF918302580E38081
:101E5800BDF91C30A4F80280A78023812846FFF72B
:101E6800ADFC3046BDE8F081084B002208491A70E5
:101E780001230B7007490A70074A1370074B0222A7
:101E88001A70074B08221A70704700BF6A040020B6
:101E98006B04002068040020690400206704002007
:101EA80066040020704710B50446FEF7F2F8204695
:101EB80010BD000070B504460E46074B00250360B0
:101EC80040F80C5FFFF7C0FB30462671FFF78EFC29
:101ED800A560204670BD00BF98330A080079FFF757
:101EE8008DBC0000084B002208491A7001230B70B2
:101EF80007490A70074A1370074B02221A70074BEA
:101F080008221A70704700BF700400207104002076
:101F18006E0400206F0400206D0400206C04002073
:101F2800084B002208491A7001230B7007490A70F0
:101F3800074A1370074B02221A70074B08221A70BF
:101F4800704700BF76040020770400207404002046
:101F5800750400207304002072040020084B002040
:101F6800084A187001231370074A1070074A137043
:101F7800074B02221A70074B08221A70FFF7BEBCE3
:101F88007C0400207D0400207A0400207B040020CB
:101F98007904002078040020084B002208491A70B0
:101FA80001230B7007490A70074A1370074B022276
:101FB8001A70074B08221A70704700BF820400206D
:101FC8008304002080040020810400207F04002076
:101FD8007E0400200A4B00220A491A7001230B7064
:101FE80009490A70094A1370094B02221A70094BF1
:101FF80008221A70084B1A68084B1A60704700BF0D
:102008008D0400208F0400208C040020840400200C
:10201800850400208E040020680300208804002026
:10202800084B002208491A7001230B7007490A70EF
:10203800074A1370074B02221A70074B08221A70BE
:10204800704700BF940400209504002092040020EB
:10205800930400209104002090040020084B0022E3
:1020680008491A7001230B7007490A70074A137050
:10207800074B02221A70074B08221A70704700BFDC
:102088009A0400209B040020980400209904002052
:102098009704002096040020704741747047007C24
:1020A800FFF7ECBB007CFFF7C1BB007CFFF7CEBBA2
:1020B800007CFFF7C3BB007CFFF7D0BB10B504461C
:1020C800FDF7E7FF204610BD70B5457C04460E4677
:1020D80025B9007CFFF7D2FB002805DD207C3146BE
:1020E800BDE87040FFF79ABB284670BD10B504469E
:1020F800002060604FF47A70A06006482174206068
:1021080001206074084611461A46FFF77FFB2046F7
:1021180010BD00BFD8330A08007CFFF7A7BB00003A
:1021280038B50C4D296811F0010411D12846FDF786
:10213800B2FF68B12146084A084B0948FFF7D6FFA5
:102148002846FDF7ADFF06480649074A00F0C4FADD
:10215800034838BD3405002038050020B0040020AD
:102168009C040020A1200A086C030020084B0022D0
:1021780008491A7001230B7007490A70074A13703F
:10218800074B02221A70074B08221A70704700BFCB
:10219800C0050020C1050020BE050020BF050020A5
:1021A800BD050020BC050020084B002208491A7014
:1021B80001230B7007490A70074A1370074B022264
:1021C8001A70074B08221A70704700BFC605002016
:1021D800C7050020C3050020C5050020C205002052
:1021E800C4050020417470477047007C0021FFF748
:1021F8006DBB007C0121FFF769BB007CFFF75EBB6C
:10220800007CFFF753BB38B50446007C0D46FFF74A
:1022180055FB002801DC607C20B1207C2946FFF7B3
:102228005DFB012038BD007CFFF760BB10B504469C
:10223800FDF72FFF204610BD10B50446002343606C
:102248004FF47A738360054B017403600123437470
:1022580008461146FFF71AFB204610BD08340A0845
:10226800007C0022FFF71ABB10B504460021142297
:1022780000F03BFF054B20466360054BE36040F2EE
:10228800011323818123238210BD00BF4D06002046
:10229800CC05002030B50E4D87B001A8FFF7E4FF4C
:1022A800296811F0010410D12846FDF7F4FE60B149
:1022B800214601AA0748FFF7BFFF2846FDF7F0FEB1
:1022C80004480549054A00F007FA024807B030BD3E
:1022D800C805002050070020F1210A086C030020DF
:1022E80010B504460021142200F0FFFE054B2046DD
:1022F8006360054BE36040F201132381812323824D
:1023080010BD00BF000800206807002010B50E4C63
:1023180086B001A8FFF7E4FF2368DB0710D4204646
:10232800FDF7B9FE60B1012101AA0848FFF784FF53
:102338002046FDF7B5FE05480549064A00F0CCF9E8
:10234800024806B010BD00BF64070020EC0700205B
:10235800F1210A086C03002070470020014602465C
:10236800FFF7F4BA0348044B0449054A036000F038
:10237800B3B900BF0409002038340A0861230A08E9
:102388006C03002008B5144B33B1FFF783FF0368D3
:102398001B699847002816DC104B33B1FFF7C0FEC5
:1023A80003681B699847002810DC0D4B0BB1AFF38D
:1023B80000800C4B7BB1FFF7A9FF03681B699847A6
:1023C800002806DC08BDAFF30080E5E7AFF3008026
:1023D800EBE7AFF3008008BD00000000000000003C
:1023E800000000000000000008B5FFF7CBFFFFF772
:1023F8003BF9014B186008BD140900200248034A44
:102408000349121A00F066BE004002400440024030
:10241800B0340A080020704737B5436804460A2BD1
:102428000FD0502B1DD1104B1D68D5B1037D4FF433
:10243800007100938068E26804F11003A84748B966
:102448000FE080684FF40071E26804F11003FFF7B1
:10245800E1FF38B1002120460A46FFF76FFA012054
:1024680000E0002003B030BD0809002038B50C4C4E
:102478000C4D23685A1B534253410B4A137013B92E
:10248800FFF7BCFF2560094B1BB1FFF7E5F8AFF379
:102498000080BDE8384006480021FFF747BA00BF72
:1024A800004002401E1C279A0C0900200000000072
:1024B80021240A0810B504460F48FFF70FFD28B17C
:1024C800A4F10D03022B01D8002010BD00F090F8F4
:1024D800FFF734FB08B1012CF6D9FFF721FEFFF70F
:1024E8001BFE18B1A4F11203012BEDD9172C8CBFD8
:1024F8000020012010BD00BF58090020172838B55A
:1025080005460C460AD8FF2908D0FFF7D3FF28B1A3
:1025180028462146BDE83840FFF7BEB838BD38B573
:1025280004460D46FFF7C0F8FF2810D078B1831E87
:10253800DBB2012B0BD9062809D02046FFF7BAFFDA
:1025480028B120462946BDE83840FFF7B5B838BD60
:1025580010B50446FFF7A8F80438C0B2012808D916
:102568002046FFF7A7FF20B12046BDE81040FFF73F
:10257800ABB8002010BD0000084B002208491A70B3
:1025880001230B7007490A70074A1370074B022290
:102598001A70074B08221A70704700BF11090020F3
:1025A800120900200F090020100900200E09002040
:1025B8000D090020084B002208491A7001230B70EE
:1025C80007490A70074A1370074B02221A70074B13
:1025D80008221A70704700BF1C0900201D0900203E
:1025E8001A0900201B0900201909002018090020D9
:1025F80038B50B4D296811F001040FD12846FDF7B5
:102608004AFD58B121460748FFF760FA2846FDF70A
:1026180047FD04480449054A00F05EF8014838BD02
:1026280020090020240900207D1A0A086C030020D4
:1026380013B5084C002100910A460B462046FFF7C7
:10264800D7FA20460449054A02B0BDE8104000F018
:1026580043B800BF380900209D1B0A086C030020FE
:10266800F8B5134B00211970124B01241C70124B42
:10267800124F1970124B02221C70124B124E1A7014
:10268800124B0822124D38461A70FFF713FC3846D1
:10269800104F2A46314600F01FF821463846FFF70A
:1026A80009FC384631462A46BDE8F84000F014B81F
:1026B800540900205509002052090020580900201B
:1026C8005309002051090020AD1E0A0850090020B6
:1026D8006C0300206809002003460846194600F0EC
:1026E800EBBC0000244B1A68D0075CBF01221A60BB
:1026F800224B1A68D1075CBF01221A60204B1A6866
:10270800D2075CBF01221A601E4B1A68D0075CBF53
:1027180001221A601C4B1A68D1075CBF01221A609B
:102728001A4B1A68D2075CBF01221A60184B1A6844
:10273800D0075CBF01221A60164B1A68D1075CBF2C
:1027480001221A60144B1A68D2075CBF01221A6072
:10275800124B1A68D0075CBF01221A60104B1A6826
:10276800D1075CBF01221A600E4B1A68D2075CBF02
:1027780001221A60704700BFA4090020A0090020A8
:102788009C09002098090020940900209009002045
:102798008C09002088090020840900208009002075
:1027A8007C09002078090020244B1A68D0075CBFF8
:1027B80001221A60224B1A68D1075CBF01221A60F5
:1027C800204B1A68D2075CBF01221A601E4B1A6898
:1027D800D0075CBF01221A601C4B1A68D1075CBF86
:1027E80001221A601A4B1A68D2075CBF01221A60CC
:1027F800184B1A68D0075CBF01221A60164B1A687A
:10280800D1075CBF01221A60144B1A68D2075CBF5B
:1028180001221A60124B1A68D0075CBF01221A60A5
:10282800104B1A68D1075CBF01221A600E4B1A6858
:10283800D2075CBF01221A60704700BFD40900208C
:10284800D0090020CC090020C8090020C4090020B4
:10285800C0090020BC090020B8090020B4090020E4
:10286800B0090020AC090020A809002081F000412F
:1028780002E000BF83F0004330B54FEA41044FEA5D
:10288800430594EA050F08BF90EA020F1FBF54EAF8
:10289800000C55EA020C7FEA645C7FEA655C00F094
:1028A800E2804FEA5454D4EB5555B8BF6D420CDD65
:1028B8002C4480EA020281EA030382EA000083EAE8
:1028C800010180EA020281EA0303362D88BF30BD88
:1028D80011F0004F4FEA01314FF4801C4CEA1131DE
:1028E80002D0404261EB410113F0004F4FEA03333D
:1028F8004CEA133302D0524263EB430394EA050FC8
:1029080000F0A780A4F10104D5F1200E0DDB02FA36
:102918000EFC22FA05F2801841F1000103FA0EF2CA
:10292800801843FA05F359410EE0A5F120050EF190
:10293800200E012A03FA0EFC28BF4CF0020C43FAC1
:1029480005F3C01851EBE37101F0004507D54FF0CE
:10295800000EDCF1000C7EEB00006EEB0101B1F51E
:10296800801F1BD3B1F5001F0CD349085FEA300064
:102978004FEA3C0C04F101044FEA445212F5800F6F
:1029880080F09A80BCF1004F08BF5FEA500C50F10C
:10299800000041EB045141EA050130BD5FEA4C0CEF
:1029A800404141EB010111F4801FA4F10104E9D178
:1029B80091F0000F04BF01460020B1FA81F308BF6F
:1029C8002033A3F10B03B3F120020CDA0C3208DD3B
:1029D80002F1140CC2F10C0201FA0CF021FA02F116
:1029E8000CE002F11402D8BFC2F1200C01FA02F186
:1029F80020FA0CFCDCBF41EA0C019040E41AA2BFAB
:102A080001EB0451294330BD6FEA04041F3C1CDA72
:102A18000C340EDC04F11404C4F1200220FA04F092
:102A280001FA02F340EA030021FA04F345EA03013C
:102A380030BDC4F10C04C4F1200220FA02F001FAFE
:102A480004F340EA0300294630BD21FA04F0294680
:102A580030BD94F0000F83F4801306BF81F4801119
:102A68000134013D4EE77FEA645C18BF7FEA655C8C
:102A780029D094EA050F08BF90EA020F05D054EA5E
:102A8800000C04BF1946104630BD91EA030F1EBF63
:102A98000021002030BD5FEA545C05D14000494167
:102AA80028BF41F0004130BD14F580043CBF01F55A
:102AB800801130BD01F0004545F0FE4141F4700140
:102AC8004FF0000030BD7FEA645C1ABF194610461B
:102AD8007FEA655C1CBF0B46024650EA013406BF1C
:102AE80052EA033591EA030F41F4002130BD00BFDB
:102AF80090F0000F04BF0021704730B54FF4806498
:102B080004F132044FF000054FF0000150E700BF18
:102B180090F0000F04BF0021704730B54FF4806477
:102B280004F1320410F0004548BF40424FF0000164
:102B38003EE700BF42004FEAE2014FEA31014FEAA7
:102B480002701FBF12F07F4393F07F4F81F06051F6
:102B5800704792F0000F14BF93F07F4F704730B565
:102B68004FF4607401F0004521F0004120E700BFF8
:102B780050EA010208BF704730B54FF000050AE07F
:102B880050EA010208BF704730B511F0004502D580
:102B9800404261EB41014FF4806404F132045FEA82
:102BA800915C3FF4DCAE4FF003025FEADC0C18BF27
:102BB80003325FEADC0C18BF033202EBDC02C2F11D
:102BC800200300FA03FC20FA02F001FA03FE40EAAF
:102BD8000E0021FA02F11444C1E600BF4FF0FF3C99
:102BE80006E000BF4FF0010C02E000BF4FF0010CFF
:102BF8004DF804CD4FEA410C7FEA6C5C4FEA430C78
:102C080018BF7FEA6C5C1BD001B050EA410C0CBFC6
:102C180052EA430C91EA030F02BF90EA020F002028
:102C2800704710F1000F91EA030F58BF994208BF8F
:102C380090422CBFD8176FEAE37040F0010070474C
:102C48004FEA410C7FEA6C5C02D150EA013C07D1A3
:102C58004FEA430C7FEA6C5CD6D152EA033CD3D0EE
:102C68005DF8040B704700BF8446104662468C46E8
:102C78001946634600E000BF01B5FFF7B7FF00281B
:102C880048BF10F1000F01BD4DF808EDFFF7F4FF44
:102C98000CBF012000205DF808FB00BF4DF808EDCF
:102CA800FFF7EAFF34BF012000205DF808FB00BFF2
:102CB8004DF808EDFFF7E0FF94BF012000205DF814
:102CC80008FB00BF4DF808EDFFF7CEFF94BF0120C9
:102CD80000205DF808FB00BF4DF808EDFFF7C4FFC2
:102CE80034BF012000205DF808FB00BF4FF0FF0C47
:102CF8001CEAD0521EBF1CEAD15392EA0C0F93EA89
:102D08000C0F6FD01A4480EA010C400218BF5FEA2A
:102D180041211ED04FF0006343EA501043EA51119D
:102D2800A0FB01310CF00040B1F5000F3EBF490097
:102D380041EAD3715B0040EA010062F17F02FD2A9B
:102D48001DD8B3F1004F40EBC25008BF20F001007E
:102D5800704790F0000F0CF0004C08BF49024CEA95
:102D6800502040EA51207F3AC2BFD2F1FF0340EA27
:102D7800C250704740F400004FF00003013A5DDC98
:102D880012F1190FDCBF00F000407047C2F10002D9
:102D9800410021FA02F1C2F1200200FA02FC5FEAC6
:102DA800310040F1000053EA4C0308BF20EADC7010
:102DB800704792F0000F00F0004C02BF400010F482
:102DC800000F013AF9D040EA0C0093F0000F01F02F
:102DD800004C02BF490011F4000F013BF9D041EA51
:102DE8000C018FE70CEAD15392EA0C0F18BF93EA53
:102DF8000C0F0AD030F0004C18BF31F0004CD8D17D
:102E080080EA010000F00040704790F0000F17BF03
:102E180090F0004F084691F0000F91F0004F14D049
:102E280092EA0C0F01D142020FD193EA0C0F03D1A1
:102E38004B0218BF084608D180EA010000F00040A4
:102E480040F0FE4040F40000704740F0FE4040F47F
:102E5800400070474FF0FF0C1CEAD0521EBF1CEA1E
:102E6800D15392EA0C0F93EA0C0F69D0A2EB03023C
:102E780080EA010C49024FEA402037D04FF08053D6
:102E880043EA111143EA10130CF000408B4238BF9B
:102E98005B0042F17D024FF4000C8B4224BF5B1AA9
:102EA80040EA0C00B3EB510F24BFA3EB510340EAF7
:102EB8005C00B3EB910F24BFA3EB910340EA9C00A5
:102EC800B3EBD10F24BFA3EBD10340EADC001B0115
:102ED80018BF5FEA1C1CE0D1FD2A3FF650AF8B42B9
:102EE80040EBC25008BF20F0010070470CF0004CC6
:102EF8004CEA50207F32C2BFD2F1FF0340EAC250F1
:102F0800704740F400004FF00003013A37E792F0B1
:102F1800000F00F0004C02BF400010F4000F013A0F
:102F2800F9D040EA0C0093F0000F01F0004C02BF0A
:102F3800490011F4000F013BF9D041EA0C0195E773
:102F48000CEAD15392EA0C0F08D142027FF47DAF0C
:102F580093EA0C0F7FF470AF084676E793EA0C0FFC
:102F680004D14B023FF44CAF08466EE730F0004CFA
:102F780018BF31F0004CCAD130F000427FF45CAF8A
:102F880031F000437FF43CAF5FE700BF4FF0FF3CF8
:102F980006E000BF4FF0010C02E000BF4FF0010C4B
:102FA8004DF804CD4FEA40024FEA41037FEA226C14
:102FB80018BF7FEA236C11D001B052EA530C18BF36
:102FC80090EA010F58BFB2EB030088BFC81738BF9B
:102FD8006FEAE17018BF40F0010070477FEA226C89
:102FE80002D15FEA402C05D17FEA236CE4D15FEA85
:102FF800412CE1D05DF8040B704700BF84460846B9
:103008006146FFE70FB5FFF7C9FF002848BF10F179
:10301800000F0FBD4DF808EDFFF7F4FF0CBF0120BE
:1030280000205DF808FB00BF4DF808EDFFF7EAFF48
:1030380034BF012000205DF808FB00BF4DF808ED03
:10304800FFF7E0FF94BF012000205DF808FB00BFF8
:103058004DF808EDFFF7D2FF94BF012000205DF87E
:1030680008FB00BF4DF808EDFFF7C8FF34BF01208B
:1030780000205DF808FB00BF42000ED2B2F1FE4FFF
:103088000BD34FF09E03B3EB126209D44FEA00232F
:1030980043F0004323FA02F070474FF000007047F6
:1030A80012F1610F01D1420202D14FF0FF30704797
:1030B8004FF00000704700BF38B5054604480C467D
:1030C800134620B1022029462246AFF3008038BDBE
:1030D8000000000010B5431E0A44914204D011F8C4
:1030E800014B03F8014FF8E710BD03460244934231
:1030F80002D003F8011BFAE77047034613F8012BC7
:10310800002AFBD1181A0138704700001D000A0870
:103118005D000A0889000A088D000A0800000000FE
:103128000000000000000000AF000A08B1000A0813
:1031380005010A08BD000A08646576696365206EA2
:103148006F7420666F756E64007265736574746958
:103158006E67206C6173744D6F76656D656E742053
:10316800696E74315F7372633D30782578007265DB
:1031780063616C6962726174696E67007365747506
:1031880070537563636573733D25640072656D6F75
:103198007465207374617475733A00207C20007321
:1031A800656E736F7220303A0073656E736F7220AC
:1031B800313A0073656E736F7220323A0073656E30
:1031C800736F7220333A0066726F6E74206C656696
:1031D800743A0066726F6E742072696768743A0098
:1031E8006261636B206C6566743A006261636B2090
:1031F80072696768743A0025642C25642C2564007C
:103208006E6F2073616D706C65002053454E534F8F
:10321800522054494D454F55540057616974696EA1
:103228006720666F72205374617274005374617200
:1032380074696E6720696E2035207365636F6E64EC
:10324800732E2E2E00474F21004465616C696E670E
:103258002077697468206974004D6F76696E67001D
:1032680000000000000000007D1A0A08C71A0A08BA
:103278009F1A0A087F1A0A08A71A0A08AF1A0A0822
:10328800B71A0A08BF1A0A08000000000000000068
:10329800AB1B0A089D1B0A089F1B0A0800000000B8
:1032A80066006C6E00666E00636F6465006465742A
:1032B80061696C000D0A00253031307520005D20F1
:1032C800002C200028293A2000205B00636F6465E9
:1032D800203D200025690064657461696C73203D98
:1032E8002000626175640053657269616C00555312
:1032F8004253657269616C31007479706500706160
:1033080072616D00636D6400696400686E640073C7
:1033180074726D0066696C74006C766C006164642C
:1033280048616E646C65720072656D6F76654861A0
:103338006E646C657200656E756D48616E646C656F
:103348007273004A534F4E53747265616D4C6F67C8
:1033580048616E646C657200617070006E6F6E65B6
:1033680000747261636500696E666F007761726EE2
:10337800006572726F720070616E696300616C6CD7
:103388000000000000000000000000000000000035
:10339800AD1E0A08AF1E0A085A00252B3033643ABE
:1033A800253032750025592D256D2D256454254865
:1033B8003A254D3A2553257A0061736374696D6522
:1033C80000000000000000000000000000000000F5
:1033D800A1200A08C5200A08D1200A08611C0A0889
:1033E800AD200A08B9200A08B3200A08BF200A0835
:1033F800A3200A08A7200A08000000000000000017
:10340800F1210A0835220A080F220A08611C0A0855
:1034180009220A08F3210A08FB210A082F220A08B0
:1034280003220A08ED210A0800000000000000003D
:1034380063230A0800000000A5020A08610E0A08B2
:1034480095150A088D190A08C9190A08051A0A08DB
:10345800411A0A08151C0A08251C0A08711E0A08C0
:10346800ED1E0A08291F0A08651F0A08A11F0A0875
:10347800DD1F0A0829200A0865200A0875210A089C
:10348800B1210A086D230A0881250A08BD250A0802
:1034980039260A0869260A08ED260A08B1270A0803
:0834A80000000000000000001C
:0434B0000000000018
:1034B400040000002C0100001101000001000000C4
:1034C400F40100000E0000002C01000007000000C1
:1034D4004B00000032000000D0070000840300000D
:1034E400BD060000580200000100000005000000B5
:1034F40006000000EE0200000300000001000000CE
:103504002D0000002D00000002000000BC0200009D
:0C35140001000000BC020000C1330A08E6
:10352000FFFFFFFF00000102030405060708090A68
:103530000B0C0D0E0F101112131415161718191A63
:083540001B1C1D1E1F202800AA
:04354800785634126B
:04000005080A0018CD
:00000001FF
