:02000004080AE8
:1000000000000A0848300A08000004000600050144
:0800100004026C000000000076
:10001800342D0A0809480A4908B5884205D0094A12
:10002800824202D0121A02F065FE0748074A0021F0
:10003800121A02F06AFE064808BD00BF000300203D
:10004800F42F0A082C0300202C0300204809002064
:100058004809002070B501F0E7FD074B074C1E4624
:10006800E41AA4080025A54204D056F8253098477C
:100078000135F8E770BD00BFBC2F0A08F02F0A0849
:1000880000F0C6BA08B500F0E5FABDE8084001F08E
:1000980089BD01F009BC0078B0FA80F040097047CA
:1000A80001230370704703681847012A02D0022A07
:1000B80002D004E0016002E00B6800B10360002098
:1000C8007047000008B5054B188802F023F8044B68
:1000D800003018BF0120187008BD00BF04030020BD
:1000E8001403002008B5054B188802F013F8044BD8
:1000F800003018BF0120187008BD00BF0803002099
:100108001C03002008B5054B188802F003F8044BBF
:10011800003018BF0120187008BD00BF0C03002074
:100128001503002008B5054B188801F0F3FF044BB0
:10013800003018BF0120187008BD00BF1003002050
:100148002403002008B5054B188801F0E3FF044B91
:10015800003018BF0120187008BD00BF0003002040
:10016800D403002007B5002302A941F8043D01F09B
:1001780061FA20B9019810B103689B68984703B0E9
:100188005DF804FB10B5012303714369044613B1FC
:1001980083690C3098470023237110BD10B5054CB6
:1001A8000548214601F036F9B4F90020034B1A60DE
:1001B80010BD00BF300300204C030020D0030020F6
:1001C80010B58368044613B10322014698472046B8
:1001D80010BD07B58068002338B18DE80A000221F8
:1001E80001F030FAB0FA80F0400903B05DF804FB82
:1001F80038B50E4B0446036083688BB100226FF05C
:100208000041FFF7E6FF237903F0FF051BB101204A
:1002180001F092FCF7E72946A06801F003FAA5600F
:1002280004F10C00FFF7CCFF204638BD502D0A081A
:1002380010B50446FFF7DCFF2046FFF72AFF2046EB
:1002480010BD00002DE9F04101210A2001F038FF1E
:1002580001210B2001F034FF01210C2001F030FFB7
:1002680001210D2001F02CFF00210A2001F039FFA7
:1002780000210B2001F035FF00210C2001F031FF97
:1002880000210D2001F02DFF4FF4FA7001F054FC0D
:1002980001F08EFF404901F0AFFE01F089FF01F047
:1002A800AFFE0A2001F048FC01210A2001F019FFE5
:1002B80001210B2001F015FF01210C2001F011FF95
:1002C80001210D2001F00DFF0A2001F035FC00216D
:1002D8000B2001F006FF314F00210C2001F001FF37
:1002E80000210D2001F0FDFE0121384600F090FDAF
:1002F8004FF47A783021384600F041FA284EC7F892
:1003080004800A2001F018FC01210B2001F0E9FE0D
:100318000121304600F07CFD3121304600F02FFAF3
:10032800204D0A20C6F8048001F006FC01210C20AB
:1003380001F0D7FE0121284600F06AFD3221284647
:1003480000F01DFA184C0A20C5F8048001F0F4FBEF
:1003580001210D2001F0C5FE0121204600F058FDC5
:100368003321204600F00BFA0A20C4F8048001F07B
:10037800E3FB38460A2100F01EFB30460A2100F054
:100388001AFB28460A2100F016FB2046BDE8F0417A
:100398000A2100F010BB00BFA08601006003002006
:1003A8007803002090030020A80300201FB501A8AF
:1003B80001F003F8502101A801F00CF801A9064842
:1003C80001F060F8044601F0E5FC2346034A0121E8
:1003D80001F066FB04B010BD4C0300205C2D0A0838
:1003E80008B5154B0021188801F06AFE134B00214F
:1003F800188801F065FE124B0021188801F060FE94
:10040800104B0021188801F05BFE0F4B0021188863
:1004180001F056FE0D4B0121188801F051FE0C4BDE
:100428000121188801F04CFE01F0B4FCBDE8084039
:100438004FF4165101F094BC040300200803002077
:100448000C030020100300200003002020030020DC
:100458001803002030B5364B91B000241888224686
:100468004FF0FF333349009401F0F8FC324B224639
:10047800188832494FF0FF33009401F0EFFC304BFD
:10048800224618882F494FF0FF33009401F0E6FC0C
:100498002D4B224618882D494FF0FF33009401F068
:1004A800DDFC2B4B224618882A494FF0FF33009475
:1004B80001F0D4FC284B03AA059305AD95E8030089
:1004C800264B82E8030009930CAB93E8030085E808
:1004D800030092E8030083E80300214B214A0E93AE
:1004E8000F9B64210893204B01940F93009409AB50
:1004F8000BA88DF828400B94079401F08BF8284638
:10050800FFF75EFE2246214609A8FFF762FE0B9818
:1005180040B16FF0004300930194234622462146E0
:1005280001F090F809A8FFF763FE11B030BD00BFD5
:1005380004030020CD000A0808030020ED000A0883
:100548000C0300200D010A08100300202D010A08E1
:10055800000300204D010A08A5010A08502D0A08C9
:10056800B3000A086D010A08AF000A08F7B5134B73
:10057800134D0026B42719884FF408728DE8C0007F
:100588004FF41663284601F0F2F90E4C0E4B4FF467
:100598000872198820464FF416638DE8C00001F0F0
:1005A800E6F9284640F2DC5101F0ADF940F2DC51A1
:1005B800204603B0BDE8F04001F0A5B920030020B3
:1005C8003C030020C00300201803002010B50C4C89
:1005D80023782BB901F0DEFB0A4901F02BFAF7E783
:1005E80001F0D8FB084901F025FA41F2883001F002
:1005F800A3FA01F0CFFBBDE81040044901F01ABA94
:10060800D40300206C2D0A087E2D0A08972D0A08AD
:1006180008B5FFF717FEFFF7C9FEFFF7E1FEFFF782
:1006280019FFFFF7A3FFBDE80840FFF7CFBF0000A1
:1006380008B540F2DC51054801F065F9BDE808400D
:1006480040F2DC51024801F05EB900BF3C030020D3
:10065800C003002008B50D4B1B7813B9FFF7E8FF5E
:10066800FEE70B4800F0E2F90A4B18600A4800F070
:10067800DDF90A4B18600A4800F0D8F9094B1860F0
:10068800094800F0D3F9094B186008BDD4030020CD
:1006980060030020E003002078030020D803002036
:1006A80090030020DC030020A8030020380300206A
:1006B80010B500F04FFF144800F040F8134800F060
:1006C8003DF8134800F03AF8124800F037F812489D
:1006D80001F039F9114801F036F90021012001F043
:1006E800C3F8032001F0B0F801F062FD0C4C01469C
:1006F80000222046112300F021FF2046BDE81040CB
:10070800084A094901F074BD6003002078030020FD
:1007180090030020A80300203C030020C003002011
:100728004C0300202C03002009130A080368C9B2EF
:100738009B6818470368C9B29B681847292242700A
:10074800002242600272704770B5044615460E4694
:1007580001F02EFD617801F06AFC01F029FD0368C3
:1007680031469B68984701F023FD036829469B683A
:10077800984701F01DFD01F062FC207070BD38B58E
:1007880005460C4601F07F028A21FFF7DDFF6C70F9
:1007980038BD70B5044615460E4601F009FD61786E
:1007A80001F045FC01F004FD036831469B68984759
:1007B80001F0FEFC290AFFF7BDFF01F0F9FCE9B2E0
:1007C800FFF7B8FF01F0F4FC01F039FC207070BDB0
:1007D80070B5054614460E4601F0EAFC697801F04A
:1007E80026FC01F0E5FC036831469B68984701F058
:1007F800DFFC210EFFF79AFF01F0DAFCC4F3074192
:10080800FFF794FF01F0D4FCC4F30721FFF78EFF34
:1008180001F0CEFCE1B2FFF789FF01F0C9FC01F05D
:100828000EFC287070BD38B504460D4601F0C0FCBA
:10083800617801F0FCFB01F0BBFC036829469B686A
:10084800984701F0B5FC01F0FAFB207001F0B0FC0C
:100858000122617801F0E3FB01F0AAFC03685B69FF
:100868009847C0B238BD38B504460D4601F0A0FC23
:10087800617801F0DCFB01F09BFC036829469B686A
:10088800984701F095FC01F0DAFB207001F090FC2C
:100898006178022201F0C3FB01F08AFC03685B69FE
:1008A8009847044601F084FC03685B69984740EA6E
:1008B800042080B238BDF8B5064614461D460F46DA
:1008C80001F076FC717801F0B2FB01F071FC03686D
:1008D80039469B6898472544AC4207D001F068FC2C
:1008E800036814F8011B9B689847F5E701F060FC62
:1008F80001F0A5FB3070F8BDF8B5064614461D4654
:100908000F4601F055FC717801F091FB01F050FCA5
:10091800036839469B68984701F04AFC01F08FFB51
:10092800307001F045FC2A46717801F078FB2544C7
:10093800AC4207D001F03CFC03685B69984704F8B7
:10094800010BF5E7F8BD000070B50D46064600211D
:10095800284602F079F9B0B9284601F0FBFE0CA34D
:10096800D3E9002301F0C8FF68B94FF08641284653
:1009780001F0CCFF02F090F9442182B23046FFF733
:1009880008FF012070BD002070BD00BFAFF30080DC
:10099800A4703D0AD7FF7F4008B509B9502102E08D
:1009A800012906D17021FFF73EFF01304000C0B297
:1009B80008BDFF2008BD38B504460D460122802138
:1009C800FFF7C2FE0122FF212046FFF7BDFE0022ED
:1009D80011462046FFF7B8FE227C91212046FFF7FA
:1009E800B3FE012200212046FFF7AEFE0022FF21C0
:1009F8002046FFF7A9FE002280212046FFF7A4FE2B
:100A08006DB1F8212046FFF72EFF00B145432A4675
:100A180004212046FFF7DCFE0422002101E02946DC
:100A280002222046BDE83840FFF78EBE38B504469E
:100A380000F0E8FDE06013212046FFF7F4FE4307CD
:100A48000ED16368002BF6D000F0DCFDE368C01A15
:100A580063689842EFD9012323724FF6FF7038BDBF
:100A68001E212046FFF7FFFE0546012220460B21E6
:100A7800FFF76AFE284638BDF8B504460F46164605
:100A880080210122FFF760FE0122FF212046FFF7A7
:100A98005BFE002211462046FFF756FE0622FF2184
:100AA8002046FFF751FE83212046FFF7BCFE40F0A9
:100AB8000402D2B283212046FFF746FE0722FF2117
:100AC8002046FFF741FE012281212046FFF73CFE28
:100AD800012280212046FFF737FE6B229421204611
:100AE800FFF732FE002283212046FFF72DFE00F09B
:100AF80089FDE06083212046FFF795FE054658B939
:100B08006368002BF6D000F07DFDE368C01A6368C7
:100B18009842EFD92846F8BD012220468321FFF7E5
:100B280013FE92212046FFF77EFE00F07F03C0F3FC
:100B3800C0103B700022307081212046FFF704FE70
:100B480006222046FF21FFF7FFFD83212046FFF7FD
:100B58006AFE832102462046FFF7F6FD2046012261
:100B6800FF21FFF7F1FD204601220021FFF7ECFDF0
:100B780020460022FF21FFF7E7FD204600228021C2
:100B8800FFF7E2FD0120F8BD10B50C460121FFF783
:100B98004AFEC0F300132370C0F3C003A370C0F370
:100BA80080036370C0F38013C0F3C010E37020713A
:100BB80010BD4FF6FF73984228BF1846C3B2000A0B
:100BC80003FA00F0013080B27047B0F5803F01D2DF
:100BD80078B101E04FF6FF700138002330F0FF01D3
:100BE8009AB203F1010301D04008F7E740EA022076
:100BF80080B27047084B4FF47A72594310B501F52B
:100C0800FA714FF4FA64B1FBF2F3B1FBF4F100FBB3
:100C18000310B0FBF2F010BD002F3A0070B50E467D
:100C2800002114460546FFF7B7FE462120802846D6
:100C3800FFF7F9FD013080B22178A080FFF7DAFFD5
:100C48005121E0602846FFF70EFEFFF7B2FF21783A
:100C5800E080FFF7CFFF702120612846FFF7E3FD12
:100C680001304000C0B2608071212846FFF7FBFDCB
:100C7800FFF79FFF2081F37813B1E388C01A208122
:100C8800A1782089FFF7B6FF606170BD10B50446F2
:100C980088B06946FFF778FF02AA69462046FFF741
:100CA800BDFF9DF800301BB1059800F6845001E0A7
:100CB80040F636309DF802302BB1059B03F2B22383
:100CC80000EB430006E09DF801301BB1059B03F5DE
:100CD800257318449DF803301BB1069B03F5257353
:100CE80018449DF804301BB1079B03F226231844CF
:100CF800606108B010BD0000084B4FF47A72594388
:100D08004FF4FA6301F5FA71B1FBF3F3B1FBF2F1B9
:100D180002FB0030B0FBF1F0704700BF002F3A0033
:100D280044F61F63F0B5994289B006460D4642D98C
:100D38006946FFF729FF02AA69463046FFF76EFFAA
:100D48009DF800301BB1059800F6363001E040F6FA
:100D5800E8009DF802302BB1059B03F2B22300EBAB
:100D6800430006E09DF801301BB1059B03F5257390
:100D780018449DF803701FB1069B03F525731844AA
:100D88009DF80440ACB100F22620854213D39DF8AB
:100D98000A10281AFFF7B0FF17B1BDF80E30184433
:100DA800FFF713FF712102463046FFF7F2FC756129
:100DB80002E0012400E00024204609B0F0BD38B567
:100DC80041F0010200210446FFF7BEFC00F01AFCC6
:100DD800E06013212046FFF726FD10F007050BD130
:100DE8006368002BF5D000F00DFCE368C01A636857
:100DF8009842EED9284638BD204601220B21FFF73C
:100E0800A3FC002220461146FFF79EFC012038BDB6
:100E1800F0B5044685B049B18921FFF704FD40F0DB
:100E28000102D2B289212046FFF78EFC00228821D8
:100E38002046FFF789FC012280212046FFF784FC29
:100E48000122FF212046FFF77FFC002211462046A1
:100E5800FFF77AFC91212046FFF7E5FC0122207478
:100E680000212046FFF770FC0022FF212046FFF7F3
:100E78006BFC002280212046FFF766FC602120469B
:100E8800FFF7D1FC40F01202D2B260212046FFF7F2
:100E98005BFC4FF07A512046FFF756FDFF220121F7
:100EA8002046FFF751FC0DF107020DF1060120461F
:100EB800FFF7E2FD08B900251DE2062302AAB021CA
:100EC8002046FFF719FD0122FF212046FFF73CFCD1
:100ED80000224F212046FFF737FC2C224E212046C6
:100EE800FFF732FC0022FF212046FFF72DFC0025EA
:100EF8002046B621B422FFF727FC29469DF8073083
:100F08009DF80660002B14BF0C2000200127EBB2CF
:100F1800DA0898420DF1100E03F00703724401D865
:100F28008E4208D112F808EC07FA03F32EEA0303FD
:100F380002F8083C07E012F8082C42FA03F3DB0732
:100F480044BF0131C9B20135302DE0D1062302AAD0
:100F5800B0212046FFF7AFFC0122FF212046FFF712
:100F6800F3FB002211462046FFF7EEFB0022FF218B
:100F78002046FFF7E9FB002209212046FFF7E4FBA2
:100F8800002210212046FFF7DFFB00221121204616
:100F9800FFF7DAFB012224212046FFF7D5FBFF22C9
:100FA80025212046FFF7D0FB002275212046FFF7B8
:100FB800CBFB0122FF212046FFF7C6FB2C224E2146
:100FC8002046FFF7C1FB002248212046FFF7BCFB63
:100FD800202229462046FFF7B7FB0022FF212046A2
:100FE800FFF7B2FB092229462046FFF7ADFB002296
:100FF80054212046FFF7A8FB042231212046FFF7A1
:10100800A3FB032232212046FFF79EFB83224021C7
:101018002046FFF799FB252246212046FFF794FB3F
:10102800002260212046FFF78FFB0022272120465F
:10103800FFF78AFB062250212046FFF785FB002296
:1010480051212046FFF780FB962252212046FFF7C8
:101058007BFB082256212046FFF776FB2A465721BC
:101068002046FFF771FB002261212046FFF76CFB49
:10107800002262212046FFF767FB002264212046F8
:10108800FFF762FB002265212046FFF75DFBA022E7
:1010980066212046FFF758FB0122FF212046FFF773
:1010A80053FB322222212046FFF74EFB1422472110
:1010B8002046FFF749FBFF2249212046FFF744FB62
:1010C80000224A212046FFF73FFB0022FF2120464D
:1010D800FFF73AFB0A227A212046FFF735FB002268
:1010E8007B212046FFF730FB212278212046FFF79D
:1010F8002BFB0122FF212046FFF726FB3422232168
:101108002046FFF721FB002242212046FFF71CFB67
:10111800FF2244212046FFF717FB262245212046BF
:10112800FFF712FB052246212046FFF70DFB402260
:1011380011462046FFF708FB06220E212046FFF73E
:1011480003FB1A2220212046FFF7FEFA4022432102
:101158002046FFF7F9FA0022FF212046FFF7F4FAAC
:10116800032234212046FFF7EFFA44223521204696
:10117800FFF7EAFA0122FF212046FFF7E5FA0422E9
:1011880031212046FFF7E0FA09224B212046FFF7DC
:10119800DBFA05224C212046FFF7D6FA04224D211E
:1011A8002046FFF7D1FA0022FF212046FFF7CCFAAC
:1011B800002244212046FFF7C7FA20224521204675
:1011C800FFF7C2FA082247212046FFF7BDFA282276
:1011D80048212046FFF7B8FA002267212046FFF78A
:1011E800B3FA042270212046FFF7AEFA01227121DA
:1011F8002046FFF7A9FAFE2272212046FFF7A4FA3B
:10120800002276212046FFF79FFA00227721204608
:10121800FFF79AFA0122FF212046FFF795FA0122EB
:101228000D212046FFF790FA0022FF212046FFF704
:101238008BFA012280212046FFF786FAF822012145
:101248002046FFF781FA0122FF212046FFF77CFAAA
:1012580001228E212046FFF777FA0122002120463D
:10126800FFF772FA0022FF212046FFF76DFA0022ED
:1012780080212046FFF768FA04220A212046FFF75A
:1012880063FA84212046FFF7CEFA842100F0EF02AA
:101298002046FFF759FA01220B212046FFF754FA9E
:1012A8002046FFF7F3FCE822606101212046FFF7A2
:1012B8004BFA61692046FFF733FD012211462046AB
:1012C800FFF742FA40212046FFF779FD00283FF456
:1012D800F2AD022201212046FFF736FA002120460E
:1012E800FFF76DFD054600283FF4E5ADE822012132
:1012F8002046FFF729FA284605B0F0BD00F02AB9C4
:10130800704710B50446FEF7C4FE204610BDF8B578
:1013180005461E460F46017CC06841F01801144678
:1013280000F085FEE868012E036888BF47F0800753
:101338009B68394698472644A642E86805D0036862
:1013480014F8011B9B689847F6E700F078FEB0FA9E
:1013580080F04009F8BDF8B504461E460F46017CEA
:10136800C06841F01801154600F061FEE068012EE2
:10137800036888BF47F080079B6839469847E0684C
:1013880000F05DFEA8B9217C324641F01801E06802
:1013980000F048FE2E44AE420DD0E06803681B6999
:1013A800984740B1E06803685B69984705F8010B06
:1013B800F1E70020F8BD0120F8BD0022027042705C
:1013C8008270C270027142718271C271027242727D
:1013D8008272704741F007010170704713B50368C6
:1013E80001AA9C680123A0479DF8040002B010BD23
:1013F80038B505460A240F212846FFF7EFFF3328A2
:101408004FF0010005D000F097FB013CF3D12046D6
:1014180038BD38BDF7B50C4607210646FFF7DEFF95
:1014280000F00800002814BF012500251BD03368F0
:101438006A469F68282106233046B8479DF8012050
:101448009DF8003043EA022323809DF803209DF88D
:10145800023043EA022363809DF805209DF804309A
:1014680043EA0223A380284603B0F0BD37B502AC97
:10147800036804F8042DDD6822460123A84703B059
:1014880030BD000070B504460D46FFF7B1FF0646B3
:1014980028B900F07FFC284900F0CCFA49E02A7806
:1014A80020212046FFF7E2FF6A7821212046FFF736
:1014B800DDFFAA7822212046FFF7D8FFEA7823210A
:1014C8002046FFF7D3FF2A7924212046FFF7CEFFD5
:1014D8006A7925212046FFF7C9FFAB791BB1262180
:1014E8002046FFF77BFFAA7A2E212046FFF7BEFF92
:1014F800AB785B061DD5EA7932212046FFF7B6FFA7
:101508002A7A33212046FFF7B1FF6368002B0ADBF4
:101518006A7A204622723021FFF7A8FF312120463F
:10152800FFF75CFF05E00022227230212046FFF71A
:101538009DFF304670BD00BFB42D0A0810B543604A
:10154800024BC1600360027410BD00BFA42D0A08DD
:1015580000F000B808B5024B1B681B68019308BD72
:10156800B001060808B5024B1B685B68019308BD0B
:10157800B001060808B5024B1B689B68019308BDBB
:10158800B001060808B5024B1B68DB68019308BD6B
:10159800B001060808B5024B1B681B69019308BD1A
:1015A800B001060808B5024B1B685B69019308BDCA
:1015B800B001060808B5024B1B689B69019308BD7A
:1015C800B001060808B5024B1B68DB69019308BD2A
:1015D800B001060808B5024B1B68DB69019308BD1A
:1015E800B401060808B5024B1B681B6A019308BDC5
:1015F800B401060808B5024B1B685B68019308BD77
:101608009C01060808B5024B1B685B69019308BD7D
:101618009C01060808B5024B1B681B6A019308BDAC
:10162800D001060808B5024B1B685B6A019308BD28
:10163800D001060808B5024B1B689B6A019308BDD8
:10164800D001060808B5024B1B68DB6A019308BD88
:10165800D001060808B5024B1B681B6B019308BD37
:10166800D001060808B5024B1B689B69019308BDA9
:10167800C401060808B5024B1B685B6A019308BDE4
:10168800C401060808B5024B1B689B6A019308BD94
:10169800C401060808B5024B1B68DB6A019308BD44
:1016A800C401060808B5024B1B681B6B019308BDF3
:1016B800C401060808B5024B1B685B6B019308BDA3
:1016C800C401060808B5024B1B689B6B019308BD53
:1016D800C401060808B5024B1B681B6C019308BDC2
:1016E800C401060808B5024B1B681B6C019308BDB2
:1016F800AC01060808B5024B1B68DB6C019308BDFA
:10170800AC01060808B5024B1B685B6D019308BD68
:10171800AC01060808B5024B1B689B6D019308BD18
:10172800AC01060808B5024B1B68DB6D019308BDC8
:10173800AC01060808B5024B1B681B6E019308BD77
:10174800AC01060808B5024B1B685B6E019308BD27
:10175800AC01060808B5024B1B689B6E019308BDD7
:10176800AC01060808B5024B1B68DB6E019308BD87
:10177800AC01060808B5024B1B681B6F019308BD36
:10178800AC01060808B5024B1B685B6F019308BDE6
:10179800AC01060808B5034B1B68D3F880300193E9
:1017A80008BD0000AC01060808B5024B1B681B69A0
:1017B800019308BDA801060808B5024B1B685B69C0
:1017C800019308BDA801060808B5024B1B689B6970
:1017D800019308BDA801060808B5024B1B681B68E1
:1017E800019308BDD801060808B5024B1B685B6861
:1017F800019308BDD801060808B5024B1B681B6990
:10180800019308BDD801060808B5024B1B685B693F
:10181800019308BDD801060808B5024B1B689B69EF
:10182800019308BDD801060808B5024B1B68DB699F
:10183800019308BDD801060808B5024B1B681B6A4E
:10184800019308BDD801060808B5024B1B685B6800
:10185800019308BDA401060808B5024B1B685B6923
:10186800019308BDA401060808B5024B1B68DB6A92
:10187800019308BDA401060808B5024B1B685B6EFE
:10188800019308BDA401060808B5024B1B689B6EAE
:10189800019308BDA401060808B5024B1B681B6923
:1018A800019308BDC801060808B5024B1B685B68B0
:1018B800019308BDA001060808B5024B1B685B6AC6
:1018C800019308BDA0010608704710B50446FEF74D
:1018D800E0FB204610BD000070B504460E46074BDD
:1018E8000025036040F80C5FFFF7B4FE3046267110
:1018F800FFF770FEA560204670BD00BF002E0A08E5
:101908000079FFF76FBEB0F90020531C0BD0438855
:1019180080888B4203D88842034628BF0B46194665
:1019280090B2FFF751BF70474FF6FF73B4220281A0
:101938004FF408720380428000234FF41662C3807C
:101948008280C360704708B5FFF7EEFF08BD10B589
:101958000446B0F90000431C07D080B2FFF72CFF03
:101968002046FFF7E1FF012010BD002010BD2DE942
:10197800F0410D4604460221284690461F46FFF7CF
:10198800F1FD022801D0002619E0284600F074FB7A
:1019980006460028F7D0B4F90030013302D02046BB
:1019A800FFF7D5FFBDF918302580E380BDF91C305D
:1019B800A4F80280A78023812846FFF7F5FE304669
:1019C800BDE8F0810020FFF73FBFF8B506460D4699
:1019D8008F180024BD420CD0336815F8011B9B6892
:1019E80030469847002801DB0444F3E7002C08BF81
:1019F80004462046F8BD70B505460C46084649B170
:101A080001F08BF92B68024621462846BDE8704054
:101A1800DB68184770BD03689B68184738B50D2107
:101A28000546FFF7F8FF0A2104462846FFF7F3FFAB
:101A3800204438BD38B50546FFF7DDFF0446284683
:101A4800FFF7ECFF204438BD012A98BF0A2230B5C1
:101A58000B468BB000218DF824100DF12304B3FB45
:101A6800F2F505FB1233DBB2092B94BF3033373361
:101A7800DBB2214604F801392B46002DEFD1FFF7E0
:101A8800BAFF0BB030BD10B422B90368C9B29B6865
:101A980010BC1847D2B210BCFFF7D6BFFFF7F3BF90
:101AA8000CB42DE9F04387B000AF07F1380454F8BF
:101AB800049B05460E4623464A461421381D3C60C1
:101AC800FFF7FAFE132805D8391D2846FFF793FFBC
:101AD800044613E000F1080323F00703E846ADEBE2
:101AE800030D411C23464A4668463C60FFF7E4FE66
:101AF80069462846FFF77FFF0446C5461EB12846BB
:101B0800FFF78CFF044420461C37BD46BDE8F04370
:101B180002B07047014A024B1A607047C02E0A088B
:101B2800E4030020024B1A68024B1A60704700BF9A
:101B380028030020E80300200021FFF78DBE0000E5
:101B480008B5144B33B100F025F903681B699847B1
:101B5800002816DC104B33B100F0EAF903681B6962
:101B68009847002810DC0D4B0BB1AFF300800C4BED
:101B78007BB100F04BF903681B699847002806DC25
:101B880008BDAFF30080E5E7AFF30080EBE7AFF304
:101B9800008008BD000000000000000000000000F8
:101BA8000000000008B5FFF7CBFFFFF72BFD014B46
:101BB800186008BD740800200248034A0349121A35
:101BC80001F098B80040024004400240F02F0A0893
:101BD8000020704737B5436804460A2B0ED0502BB7
:101BE8001CD1104B1D68CDB1037D4FF400710093DB
:101BF800C26800F110038068A84707E000F11003ED
:101C0800C2684FF400718068FFF7E2FF30B100222C
:101C180020461146FFF738FE012000E0002003B0FF
:101C280030BD00BFEC03002038B50C4C0C4D2368C8
:101C3800AB420C4B0CBF012200221A7002D0FFF7F6
:101C4800BBFF2560084B1BB1FFF7D4FCAFF3008046
:101C5800BDE8384000210548FFF70EBE00400240AD
:101C68001E1C279AF003002000000000DD1B0A0854
:101C7800704710B50446FEF70CFA204610BDF8B5BB
:101C88000F4600F10806051D002416F8011D0A225A
:101C98003846FFF703FFAE42044407D0002CF4D0C7
:101CA8002E213846FFF7B7FE0444EEE72046F8BD7C
:101CB80010B59DF8084044EA032343EA024242EA89
:101CC800016104234160037510BD000037B5044D60
:101CD80005609DF818500095FFF7EAFF03B030BD86
:101CE8001C2F0A084174704770470021007CFFF7D9
:101CF80093BD0121007CFFF78FBD007CFFF784BDF9
:101D0800007CFFF779BD38B50446007C0D46FFF727
:101D18007BFD002801DC607C20B12946207CFFF790
:101D280083FD012038BD007CFFF786BD10B5044651
:101D3800FEF7AFF9204610BD10B5044600236360D6
:101D48004FF47A73A360054B08462360012321747E
:101D580063741146FFF740FD204610BD302F0A0876
:101D68000022007CFFF740BD10B504461422002174
:101D780000F0CBFF054B20466360054BE36040F263
:101D8800011323818123238210BD00BF7904002021
:101D9800F803002030B50E4D87B001A8FFF7E4FF27
:101DA800296811F0010410D12846FEF774F960B1D2
:101DB80001AA21460748FFF7BFFF2846FEF770F93A
:101DC800054A0649034800F013FA024807B030BD37
:101DD800F40300207C0500202C030020F11C0A08D5
:101DE80010B504461422002100F08FFF054B204651
:101DF8006360054BE36040F2011323818123238252
:101E080010BD00BF2C0600209405002010B50E4C14
:101E180086B001A8FFF7E4FF2368DB0710D420464B
:101E2800FEF739F960B101AA01210848FFF784FFDC
:101E38002046FEF735F9064A0649044800F0D8F965
:101E4800024806B010BD00BF90050020180600200B
:101E58002C030020F11C0A0800470000F0B51C46BE
:101E680085B005460E461746FFF7ACFB00208442B6
:101E78004FF0040303908DF80C30B4BF03469DF86F
:101E880028302846A4BF8DF80E3003AB00933246A5
:101E98003B460449A8BF8DF80D40FFF78BFB012096
:101EA80005B0F0BD611E0A08704741747047007C98
:101EB800FFF710BC007CFFF7E5BB007CFFF7F2BB27
:101EC800007CFFF7E7BB007CFFF7F4BB10B50446C6
:101ED800FEF7DFF8204610BD70B5457C04460E4677
:101EE80025B9007CFFF7F6FB002805DD3146207C8C
:101EF800BDE87040FFF7BEBB284670BD10B504466C
:101F080008461146002262604FF47A72A260054AC0
:101F180020742260012262741A46FFF7A3FB204650
:101F280010BD00BF602F0A08007CFFF7CBBB000084
:101F380038B50C4D296811F0010411D12846FEF777
:101F4800AAF868B1084A2146084B0948FFF7D6FFA6
:101F58002846FEF7A5F8074A0749054800F048F95A
:101F6800034838BDC8070020CC07002044070020DC
:101F7800300700202C030020B11E0A087047F8B56E
:101F8800064615460C468F18BC4206D0336814F82E
:101F9800011B9B6830469847F6E72846F8BD0022A3
:101FA800007CFFF7C7BB0021007CFFF7CBBB0021FB
:101FB800007CFFF7CFBB0021007CFFF7D3BB0021DB
:101FC800007CFFF7D7BB10B50446FEF762F8204641
:101FD80010BD000010B5044608464FF47A73A3609C
:101FE800044B0021207461602360FFF7D3FB204677
:101FF80010BD00BF902F0A080022007CFFF772BBBB
:1020080000231A461946007CFFF774BB13B5002459
:10201800007C0094FFF776FBC0B202B010BD01232C
:10202800FFF7F4BF0123D2B2C9B2FFF7EFBF002216
:10203800007CFFF76FBB0022007CFFF773BB012118
:10204800FFF7F9BF0021007CFFF79CBB7047002217
:1020580011461046FFF720BC0348044B044A0549C3
:10206800036000F0C5B800BF50080020B82F0A0868
:102078002C03002055200A0810B504460F48FFF726
:102088003FFC28B1A4F10D03022B01D8002010BD9C
:1020980000F08EF8FFF7D6FF08B1012CF6D9FFF74C
:1020A80047FFFFF741FF18B1A4F11203012BEDD947
:1020B800172C8CBF0020012010BD00BF5408002041
:1020C800172838B504460D460AD8FF2908D0FFF767
:1020D800D3FF28B129462046BDE83840FFF74ABA61
:1020E80038BD38B504460D46FFF74CFAFF2810D026
:1020F800062804D84D2323FA00F0C30709D4204644
:10210800FFF7BAFF28B129462046BDE83840FFF757
:1021180041BA38BD10B50446FFF734FA0438C0B2E6
:10212800012808D92046FFF7A7FF20B12046BDE8BF
:102138001040FFF737BA002010BD000070B50C4CF6
:102148000C4E0D4D00212046FFF7C6FB20460B4CD8
:102158003246294600F04CF801212046FFF7BCFB27
:10216800324629462046BDE8704000F041B800BF1D
:10217800540800202C030020D1180A086408002005
:1021880013B5084C00231A46194600932046FFF75A
:102198009DFD2046044A054902B0BDE8104000F004
:1021A80027B800BF780800202C030020791C0A08F3
:1021B80038B50B4D296811F001040FD12846FDF7F9
:1021C8006AFF58B121460748FFF704FF2846FDF784
:1021D80067FF054A0549034800F00AF8014838BD79
:1021E80090080020940800202C030020851F0A086E
:1021F8000B460146184600F06FBD0000184B1A68E0
:10220800D1075CBF01221A60164B1A68D2075CBF5F
:1022180001221A60144B1A68D0075CBF01221A60A9
:10222800124B1A68D1075CBF01221A60104B1A685A
:10223800D2075CBF01221A600E4B1A68D0075CBF38
:1022480001221A600C4B1A68D1075CBF01221A6080
:102258000A4B1A68D2075CBF01221A60704700BF98
:10226800C4080020C0080020BC080020B8080020CE
:10227800B4080020B0080020AC080020A8080020FE
:10228800244B1A68D0075CBF01221A60224B1A68D7
:10229800D1075CBF01221A60204B1A68D2075CBFC5
:1022A80001221A601E4B1A68D0075CBF01221A600F
:1022B8001C4B1A68D1075CBF01221A601A4B1A68B6
:1022C800D2075CBF01221A60184B1A68D0075CBF9E
:1022D80001221A60164B1A68D1075CBF01221A60E6
:1022E800144B1A68D2075CBF01221A60124B1A6895
:1022F800D0075CBF01221A60104B1A68D1075CBF77
:1023080001221A600E4B1A68D2075CBF01221A60BC
:10231800704700BFF4080020F0080020EC080020F7
:10232800E8080020E4080020E0080020DC0800207D
:10233800D8080020D4080020D0080020CC080020AD
:10234800C8080020244B1A68D0075CBF01221A6015
:10235800224B1A68D1075CBF01221A60204B1A6809
:10236800D2075CBF01221A601E4B1A68D0075CBFF7
:1023780001221A601C4B1A68D1075CBF01221A603F
:102388001A4B1A68D2075CBF01221A60184B1A68E8
:10239800D0075CBF01221A60164B1A68D1075CBFD0
:1023A80001221A60144B1A68D2075CBF01221A6016
:1023B800124B1A68D0075CBF01221A60104B1A68CA
:1023C800D1075CBF01221A600E4B1A68D2075CBFA6
:1023D80001221A60704700BF24090020200900204C
:1023E8001C090020180900201409002010090020E9
:1023F8000C09002008090020040900200009002019
:10240800FC080020F8080020184B1A68D1075CBFA8
:1024180001221A60164B1A68D2075CBF01221A60A3
:10242800144B1A68D0075CBF01221A60124B1A6855
:10243800D1075CBF01221A60104B1A68D2075CBF33
:1024480001221A600E4B1A68D0075CBF01221A607D
:102458000C4B1A68D1075CBF01221A600A4B1A6834
:10246800D2075CBF01221A60704700BF44090020F0
:10247800400900203C0900203809002034090020C8
:10248800300900202C0900202809002081F0004193
:1024980002E000BF83F0004330B54FEA41044FEA41
:1024A800430594EA050F08BF90EA020F1FBF54EADC
:1024B800000C55EA020C7FEA645C7FEA655C00F078
:1024C800E2804FEA5454D4EB5555B8BF6D420CDD49
:1024D8002C4480EA020281EA030382EA000083EACC
:1024E800010180EA020281EA0303362D88BF30BD6C
:1024F80011F0004F4FEA01314FF4801C4CEA1131C2
:1025080002D0404261EB410113F0004F4FEA033320
:102518004CEA133302D0524263EB430394EA050FAB
:1025280000F0A780A4F10104D5F1200E0DDB02FA1A
:102538000EFC22FA05F2801841F1000103FA0EF2AE
:10254800801843FA05F359410EE0A5F120050EF174
:10255800200E012A03FA0EFC28BF4CF0020C43FAA5
:1025680005F3C01851EBE37101F0004507D54FF0B2
:10257800000EDCF1000C7EEB00006EEB0101B1F502
:10258800801F1BD3B1F5001F0CD349085FEA300048
:102598004FEA3C0C04F101044FEA445212F5800F53
:1025A80080F09A80BCF1004F08BF5FEA500C50F1F0
:1025B800000041EB045141EA050130BD5FEA4C0CD3
:1025C800404141EB010111F4801FA4F10104E9D15C
:1025D80091F0000F04BF01460020B1FA81F308BF53
:1025E8002033A3F10B03B3F120020CDA0C3208DD1F
:1025F80002F1140CC2F10C0201FA0CF021FA02F1FA
:102608000CE002F11402D8BFC2F1200C01FA02F169
:1026180020FA0CFCDCBF41EA0C019040E41AA2BF8E
:1026280001EB0451294330BD6FEA04041F3C1CDA56
:102638000C340EDC04F11404C4F1200220FA04F076
:1026480001FA02F340EA030021FA04F345EA030120
:1026580030BDC4F10C04C4F1200220FA02F001FAE2
:1026680004F340EA0300294630BD21FA04F0294664
:1026780030BD94F0000F83F4801306BF81F48011FD
:102688000134013D4EE77FEA645C18BF7FEA655C70
:1026980029D094EA050F08BF90EA020F05D054EA42
:1026A800000C04BF1946104630BD91EA030F1EBF47
:1026B8000021002030BD5FEA545C05D1400049414B
:1026C80028BF41F0004130BD14F580043CBF01F53E
:1026D800801130BD01F0004545F0FE4141F4700124
:1026E8004FF0000030BD7FEA645C1ABF19461046FF
:1026F8007FEA655C1CBF0B46024650EA013406BF00
:1027080052EA033591EA030F41F4002130BD00BFBE
:1027180090F0000F04BF0021704730B54FF480647B
:1027280004F132044FF000054FF0000150E700BFFC
:1027380090F0000F04BF0021704730B54FF480645B
:1027480004F1320410F0004548BF40424FF0000148
:102758003EE700BF42004FEAE2014FEA31014FEA8B
:1027680002701FBF12F07F4393F07F4F81F06051DA
:10277800704792F0000F14BF93F07F4F704730B549
:102788004FF4607401F0004521F0004120E700BFDC
:1027980050EA010208BF704730B54FF000050AE063
:1027A80050EA010208BF704730B511F0004502D564
:1027B800404261EB41014FF4806404F132045FEA66
:1027C800915C3FF4DCAE4FF003025FEADC0C18BF0B
:1027D80003325FEADC0C18BF033202EBDC02C2F101
:1027E800200300FA03FC20FA02F001FA03FE40EA93
:1027F8000E0021FA02F11444C1E600BF4FF0FF3C7D
:1028080006E000BF4FF0010C02E000BF4FF0010CE2
:102818004DF804CD4FEA410C7FEA6C5C4FEA430C5B
:1028280018BF7FEA6C5C1BD001B050EA410C0CBFAA
:1028380052EA430C91EA030F02BF90EA020F00200C
:10284800704710F1000F91EA030F58BF994208BF73
:1028580090422CBFD8176FEAE37040F00100704730
:102868004FEA410C7FEA6C5C02D150EA013C07D187
:102878004FEA430C7FEA6C5CD6D152EA033CD3D0D2
:102888005DF8040B704700BF8446104662468C46CC
:102898001946634600E000BF01B5FFF7B7FF0028FF
:1028A80048BF10F1000F01BD4DF808EDFFF7F4FF28
:1028B8000CBF012000205DF808FB00BF4DF808EDB3
:1028C800FFF7EAFF34BF012000205DF808FB00BFD6
:1028D8004DF808EDFFF7E0FF94BF012000205DF8F8
:1028E80008FB00BF4DF808EDFFF7CEFF94BF0120AD
:1028F80000205DF808FB00BF4DF808EDFFF7C4FFA6
:1029080034BF012000205DF808FB00BF4FF0FF0C2A
:102918001CEAD0521EBF1CEAD15392EA0C0F93EA6C
:102928000C0F6FD01A4480EA010C400218BF5FEA0E
:1029380041211ED04FF0006343EA501043EA511181
:10294800A0FB01310CF00040B1F5000F3EBF49007B
:1029580041EAD3715B0040EA010062F17F02FD2A7F
:102968001DD8B3F1004F40EBC25008BF20F0010062
:10297800704790F0000F0CF0004C08BF49024CEA79
:10298800502040EA51207F3AC2BFD2F1FF0340EA0B
:10299800C250704740F400004FF00003013A5DDC7C
:1029A80012F1190FDCBF00F000407047C2F10002BD
:1029B800410021FA02F1C2F1200200FA02FC5FEAAA
:1029C800310040F1000053EA4C0308BF20EADC70F4
:1029D800704792F0000F00F0004C02BF400010F466
:1029E800000F013AF9D040EA0C0093F0000F01F013
:1029F800004C02BF490011F4000F013BF9D041EA35
:102A08000C018FE70CEAD15392EA0C0F18BF93EA36
:102A18000C0F0AD030F0004C18BF31F0004CD8D160
:102A280080EA010000F00040704790F0000F17BFE7
:102A380090F0004F084691F0000F91F0004F14D02D
:102A480092EA0C0F01D142020FD193EA0C0F03D185
:102A58004B0218BF084608D180EA010000F0004088
:102A680040F0FE4040F40000704740F0FE4040F463
:102A7800400070474FF0FF0C1CEAD0521EBF1CEA02
:102A8800D15392EA0C0F93EA0C0F69D0A2EB030220
:102A980080EA010C49024FEA402037D04FF08053BA
:102AA80043EA111143EA10130CF000408B4238BF7F
:102AB8005B0042F17D024FF4000C8B4224BF5B1A8D
:102AC80040EA0C00B3EB510F24BFA3EB510340EADB
:102AD8005C00B3EB910F24BFA3EB910340EA9C0089
:102AE800B3EBD10F24BFA3EBD10340EADC001B01F9
:102AF80018BF5FEA1C1CE0D1FD2A3FF650AF8B429D
:102B080040EBC25008BF20F0010070470CF0004CA9
:102B18004CEA50207F32C2BFD2F1FF0340EAC250D4
:102B2800704740F400004FF00003013A37E792F095
:102B3800000F00F0004C02BF400010F4000F013AF3
:102B4800F9D040EA0C0093F0000F01F0004C02BFEE
:102B5800490011F4000F013BF9D041EA0C0195E757
:102B68000CEAD15392EA0C0F08D142027FF47DAFF0
:102B780093EA0C0F7FF470AF084676E793EA0C0FE0
:102B880004D14B023FF44CAF08466EE730F0004CDE
:102B980018BF31F0004CCAD130F000427FF45CAF6E
:102BA80031F000437FF43CAF5FE700BF4FF0FF3CDC
:102BB80006E000BF4FF0010C02E000BF4FF0010C2F
:102BC8004DF804CD4FEA40024FEA41037FEA226CF8
:102BD80018BF7FEA236C11D001B052EA530C18BF1A
:102BE80090EA010F58BFB2EB030088BFC81738BF7F
:102BF8006FEAE17018BF40F0010070477FEA226C6D
:102C080002D15FEA402C05D17FEA236CE4D15FEA68
:102C1800412CE1D05DF8040B704700BF844608469C
:102C28006146FFE70FB5FFF7C9FF002848BF10F15D
:102C3800000F0FBD4DF808EDFFF7F4FF0CBF0120A2
:102C480000205DF808FB00BF4DF808EDFFF7EAFF2C
:102C580034BF012000205DF808FB00BF4DF808EDE7
:102C6800FFF7E0FF94BF012000205DF808FB00BFDC
:102C78004DF808EDFFF7D2FF94BF012000205DF862
:102C880008FB00BF4DF808EDFFF7C8FF34BF01206F
:102C980000205DF808FB00BF42000ED2B2F1FE4FE3
:102CA8000BD34FF09E03B3EB126209D44FEA002313
:102CB80043F0004323FA02F070474FF000007047DA
:102CC80012F1610F01D1420202D14FF0FF3070477B
:102CD8004FF00000704700BF10B5054C13462CB1EB
:102CE8000A4601460220AFF3008010BD204610BD01
:102CF8000000000010B5431E0A44914204D011F8A8
:102D0800014B03F8014FF8E710BD03460244934214
:102D180002D003F8011BFAE77047034613F8012BAA
:102D2800002AFBD1181A0138704700001D000A0854
:102D38005D000A0889000A088D000A0800000000E2
:102D48000000000000000000F9010A0839020A0822
:102D58008D010A08736574757053756363657373C1
:102D68003D25640057616974696E6720666F72203B
:102D78005374617274005374617274696E67206968
:102D88006E2035207365636F6E64732E2E2E004798
:102D98004F210000000000000000000009130A088D
:102DA8000B130A085F130A0817130A086465766983
:102DB8006365206E6F7420666F756E64007265734C
:102DC800657474696E67206C6173744D6F76656D98
:102DD800656E7420696E74315F7372633D30782557
:102DE8007800726563616C6962726174696E67000C
:102DF8000000000000000000D1180A08D3180A08D3
:102E080066006C6E00666E00636F646500646574CE
:102E180061696C000D0A00253031307520005D2095
:102E2800002C200028293A2000205B00636F64658D
:102E3800203D200025690064657461696C73203D3C
:102E48002000626175640053657269616C005553B6
:102E58004253657269616C31007479706500706104
:102E680072616D00636D6400696400686E6400736C
:102E780074726D0066696C74006C766C00616464D1
:102E880048616E646C65720072656D6F7665486145
:102E98006E646C657200656E756D48616E646C6514
:102EA8007273004A534F4E53747265616D4C6F676D
:102EB80048616E646C657200617070006E6F6E655B
:102EC80000747261636500696E666F007761726E87
:102ED800006572726F720070616E696300616C6C7C
:102EE800005A00252B3033643A25303275002559B5
:102EF8002D256D2D25645425483A254D3A25532511
:102F08007A0061736374696D650000000000000059
:102F180000000000871C0A08791C0A087B1C0A08A4
:102F28000000000000000000F11C0A08351D0A0816
:102F38000F1D0A08D3190A08091D0A08F31C0A08F4
:102F4800FB1C0A082F1D0A08031D0A08ED1C0A08A5
:102F58000000000000000000B11E0A08D51E0A0883
:102F6800E11E0A08D3190A08BD1E0A08C91E0A0864
:102F7800C31E0A08CF1E0A08B31E0A08B71E0A088D
:102F88000000000000000000851F0A08CF1F0A0883
:102F9800A71F0A08871F0A08AF1F0A08B71F0A08D1
:102FA800BF1F0A08C71F0A08000000000000000031
:102FB80057200A08B9060A0805130A0859150A0805
:102FC800CD190A081D1B0A082D1B0A0861200A08CA
:102FD80045210A0889210A0805220A0889220A08BF
:082FE8004D230A0811240A0818
:042FF00000000000DD
:102FF40004000000070000000E00000005000000AF
:1030040006000000010100000300000001000000B0
:0C30140002000000010000000A2F0A0862
:10302000FFFFFFFF00000102030405060708090A6D
:103030000B0C0D0E0F101112131415161718191A68
:083040001B1C1D1E1F202800AF
:043048007856341270
:04000005080A0018CD
:00000001FF
