:02000004080AE8
:1000000000000A0804380A08000004000600050180
:0800100004026C000000000076
:10001800D8330A0809480A4908B5884205D0094A68
:10002800824202D0121A03F0B7F90748074A0021A2
:10003800121A03F0BCF9064808BD00BF00030020EF
:1000480074370A086803002068030020D8090020D4
:10005800D809002070B502F06BFB074B074C1E4611
:10006800E41AA4080025A54204D056F8253098477C
:100078000135F8E770BD00BF00370A0868370A087D
:1000880001F0B4BA08B501F075FBBDE8084002F00C
:100098000DBB01F09DBD0078B0FA80F040097047B3
:1000A800012303707047704710B50446FFF7F1FF4E
:1000B800204610BDF8B505461E460F46017CC068AF
:1000C80041F01801144601F068FEE868012E036843
:1000D80088BF47F080079B68394698472644B44252
:1000E800E86805D0036814F8011B9B689847F6E791
:1000F80001F05BFEB0FA80F04009F8BDF8B504469F
:100108001E460F46017CC06841F01801154601F0F3
:1001180044FEE068012E036888BF47F080079B68AB
:1001280039469847E06801F040FEA8B9217C32467C
:10013800E06841F0180101F02BFE2E44B5420DD0C5
:10014800E06803681B69984740B1E06803685B6929
:10015800984705F8010BF1E70020F8BD0120F8BD2C
:100168000022027042708270C27002714271827104
:10017800C271027242728272704741F007010170C7
:10018800704713B5036801AA9C680123A0479DF82E
:10019800040002B010BD38B505460A2428460F21D0
:1001A800FFF7EFFF33284FF0010005D001F020FDE5
:1001B800013CF3D1204638BD38BDF7B50C460721C0
:1001C8000646FFF7DEFFC0F3C005DDB133686A46B7
:1001D8009F68304606232821B8479DF801209DF8DE
:1001E800003043EA022323809DF803209DF8023063
:1001F80043EA022363809DF805209DF8043043EA12
:100208000223A380284603B0F0BD13B502AB03F860
:10021800042D0268D4681A460123A04702B010BD15
:1002280070B504460D46FFF7B6FF064628B902F03A
:1002380093F9284901F083FE49E0204620212A78D5
:10024800FFF7E3FF204621216A78FFF7DEFF20460B
:100258002221AA78FFF7D9FF20462321EA78FFF761
:10026800D4FF204624212A79FFF7CFFF20462521F5
:100278006A79FFF7CAFFAB791BB120462621FFF741
:1002880080FF20462E21AA7AFFF7BFFFAB785B06D6
:100298001DD520463221EA79FFF7B7FF20463321E2
:1002A8002A7AFFF7B2FF6368002B0ADB6A7A2046D6
:1002B80022723021FFF7A9FF20463121FFF761FFA5
:1002C80005E00022227220463021FFF79EFF3046CB
:1002D80070BD00BF08340A0810B54360024BC16006
:1002E8000360027410BD00BFF8330A0808B50A4B52
:1002F80000220A491A7001230B7009490A70094A39
:100308001370094B02221A70084B08221A7001F068
:10031800EDFA074B186008BD730300207503002031
:100328007103002072030020700300207403002072
:100338006C0300200368C9B29B6818470368C9B2F8
:100348009B68184729224270002242600272704757
:1003580070B5044615460E4602F0ACFA617801F015
:100368001CFD02F0A7FA036831469B68984702F023
:10037800A1FA036829469B68984702F09BFA01F0A6
:1003880014FD207070BD38B50C4605468A2104F06E
:100398007F02FFF7DDFF6C7038BD70B50446154667
:1003A8000E4602F087FA617801F0F7FC02F082FA53
:1003B800036831469B68984702F07CFA290AFFF7E0
:1003C800BDFF02F077FAE9B2FFF7B8FF02F072FA60
:1003D80001F0EBFC207070BD70B5054614460E4662
:1003E80002F068FA697801F0D8FC02F063FA036851
:1003F80031469B68984702F05DFA210EFFF79AFF95
:1004080002F058FAC4F30741FFF794FF02F052FADA
:10041800C4F30721FFF78EFF02F04CFAE1B2FFF7B1
:1004280089FF02F047FA01F0C0FC287070BD38B5AA
:1004380004460D4602F03EFA617801F0AEFC02F087
:1004480039FA036829469B68984702F033FA01F0A5
:10045800ACFC207002F02EFA6178012201F095FCC4
:1004680002F028FA03685B699847C0B238BD38B50E
:1004780004460D4602F01EFA617801F08EFC02F087
:1004880019FA036829469B68984702F013FA01F0A5
:100498008CFC207002F00EFA6178022201F075FCE3
:1004A80002F008FA03685B699847044602F002FA0A
:1004B80003685B69984740EA042080B238BDF8B504
:1004C800064614461D460F4602F0F4F9717801F00D
:1004D80064FC02F0EFF9036839469B6898472544A5
:1004E800AC4207D002F0E6F9036814F8011B9B68D8
:1004F8009847F5E702F0DEF901F057FC3070F8BDD7
:10050800F8B5064615461C460F4602F0D3F9717831
:1005180001F043FC02F0CEF9036839469B6898471E
:1005280002F0C8F901F041FC307002F0C3F922462C
:10053800717801F02AFC2C44A54207D002F0BAF9E0
:1005480003685B69984705F8010BF5E7F8BD0000FB
:1005580070B506460D460846002102F0C7FEB0B940
:10056800284602F049FC0CA3D3E9002302F016FD4B
:1005780068B94FF08641284602F01AFD02F0DEFE07
:10058800442182B23046FFF708FF012070BD0020E9
:1005980070BD00BFAFF30080A4703D0AD7FF7F4055
:1005A80008B509B9502102E0012906D17021FFF7E9
:1005B8003EFF01304000C0B208BDFF2008BD38B57D
:1005C80004460D4601228021FFF7C2FE2046FF2186
:1005D8000122FFF7BDFE00210A462046FFF7B8FEBC
:1005E80020469121227CFFF7B3FE204600210122FC
:1005F800FFF7AEFE2046FF210022FFF7A9FE2046A6
:1006080080210022FFF7A4FE20466DB1F821FFF7F4
:100618002EFF00B14543204604212A46FFF7DCFEA1
:1006280020460021042201E029460222BDE8384084
:10063800FFF78EBE38B5044601F050F9E060204659
:100648001321FFF7F4FE43070ED16368002BF6D0A1
:1006580001F044F9E368C01A63689842EFD90123AE
:1006680023724FF6FF7038BD20461E21FFF7FFFEAC
:1006780005460B2120460122FFF76AFE284638BDB1
:1006880003460022007A1A727047F8B504460F46EE
:10069800164680210122FFF75BFE2046FF2101223A
:1006A800FFF756FE00210A462046FFF751FE0622B4
:1006B8002046FF21FFF74CFE83212046FFF7B7FEB7
:1006C80040F0040283212046D2B2FFF741FE2046C3
:1006D800FF210722FFF73CFE204681210122FFF778
:1006E80037FE204680210122FFF732FE2046942162
:1006F8006B22FFF72DFE204683210022FFF728FEFC
:1007080001F0ECF8E06020468321FFF790FE0546F3
:1007180058B96368002BF6D001F0E0F8E368C01A16
:1007280063689842EFD92846F8BD20460122832104
:10073800FFF70EFE20469221FFF779FE00F07F03B7
:10074800C0F3C0103B708121307000222046FFF7B3
:10075800FFFD20460622FF21FFF7FAFD20468321F0
:10076800FFF765FE832102462046FFF7F1FD20468C
:10077800FF210122FFF7ECFD204600210122FFF7AF
:10078800E7FD2046FF210022FFF7E2FD20468021F9
:100798000022FFF7DDFD0120F8BD10B50C46012150
:1007A800FFF745FEC0F300132370C0F3C003A37026
:1007B800C0F380036370C0F38013C0F3C010E3700C
:1007C800207110BD4FF6FF73984228BF1846C3B278
:1007D800C0F3072003FA00F0013080B27047B0F58B
:1007E800803F01D278B101E04FF6FF700138002355
:1007F80030F0FF019AB203F1010301D04008F7E796
:1008080040EA022080B27047064B59434FF47A738E
:1008180001F5FA71B1FBF3F1484300EB5100B0FB6D
:10082800F3F07047002F3A0070B50E4600211446C9
:100838000546FFF7B5FE462120802846FFF7F7FD5D
:10084800013080B22178A080FFF7DEFF5121E060FF
:100858002846FFF70CFEFFF7B5FF2178E080FFF789
:10086800D3FF702120612846FFF7E1FD01304000E9
:10087800C0B2608071212846FFF7F9FDFFF7A2FF9B
:100888002081F37813B1E388C01A20812089A178E8
:10089800FFF7BAFF606170BD10B5044688B06946BD
:1008A800FFF77BFF2046694602AAFFF7BDFF9DF8C8
:1008B80000301BB1059800F6845001E040F6363050
:1008C8009DF802302BB1059B03F2B22300EB4300E5
:1008D80006E09DF801301BB1059B03F5257318440C
:1008E8009DF803301BB1069B03F5257318449DF84A
:1008F80004301BB1079B03F226231844606108B03B
:1009080010BD0000064B59434FF47A7301F5FA7194
:10091800B1FBF3F1584300EB5100B0FBF1F0704725
:10092800002F3A0044F61F63F0B5994289B0064695
:100938000D4642D96946FFF730FF3046694602AA9C
:10094800FFF772FF9DF800301BB1059800F63630AE
:1009580001E040F6E8009DF802302BB1059B03F258
:10096800B22300EB430006E09DF801301BB1059B64
:1009780003F5257318449DF803701FB1069B03F512
:10098800257318449DF80440ACB100F22620A84213
:1009980013D8281A9DF80A10FFF7B4FF17B1BDF84D
:1009A8000E301844FFF71BFF712102463046FFF74F
:1009B800F4FC756102E0012400E00024204609B03F
:1009C800F0BD38B541F0010200210446FFF7C0FC34
:1009D80000F084FFE06020461321FFF728FD10F0A7
:1009E80007050BD16368002BF5D000F077FFE368AB
:1009F800C01A63689842EED9284638BD20460B21B4
:100A08000122FFF7A5FC002120460A46FFF7A0FCBB
:100A1800012038BDF0B5044685B049B18921FFF7FA
:100A280006FD40F0010289212046D2B2FFF790FC72
:100A3800204688210022FFF78BFC204680210122D6
:100A4800FFF786FC2046FF210122FFF781FC0021E9
:100A58000A462046FFF77CFC91212046FFF7E7FC79
:100A68000021207401222046FFF772FC2046FF2156
:100A78000022FFF76DFC002220468021FFF768FC6A
:100A880060212046FFF7D3FC40F01202D2B2204684
:100A98006021FFF75DFC4FF07A512046FFF758FDC3
:100AA80020460121FF22FFF753FC20460DF10601E5
:100AB8000DF10702FFF7E9FD08B900251BE206233F
:100AC8002046B02102AAFFF71BFD2046FF21012284
:100AD800FFF73EFC20464F210022FFF739FC204655
:100AE8004E212C22FFF734FC2046FF210022FFF77D
:100AF8002FFC0025B6212046B422FFF729FC294601
:100B08009DF807309DF80670002B14BF0C260026B0
:100B1800EAB2D308B24204A802F00702034401D3A0
:100B2800B94209D1012000FA02F213F8080C20EAB0
:100B3800020203F8082C06E013F8083C1341DB070F
:100B480044BF0131C9B20135302DE1D10623204619
:100B5800B02102AAFFF7B3FC2046FF210122FFF7CC
:100B6800F7FB00210A462046FFF7F2FB2046FF214B
:100B78000022FFF7EDFB204609210022FFF7E8FBE2
:100B8800204610210022FFF7E3FB20461121002216
:100B9800FFF7DEFB204624210122FFF7D9FB204680
:100BA8002521FF22FFF7D4FB204675210022FFF7FD
:100BB800CFFB2046FF210122FFF7CAFB20464E212A
:100BC8002C22FFF7C5FB204648210022FFF7C0FB77
:100BD800204629462022FFF7BBFB2046FF210022A2
:100BE800FFF7B6FB204629460922FFF7B1FB20464E
:100BF80054210022FFF7ACFB204631210422FFF7E5
:100C0800A7FB204632210322FFF7A2FB2046402102
:100C18008322FFF79DFB204646212522FFF798FBFC
:100C2800204660210022FFF793FB2046272100225F
:100C3800FFF78EFB204650210622FFF789FB20464E
:100C480051210022FFF784FB204652219622FFF70C
:100C58007FFB204656210822FFF77AFB20465721C2
:100C68002A46FFF775FB204661210022FFF770FB3B
:100C7800204662210022FFF76BFB204664210022F8
:100C8800FFF766FB204665210022FFF761FB20463F
:100C98006621A022FFF75CFB2046FF210122FFF717
:100CA80057FB204622213222FFF752FB20464721DC
:100CB8001422FFF74DFB20464921FF22FFF748FB8E
:100CC80020464A210022FFF743FB2046FF2100224D
:100CD800FFF73EFB20467A210A22FFF739FB204620
:100CE8007B210022FFF734FB204678212122FFF7E1
:100CF8002FFB2046FF210122FFF72AFB2046232154
:100D08003422FFF725FB204642210022FFF720FB73
:100D180020464421FF22FFF71BFB204645212622BF
:100D2800FFF716FB204646210522FFF711FB40215D
:100D38000A462046FFF70CFB20460E210622FFF745
:100D480007FB204620211A22FFF702FB20464321F9
:100D58004022FFF7FDFA2046FF210022FFF7F8FAAC
:100D6800204634210322FFF7F3FA20463521442296
:100D7800FFF7EEFA2046FF210122FFF7E9FA2046A5
:100D880031210422FFF7E4FA20464B210922FFF71C
:100D9800DFFA20464C210522FFF7DAFA20464D21DA
:100DA8000422FFF7D5FA2046FF210022FFF7D0FAE8
:100DB800204644210022FFF7CBFA20464521202275
:100DC800FFF7C6FA204647210822FFF7C1FA204656
:100DD80048212822FFF7BCFA204667210022FFF7A6
:100DE800B7FA204670210422FFF7B2FA2046712193
:100DF8000122FFF7ADFA20467221FE22FFF7A8FA7A
:100E0800204676210022FFF7A3FA20467721002208
:100E1800FFF79EFA2046FF210122FFF799FA2046A4
:100E28000D210122FFF794FA2046FF210022FFF747
:100E38008FFA204680210122FFF78AFA20460121F5
:100E4800F822FFF785FA2046FF210122FFF780FAF2
:100E580020468E210122FFF77BFA2046002101223D
:100E6800FFF776FA2046FF210022FFF771FA2046A5
:100E780080210022FFF76CFA042220460A21FFF79E
:100E880067FA84212046FFF7D2FA842100F0EF02A6
:100E98002046FFF75DFA0B2101222046FFF758FA9A
:100EA8002046FFF7F9FCE822606101212046FFF7A0
:100EB8004FFA61692046FFF735FD012120460A46B1
:100EC800FFF746FA20464021FFF77BFD00283FF454
:100ED800F4AD204601210222FFF73AFA204600210C
:100EE800FFF76FFD054600283FF4E7AD20460121D6
:100EF800E822FFF72DFA284605B0F0BD08B50A4BE1
:100F080000220A491A7001230B7009490A70094A1C
:100F18001370094B02221A70084B08221A7000F04D
:100F2800E5FC074B186008BD7A0300208003002009
:100F3800780300207903002077030020760300203F
:100F48007C03002008B5054B188801F063FC044BAE
:100F5800003018BF0120187008BD00BF1003002022
:100F68004803002008B5054B188801F053FC044BD2
:100F7800003018BF0120187008BD00BF18030020FA
:100F88003403002008B5054B188801F043FC044BD6
:100F9800003018BF0120187008BD00BF38030020BA
:100FA8004003002008B5054B188801F033FC044BBA
:100FB800003018BF0120187008BD00BF3C03002096
:100FC8005C03002008B5054B188801F023FC044B8E
:100FD800003018BF0120187008BD00BF00030020B2
:100FE800240400202DE9F0410A20012101F0E8FB4A
:100FF8000B20012101F0E4FB0C20012101F0E0FBB2
:101008000D20012101F0DCFB0A20002101F0E9FBA1
:101018000B20002101F0E5FB0C20002101F0E1FB91
:1010280000210D2001F0DDFB4FF4FA7000F0E0FD27
:1010380001F040FC404900F095FE01F03BFC00F057
:1010480095FE0A2000F0D4FD0A20012101F0C9FB19
:101058000B20012101F0C5FB0C20012101F0C1FB8F
:1010680001210D2001F0BDFB0A2000F0C1FD0B207D
:10107800002101F0B6FB314F0C20002101F0B1FB3B
:101088000D20002101F0ADFB38460121FFF7C2FC1D
:101098004FF47A7838463021FFF775F9284EC7F8AB
:1010A80004800A2000F0A4FD0B20012101F099FB27
:1010B80030460121FFF7AEFC30463121FFF763F9D6
:1010C800204D0A20C6F8048000F092FD0C20012172
:1010D80001F087FB28460121FFF79CFC28463221B6
:1010E800FFF751F9184C0A20C5F8048000F080FD7C
:1010F8000D20012101F075FB20460121FFF78AFC34
:1011080020463321FFF73FF90A20C4F8048000F095
:101118006FFD38460A21FFF752FA30460A21FFF7D9
:101128004EFA28460A21FFF74AFA2046BDE8F04160
:101138000A21FFF744BA00BFA08601002C04002052
:10114800D403002084030020EC0300201FB501A86D
:10115800FFF706F801A85021FFF70FF801A9064884
:10116800FFF75EF8044601F0F7F90121034A234628
:1011780000F041FF04B010BDB80300204C340A0849
:101188001FB501F0E9F97B4900F0C6FE01F0E4F96A
:10119800794B0A22197800F01DFF01F0DDF9774933
:1011A80000F0BAFE01F0D8F9754900F0B5FE01F07B
:1011B800D3F904467348FFF73DFA0A220146204650
:1011C80000F008FF01F0C8F96C4900F0A5FE01F035
:1011D800C3F96D4900F0A0FE01F0BEF904466B4862
:1011E800FFF728FA0A220146204600F0F3FE01F034
:1011F800B3F9624900F090FE01F0AEF9644900F0DD
:101208008BFE01F0A9F904466248FFF713FA0A2297
:101218000146204600F0DEFE01F09EF9574900F035
:101228007BFE01F099F95C4900F076FE01F094F933
:1012380004465A48FFF7FEF90A220146204600F004
:10124800C9FE5048FFF71CFA002840F08D804F482F
:10125800FFF716FA002840F087804E48FFF710FA8B
:10126800002840F081804D48FFF70AFA00287BD11A
:1012780001F072F9414900F04FFE01F06DF948495B
:1012880000F04AFE01F068F9464B0A22197800F08E
:10129800A1FE01F061F9394900F03EFE01F05CF968
:1012A800414900F039FE01F057F9404B0A221978FC
:1012B80000F090FE01F050F9304900F02DFE01F0E9
:1012C8004BF93B4900F028FE01F046F9394B0A2258
:1012D800197800F07FFE01F03FF9284900F01CFE64
:1012E80001F03AF9344900F017FE01F035F9334BB3
:1012F8000A22197800F06EFE01F02EF91F4900F05D
:101308000BFE00F0EBFA2E4C2368C01A63281BD999
:1013180000F0E4FA02A920602A48FEF74EFF70B1F7
:1013280001F01AF9BDF90A20BDF908300092BDF99B
:101338000C2001210192244A00F05DFE04E001F036
:101348000BF9224900F0FBFD01F006F900F0EBFD76
:101358001F484FF4C86100F089FE1E484FF4C86169
:1013680000F084FE04B010BD01F0F6F81A4900F050
:10137800D3FD7DE75C340A08240400206B340A0896
:101388006F340A082C04002079340A08D40300209A
:1013980083340A08840300208D340A08EC030020F3
:1013A80097340A0848030020A3340A0834030020AD
:1013B800B0340A0840030020BB340A085C0300204C
:1013C800CC030020B8030020C7340A08D0340A0828
:1013D800A803002008040020DA340A0808B50648E3
:1013E80040F2DC5100F042FEBDE80840034840F2FC
:1013F800DC5100F03BBE00BF08040020A803002019
:1014080038B50C2800F2C480DFE800F031078E10F0
:101418003158153B63247E4F9F005E4840F2A4611B
:1014280000F024FE5C4840F214516AE05B4B1968F6
:1014380001F2DC5147E05A4B5A4A1B6812689B1A62
:10144800594A126893420EDA544B1968C1F5BB61C8
:10145800043110E0524B534A1B6812689B1A524AD7
:10146800126893423EDB514A1268934216DA504B97
:10147800196801F2DC51474889B200F0F7FD4D4B7D
:101488003AE0474B474A1B6812689B1A464A12685B
:101498009342D9DB454A126893420FDB464B002240
:1014A8001A60464B01221A7038BD3D4B3D4A1B68F5
:1014B80012689A1A424B1B689A4230DA3C4B1968F8
:1014C800C1F5BB610431334889B200F0CFFD394B17
:1014D80033E0334B334A1B6812689B1A324A12684E
:1014E8009342D7DA324B2B481968C1F5BB610431F6
:1014F80089B200F0BBFD334B196801F2DC51264874
:1015080089B200F0B3FDCCE7254B264A1B68126868
:101518009B1A254A12689342D0DB2B4ABBE72B491A
:101528000868C1188A420DDA214B1A48196801F275
:10153800DC5189B200F09AFD224B1968C1F5BB61F4
:101548000431DCE72249096816E0154B1A68154B87
:101558001B68D21A1F4B1B689A42AFDB1E490968E9
:10156800C8188242AADB1D4805686C181C44A242B0
:10157800DADB1B480068284401440B449A42FFF612
:1015880076AF184B66221A70174B00221A7088E73C
:1015980038BD00BF08040020A80300204C03002029
:1015A800180400200404002014030020280300204D
:1015B8001C03002020030020A0030020A403002017
:1015C80008030020500300202C03002030030020D3
:1015D800040300200C0300206003002024030020E3
:1015E8005803002028040020260400202DE9F34792
:1015F8004D4CDFF874A120880021DFF8709101F0CC
:10160800DFF8DFF86C81BAF80000002101F0D8F8A3
:10161800464FB9F80000002101F0D2F8444DB8F85F
:101628000000002101F0CCF8424E3888002101F07A
:10163800C7F82888012101F0C3F80121308801F09A
:10164800BFF800F089FF4FF4165100F06BFFFFF769
:10165800C9FCFFF77BFD20880024374902224FF0A0
:10166800FF33009400F0AAFB344902224FF0FF3305
:10167800BAF80000009400F0A1FB314902224FF0B3
:10168800FF33B9F80000009400F098FB2D490222BE
:101698004FF0FF33B8F80000009400F08FFB388853
:1016A800294922464FF0FF33009400F087FB298830
:1016B800B4254FF408724FF416630094019523483B
:1016C80000F009FD214840F2DC5100F0CFFC4FF456
:1016D80008724FF4166331888DE830001C4800F01A
:1016E800FAFC1B4840F2DC5100F0C0FC194B012207
:1016F8001A70194B1B782BB900F02EFF174900F010
:101708001EFCF6E700F028FF154900F018FC41F22E
:10171800883000F06DFA00F01FFF124902B0BDE8F2
:10172800F04700F00CBC00BF1003002000030020AD
:1017380054030020440300204D0F0A086D0F0A08C7
:101748008D0F0A08AD0F0A08CD0F0A08A80300205C
:1017580008040020A403002024040020EA340A0816
:10176800FC340A0815350A0818030020380300203D
:101778003C03002008B5184B1B7843B1174B1B7866
:101788002BB1174B1B7813B1164B1B7843B9164B6B
:1017980000221A70FFF722FE00F0DEFE134905E072
:1017A8000020FFF72DFE00F0D7FE114900F0C7FB1F
:1017B800104B1B7823B10C4B00221A70FFF70EFE5A
:1017C80000F08CF80C4B18600C4B1860FFF7D8FC35
:1017D800BDE80840FFF702BE48030020340300209C
:1017E8005C03002040030020A403002019350A08E8
:1017F80021350A08240400201804002004040020CD
:1018080038B51E4B00241C701D4B01251D701D4B47
:1018180002221C701C4B1D701C4B1A701C4B08229A
:101828001A7000F063F81B4B18601B48FEF78AFD1E
:101838001A48FEF787FD1A48FEF784FD1948FEF797
:1018480081FD194800F032FC184800F02FFC2146B1
:10185800284600F09DF9032000F08AF901F02AF8E3
:10186800134D0146224628461123FEF735FD28462A
:10187800BDE838400F49104A01F090B81C04002018
:10188800D0030020270400209C030020250400200A
:10189800A5030020200400202C040020D4030020ED
:1018A80084030020EC030020A80300200804002083
:1018B800B8030020AF000A086803002008B5024BEF
:1018C8001B681B6B019308BDD001060808B5024BC5
:1018D8001B685B68019308BD9C01060808B5024BAC
:1018E8001B685B69019308BD9C01060808B5024B9B
:1018F8001B681B68019308BDB001060808B5024BB8
:101908001B685B68019308BDB001060808B5024B67
:101918001B689B68019308BDB001060808B5024B17
:101928001B68DB68019308BDB001060808B5024BC7
:101938001B681B69019308BDB001060808B5024B76
:101948001B685B69019308BDB001060808B5024B26
:101958001B689B69019308BDB001060808B5024BD6
:101968001B68DB69019308BDB001060808B5024B86
:101978001B681B6C019308BDAC01060808B5024B37
:101988001B68DB6C019308BDAC01060808B5024B67
:101998001B685B6D019308BDAC01060808B5024BD6
:1019A8001B689B6D019308BDAC01060808B5024B86
:1019B8001B68DB6D019308BDAC01060808B5024B36
:1019C8001B681B6E019308BDAC01060808B5024BE5
:1019D8001B685B6E019308BDAC01060808B5024B95
:1019E8001B689B6E019308BDAC01060808B5024B45
:1019F8001B68DB6E019308BDAC01060808B5024BF5
:101A08001B681B6F019308BDAC01060808B5024BA3
:101A18001B685B6F019308BDAC01060808B5034B52
:101A28001B68D3F88030019308BD0000AC0106089C
:101A380008B5024B1B681B69019308BDA80106087D
:101A480008B5024B1B685B69019308BDA80106082D
:101A580008B5024B1B689B69019308BDA8010608DD
:101A680008B5024B1B68DB69019308BDB401060881
:101A780008B5024B1B681B6A019308BDB401060830
:101A880008B5024B1B689B69019308BDC401060891
:101A980008B5024B1B685B6A019308BDC4010608C0
:101AA80008B5024B1B689B6A019308BDC401060870
:101AB80008B5024B1B68DB6A019308BDC401060820
:101AC80008B5024B1B681B6B019308BDC4010608CF
:101AD80008B5024B1B685B6B019308BDC40106087F
:101AE80008B5024B1B689B6B019308BDC40106082F
:101AF80008B5024B1B681B6C019308BDC40106089E
:101B080008B5024B1B681B68019308BDD80106087D
:101B180008B5024B1B685B68019308BDD80106082D
:101B280008B5024B1B681B69019308BDD80106085C
:101B380008B5024B1B685B69019308BDD80106080C
:101B480008B5024B1B689B69019308BDD8010608BC
:101B580008B5024B1B68DB69019308BDD80106086C
:101B680008B5024B1B681B6A019308BDD80106081B
:101B780008B5024B1B685B68019308BDA401060801
:101B880008B5024B1B685B69019308BDA4010608F0
:101B980008B5024B1B68DB6A019308BDA40106085F
:101BA80008B5024B1B685B6E019308BDA4010608CB
:101BB80008B5024B1B689B6E019308BDA40106087B
:101BC80008B5024B1B681B69019308BDC8010608CC
:101BD80008B5024B1B685B68019308BDA0010608A5
:101BE80008B5024B1B685B6A019308BDA001060893
:101BF8000021FFF7C5BF0000084B002208491A70F2
:101C080001230B7007490A70074A1370074B022219
:101C18001A70074B08221A70704700BF480400204A
:101C28004904002046040020470400204504002001
:101C380044040020084B002208491A7001230B7045
:101C480007490A70074A1370074B02221A70074B9C
:101C580008221A70704700BF4E0400204F0400206D
:101C68004C0400204D0400204B0400204A040020AE
:101C7800084B002208491A7001230B7007490A70A3
:101C8800074A1370074B02221A70074B08221A7072
:101C9800704700BF5404002055040020520400205F
:101CA800530400205104002050040020084B002257
:101CB80008491A7001230B7007490A70074A137004
:101CC800074B02221A70074B08221A70704700BF90
:101CD8005A0400205B040020580400205904002006
:101CE80057040020560400207047F8B506461546EC
:101CF8000C468F18BC4206D0336830469B6814F8EF
:101D0800011B9847F6E72846F8BD007C0022FFF73C
:101D180055BE007C0021FFF759BE007C0021FFF76B
:101D28005DBE007C0021FFF761BE007C0021FFF74B
:101D380065BE10B50446FEF7ACF9204610BD00009C
:101D480010B504464FF47A728260054A0023436056
:101D58000260017408461946FFF760FE204610BD70
:101D680030350A08007C0022FFF700BE0021007C05
:101D78000A460B46FFF702BE13B50024007C009408
:101D8800FFF704FEC0B202B010BD0123FFF7F4BF95
:101D9800C9B2D2B20123FFF7EFBF007C0022FFF7E0
:101DA800FDBD007C0022FFF701BE0121FFF7F9BF4E
:101DB800007C0021FFF72ABE00470000F0B51C4652
:101DC80085B00E4615460746FFF7C8FD0022944227
:101DD8004FF0040303928DF80C30B4BF13469DF8FE
:101DE80028303846A4BF8DF80E3003AB0093054960
:101DF80032462B46A8BF8DF80D40FFF7A7FD0120FE
:101E080005B0F0BDC11D0A08704710B50446FEF7BD
:101E180040F9204610BDF8B50F4600F10806051D2B
:101E2800002416F8011D38460A2200F0E2F8AE42F6
:101E3800044407D0002CF4D038462E2100F070F866
:101E48000444EEE72046F8BD10B59DF8084044EA82
:101E5800032343EA024242EA016104234160037515
:101E680010BD000037B50446044D05609DF81850B4
:101E78000095FFF7E9FF204603B030BD58350A0842
:101E8800014A024B1A60704720360A085C04002099
:101E9800084B002208491A7001230B7007490A7081
:101EA800074A1370074B02221A70074B08221A7050
:101EB800704700BF6404002065040020620400200D
:101EC800630400206104002060040020F8B5064681
:101ED8000D468F180024BD420CD0336830469B68ED
:101EE80015F8011B9847002801DB0444F3E7002C90
:101EF80008BF04462046F8BD70B505460C4608469E
:101F080049B101F05CFA2B68024621462846BDE833
:101F18007040DB68184770BD08B5FFF7EDFF08BDD6
:101F280003689B68184738B50D210546FFF7F8FF89
:101F38000A2104462846FFF7F3FF204438BD38B588
:101F48000546FFF7D9FF04462846FFF7ECFF204473
:101F580038BD012A98BF0A2230B50B468BB0002144
:101F68008DF824100DF12304B3FBF2F505FB1233B1
:101F7800DBB2092B94BF30333733DBB2214604F888
:101F880001392B46002DEFD1FFF7B6FF0BB030BD5E
:101F98002DE9F04107460E4615462AB9BDE8F0413D
:101FA8000368C9B29B6818470A2A02D1002901DAD6
:101FB80004E0D2B2BDE8F041FFF7CBBF2D21FFF717
:101FC800AFFF714204462A463846FFF7C2FF204455
:101FD800BDE8F081FFF7DCBF10B52AB9BDE81040B5
:101FE8000368C9B29B681847D2B2BDE81040FFF732
:101FF800B0BFFFF7F1BF0CB42DE9F04387B000AFD5
:1020080007F1380454F8049B05460E46381D142180
:102018004A4623463C60FFF7E3FD1328014605D8EE
:102028002846391DFFF768FF044613E000F108034E
:1020380023F00703E846ADEB030D6846234601315C
:102048004A463C60FFF7CCFD69462846FFF754FF37
:102058000446C5461EB12846FFF765FF04442046DE
:102068001C37BD46BDE8F04302B070470246008801
:1020780003B201330AD053889288994203D391421C
:102088000B4628BF13461946FFF7E2BC70474FF6C8
:10209800FF73B42202814FF4087203804280002348
:1020A8004FF41662C3808280C360704710B504463F
:1020B800FFF7EDFF204610BD10B50446008803B2B7
:1020C800013306D0FFF7BCFC2046FFF7E0FF0120F4
:1020D80010BD002010BD2DE9F04104460D4608460C
:1020E800022190461F46FFF709FC022801D000266E
:1020F80019E0284600F040FB06460028F7D0B4F95E
:102108000030013302D02046FFF7D6FFBDF9183062
:102118002580E380BDF91C30A4F80280A7802381C4
:102128002846FFF785FC3046BDE8F081084B0022C1
:1021380008491A7001230B7007490A70074A13707F
:10214800074B02221A70074B08221A70704700BF0B
:102158006A0400206B040020680400206904002041
:102168006704002066040020704710B50446FDF798
:1021780090FF204610BD000070B504460E46074B80
:102188000025036040F80C5FFFF798FB3046267186
:10219800FFF766FCA560204670BD00BF58360A08E8
:1021A8000079FFF765BC0000084B002208491A7047
:1021B80001230B7007490A70074A1370074B022264
:1021C8001A70074B08221A70704700BF700400206D
:1021D800710400206E0400206F0400206D040020AC
:1021E8006C040020084B002208491A7001230B7068
:1021F80007490A70074A1370074B02221A70074BE7
:1022080008221A70704700BF760400207704002067
:102218007404002075040020730400207204002058
:10222800084B0020084A187001231370074A1070E1
:10223800074A1370074B02221A70074B08221A70BC
:10224800FFF796BC7C0400207D0400207A0400205F
:102258007B0400207904002078040020084B002229
:1022680008491A7001230B7007490A70074A13704E
:10227800074B02221A70074B08221A70704700BFDA
:1022880082040020830400208004002081040020B0
:102298007F0400207E0400200A4B00220A491A709D
:1022A80001230B7009490A70094A1370094B02226D
:1022B8001A70094B08221A70084B1A68084B1A60E2
:1022C800704700BF8D0400208F0400208C0400207C
:1022D80084040020850400208E040020640300206C
:1022E80088040020084B002208491A7001230B704B
:1022F80007490A70074A1370074B02221A70074BE6
:1023080008221A70704700BF94040020950400202A
:1023180092040020930400209104002090040020DF
:10232800084B002208491A7001230B7007490A70EC
:10233800074A1370074B02221A70074B08221A70BB
:10234800704700BF9A0400209B04002098040020D6
:1023580099040020970400209604002070474174D7
:102368007047007CFFF7C4BB007CFFF799BB007C7B
:10237800FFF7A6BB007CFFF79BBB007CFFF7A8BB61
:1023880010B50446FDF785FE204610BD70B5457CA6
:1023980004460E4625B9007CFFF7AAFB002805DD98
:1023A800207C3146BDE87040FFF772BB284670BDFF
:1023B80010B50446002060604FF47A70A0600648AB
:1023C8002174206001206074084611461A46FFF700
:1023D80057FB204610BD00BF98360A08007CFFF75F
:1023E8007FBB000038B50C4D296811F0010411D1EC
:1023F8002846FDF750FE68B12146084A084B0948AF
:10240800FFF7D6FF2846FDF74BFE06480649074A60
:1024180000F0C4FA034838BD340500203805002010
:10242800B00400209C04002065230A0868030020EB
:10243800084B002208491A7001230B7007490A70DB
:10244800074A1370074B02221A70074B08221A70AA
:10245800704700BFC0050020C1050020BE05002050
:10246800BF050020BD050020BC050020084B002248
:1024780008491A7001230B7007490A70074A13703C
:10248800074B02221A70074B08221A70704700BFC8
:10249800C6050020C7050020C3050020C50500208B
:1024A800C2050020C4050020417470477047007CB5
:1024B8000021FFF745BB007C0121FFF741BB007CF1
:1024C800FFF736BB007CFFF72BBB38B50446007C12
:1024D8000D46FFF72DFB002801DC607C20B1207C35
:1024E8002946FFF735FB012038BD007CFFF738BBD4
:1024F80010B50446FDF7CDFD204610BD10B50446C5
:10250800002343604FF47A738360054B01740360C2
:102518000123437408461146FFF7F2FA204610BD1E
:10252800C8360A08007C0022FFF7F2BA10B5044644
:102538000021142200F03BFF054B20466360054B49
:10254800E36040F2011323818123238210BD00BF81
:102558004D060020CC05002030B50E4D87B001A8EF
:10256800FFF7E4FF296811F0010410D12846FDF7B0
:1025780092FD60B1214601AA0748FFF7BFFF284630
:10258800FDF78EFD04480549054A00F007FA0248A0
:1025980007B030BDC805002050070020B5240A0840
:1025A8006803002010B504460021142200F0FFFE45
:1025B800054B20466360054BE36040F2011323811D
:1025C8008123238210BD00BF000800206807002077
:1025D80010B50E4C86B001A8FFF7E4FF2368DB07AF
:1025E80010D42046FDF757FD60B1012101AA084823
:1025F800FFF784FF2046FDF753FD05480549064AC5
:1026080000F0CCF9024806B010BD00BF64070020F6
:10261800EC070020B5240A08680300207047002052
:1026280001460246FFF7CCBA0348044B0449054A61
:10263800036000F0B3B900BF04090020F8360A08A7
:1026480025260A086803002008B5144B33B1FFF7A4
:1026580083FF03681B699847002816DC104B33B1C9
:10266800FFF7C0FE03681B699847002810DC0D4B74
:102678000BB1AFF300800C4B7BB1FFF7A9FF0368E8
:102688001B699847002806DC08BDAFF30080E5E722
:10269800AFF30080EBE7AFF3008008BD0000000057
:1026A80000000000000000000000000008B5FFF76F
:1026B800CBFFFFF713F9014B186008BD1409002080
:1026C8000248034A0349121A00F066BE004002405D
:1026D8000440024070370A080020704737B5436845
:1026E80004460A2B0FD0502B1DD1104B1D68D5B1B5
:1026F800037D4FF4007100938068E26804F11003D1
:10270800A84748B90FE080684FF40071E26804F107
:102718001003FFF7E1FF38B1002120460A46FFF712
:1027280047FA012000E0002003B030BD080900206E
:1027380038B50C4C0C4D23685A1B534253410B4A75
:10274800137013B9FFF7BCFF2560094B1BB1FFF7E6
:10275800BDF8AFF30080BDE8384006480021FFF718
:102768001FBA00BF004002401E1C279A0C09002017
:1027780000000000E5260A0810B504460F48FFF7D8
:102788000FFD28B1A4F10D03022B01D8002010BDC4
:1027980000F090F8FFF70CFB08B1012CF6D9FFF711
:1027A80021FEFFF71BFE18B1A4F11203012BEDD98E
:1027B800172C8CBF0020012010BD00BF5809002035
:1027C800172838B505460C460AD8FF2908D0FFF760
:1027D800D3FF28B128462146BDE83840FFF796B810
:1027E80038BD38B504460D46FFF798F8FF2810D0D5
:1027F80078B1831EDBB2012B0BD9062809D02046FD
:10280800FFF7BAFF28B120462946BDE83840FFF750
:102818008DB838BD10B50446FFF780F80438C0B24B
:10282800012808D92046FFF7A7FF20B12046BDE8B8
:102838001040FFF783B8002010BD0000084B0022AD
:1028480008491A7001230B7007490A70074A137068
:10285800074B02221A70074B08221A70704700BFF4
:1028680011090020120900200F090020100900207A
:102878000E0900200D090020084B002208491A7093
:1028880001230B7007490A70074A1370074B02228D
:102898001A70074B08221A70704700BF1C090020E5
:1028A8001D0900201A0900201B0900201909002011
:1028B8001809002038B50B4D296811F001040FD113
:1028C8002846FDF7E8FB58B121460748FFF738FAD4
:1028D8002846FDF7E5FB04480449054A00F05EF880
:1028E800014838BD2009002024090020F11C0A08ED
:1028F8006803002013B5084C002100910A460B46D6
:102908002046FFF7AFFA20460449054A02B0BDE861
:10291800104000F043B800BF38090020111E0A0813
:1029280068030020F8B5134B00211970124B0124DD
:102938001C70124B124F1970124B02221C70124B52
:10294800124E1A70124B0822124D38461A70FFF7B1
:1029580013FC3846104F2A46314600F01FF821462E
:102968003846FFF709FC384631462A46BDE8F840A4
:1029780000F014B85409002055090020520900201D
:1029880058090020530900205109002071210A0824
:102998005009002068030020680900200346084603
:1029A800194600F0EBBC0000244B1A68D0075CBF46
:1029B80001221A60224B1A68D1075CBF01221A60F3
:1029C800204B1A68D2075CBF01221A601E4B1A6896
:1029D800D0075CBF01221A601C4B1A68D1075CBF84
:1029E80001221A601A4B1A68D2075CBF01221A60CA
:1029F800184B1A68D0075CBF01221A60164B1A6878
:102A0800D1075CBF01221A60144B1A68D2075CBF59
:102A180001221A60124B1A68D0075CBF01221A60A3
:102A2800104B1A68D1075CBF01221A600E4B1A6856
:102A3800D2075CBF01221A60704700BFA4090020BA
:102A4800A00900209C090020980900209409002072
:102A5800900900208C0900208809002084090020A2
:102A6800800900207C09002078090020244B1A687E
:102A7800D0075CBF01221A60224B1A68D1075CBFDD
:102A880001221A60204B1A68D2075CBF01221A6023
:102A98001E4B1A68D0075CBF01221A601C4B1A68CB
:102AA800D1075CBF01221A601A4B1A68D2075CBFB3
:102AB80001221A60184B1A68D0075CBF01221A60FD
:102AC800164B1A68D1075CBF01221A60144B1A68AA
:102AD800D2075CBF01221A60124B1A68D0075CBF8C
:102AE80001221A60104B1A68D1075CBF01221A60D4
:102AF8000E4B1A68D2075CBF01221A60704700BFEC
:102B0800D4090020D0090020CC090020C8090020E1
:102B1800C4090020C0090020BC090020B809002011
:102B2800B4090020B0090020AC090020A809002041
:102B380081F0004102E000BF83F0004330B54FEA66
:102B480041044FEA430594EA050F08BF90EA020FD3
:102B58001FBF54EA000C55EA020C7FEA645C7FEA66
:102B6800655C00F0E2804FEA5454D4EB5555B8BF89
:102B78006D420CDD2C4480EA020281EA030382EAFA
:102B8800000083EA010180EA020281EA0303362D8C
:102B980088BF30BD11F0004F4FEA01314FF4801C5F
:102BA8004CEA113102D0404261EB410113F0004F71
:102BB8004FEA03334CEA133302D0524263EB430328
:102BC80094EA050F00F0A780A4F10104D5F1200EC6
:102BD8000DDB02FA0EFC22FA05F2801841F1000121
:102BE80003FA0EF2801843FA05F359410EE0A5F1F5
:102BF80020050EF1200E012A03FA0EFC28BF4CF026
:102C0800020C43FA05F3C01851EBE37101F00045DB
:102C180007D54FF0000EDCF1000C7EEB00006EEBE8
:102C28000101B1F5801F1BD3B1F5001F0CD3490872
:102C38005FEA30004FEA3C0C04F101044FEA4452C9
:102C480012F5800F80F09A80BCF1004F08BF5FEA50
:102C5800500C50F1000041EB045141EA050130BD30
:102C68005FEA4C0C404141EB010111F4801FA4F1D3
:102C78000104E9D191F0000F04BF01460020B1FA28
:102C880081F308BF2033A3F10B03B3F120020CDA60
:102C98000C3208DD02F1140CC2F10C0201FA0CF03E
:102CA80021FA02F10CE002F11402D8BFC2F1200CA3
:102CB80001FA02F120FA0CFCDCBF41EA0C01904059
:102CC800E41AA2BF01EB0451294330BD6FEA0404A2
:102CD8001F3C1CDA0C340EDC04F11404C4F120028D
:102CE80020FA04F001FA02F340EA030021FA04F39F
:102CF80045EA030130BDC4F10C04C4F1200220FAF6
:102D080002F001FA04F340EA0300294630BD21FA33
:102D180004F0294630BD94F0000F83F4801306BFF9
:102D280081F480110134013D4EE77FEA645C18BFED
:102D38007FEA655C29D094EA050F08BF90EA020F84
:102D480005D054EA000C04BF1946104630BD91EA7C
:102D5800030F1EBF0021002030BD5FEA545C05D17F
:102D68004000494128BF41F0004130BD14F58004BE
:102D78003CBF01F5801130BD01F0004545F0FE4132
:102D880041F470014FF0000030BD7FEA645C1ABF67
:102D9800194610467FEA655C1CBF0B46024650EA9E
:102DA800013406BF52EA033591EA030F41F40021CA
:102DB80030BD00BF90F0000F04BF0021704730B550
:102DC8004FF4806404F132044FF000054FF0000125
:102DD80050E700BF90F0000F04BF0021704730B5E6
:102DE8004FF4806404F1320410F0004548BF4042BB
:102DF8004FF000013EE700BF42004FEAE2014FEA10
:102E080031014FEA02701FBF12F07F4393F07F4FEA
:102E180081F06051704792F0000F14BF93F07F4F1C
:102E2800704730B54FF4607401F0004521F000415F
:102E380020E700BF50EA010208BF704730B54FF0E5
:102E480000050AE050EA010208BF704730B511F0EA
:102E5800004502D5404261EB41014FF4806404F122
:102E680032045FEA915C3FF4DCAE4FF003025FEAA4
:102E7800DC0C18BF03325FEADC0C18BF033202EB2C
:102E8800DC02C2F1200300FA03FC20FA02F001FA86
:102E980003FE40EA0E0021FA02F11444C1E600BF25
:102EA8004FF0FF3C06E000BF4FF0010C02E000BF0E
:102EB8004FF0010C4DF804CD4FEA410C7FEA6C5CF1
:102EC8004FEA430C18BF7FEA6C5C1BD001B050EA94
:102ED800410C0CBF52EA430C91EA030F02BF90EA7F
:102EE800020F0020704710F1000F91EA030F58BF3E
:102EF800994208BF90422CBFD8176FEAE37040F0A0
:102F0800010070474FEA410C7FEA6C5C02D150EA3D
:102F1800013C07D14FEA430C7FEA6C5CD6D152EAF8
:102F2800033CD3D05DF8040B704700BF84461046BD
:102F380062468C461946634600E000BF01B5FFF7BC
:102F4800B7FF002848BF10F1000F01BD4DF808ED8C
:102F5800FFF7F4FF0CBF012000205DF808FB00BF5D
:102F68004DF808EDFFF7EAFF34BF012000205DF8B7
:102F780008FB00BF4DF808EDFFF7E0FF94BF012004
:102F880000205DF808FB00BF4DF808EDFFF7CEFF05
:102F980094BF012000205DF808FB00BF4DF808ED44
:102FA800FFF7C4FF34BF012000205DF808FB00BF15
:102FB8004FF0FF0C1CEAD0521EBF1CEAD15392EA14
:102FC8000C0F93EA0C0F6FD01A4480EA010C4002F0
:102FD80018BF5FEA41211ED04FF0006343EA50104A
:102FE80043EA5111A0FB01310CF00040B1F5000F8C
:102FF8003EBF490041EAD3715B0040EA010062F13B
:103008007F02FD2A1DD8B3F1004F40EBC25008BF24
:1030180020F00100704790F0000F0CF0004C08BF42
:1030280049024CEA502040EA51207F3AC2BFD2F10F
:10303800FF0340EAC250704740F400004FF000031D
:10304800013A5DDC12F1190FDCBF00F00040704757
:10305800C2F10002410021FA02F1C2F1200200FA95
:1030680002FC5FEA310040F1000053EA4C0308BF5C
:1030780020EADC70704792F0000F00F0004C02BFAD
:10308800400010F4000F013AF9D040EA0C0093F028
:10309800000F01F0004C02BF490011F4000F013B82
:1030A800F9D041EA0C018FE70CEAD15392EA0C0FF0
:1030B80018BF93EA0C0F0AD030F0004C18BF31F05B
:1030C800004CD8D180EA010000F00040704790F031
:1030D800000F17BF90F0004F084691F0000F91F0D5
:1030E800004F14D092EA0C0F01D142020FD193EA9B
:1030F8000C0F03D14B0218BF084608D180EA010023
:1031080000F0004040F0FE4040F40000704740F0FE
:10311800FE4040F4400070474FF0FF0C1CEAD052CC
:103128001EBF1CEAD15392EA0C0F93EA0C0F69D028
:10313800A2EB030280EA010C49024FEA402037D093
:103148004FF0805343EA111143EA10130CF000408A
:103158008B4238BF5B0042F17D024FF4000C8B427A
:1031680024BF5B1A40EA0C00B3EB510F24BFA3EB5A
:10317800510340EA5C00B3EB910F24BFA3EB91032A
:1031880040EA9C00B3EBD10F24BFA3EBD10340EA84
:10319800DC001B0118BF5FEA1C1CE0D1FD2A3FF6CA
:1031A80050AF8B4240EBC25008BF20F0010070477F
:1031B8000CF0004C4CEA50207F32C2BFD2F1FF0322
:1031C80040EAC250704740F400004FF00003013A53
:1031D80037E792F0000F00F0004C02BF400010F4F7
:1031E800000F013AF9D040EA0C0093F0000F01F00B
:1031F800004C02BF490011F4000F013BF9D041EA2D
:103208000C0195E70CEAD15392EA0C0F08D142025F
:103218007FF47DAF93EA0C0F7FF470AF084676E732
:1032280093EA0C0F04D14B023FF44CAF08466EE70B
:1032380030F0004C18BF31F0004CCAD130F00042D9
:103248007FF45CAF31F000437FF43CAF5FE700BF31
:103258004FF0FF3C06E000BF4FF0010C02E000BF5A
:103268004FF0010C4DF804CD4FEA40024FEA4103FC
:103278007FEA226C18BF7FEA236C11D001B052EAB2
:10328800530C18BF90EA010F58BFB2EB030088BF78
:10329800C81738BF6FEAE17018BF40F001007047E7
:1032A8007FEA226C02D15FEA402C05D17FEA236CC9
:1032B800E4D15FEA412CE1D05DF8040B704700BF10
:1032C800844608466146FFE70FB5FFF7C9FF0028A7
:1032D80048BF10F1000F0FBD4DF808EDFFF7F4FFE0
:1032E8000CBF012000205DF808FB00BF4DF808ED79
:1032F800FFF7EAFF34BF012000205DF808FB00BF9C
:103308004DF808EDFFF7E0FF94BF012000205DF8BD
:1033180008FB00BF4DF808EDFFF7D2FF94BF01206E
:1033280000205DF808FB00BF4DF808EDFFF7C8FF67
:1033380034BF012000205DF808FB00BF42000ED218
:10334800B2F1FE4F0BD34FF09E03B3EB126209D4D8
:103358004FEA002343F0004323FA02F070474FF08E
:103368000000704712F1610F01D1420202D14FF003
:10337800FF3070474FF00000704700BF38B5054672
:1033880004480C46134620B1022029462246AFF3D2
:10339800008038BD0000000010B5431E0A44914269
:1033A80004D011F8014B03F8014FF8E710BD0346AC
:1033B8000244934202D003F8011BFAE77047034620
:1033C80013F8012B002AFBD1181A013870470000A6
:1033D8001D000A085D000A0889000A088D000A080D
:1033E80000000000000000000000000000000000D5
:1033F800AF000A08B1000A0805010A08BD000A085A
:10340800646576696365206E6F7420666F756E6497
:1034180000726573657474696E67206C6173744DAE
:103428006F76656D656E7420696E74315F73726353
:103438003D3078257800726563616C6962726174E9
:10344800696E67007365747570537563636573732C
:103458003D25640072656D6F7465207374617475C1
:10346800733A00207C200073656E736F7220303AC7
:103478000073656E736F7220313A0073656E736FF7
:103488007220323A0073656E736F7220333A0066A9
:10349800726F6E74206C6566743A0066726F6E7433
:1034A8002072696768743A006261636B206C6566B4
:1034B800743A006261636B2072696768743A002528
:1034C800642C25642C2564006E6F2073616D706C0C
:1034D80065002053454E534F522054494D454F5592
:1034E800540057616974696E6720666F722053745F
:1034F800617274005374617274696E6720696E201A
:1035080035207365636F6E64732E2E2E00474F212E
:103518000053746F70706564004D6F76696E670054
:103528000000000000000000F11C0A083B1D0A080A
:10353800131D0A08F31C0A081B1D0A08231D0A0884
:103548002B1D0A08331D0A080000000000000000B7
:103558001F1E0A08111E0A08131E0A080000000090
:1035680066006C6E00666E00636F64650064657467
:1035780061696C000D0A00253031307520005D202E
:10358800002C200028293A2000205B00636F646526
:10359800203D200025690064657461696C73203DD5
:1035A8002000626175640053657269616C0055534F
:1035B8004253657269616C3100747970650070619D
:1035C80072616D00636D6400696400686E64007305
:1035D80074726D0066696C74006C766C006164646A
:1035E80048616E646C65720072656D6F76654861DE
:1035F8006E646C657200656E756D48616E646C65AD
:103608007273004A534F4E53747265616D4C6F6705
:1036180048616E646C657200617070006E6F6E65F3
:1036280000747261636500696E666F007761726E1F
:10363800006572726F720070616E696300616C6C14
:103648000000000000000000000000000000000072
:1036580071210A0873210A085A00252B3033643A6D
:10366800253032750025592D256D2D2564542548A2
:103678003A254D3A2553257A0061736374696D655F
:103688000000000000000000000000000000000032
:1036980065230A0889230A0895230A08D51E0A08FB
:1036A80071230A087D230A0877230A0883230A0856
:1036B80067230A086B230A080000000000000000C6
:1036C800B5240A08F9240A08D3240A08D51E0A08CA
:1036D800CD240A08B7240A08BF240A08F3240A08D4
:1036E800C7240A08B1240A080000000000000000EE
:1036F80027260A0800000000F5020A08050F0A0834
:1037080009180A08011C0A083D1C0A08791C0A083D
:10371800B51C0A08891E0A08991E0A0835210A08D4
:10372800B1210A08ED210A0829220A0865220A0897
:10373800A1220A08ED220A0829230A0839240A08BE
:1037480075240A0831260A0845280A0881280A0823
:10375800FD280A082D290A08B1290A08752A0A0825
:08376800000000000000000059
:043770000000000055
:10377400040000002C01000011010000F40100000D
:103784000E0000002C010000070000004B000000A8
:103794004B000000D00700008403000084030000F5
:1037A40058020000010000000500000006000000AF
:1037B40001000000030000000100000046000000BA
:1037C4004600000002000000BC02000001000000EE
:0837D400BC02000081360A0866
:1037DC00FFFFFFFF00000102030405060708090AAA
:1037EC000B0C0D0E0F101112131415161718191AA5
:0837FC001B1C1D1E1F202800EC
:0438040078563412AC
:04000005080A0018CD
:00000001FF
