:02000004080AE8
:1000000000000A08E4190A080000040006000501BF
:0800100004026C000000000076
:10001800BC160A0809480A4908B5884205D0094AA1
:10002800824202D0121A01F029FB0748074A002130
:10003800121A01F02EFB064808BD00BF000300207D
:10004800B4190A0808030020080300200809002042
:100058000809002070B500F023FF074B074C1E4627
:10006800E41AA4080025A54204D056F8253098477C
:100078000135F8E770BD00BF40190A08A8190A0839
:1000880000F048BA08B500F05BFABDE8084000F097
:10009800C5BE00F019BC0078B0FA80F0400970477E
:1000A800012303707047704710B50446FFF7F1FF4E
:1000B800204610BDF8B505461E460F46017CC068AF
:1000C80041F01801144600F0CBFCE868012E0368E3
:1000D80088BF47F080079B68394698472644B44252
:1000E800E86805D0036814F8011B9B689847F6E791
:1000F80000F0BEFCB0FA80F04009F8BDF8B504463F
:100108001E460F46017CC06841F01801154600F0F4
:10011800A7FCE068012E036888BF47F080079B684A
:1001280039469847E06800F0A3FCA8B9217C32461C
:10013800E06841F0180100F08EFC2E44B5420DD065
:10014800E06803681B69984740B1E06803685B6929
:10015800984705F8010BF1E70020F8BD0120F8BD2C
:100168000022027042708270C27002714271827104
:10017800C271027242728272704741F007010170C7
:10018800704713B5036801AA9C680123A0479DF82E
:10019800040002B010BD38B505460A2428460F21D0
:1001A800FFF7EFFF33284FF0010005D000F042FFC2
:1001B800013CF3D1204638BD38BDF7B50C460721C0
:1001C8000646FFF7DEFFC0F3C005DDB133686A46B7
:1001D8009F68304606232821B8479DF801209DF8DE
:1001E800003043EA022323809DF803209DF8023063
:1001F80043EA022363809DF805209DF8043043EA12
:100208000223A380284603B0F0BD13B502AB03F860
:10021800042D0268D4681A460123A04702B010BD15
:1002280070B504460D46FFF7B6FF064628B900F03C
:1002380007FD284900F059FF49E0204620212A7887
:10024800FFF7E3FF204621216A78FFF7DEFF20460B
:100258002221AA78FFF7D9FF20462321EA78FFF761
:10026800D4FF204624212A79FFF7CFFF20462521F5
:100278006A79FFF7CAFFAB791BB120462621FFF741
:1002880080FF20462E21AA7AFFF7BFFFAB785B06D6
:100298001DD520463221EA79FFF7B7FF20463321E2
:1002A8002A7AFFF7B2FF6368002B0ADB6A7A2046D6
:1002B80022723021FFF7A9FF20463121FFF761FFA5
:1002C80005E00022227220463021FFF79EFF3046CB
:1002D80070BD00BFE8160A0810B54360024BC16044
:1002E8000360027410BD00BFD8160A0808B50A4B8F
:1002F80000220A491A7001230B7009490A70094A39
:100308001370094B02221A70084B08221A7000F069
:10031800A3FA074B186008BD13030020150300203B
:1003280011030020120300201003002014030020F2
:100338000C03002008B50A4B00220A491A70012351
:100348000B7009490A70094A1370094B02221A7086
:10035800084B08221A7000F07FFA074B186008BD96
:100368001A0300202003002018030020190300208E
:1003780017030020160300201C03002003681847F9
:10038800012A02D0022A02D004E0016002E00B68D0
:1003980000B103600020704710B5054C05482146A0
:1003A800FFF70BFFB4F90020034B1A6010BD00BF24
:1003B8002A030020340300206803002010B501231D
:1003C80003714369044613B183690C3098470023CD
:1003D800237110BD07B5002302A941F8043D00F0C0
:1003E80003FA20B9019810B103689B68984703B0D5
:1003F8005DF804FB10B58368044613B10146032277
:100408009847204610BD000037B5114B04460360DD
:100418008068A8B16FF00043002200930192022186
:10042800134600F0E9F9237903F0FF051BB1012019
:1004380000F000FEF7E7A068294600F0CDF9A560B6
:1004480004F10C00FFF7D6FF204603B030BD00BF13
:1004580038170A0810B50446FFF7D6FF2046FFF7FD
:1004680018FE204610BD00001FB501A8FFF778FE52
:1004780001A87021FFF781FE01A90648FFF7D0FE09
:10048800044600F0DDFB0121034A234600F065FE27
:1004980004B010BD3403002044170A0813B500F057
:1004A800C3F9164C2368C01A632824D900F0BCF994
:1004B8002060134C00F0C4FB124900F003FE124800
:1004C8002146FFF77AFE70B100F0BAFBB4F90220BA
:1004D800B4F900300092B4F90420012101920B4ACA
:1004E80000F03BFE07E000F0ABFB094902B0BDE8B5
:1004F800104000F0FABD02B010BD00BF2403002078
:100508002A03002054170A083403002063170A0836
:100518006C170A0808B5094B0021188800F0A6FFD7
:1005280000F08EFB4FF4165100F070FBFFF79CFFB4
:10053800BDE808404FF47A7000F07CBD000300204D
:10054800FFF7ACBF2A4B70B52A4A00251D7001235E
:100558001370294A88B01570284A04AE1370284BC6
:1005680002221A70274B08221A7000F075F9264BE0
:1005780002AA1860254B264C049396E80300254BE5
:1005880082E80300236004F10C0393E8030086E883
:10059800030092E8030083E803001F4B25716361A1
:1005A800A369A56007931D4B6421A3611C4A2346D8
:1005B8000095019504F10800069500F005F930460C
:1005C800184EFFF717FF32461749204600F07EFF06
:1005D80000F096FE154C01462A4611232046FFF7E7
:1005E8007BFE20461249324600F070FF08B070BD0D
:1005F800490300204B03002030030020480300205B
:10060800280300204A0300206C030020A1030A08E5
:100618004C03002038170A0889030A0885030A08CA
:10062800DD030A080803002011040A083403002027
:10063800AF000A0808B5024B1B681B68019308BD88
:10064800D801060808B5024B1B685B68019308BD12
:10065800D801060808B5024B1B681B69019308BD41
:10066800D801060808B5024B1B685B69019308BDF1
:10067800D801060808B5024B1B689B69019308BDA1
:10068800D801060808B5024B1B68DB69019308BD51
:10069800D801060808B5024B1B681B6A019308BD00
:1006A800D801060808B5024B1B685B6D019308BDAD
:1006B800AC01060808B5024B1B689B6D019308BD89
:1006C800AC01060808B5024B1B68DB6D019308BD39
:1006D800AC01060808B5024B1B681B6E019308BDE8
:1006E800AC01060808B5024B1B685B6E019308BD98
:1006F800AC01060808B5024B1B689B6E019308BD48
:10070800AC01060808B5024B1B68DB6E019308BDF7
:10071800AC01060808B5024B1B681B6F019308BDA6
:10072800AC01060808B5024B1B685B6F019308BD56
:10073800AC01060808B5034B1B68D3F88030019359
:1007480008BD0000AC01060808B5024B1B689B6990
:10075800019308BDC401060808B5024B1B685B6A13
:10076800019308BDC401060808B5024B1B689B6AC3
:10077800019308BDC401060808B5024B1B68DB6A73
:10078800019308BDC401060808B5024B1B681B6B22
:10079800019308BDC401060808B5024B1B685B6BD2
:1007A800019308BDC401060808B5024B1B689B6B82
:1007B800019308BDC401060808B5024B1B681B6CF1
:1007C800019308BDC401060808B5024B1B681B6AE3
:1007D800019308BDD001060808B5024B1B685B6A87
:1007E800019308BDD001060808B5024B1B689B6A37
:1007F800019308BDD001060808B5024B1B68DB6AE7
:10080800019308BDD001060808B5024B1B681B6B95
:10081800019308BDD001060808B5024B1B685B6848
:10082800019308BD9C01060808B5024B1B685B696B
:10083800019308BD9C01060808B5024B1B68DB69DB
:10084800019308BDB401060808B5024B1B681B6A72
:10085800019308BDB401060808B5024B1B681B6864
:10086800019308BDB001060808B5024B1B689B68D8
:10087800019308BDB001060808B5024B1B681B6947
:10088800019308BDC801060808B5024B1B685B68E0
:10089800019308BDA401060808B5024B1B685B69F3
:1008A800019308BDA401060808B5024B1B685B6EDE
:1008B800019308BDA401060808B5024B1B689B6E8E
:1008C800019308BDA401060808B5024B1B685B68C4
:1008D800019308BDA001060808B5024B1B685B6AB6
:1008E800019308BDA0010608704700200146024692
:1008F800FFF7C2BF0348044B0449054A036000F0F0
:10090800E5BD00BF7003002080170A08F1080A0837
:1009180008030020084B002208491A7001230B70B5
:1009280007490A70074A1370074B02221A70074BCF
:1009380008221A70704700BF78030020790300204E
:10094800760300207703002075030020740300203D
:10095800084B002208491A7001230B7007490A70D6
:10096800074A1370074B02221A70074B08221A70A5
:10097800704700BF7E0300207F0300207B03002018
:100988007D0300207A0300207C030020084B00220E
:1009980008491A7001230B7007490A70074A137037
:1009A800074B02221A70074B08221A70704700BFC3
:1009B8008403002085030020820300208303002095
:1009C80081030020800300207047F8B506461546CD
:1009D8000C468F18BC4206D0336830469B6814F822
:1009E800011B9847F6E72846F8BD007C0022FFF770
:1009F80071BE007C0021FFF775BE007C0021FFF767
:100A080079BE007C0021FFF77DBE007C0021FFF746
:100A180081BE10B50446FFF73CFB204610BD000020
:100A280010B504464FF47A728260054A0023436089
:100A38000260017408461946FFF77CFE204610BD87
:100A480090170A0813B50024007C0094FFF72AFECB
:100A5800C0B202B010BDC9B2D2B20123FFF7F2BFD3
:100A6800007C0022FFF726BE007C0022FFF72ABE8A
:100A78000121FFF7F9BF007C0021FFF753BE704743
:100A880041747047007CFFF797BE007CFFF76CBE8F
:100A9800007CFFF779BE007CFFF76EBE007CFFF795
:100AA8007BBE10B50446FFF7F4FA204610BD70B5BA
:100AB800457C04460E4625B9007CFFF77DFE0028DC
:100AC80005DD207C3146BDE87040FFF745BE28466D
:100AD80070BD000010B50446002060604FF47A70C5
:100AE800A060064821742060012060740846114601
:100AF8001A46FFF729FE204610BD00BFB8170A089E
:100B0800007CFFF751BE000038B50C4D296811F084
:100B1800010411D12846FFF7BEFA68B12146084AF8
:100B2800084B0948FFF7D6FF2846FFF7B9FA0648E9
:100B38000649074A00F0CAFC034838BD20040020D3
:100B4800240400209C03002088030020870A0A0848
:100B580008030020084B002208491A7001230B7073
:100B680007490A70074A1370074B02221A70074B8D
:100B780008221A70704700BFAC040020AD040020A2
:100B8800AA040020AB040020A9040020A804002027
:100B9800417470477047007C0021FFF76BBD007CF3
:100BA8000121FFF767BD007CFFF75CBD007CFFF704
:100BB80051BD38B50446007C0D46FFF753FD0028AB
:100BC80001DC607C20B1207C2946FFF75BFD012019
:100BD80038BD007CFFF75EBD10B50446FFF759FA33
:100BE800204610BD10B50446002343604FF47A73C5
:100BF8008360054B01740360012343740846114662
:100C0800FFF718FD204610BDE8170A08007C0022EF
:100C1800FFF718BD10B504460021142200F039FD75
:100C2800054B20466360054BE36040F201132381C6
:100C38008123238210BD00BF35050020B4040020A5
:100C480030B50E4D87B001A8FFF7E4FF296811F011
:100C5800010410D12846FFF71EFA60B1214601AA07
:100C68000748FFF7BFFF2846FFF71AFA0448054967
:100C7800054A00F02BFC024807B030BDB004002044
:100C8800380600209D0B0A080803002010B504460A
:100C98000021142200F0FDFC054B20466360054B43
:100CA800E36040F2011323818123238210BD00BF3A
:100CB800E80600205006002010B50E4C86B001A8AA
:100CC800FFF7E4FF2368DB0710D42046FFF7E3F9BA
:100CD80060B1012101AA0848FFF784FF2046FFF709
:100CE800DFF905480549064A00F0F0FB024806B05E
:100CF80010BD00BF4C060020D40600209D0B0A083A
:100D080008030020704710B50446FFF7C2F92046D3
:100D180010BDF8B50F4600F10806051D002416F8A9
:100D2800011D38460A2200F016FAAE42044407D0E4
:100D3800002CF4D038462E2100F0C8F90444EEE720
:100D48002046F8BD10B59DF8084044EA032343EA5D
:100D5800024242EA016104234160037510BD0000AC
:100D680037B50446044D05609DF818500095FFF707
:100D7800E9FF204603B030BD18180A08084B0022C6
:100D880008491A7001230B7007490A70074A137043
:100D9800074B02221A70074B08221A70704700BFCF
:100DA800ED070020EE070020EB070020EC070020ED
:100DB800EA070020E907002008B5144B33B1FFF714
:100DC8003FFF03681B699847002816DC104B33B1B6
:100DD800FFF79AFE03681B699847002810DC0D4B43
:100DE8000BB1AFF300800C4B7BB1FFF765FF0368D5
:100DF8001B699847002806DC08BDAFF30080E5E7CB
:100E0800AFF30080EBE7AFF3008008BD00000000FF
:100E180000000000000000000000000008B5FFF717
:100E2800CBFFFFF701FD014B186008BD74080020D7
:100E38000248034A0349121A00F020BC004002404D
:100E480004400240B0190A080020704737B54368CB
:100E580004460A2B0FD0502B1DD1104B1D68D5B15D
:100E6800037D4FF4007100938068E26804F1100379
:100E7800A84748B90FE080684FF40071E26804F1B0
:100E88001003FFF7E1FF38B1002120460A46FFF7BB
:100E980013FD012000E0002003B030BDF007002062
:100EA80038B50C4C0C4D23685A1B534253410B4A1E
:100EB800137013B9FFF7BCFF2560094B1BB1FFF78F
:100EC800ABFCAFF30080BDE8384006480021FFF7CF
:100ED800EBBC00BF004002401E1C279AF40700200C
:100EE80000000000550E0A08084B002208491A7035
:100EF80001230B7007490A70074A1370074B022237
:100F08001A70074B08221A70704700BFF9070020B3
:100F1800FA070020F7070020F8070020F60700204E
:100F2800F5070020084B002208491A7001230B70AE
:100F380007490A70074A1370074B02221A70074BB9
:100F480008221A70704700BFFF0700200008002021
:100F5800FD070020FE070020FC070020FB070020FB
:100F6800084B002208491A7001230B7007490A70C0
:100F7800074A1370074B02221A70074B08221A708F
:100F8800704700BF0508002006080020030800205D
:100F98000408002002080020010800200A4B002253
:100FA8000A491A7001230B7009490A70094A13701B
:100FB800094B02221A70094B08221A70084B1A684A
:100FC800084B1A60704700BF110800201308002062
:100FD8001008002007080020080800201208002038
:100FE800040300200C080020014A024B1A607047D5
:100FF80005190A0814080020084B002208491A702D
:1010080001230B7007490A70074A1370074B022225
:101018001A70074B08221A70704700BF1C0800207E
:101028001D0800201A0800201B08002019080020AD
:10103800180800200021FFF72FBC0000084B0022F1
:1010480008491A7001230B7007490A70074A137080
:10105800074B02221A70074B08221A70704700BF0C
:101068002208002023080020200800202108002052
:101078001F0800201E080020F8B506460D468F18E8
:101088000024BD420CD0336830469B6815F8011B1C
:101098009847002801DB0444F3E7002C08BF044606
:1010A8002046F8BD70B505460C46084649B100F023
:1010B800F8FA2B68024621462846BDE87040DB68EE
:1010C800184770BD08B5FFF7EDFF08BD03689B68BA
:1010D800184738B50D210546FFF7F8FF0A210446E1
:1010E8002846FFF7F3FF204438BD38B50546FFF71B
:1010F800D9FF04462846FFF7ECFF204438BD012AF3
:1011080098BF0A2230B50B468BB000218DF8241009
:101118000DF12304B3FBF2F505FB1233DBB2092B07
:1011280094BF30333733DBB2214604F801392B46FC
:10113800002DEFD1FFF7B6FF0BB030BD10B52AB9BF
:10114800BDE810400368C9B29B681847D2B2BDE831
:101158001040FFF7D4BFFFF7F1BF0CB42DE9F043FF
:1011680087B000AF07F1380454F8049B05460E46D3
:10117800381D14214A4623463C60FFF7ADFB13286F
:10118800014605D82846391DFFF78CFF044613E0B1
:1011980000F1080323F00703E846ADEB030D6846AA
:1011A800234601314A463C60FFF796FB69462846CC
:1011B800FFF778FF0446C5461EB12846FFF789FFAA
:1011C800044420461C37BD46BDE8F04302B07047D2
:1011D800084B0020084A187001231370074A107042
:1011E800074A1370074B02221A70074B08221A701D
:1011F800FFF74ABB280800202908002026080020FD
:10120800270800202508002024080020084B002279
:1012180008491A7001230B7007490A70074A1370AE
:10122800074B02221A70074B08221A70704700BF3A
:101238002E0800202F0800202C0800202D08002050
:101248002B0800202A080020704710B50446FEF736
:1012580020FF204610BD000070B504460E46074B1F
:101268000025036040F80C5FFFF7CEFA3046267180
:10127800FFF7E2FAA560204670BD00BF38190A08DA
:101288000079FFF7E1BA0000084B002208491A70FC
:1012980001230B7007490A70074A1370074B022293
:1012A8001A70074B08221A70704700BF34080020D4
:1012B80035080020320800203308002031080020BB
:1012C80030080020084B002208491A7001230B70CF
:1012D80007490A70074A1370074B02221A70074B16
:1012E80008221A70704700BF3A0800203B08002007
:1012F8003808002039080020370800203608002068
:1013080038B50B4D296811F001040FD12846FEF7B6
:10131800C2FE58B121460748FFF782FB2846FEF770
:10132800BFFE04480449054A00F0D0F8014838BD1A
:101338003C08002040080020D1090A0808030020C2
:1013480013B5084C002100910A460B462046FFF7CA
:1013580007FD20460449054A02B0BDE8104000F0E8
:10136800B5B800BF540800200D0D0A080803002076
:10137800084B002208491A7001230B7007490A70AC
:10138800074A1370074B02221A70074B08221A707B
:10139800704700BF70080020710800206E08002008
:1013A8006F0800206D0800206C080020F8B5134B6A
:1013B80000211970124B01241C70124B124F197026
:1013C800124B02221C70124B124E1A70124B08223A
:1013D800124D38461A70FFF73FFF3846104F2A461D
:1013E800314600F073F821463846FFF735FF384696
:1013F80031462A46BDE8F84000F068B87C0800206D
:101408007D0800207A080020800800207B08002042
:101418007908002051120A087808002008030020E3
:101428009008002010B504460F48FFF729FF28B19F
:10143800A4F10D03022B01D8002010BDFFF760FFB7
:10144800FFF719FB08B1012CF6D9FFF75DFBFFF791
:1014580057FB18B1A4F11203012BEDD9172C8CBF3F
:101468000020012010BD00BF80080020172838B5D3
:1014780005460C460AD8FF2908D0FFF7D3FF28B144
:1014880028462146BDE83840FFF7EEB938BD0000D0
:10149800084B002208491A7001230B7007490A708B
:1014A800074A1370074B02221A70074B08221A705A
:1014B800704700BFA4080020A5080020A20800204B
:1014C800A3080020A1080020A00800200346084621
:1014D800194600F0C5B80000244B1A68D0075CBF55
:1014E80001221A60224B1A68D1075CBF01221A60D8
:1014F800204B1A68D2075CBF01221A601E4B1A687B
:10150800D0075CBF01221A601C4B1A68D1075CBF68
:1015180001221A601A4B1A68D2075CBF01221A60AE
:10152800184B1A68D0075CBF01221A60164B1A685C
:10153800D1075CBF01221A60144B1A68D2075CBF3E
:1015480001221A60124B1A68D0075CBF01221A6088
:10155800104B1A68D1075CBF01221A600E4B1A683B
:10156800D2075CBF01221A60704700BFD408002070
:10157800D0080020CC080020C8080020C40800209B
:10158800C0080020BC080020B8080020B4080020CB
:10159800B0080020AC080020A8080020244B1A68D6
:1015A800D0075CBF01221A60224B1A68D1075CBFC2
:1015B80001221A60204B1A68D2075CBF01221A6008
:1015C8001E4B1A68D0075CBF01221A601C4B1A68B0
:1015D800D1075CBF01221A601A4B1A68D2075CBF98
:1015E80001221A60184B1A68D0075CBF01221A60E2
:1015F800164B1A68D1075CBF01221A60144B1A688F
:10160800D2075CBF01221A60124B1A68D0075CBF70
:1016180001221A60104B1A68D1075CBF01221A60B8
:101628000E4B1A68D2075CBF01221A60704700BFD0
:101638000409002000090020FC080020F808002008
:10164800F4080020F0080020EC080020E80800203A
:10165800E4080020E0080020DC080020D80800206A
:1016680038B5054604480C46134620B102202946E1
:101678002246AFF3008038BD0000000010B5431EBD
:101688000A44914204D011F8014B03F8014FF8E7DE
:1016980010BD03460244934202D003F8011BFAE747
:1016A8007047034613F8012B002AFBD1181A01389A
:1016B800704700001D000A085D000A0889000A0832
:1016C8008D000A0800000000000000000000000073
:1016D800AF000A08B1000A0805010A08BD000A0897
:1016E800646576696365206E6F7420666F756E64D5
:1016F80000726573657474696E67206C6173744DEC
:101708006F76656D656E7420696E74315F73726390
:101718003D3078257800726563616C696272617426
:10172800696E670000000000000000000000000073
:1017380011040A085D040A08C5030A08736574756C
:1017480070537563636573733D2564004163636516
:101758006C2076616C7565733A200025642C2564CD
:101768002C2564006E6F2073616D706C650000003D
:101778000000000000000000F3080A080000000054
:101788000000000000000000D1090A081B0A0A082E
:10179800F3090A08D3090A08FB090A08030A0A0810
:1017A8000B0A0A08130A0A080000000000000000DB
:1017B800870A0A08AB0A0A08B70A0A0881100A0841
:1017C800930A0A089F0A0A08990A0A08A50A0A0831
:1017D800890A0A088D0A0A080000000000000000B3
:1017E8009D0B0A08E10B0A08BB0B0A0881100A08BE
:1017F800B50B0A089F0B0A08A70B0A08DB0B0A0897
:10180800AF0B0A08990B0A0800000000000000004E
:101818001B0D0A080D0D0A080F0D0A085A00252B82
:101828003033643A253032750025592D256D2D2524
:10183800645425483A254D3A2553257A0061736347
:1018480074696D650066006C6E00666E00636F6497
:10185800650064657461696C000D0A0025303130DB
:101868007520005D20002C200028293A2000205BEC
:1018780000636F6465203D2000256900646574611C
:10188800696C73203D20006261756400536572695C
:10189800616C0055534253657269616C310074790B
:1018A800706500706172616D00636D640069640049
:1018B800686E64007374726D0066696C74006C768F
:1018C8006C0061646448616E646C65720072656D79
:1018D8006F766548616E646C657200656E756D48FB
:1018E800616E646C657273004A534F4E537472652F
:1018F800616D4C6F6748616E646C657200617070F1
:10190800006E6F6E6500747261636500696E666F64
:10191800007761726E006572726F720070616E6935
:101928006300616C6C000000000000000000000013
:1019380051120A0853120A08F5020A083D030A0858
:101948004D050A08FD080A081D090A0859090A0868
:1019580095090A085D0B0A08850D0A08F10E0A08A0
:101968002D0F0A08690F0A08A50F0A08F10F0A08BF
:1019780001100A0845100A08D9110A0815120A08A0
:1019880091120A08CD120A0849130A0879130A089D
:10199800B5130A0899140A08E1140A08A5150A08D3
:0819A800000000000000000037
:0419B0000000000033
:0819B4000100000045180A08BB
:1019BC00FFFFFFFF00000102030405060708090AE8
:1019CC000B0C0D0E0F101112131415161718191AE3
:0819DC001B1C1D1E1F2028002A
:0419E40078563412EB
:04000005080A0018CD
:00000001FF
