:02000004080AE8
:1000000000000A0804310A08000004000600050187
:0800100004026C000000000076
:10001800782D0A0809480A4908B5884205D0094ACE
:10002800824202D0121A02F087FE0748074A0021CE
:10003800121A02F08CFE064808BD00BF000300201B
:10004800B4300A0828030020280300202C090020C7
:100058002C09002070B501F009FE074B074C1E461D
:10006800E41AA4080025A54204D056F8253098477C
:100078000135F8E770BD00BF7C300A08B0300A08C7
:1000880000F030B908B500F0EBF9BDE8084001F020
:10009800ABBD01F003BC0078B0FA80F040097047AE
:1000A800012303707047000008B5054B188802F05B
:1000B80053F8044B003018BF0120187008BD00BF6A
:1000C8000C0300202103002008B5054B188802F016
:1000D80043F8044B003018BF0120187008BD00BF5A
:1000E800140300201003002008B5054B188802F0FF
:1000F80033F8044B003018BF0120187008BD00BF4A
:10010800180300202003002008B5054B188802F0CA
:1001180023F8044B003018BF0120187008BD00BF39
:10012800000300201103002008B5054B188802F0D1
:1001380013F8044B003018BF0120187008BD00BF29
:100148001C0300202C0300202DE9F04101210A2086
:1001580001F0D8FF01210B2001F0D4FF01210C2070
:1001680001F0D0FF01210D2001F0CCFF00210A2071
:1001780001F0D9FF00210B2001F0D5FF00210C2050
:1001880001F0D1FF00210D2001F0CDFF4FF4FA70EE
:1001980001F0F4FC02F02EF8404901F04FFF02F0A4
:1001A80029F801F04FFF0A2001F0E8FC01210A209C
:1001B80001F0B9FF01210B2001F0B5FF01210C204E
:1001C80001F0B1FF01210D2001F0ADFF0A2001F07F
:1001D800D5FC00210B2001F0A6FF314F00210C2097
:1001E80001F0A1FF00210D2001F09DFF01213846FB
:1001F80000F028FE4FF47A783021384600F0D3FA20
:10020800284EC7F804800A2001F0B8FC01210B2011
:1002180001F089FF0121304600F014FE31213046FB
:1002280000F0C1FA204D0A20C6F8048001F0A6FCAF
:1002380001210C2001F077FF0121284600F002FE81
:100248003221284600F0AFFA184C0A20C5F804807D
:1002580001F094FC01210D2001F065FF01212046E9
:1002680000F0F0FD3321204600F09DFA0A20C4F882
:10027800048001F083FC38460A2100F0B0FB3046C8
:100288000A2100F0ACFB28460A2100F0A8FB204612
:10029800BDE8F0410A2100F0A2BB00BFA086010022
:1002A800440300205C030020740300208C0300201A
:1002B8001FB501A801F09BF8502101A801F0A4F88E
:1002C80001A9064801F0F8F8044601F085FD234627
:1002D800034A012101F006FC04B010BD30030020E0
:1002E8008C2D0A082DE9F3474B4CDFF868A12088CC
:1002F8000021DFF8649101F005FFDFF8608100213B
:10030800BAF8000001F0FEFE444F0021B9F80000E1
:1003180001F0F8FE424D0021B8F8000001F0F2FEAD
:10032800404E0021388801F0EDFE2888012101F0B7
:10033800E9FE0121308801F0E5FE01F04DFD4FF4A2
:10034800165101F02FFDFFF7FFFEFFF7B1FF2088E0
:100358000024224600944FF0FF33334901F0A0FDFA
:10036800224600944FF0FF333049BAF8000001F0FC
:1003780097FD224600944FF0FF332D49B9F800004D
:1003880001F08EFD224600944FF0FF332949B8F85A
:10039800000001F085FD224638884FF0FF330094B5
:1003A800254901F07DFD2988B4258DE830004FF4FA
:1003B80016634FF40872214801F0D3FA4FF416631C
:1003C8004FF4087231888DE830001D4801F0C9FAF1
:1003D80040F2DC51194801F090FA40F2DC5118481B
:1003E80001F08BFA174C23782BB901F0F5FC16496C
:1003F80001F01EFBF7E701F0EFFC144901F018FBD0
:1004080041F2883001F0BAFB01F0E6FC104902B075
:10041800BDE8F04701F00CBB0C0300201C030020D2
:100428000803002004030020B1000A08D1000A08CC
:10043800F1000A0811010A0831010A08A80300207E
:10044800B80300202C0300209C2D0A08AE2D0A08B2
:10045800C72D0A08140300201803002000030020F9
:1004680030B5834C85B001F0B7FC824901F0CDFA74
:1004780001F0B2FC0A22217801F032FB01F0ACFC59
:100488007D4901F0C2FA01F0A7FC7C4901F0BDFAF0
:1004980001F0A2FC05467A4800F0DCFA0A2201467F
:1004A800284601F01DFB01F097FC734901F0ADFAF5
:1004B80001F092FC734901F0A8FA01F08DFC0546A1
:1004C800714800F0C7FA0A220146284601F008FBE5
:1004D80001F082FC684901F098FA01F07DFC6B4953
:1004E80001F093FA01F078FC0546694800F0B2FA89
:1004F8000A220146284601F0F3FA01F06DFC5E4934
:1005080001F083FA01F068FC624901F07EFA01F01B
:1005180063FC0546604800F09DFA0A220146284619
:1005280001F0DEFA564800F0BBFA2546002840F0F4
:100538009880554800F0B4FA002840F0928054485A
:1005480000F0AEFA002840F08C80534800F0A8FA7A
:10055800002840F0868001F03FFC474901F055FA39
:1005680001F03AFC4D4901F050FA01F035FC4C4BD2
:100578000A22197801F0B4FA01F02EFC3E4901F084
:1005880044FA01F029FC474901F03FFA01F024FC44
:10059800454B0A22197801F0A3FA01F01DFC3649EF
:1005A80001F033FA01F018FC404901F02EFA01F08D
:1005B80013FC3F4B0A22197801F092FA01F00CFC67
:1005C8002D4901F022FA01F007FC3A4901F01DFA21
:1005D80001F002FC384B0A22197801F081FA01F087
:1005E800FBFB254901F011FA01F026F8334C23688A
:1005F800C01A63281BD901F01FF802A920603048EF
:1006080000F022FF70B101F0E7FBBDF90C20BDF945
:1006180008300192BDF90A2001210092294A01F00F
:1006280061FA04E001F0D8FB274901F001FA01F072
:10063800D3FB01F0F1F92B783BB940F2A4612348D0
:1006480001F05BF940F2A46106E040F2DC511F487A
:1006580001F053F940F2DC511D4801F04EF905B0A4
:1006680030BD01F0B9FB1B4901F0CFF973E700BFBA
:100678002C030020CB2D0A08DA2D0A08DE2D0A08E3
:1006880044030020E82D0A085C030020F22D0A0824
:1006980074030020FC2D0A088C030020062E0A088B
:1006A80021030020122E0A08100300201F2E0A081A
:1006B800200300202A2E0A0811030020A40300208A
:1006C80030030020362E0A083F2E0A08A80300200F
:1006D800B8030020492E0A0810B500F055FF144849
:1006E80000F040F8134800F03DF8134800F03AF8DD
:1006F800124800F037F8124801F01FF9114801F0CC
:100708001CF90021012001F0A9F8032001F096F856
:1007180001F070FD0C4C014600222046112300F028
:1007280027FF2046BDE81040084A094901F082BD6C
:10073800440300205C030020740300208C03002085
:10074800A8030020B803002030030020280300205D
:100758003D130A080368C9B29B6818470368C9B201
:100768009B68184729224270002242600272704733
:1007780070B5044615460E4601F03CFD617801F05F
:1007880078FC01F037FD036831469B68984701F013
:1007980031FD036829469B68984701F02BFD01F05D
:1007A80070FC207070BD38B505460C4601F07F021C
:1007B8008A21FFF7DDFF6C7038BD70B50446154619
:1007C8000E4601F017FD617801F053FC01F012FDAF
:1007D800036831469B68984701F00CFD290AFFF72A
:1007E800BDFF01F007FDE9B2FFF7B8FF01F002FD18
:1007F80001F047FC207070BD70B5054614460E46E2
:1008080001F0F8FC697801F034FC01F0F3FC0368AE
:1008180031469B68984701F0EDFC210EFFF79AFFDF
:1008280001F0E8FCC4F30741FFF794FF01F0E2FC94
:10083800C4F30721FFF78EFF01F0DCFCE1B2FFF7FC
:1008480089FF01F0D7FC01F01CFC287070BD38B599
:1008580004460D4601F0CEFC617801F00AFC01F077
:10086800C9FC036829469B68984701F0C3FC01F05E
:1008780008FC207001F0BEFC0122617801F0F1FB58
:1008880001F0B8FC03685B699847C0B238BD38B559
:1008980004460D4601F0AEFC617801F0EAFB01F078
:1008A800A9FC036829469B68984701F0A3FC01F05E
:1008B800E8FB207001F09EFC6178022201F0D1FB78
:1008C80001F098FC03685B699847044601F092FCC4
:1008D80003685B69984740EA042080B238BDF8B5E0
:1008E800064614461D460F4601F084FC717801F057
:1008F800C0FB01F07FFC036839469B689847254494
:10090800AC4207D001F076FC036814F8011B9B6821
:100918009847F5E701F06EFC01F0B3FB3070F8BDC5
:10092800F8B5064614461D460F4601F063FC71787B
:1009380001F09FFB01F05EFC036839469B6898470D
:1009480001F058FC01F09DFB307001F053FC2A4681
:10095800717801F086FB2544AC4207D001F04AFCCF
:1009680003685B69984704F8010BF5E7F8BD0000D8
:1009780070B50D4606460021284602F087F9B0B941
:10098800284601F009FF0CA3D3E9002301F0D6FFA4
:1009980068B94FF08641284601F0DAFF02F09EF967
:1009A800442182B23046FFF708FF012070BD0020C5
:1009B80070BD00BFAFF30080A4703D0AD7FF7F4031
:1009C80008B509B9502102E0012906D17021FFF7C5
:1009D8003EFF01304000C0B208BDFF2008BD38B559
:1009E80004460D4601228021FFF7C2FE0122FF21A5
:1009F8002046FFF7BDFE002211462046FFF7B8FE4D
:100A0800227C91212046FFF7B3FE012200212046D7
:100A1800FFF7AEFE0022FF212046FFF7A9FE0022C5
:100A280080212046FFF7A4FE6DB1F8212046FFF78C
:100A38002EFF00B145432A4604212046FFF7DCFE7D
:100A48000422002101E0294602222046BDE8384060
:100A5800FFF78EBE38B5044600F0EEFDE0601321C6
:100A68002046FFF7F4FE43070ED16368002BF6D04B
:100A780000F0E2FDE368C01A63689842EFD90123E9
:100A880023724FF6FF7038BD1E212046FFF7FFFE88
:100A98000546012220460B21FFF76AFE284638BD8D
:100AA80003460022007A1A727047F8B504460F46CA
:100AB800164680210122FFF75BFE0122FF21204616
:100AC800FFF756FE002211462046FFF751FE062288
:100AD800FF212046FFF74CFE83212046FFF7B7FE93
:100AE80040F00402D2B283212046FFF741FE0722DC
:100AF800FF212046FFF73CFE012281212046FFF717
:100B080037FE012280212046FFF732FE6B22942116
:100B18002046FFF72DFE002283212046FFF728FEFE
:100B280000F08AFDE06083212046FFF790FE05462D
:100B380058B96368002BF6D000F07EFDE368C01A50
:100B480063689842EFD92846F8BD012220468321E0
:100B5800FFF70EFE92212046FFF779FE00F07F0393
:100B6800C0F3C0103B700022307081212046FFF78F
:100B7800FFFD06222046FF21FFF7FAFD83212046CC
:100B8800FFF765FE832102462046FFF7F1FD204668
:100B98000122FF21FFF7ECFD204601220021FFF78B
:100BA800E7FD20460022FF21FFF7E2FD2046002254
:100BB8008021FFF7DDFD0120F8BD10B50C460121AD
:100BC800FFF745FEC0F300132370C0F3C003A37002
:100BD800C0F380036370C0F38013C0F3C010E370E8
:100BE800207110BD4FF6FF73984228BF1846C3B254
:100BF800000A03FA00F0013080B27047B0F5803F78
:100C080001D278B101E04FF6FF700138002330F0CF
:100C1800FF019AB203F1010301D04008F7E740EA67
:100C2800022080B270470000084B4FF47A72594393
:100C380010B501F5FA714FF4FA64B1FBF2F3B1FBA8
:100C4800F4F100FB0310B0FBF2F010BD002F3A00E6
:100C580070B50E46002114460546FFF7B1FE462141
:100C680020802846FFF7F3FD013080B22178A0806C
:100C7800FFF7DAFF5121E0602846FFF708FEFFF78B
:100C8800B1FF2178E080FFF7CFFF7021206128466F
:100C9800FFF7DDFD01304000C0B2608071212846B9
:100CA800FFF7F5FDFFF79EFF2081F37813B1E38886
:100CB800C01A2081A1782089FFF7B6FF606170BD56
:100CC80010B5044688B06946FFF777FF02AA69465F
:100CD8002046FFF7BDFF9DF800301BB1059800F6D0
:100CE800845001E040F636309DF802302BB1059B68
:100CF80003F2B22300EB430006E09DF801301BB17C
:100D0800059B03F5257318449DF803301BB1069B1A
:100D180003F5257318449DF804301BB1079B03F2B3
:100D280026231844606108B010BD0000084B4FF43A
:100D38007A7259434FF4FA6301F5FA71B1FBF3F390
:100D4800B1FBF2F102FB0030B0FBF1F0704700BFDD
:100D5800002F3A0044F61F63F0B5994289B0064661
:100D68000D4642D96946FFF728FF02AA6946304670
:100D7800FFF76EFF9DF800301BB1059800F636307E
:100D880001E040F6E8009DF802302BB1059B03F224
:100D9800B22300EB430006E09DF801301BB1059B30
:100DA80003F5257318449DF803701FB1069B03F5DE
:100DB800257318449DF80440ACB100F22620854202
:100DC80013D39DF80A10281AFFF7B0FF17B1BDF822
:100DD8000E301844FFF712FF712102463046FFF724
:100DE800ECFC756102E0012400E00024204609B013
:100DF800F0BD38B541F0010200210446FFF7B8FC08
:100E080000F01AFCE06013212046FFF720FD10F0E7
:100E180007050BD16368002BF5D000F00DFCE368E3
:100E2800C01A63689842EED9284638BD2046012288
:100E38000B21FFF79DFC002220461146FFF798FC86
:100E4800012038BDF0B5044685B049B18921FFF7C6
:100E5800FEFC40F00102D2B289212046FFF788FC4F
:100E6800002288212046FFF783FC012280212046AA
:100E7800FFF77EFC0122FF212046FFF779FC0022C4
:100E880011462046FFF774FC91212046FFF7DFFC4E
:100E98000122207400212046FFF76AFC0022FF216E
:100EA8002046FFF765FC002280212046FFF760FC02
:100EB80060212046FFF7CBFC40F01202D2B260213D
:100EC8002046FFF755FC4FF07A512046FFF750FDBA
:100ED800FF2201212046FFF74BFC0DF107020DF11F
:100EE80006012046FFF7E1FD08B900251DE20623AB
:100EF80002AAB0212046FFF713FD0122FF21204658
:100F0800FFF736FC00224F212046FFF731FC2C2248
:100F18004E212046FFF72CFC0022FF212046FFF738
:100F280027FC00252046B621B422FFF721FC2946DC
:100F38009DF807309DF80660002B14BF0C20002098
:100F48000127EBB2DA0898420DF1100E03F00703FF
:100F5800724401D88E4208D112F808EC07FA03F35C
:100F68002EEA030302F8083C07E012F8082C42FABC
:100F780003F3DB0744BF0131C9B20135302DE0D19D
:100F8800062302AAB0212046FFF7A9FC0122FF216F
:100F98002046FFF7EDFB002211462046FFF7E8FB4D
:100FA8000022FF212046FFF7E3FB0022092120460B
:100FB800FFF7DEFB002210212046FFF7D9FB0022B5
:100FC80011212046FFF7D4FB012224212046FFF7F8
:100FD800CFFBFF2225212046FFF7CAFB00227521FF
:100FE8002046FFF7C5FB0122FF212046FFF7C0FB83
:100FF8002C224E212046FFF7BBFB00224821204629
:10100800FFF7B6FB202229462046FFF7B1FB002256
:10101800FF212046FFF7ACFB092229462046FFF7AF
:10102800A7FB002254212046FFF7A2FB042231210E
:101038002046FFF79DFB032232212046FFF798FB4D
:10104800832240212046FFF793FB25224621204694
:10105800FFF78EFB002260212046FFF789FB002264
:1010680027212046FFF784FB062250212046FFF760
:101078007FFB002251212046FFF77AFB962252215E
:101088002046FFF775FB082256212046FFF770FB24
:101098002A4657212046FFF76BFB00226121204694
:1010A800FFF766FB002262212046FFF761FB002262
:1010B80064212046FFF75CFB002265212046FFF7EC
:1010C80057FBA02266212046FFF752FB0122FF2191
:1010D8002046FFF74DFB322222212046FFF748FB2E
:1010E800142247212046FFF743FBFF2249212046CF
:1010F800FFF73EFB00224A212046FFF739FB00227A
:10110800FF212046FFF734FB0A227A212046FFF709
:101118002FFB00227B212046FFF72AFB2122782182
:101128002046FFF725FB0122FF212046FFF720FB81
:10113800342223212046FFF71BFB002242212046B0
:10114800FFF716FBFF2244212046FFF711FB26225A
:1011580045212046FFF70CFB052246212046FFF7D4
:1011680007FB402211462046FFF702FB06220E210C
:101178002046FFF7FDFA1A2220212046FFF7F8FA49
:10118800402243212046FFF7F3FA0022FF212046A0
:10119800FFF7EEFA032234212046FFF7E9FA44224A
:1011A80035212046FFF7E4FA0122FF212046FFF708
:1011B800DFFA042231212046FFF7DAFA09224B210F
:1011C8002046FFF7D5FA05224C212046FFF7D0FA32
:1011D80004224D212046FFF7CBFA0022FF212046AA
:1011E800FFF7C6FA002244212046FFF7C1FA202261
:1011F80045212046FFF7BCFA082247212046FFF781
:10120800B7FA282248212046FFF7B2FA00226721C0
:101218002046FFF7ADFA042270212046FFF7A8FA0E
:10122800012271212046FFF7A3FAFE2272212046EF
:10123800FFF79EFA002276212046FFF799FA00224E
:1012480077212046FFF794FA0122FF212046FFF775
:101258008FFA01220D212046FFF78AFA0022FF218A
:101268002046FFF785FA012280212046FFF780FA01
:10127800F82201212046FFF77BFA0122FF212046B0
:10128800FFF776FA01228E212046FFF771FA012234
:1012980000212046FFF76CFA0022FF212046FFF7C5
:1012A80067FA002280212046FFF762FA04220A2109
:1012B8002046FFF75DFA84212046FFF7C8FA84210B
:1012C80000F0EF022046FFF753FA01220B212046D7
:1012D800FFF74EFA2046FFF7F3FCE8226061012190
:1012E8002046FFF745FA61692046FFF733FD0122E2
:1012F80011462046FFF73CFA40212046FFF779FDCA
:1013080000283FF4F2AD022201212046FFF730FA0F
:1013180000212046FFF76DFD054600283FF4E5ADA6
:10132800E82201212046FFF723FA284605B0F0BD40
:1013380000F02AB9704710B50446FEF7AAFE204609
:1013480010BDF8B505461E460F46017CC06841F041
:101358001801144600F08DFEE868012E036888BF66
:1013680047F080079B68394698472644A642E868B4
:1013780005D0036814F8011B9B689847F6E700F04E
:1013880080FEB0FA80F04009F8BDF8B504461E4664
:101398000F46017CC06841F01801154600F069FE4F
:1013A800E068012E036888BF47F080079B683946CC
:1013B8009847E06800F065FEA8B9217C324641F004
:1013C8001801E06800F050FE2E44AE420DD0E068EF
:1013D80003681B69984740B1E06803685B699847F0
:1013E80005F8010BF1E70020F8BD0120F8BD002247
:1013F800027042708270C270027142718271C27151
:10140800027242728272704741F0070101707047A0
:1014180013B5036801AA9C680123A0479DF804003E
:1014280002B010BD38B505460A240F212846FFF73B
:10143800EFFF33284FF0010005D000F09FFB013C7F
:10144800F3D1204638BD38BDF7B50C46072106460E
:10145800FFF7DEFF00F00800002814BF0125002573
:101468001BD033686A469F68282106233046B84750
:101478009DF801209DF8003043EA022323809DF85F
:1014880003209DF8023043EA022363809DF805207B
:101498009DF8043043EA0223A380284603B0F0BD38
:1014A80037B502AC036804F8042DDD682246012331
:1014B800A84703B030BD000070B504460D46FFF7DD
:1014C800B1FF064628B900F087FC284900F0B0FAB9
:1014D80049E02A7820212046FFF7E2FF6A78212197
:1014E8002046FFF7DDFFAA7822212046FFF7D8FF24
:1014F800EA7823212046FFF7D3FF2A7924212046C2
:10150800FFF7CEFF6A7925212046FFF7C9FFAB799F
:101518001BB126212046FFF77BFFAA7A2E21204601
:10152800FFF7BEFFAB785B061DD5EA79322120466E
:10153800FFF7B6FF2A7A33212046FFF7B1FF636829
:10154800002B0ADB6A7A204622723021FFF7A8FFB7
:1015580031212046FFF75CFF05E00022227230218E
:101568002046FFF79DFF304670BD00BF742E0A0865
:1015780010B54360024BC1600360027410BD00BF28
:10158800642E0A0800F000B808B5024B1B681B68F7
:10159800019308BDB001060808B5024B1B685B68DB
:1015A800019308BDB001060808B5024B1B689B688B
:1015B800019308BDB001060808B5024B1B68DB683B
:1015C800019308BDB001060808B5024B1B681B69EA
:1015D800019308BDB001060808B5024B1B685B699A
:1015E800019308BDB001060808B5024B1B689B694A
:1015F800019308BDB001060808B5024B1B68DB69FA
:10160800019308BDB001060808B5024B1B68DB69E9
:10161800019308BDB401060808B5024B1B681B6A94
:10162800019308BDB401060808B5024B1B685B6846
:10163800019308BD9C01060808B5024B1B685B694D
:10164800019308BD9C01060808B5024B1B681B6B7B
:10165800019308BDD001060808B5024B1B689B69B9
:10166800019308BDC401060808B5024B1B685B6AF4
:10167800019308BDC401060808B5024B1B689B6AA4
:10168800019308BDC401060808B5024B1B68DB6A54
:10169800019308BDC401060808B5024B1B681B6B03
:1016A800019308BDC401060808B5024B1B685B6BB3
:1016B800019308BDC401060808B5024B1B689B6B63
:1016C800019308BDC401060808B5024B1B681B6CD2
:1016D800019308BDC401060808B5024B1B681B6CC2
:1016E800019308BDAC01060808B5024B1B68DB6C0A
:1016F800019308BDAC01060808B5024B1B685B6D79
:10170800019308BDAC01060808B5024B1B689B6D28
:10171800019308BDAC01060808B5024B1B68DB6DD8
:10172800019308BDAC01060808B5024B1B681B6E87
:10173800019308BDAC01060808B5024B1B685B6E37
:10174800019308BDAC01060808B5024B1B689B6EE7
:10175800019308BDAC01060808B5024B1B68DB6E97
:10176800019308BDAC01060808B5024B1B681B6F46
:10177800019308BDAC01060808B5024B1B685B6FF6
:10178800019308BDAC01060808B5034B1B68D3F8E4
:101798008030019308BD0000AC01060808B5024B73
:1017A8001B681B69019308BDA801060808B5024B10
:1017B8001B685B69019308BDA801060808B5024BC0
:1017C8001B689B69019308BDA801060808B5024B70
:1017D8001B681B68019308BDD801060808B5024BB1
:1017E8001B685B68019308BDD801060808B5024B61
:1017F8001B681B69019308BDD801060808B5024B90
:101808001B685B69019308BDD801060808B5024B3F
:101818001B689B69019308BDD801060808B5024BEF
:101828001B68DB69019308BDD801060808B5024B9F
:101838001B681B6A019308BDD801060808B5024B4E
:101848001B685B68019308BDA401060808B5024B34
:101858001B685B69019308BDA401060808B5024B23
:101868001B68DB6A019308BDA401060808B5024B92
:101878001B685B6E019308BDA401060808B5024BFE
:101888001B689B6E019308BDA401060808B5024BAE
:101898001B681B69019308BDC801060808B5024BFF
:1018A8001B685B68019308BDA001060808B5024BD8
:1018B8001B685B6A019308BDA0010608704710B554
:1018C8000446FEF7E6FB204610BD000070B504464E
:1018D8000E46074B0025036040F80C5FFFF7B4FE87
:1018E80030462671FFF790FEA560204670BD00BF08
:1018F800C02E0A080079FFF78FBEB0F90020531CEC
:101908000BD0438880888B4203D88842034628BF7F
:101918000B46194690B2FFF751BF70474FF6FF7359
:10192800B42202814FF408720380428000234FF4EE
:101938001662C3808280C360704708B5FFF7EEFF68
:1019480008BD10B50446B0F90000431C07D080B2AA
:10195800FFF72CFF2046FFF7E1FF012010BD002014
:1019680010BD2DE9F0410D46044602212846904657
:101978001F46FFF711FE022801D0002619E028466D
:1019880000F09CFB06460028F7D0B4F9003001337C
:1019980002D02046FFF7D5FFBDF918302580E38037
:1019A800BDF91C30A4F80280A78023812846FFF7E0
:1019B800F5FE3046BDE8F0810020FFF73FBFF8B5DF
:1019C80006460D468F180024BD420CD0336815F822
:1019D800011B9B6830469847002801DB0444F3E765
:1019E800002C08BF04462046F8BD70B505460C46D5
:1019F800084649B101F0B3F92B680246214628464A
:101A0800BDE87040DB68184770BD08B5FFF7EDFF0B
:101A180008BD03689B68184738B50D210546FFF7D0
:101A2800F8FF0A2104462846FFF7F3FF204438BD93
:101A380038B50546FFF7D9FF04462846FFF7ECFFFF
:101A4800204438BD012A98BF0A2230B50B468BB016
:101A580000218DF824100DF12304B3FBF2F505FBEA
:101A68001233DBB2092B94BF30333733DBB2214654
:101A780004F801392B46002DEFD1FFF7B6FF0BB064
:101A880030BD10B422B90368C9B29B6810BC1847AE
:101A9800D2B210BCFFF7D6BFFFF7F3BF2DE9F04174
:101AA80007460E4615462AB9BDE8F0410368C9B293
:101AB8009B6818470A2A02D1002901DA04E0D2B249
:101AC800BDE8F041FFF7BEBF2D21FFF7A2FF2A4670
:101AD800044671423846FFF7B5FF2044BDE8F0815F
:101AE800FFF7DCBF0CB42DE9F04387B000AF07F176
:101AF800380454F8049B05460E4623464A461421EA
:101B0800381D3C60FFF7D2FE132805D8391D28463A
:101B1800FFF76BFF044613E000F1080323F0070307
:101B2800E846ADEB030D411C23464A4668463C6037
:101B3800FFF7BCFE69462846FFF757FF0446C5462F
:101B48001EB12846FFF768FF044420461C37BD46EF
:101B5800BDE8F04302B07047014A024B1A60704773
:101B6800802F0A08C8030020024B1A68024B1A602B
:101B7800704700BF24030020CC0300200021FFF79A
:101B880065BE000008B5144B33B100F025F90368B1
:101B98001B699847002816DC104B33B100F0EAF9AE
:101BA80003681B699847002810DC0D4B0BB1AFF395
:101BB80000800C4B7BB100F04BF903681B69984718
:101BC800002806DC08BDAFF30080E5E7AFF300802E
:101BD800EBE7AFF3008008BD000000000000000044
:101BE800000000000000000008B5FFF7CBFFFFF77A
:101BF80023FD014B186008BD580800200248034A1D
:101C08000349121A01F098B800400240044002400B
:101C1800B0300A080020704737B5436804460A2BDD
:101C28000ED0502B1CD1104B1D68CDB1037D4FF445
:101C380000710093C26800F110038068A84707E0AC
:101C480000F11003C2684FF400718068FFF7E2FFEB
:101C580030B1002220461146FFF710FE012000E0B7
:101C6800002003B030BD00BFD003002038B50C4CB5
:101C78000C4D2368AB420C4B0CBF012200221A709A
:101C880002D0FFF7BBFF2560084B1BB1FFF7CCFC68
:101C9800AFF30080BDE8384000210548FFF7E6BDF6
:101CA800004002401E1C279AD403002000000000B8
:101CB800211C0A08704710B50446FEF7EAF92046C9
:101CC80010BDF8B50F4600F10806051D002416F8EA
:101CD800011D0A223846FFF7DFFEAE42044407D052
:101CE800002CF4D02E213846FFF793FE0444EEE78B
:101CF8002046F8BD10B59DF8084044EA032343EA9E
:101D0800024242EA016104234160037510BD0000EC
:101D180037B5044D05609DF818500095FFF7EAFFA8
:101D280003B030BDDC2F0A084174704770470021AA
:101D3800007CFFF76BBD0121007CFFF767BD007CCD
:101D4800FFF75CBD007CFFF751BD38B50446007C49
:101D58000D46FFF753FD002801DC607C20B12946C1
:101D6800207CFFF75BFD012038BD007CFFF75EBDDE
:101D780010B50446FEF78DF9204610BD10B504468F
:101D8800002363604FF47A73A360054B0846236011
:101D98000123217463741146FFF718FD204610BD16
:101DA800F02F0A080022007CFFF718BD10B5044682
:101DB8001422002100F0CBFF054B20466360054B41
:101DC800E36040F2011323818123238210BD00BF09
:101DD8005D040020DC03002030B50E4D87B001A85B
:101DE800FFF7E4FF296811F0010410D12846FEF737
:101DF80052F960B101AA21460748FFF7BFFF2846FC
:101E0800FEF74EF9054A0649034800F013FA02485E
:101E180007B030BDD803002060050020280300204B
:101E2800351D0A0810B504461422002100F08FFF62
:101E3800054B20466360054BE36040F201132381A4
:101E48008123238210BD00BF1006002078050020E2
:101E580010B50E4C86B001A8FFF7E4FF2368DB0736
:101E680010D42046FEF717F960B101AA01210848ED
:101E7800FFF784FF2046FEF713F9064A064904488F
:101E880000F0D8F9024806B010BD00BF7405002064
:101E9800FC05002028030020351D0A080047000023
:101EA800F0B51C4685B005460E461746FFF7A4FB5D
:101EB800002084424FF0040303908DF80C30B4BF27
:101EC80003469DF828302846A4BF8DF80E3003AB92
:101ED800009332463B460449A8BF8DF80D40FFF7F2
:101EE80083FB012005B0F0BDA51E0A0870474174A8
:101EF8007047007CFFF7E8BB007CFFF7BDBB007CA8
:101F0800FFF7CABB007CFFF7BFBB007CFFF7CCBB69
:101F180010B50446FEF7BDF8204610BD70B5457CE7
:101F280004460E4625B9007CFFF7CEFB002805DDE8
:101F38003146207CBDE87040FFF796BB284670BD4F
:101F480010B5044608461146002262604FF47A72C2
:101F5800A260054A20742260012262741A46FFF7C3
:101F68007BFB204610BD00BF20300A08007CFFF72D
:101F7800A3BB000038B50C4D296811F0010411D13C
:101F88002846FEF788F868B1084A2146084B0948F0
:101F9800FFF7D6FF2846FEF783F8074A07490548A2
:101FA80000F048F9034838BDAC070020B00700200E
:101FB800280700201407002028030020F51E0A081F
:101FC8007047F8B5064615460C468F18BC4206D031
:101FD800336814F8011B9B6830469847F6E7284693
:101FE800F8BD0022007CFFF79FBB0021007CFFF7B3
:101FF800A3BB0021007CFFF7A7BB0021007CFFF7F3
:10200800ABBB0021007CFFF7AFBB10B50446FEF761
:1020180040F8204610BD000010B5044608464FF4AD
:102028007A73A360044B0021207461602360FFF77A
:10203800ABFB204610BD00BF50300A080022007CD0
:10204800FFF74ABB00231A461946007CFFF74CBB32
:1020580013B50024007C0094FFF74EFBC0B202B019
:1020680010BD0123FFF7F4BF0123D2B2C9B2FFF7B5
:10207800EFBF0022007CFFF747BB0022007CFFF780
:102088004BBB0121FFF7F9BF0021007CFFF774BBB0
:102098007047002211461046FFF7F8BB0348044B6F
:1020A800044A0549036000F0C5B800BF34080020A1
:1020B80078300A082803002099200A0810B5044639
:1020C8000F48FFF717FC28B1A4F10D03022B01D824
:1020D800002010BD00F08EF8FFF7D6FF08B1012CE4
:1020E800F6D9FFF747FFFFF741FF18B1A4F1120334
:1020F800012BEDD9172C8CBF0020012010BD00BF8B
:1021080038080020172838B504460D460AD8FF2994
:1021180008D0FFF7D3FF28B129462046BDE838404C
:10212800FFF742BA38BD38B504460D46FFF744FA02
:10213800FF2810D0062804D84D2323FA00F0C3073F
:1021480009D42046FFF7BAFF28B129462046BDE842
:102158003840FFF739BA38BD10B50446FFF72CFAF6
:102168000438C0B2012808D92046FFF7A7FF20B1DC
:102178002046BDE81040FFF72FBA002010BD000030
:1021880070B50C4C0C4E0D4D00212046FFF79EFB00
:1021980020460B4C3246294600F04CF801212046D7
:1021A800FFF794FB324629462046BDE8704000F010
:1021B80041B800BF3808002028030020C5180A08C5
:1021C8004808002013B5084C00231A461946009306
:1021D8002046FFF79DFD2046044A054902B0BDE8A8
:1021E800104000F027B800BF5C080020280300203A
:1021F800BD1C0A0838B50B4D296811F001040FD130
:102208002846FDF748FF58B121460748FFF704FF65
:102218002846FDF745FF054A0549034800F00AF836
:10222800014838BD740800207808002028030020E1
:10223800C91F0A080B460146184600F06FBD00008A
:10224800184B1A68D1075CBF01221A60164B1A682E
:10225800D2075CBF01221A60144B1A68D0075CBF12
:1022680001221A60124B1A68D1075CBF01221A605A
:10227800104B1A68D2075CBF01221A600E4B1A680D
:10228800D0075CBF01221A600C4B1A68D1075CBFEB
:1022980001221A600A4B1A68D2075CBF01221A6031
:1022A800704700BFA8080020A4080020A00800204C
:1022B8009C0800209808002094080020900800201E
:1022C8008C080020244B1A68D0075CBF01221A60D2
:1022D800224B1A68D1075CBF01221A60204B1A688A
:1022E800D2075CBF01221A601E4B1A68D0075CBF78
:1022F80001221A601C4B1A68D1075CBF01221A60C0
:102308001A4B1A68D2075CBF01221A60184B1A6868
:10231800D0075CBF01221A60164B1A68D1075CBF50
:1023280001221A60144B1A68D2075CBF01221A6096
:10233800124B1A68D0075CBF01221A60104B1A684A
:10234800D1075CBF01221A600E4B1A68D2075CBF26
:1023580001221A60704700BFD8080020D408002066
:10236800D0080020CC080020C8080020C40800209D
:10237800C0080020BC080020B8080020B4080020CD
:10238800B0080020AC080020244B1A68D0075CBFB6
:1023980001221A60224B1A68D1075CBF01221A6019
:1023A800204B1A68D2075CBF01221A601E4B1A68BC
:1023B800D0075CBF01221A601C4B1A68D1075CBFAA
:1023C80001221A601A4B1A68D2075CBF01221A60F0
:1023D800184B1A68D0075CBF01221A60164B1A689E
:1023E800D1075CBF01221A60144B1A68D2075CBF80
:1023F80001221A60124B1A68D0075CBF01221A60CA
:10240800104B1A68D1075CBF01221A600E4B1A687C
:10241800D2075CBF01221A60704700BF080900207C
:102428000409002000090020FC080020F80800200A
:10243800F4080020F0080020EC080020E80800203C
:10244800E4080020E0080020DC080020184B1A6887
:10245800D1075CBF01221A60164B1A68D2075CBF0D
:1024680001221A60144B1A68D0075CBF01221A6057
:10247800124B1A68D1075CBF01221A60104B1A6808
:10248800D2075CBF01221A600E4B1A68D0075CBFE6
:1024980001221A600C4B1A68D1075CBF01221A602E
:1024A8000A4B1A68D2075CBF01221A60704700BF46
:1024B8002809002024090020200900201C090020E8
:1024C8001809002014090020100900200C09002018
:1024D80081F0004102E000BF83F0004330B54FEACD
:1024E80041044FEA430594EA050F08BF90EA020F3A
:1024F8001FBF54EA000C55EA020C7FEA645C7FEACD
:10250800655C00F0E2804FEA5454D4EB5555B8BFEF
:102518006D420CDD2C4480EA020281EA030382EA60
:10252800000083EA010180EA020281EA0303362DF2
:1025380088BF30BD11F0004F4FEA01314FF4801CC5
:102548004CEA113102D0404261EB410113F0004FD7
:102558004FEA03334CEA133302D0524263EB43038E
:1025680094EA050F00F0A780A4F10104D5F1200E2C
:102578000DDB02FA0EFC22FA05F2801841F1000187
:1025880003FA0EF2801843FA05F359410EE0A5F15B
:1025980020050EF1200E012A03FA0EFC28BF4CF08C
:1025A800020C43FA05F3C01851EBE37101F0004542
:1025B80007D54FF0000EDCF1000C7EEB00006EEB4F
:1025C8000101B1F5801F1BD3B1F5001F0CD34908D9
:1025D8005FEA30004FEA3C0C04F101044FEA445230
:1025E80012F5800F80F09A80BCF1004F08BF5FEAB7
:1025F800500C50F1000041EB045141EA050130BD97
:102608005FEA4C0C404141EB010111F4801FA4F139
:102618000104E9D191F0000F04BF01460020B1FA8E
:1026280081F308BF2033A3F10B03B3F120020CDAC6
:102638000C3208DD02F1140CC2F10C0201FA0CF0A4
:1026480021FA02F10CE002F11402D8BFC2F1200C09
:1026580001FA02F120FA0CFCDCBF41EA0C019040BF
:10266800E41AA2BF01EB0451294330BD6FEA040408
:102678001F3C1CDA0C340EDC04F11404C4F12002F3
:1026880020FA04F001FA02F340EA030021FA04F305
:1026980045EA030130BDC4F10C04C4F1200220FA5C
:1026A80002F001FA04F340EA0300294630BD21FA9A
:1026B80004F0294630BD94F0000F83F4801306BF60
:1026C80081F480110134013D4EE77FEA645C18BF54
:1026D8007FEA655C29D094EA050F08BF90EA020FEB
:1026E80005D054EA000C04BF1946104630BD91EAE3
:1026F800030F1EBF0021002030BD5FEA545C05D1E6
:102708004000494128BF41F0004130BD14F5800424
:102718003CBF01F5801130BD01F0004545F0FE4198
:1027280041F470014FF0000030BD7FEA645C1ABFCD
:10273800194610467FEA655C1CBF0B46024650EA04
:10274800013406BF52EA033591EA030F41F4002130
:1027580030BD00BF90F0000F04BF0021704730B5B6
:102768004FF4806404F132044FF000054FF000018B
:1027780050E700BF90F0000F04BF0021704730B54C
:102788004FF4806404F1320410F0004548BF404221
:102798004FF000013EE700BF42004FEAE2014FEA76
:1027A80031014FEA02701FBF12F07F4393F07F4F51
:1027B80081F06051704792F0000F14BF93F07F4F83
:1027C800704730B54FF4607401F0004521F00041C6
:1027D80020E700BF50EA010208BF704730B54FF04C
:1027E80000050AE050EA010208BF704730B511F051
:1027F800004502D5404261EB41014FF4806404F189
:1028080032045FEA915C3FF4DCAE4FF003025FEA0A
:10281800DC0C18BF03325FEADC0C18BF033202EB92
:10282800DC02C2F1200300FA03FC20FA02F001FAEC
:1028380003FE40EA0E0021FA02F11444C1E600BF8B
:102848004FF0FF3C06E000BF4FF0010C02E000BF74
:102858004FF0010C4DF804CD4FEA410C7FEA6C5C57
:102868004FEA430C18BF7FEA6C5C1BD001B050EAFA
:10287800410C0CBF52EA430C91EA030F02BF90EAE5
:10288800020F0020704710F1000F91EA030F58BFA4
:10289800994208BF90422CBFD8176FEAE37040F006
:1028A800010070474FEA410C7FEA6C5C02D150EAA4
:1028B800013C07D14FEA430C7FEA6C5CD6D152EA5F
:1028C800033CD3D05DF8040B704700BF8446104624
:1028D80062468C461946634600E000BF01B5FFF723
:1028E800B7FF002848BF10F1000F01BD4DF808EDF3
:1028F800FFF7F4FF0CBF012000205DF808FB00BFC4
:102908004DF808EDFFF7EAFF34BF012000205DF81D
:1029180008FB00BF4DF808EDFFF7E0FF94BF01206A
:1029280000205DF808FB00BF4DF808EDFFF7CEFF6B
:1029380094BF012000205DF808FB00BF4DF808EDAA
:10294800FFF7C4FF34BF012000205DF808FB00BF7B
:102958004FF0FF0C1CEAD0521EBF1CEAD15392EA7A
:102968000C0F93EA0C0F6FD01A4480EA010C400256
:1029780018BF5FEA41211ED04FF0006343EA5010B0
:1029880043EA5111A0FB01310CF00040B1F5000FF2
:102998003EBF490041EAD3715B0040EA010062F1A1
:1029A8007F02FD2A1DD8B3F1004F40EBC25008BF8B
:1029B80020F00100704790F0000F0CF0004C08BFA9
:1029C80049024CEA502040EA51207F3AC2BFD2F176
:1029D800FF0340EAC250704740F400004FF0000384
:1029E800013A5DDC12F1190FDCBF00F000407047BE
:1029F800C2F10002410021FA02F1C2F1200200FAFC
:102A080002FC5FEA310040F1000053EA4C0308BFC2
:102A180020EADC70704792F0000F00F0004C02BF13
:102A2800400010F4000F013AF9D040EA0C0093F08E
:102A3800000F01F0004C02BF490011F4000F013BE8
:102A4800F9D041EA0C018FE70CEAD15392EA0C0F56
:102A580018BF93EA0C0F0AD030F0004C18BF31F0C1
:102A6800004CD8D180EA010000F00040704790F097
:102A7800000F17BF90F0004F084691F0000F91F03B
:102A8800004F14D092EA0C0F01D142020FD193EA01
:102A98000C0F03D14B0218BF084608D180EA010089
:102AA80000F0004040F0FE4040F40000704740F065
:102AB800FE4040F4400070474FF0FF0C1CEAD05233
:102AC8001EBF1CEAD15392EA0C0F93EA0C0F69D08F
:102AD800A2EB030280EA010C49024FEA402037D0FA
:102AE8004FF0805343EA111143EA10130CF00040F1
:102AF8008B4238BF5B0042F17D024FF4000C8B42E1
:102B080024BF5B1A40EA0C00B3EB510F24BFA3EBC0
:102B1800510340EA5C00B3EB910F24BFA3EB910390
:102B280040EA9C00B3EBD10F24BFA3EBD10340EAEA
:102B3800DC001B0118BF5FEA1C1CE0D1FD2A3FF630
:102B480050AF8B4240EBC25008BF20F001007047E5
:102B58000CF0004C4CEA50207F32C2BFD2F1FF0388
:102B680040EAC250704740F400004FF00003013AB9
:102B780037E792F0000F00F0004C02BF400010F45D
:102B8800000F013AF9D040EA0C0093F0000F01F071
:102B9800004C02BF490011F4000F013BF9D041EA93
:102BA8000C0195E70CEAD15392EA0C0F08D14202C6
:102BB8007FF47DAF93EA0C0F7FF470AF084676E799
:102BC80093EA0C0F04D14B023FF44CAF08466EE772
:102BD80030F0004C18BF31F0004CCAD130F0004240
:102BE8007FF45CAF31F000437FF43CAF5FE700BF98
:102BF8004FF0FF3C06E000BF4FF0010C02E000BFC1
:102C08004FF0010C4DF804CD4FEA40024FEA410362
:102C18007FEA226C18BF7FEA236C11D001B052EA18
:102C2800530C18BF90EA010F58BFB2EB030088BFDE
:102C3800C81738BF6FEAE17018BF40F0010070474D
:102C48007FEA226C02D15FEA402C05D17FEA236C2F
:102C5800E4D15FEA412CE1D05DF8040B704700BF76
:102C6800844608466146FFE70FB5FFF7C9FF00280D
:102C780048BF10F1000F0FBD4DF808EDFFF7F4FF46
:102C88000CBF012000205DF808FB00BF4DF808EDDF
:102C9800FFF7EAFF34BF012000205DF808FB00BF02
:102CA8004DF808EDFFF7E0FF94BF012000205DF824
:102CB80008FB00BF4DF808EDFFF7D2FF94BF0120D5
:102CC80000205DF808FB00BF4DF808EDFFF7C8FFCE
:102CD80034BF012000205DF808FB00BF42000ED27F
:102CE800B2F1FE4F0BD34FF09E03B3EB126209D43F
:102CF8004FEA002343F0004323FA02F070474FF0F5
:102D08000000704712F1610F01D1420202D14FF069
:102D1800FF3070474FF00000704700BF10B5054CFA
:102D280013462CB10A4601460220AFF3008010BDBD
:102D3800204610BD0000000010B5431E0A44914211
:102D480004D011F8014B03F8014FF8E710BD034612
:102D58000244934202D003F8011BFAE77047034686
:102D680013F8012B002AFBD1181A0138704700000C
:102D78001D000A085D000A0889000A088D000A0873
:102D88000000000073657475705375636365737331
:102D98003D25640057616974696E6720666F72200B
:102DA8005374617274005374617274696E67206938
:102DB8006E2035207365636F6E64732E2E2E004768
:102DC8004F210072656D6F7465207374617475733B
:102DD8003A00207C200073656E736F7220303A00D1
:102DE80073656E736F7220313A0073656E736F721C
:102DF80020323A0073656E736F7220333A00667240
:102E08006F6E74206C6566743A0066726F6E74201B
:102E180072696768743A006261636B206C656674F6
:102E28003A006261636B2072696768743A002564CE
:102E38002C25642C2564006E6F2073616D706C65A1
:102E4800002053454E534F522054494D454F555439
:102E58000000000000000000000000003D130A0808
:102E68003F130A0893130A084B130A086465766926
:102E78006365206E6F7420666F756E64007265738B
:102E8800657474696E67206C6173744D6F76656DD7
:102E9800656E7420696E74315F7372633D30782596
:102EA8007800726563616C6962726174696E67004B
:102EB8000000000000000000C5180A08C7180A082A
:102EC80066006C6E00666E00636F6465006465740E
:102ED80061696C000D0A00253031307520005D20D5
:102EE800002C200028293A2000205B00636F6465CD
:102EF800203D200025690064657461696C73203D7C
:102F08002000626175640053657269616C005553F5
:102F18004253657269616C31007479706500706143
:102F280072616D00636D6400696400686E640073AB
:102F380074726D0066696C74006C766C0061646410
:102F480048616E646C65720072656D6F7665486184
:102F58006E646C657200656E756D48616E646C6553
:102F68007273004A534F4E53747265616D4C6F67AC
:102F780048616E646C657200617070006E6F6E659A
:102F880000747261636500696E666F007761726EC6
:102F9800006572726F720070616E696300616C6CBB
:102FA800005A00252B3033643A25303275002559F4
:102FB8002D256D2D25645425483A254D3A25532550
:102FC8007A0061736374696D650000000000000099
:102FD80000000000CB1C0A08BD1C0A08BF1C0A0818
:102FE8000000000000000000351D0A08791D0A08CD
:102FF800531D0A08C7190A084D1D0A08371D0A0873
:103008003F1D0A08731D0A08471D0A08311D0A08D2
:103018000000000000000000F51E0A08191F0A0839
:10302800251F0A08C7190A08011F0A080D1F0A08E0
:10303800071F0A08131F0A08F71E0A08FB1E0A08BA
:103048000000000000000000C91F0A0813200A0839
:10305800EB1F0A08CB1F0A08F31F0A08FB1F0A0800
:1030680003200A080B200A080000000000000000E6
:103078009B200A08E1060A0839130A088D150A0870
:10308800C1190A08611B0A08711B0A08A5200A0849
:1030980089210A08CD210A0849220A08CD220A08EE
:0830A80091230A0855240A08CF
:0430B000000000001C
:1030B40006000000030000000200000007000000FA
:1030C400010100000E0000000500000004000000E3
:0830D40001010000CA2F0A08E7
:1030DC00FFFFFFFF00000102030405060708090AB1
:1030EC000B0C0D0E0F101112131415161718191AAC
:0830FC001B1C1D1E1F202800F3
:0431040078563412B3
:04000005080A0018CD
:00000001FF
