:02000004080AE8
:1000000000000A0894300A080000040006000501F8
:0800100004026C000000000076
:100018007C2D0A0809480A4908B5884205D0094ACA
:10002800824202D0121A02F089FE0748074A0021CC
:10003800121A02F08EFE064808BD00BF0003002019
:1000480044300A0828030020280300205009002013
:100058005009002070B501F00BFE074B074C1E46F7
:10006800E41AA4080025A54204D056F8253098477C
:100078000135F8E770BD00BF04300A0838300A08B7
:1000880000F072BA08B500F09FFABDE8084001F028
:10009800ADBD01F00BBC0078B0FA80F040097047A4
:1000A80001230370704703681847012A02D0022A07
:1000B80002D004E0016002E00B6800B10360002098
:1000C8007047000008B5054B188802F047F8044B44
:1000D800003018BF0120187008BD00BF0C030020B5
:1000E8002103002008B5054B188802F037F8044BA7
:1000F800003018BF0120187008BD00BF140300208D
:100108001003002008B5054B188802F027F8044BA7
:10011800003018BF0120187008BD00BF1803002068
:100128002003002008B5054B188802F017F8044B87
:10013800003018BF0120187008BD00BF0003002060
:100148001103002008B5054B188802F007F8044B86
:10015800003018BF0120187008BD00BF1C03002024
:100168002C03002010B5054C0548214601F02CF958
:10017800B4F90020034B1A6010BD00BFC40300206F
:100188004C0300206003002010B50123037143696C
:10019800044613B183690C3098470023237110BDBE
:1001A80007B5002302A941F8043D01F01DFA20B962
:1001B800019810B103689B68984703B05DF804FB89
:1001C80010B58368044613B10322014698472046B8
:1001D80010BD07B58068002338B18DE80A000221F8
:1001E80001F00AFAB0FA80F0400903B05DF804FBA8
:1001F80038B50E4B0446036083688BB100226FF05C
:100208000041FFF7E6FF237903F0FF051BB101204A
:1002180001F094FCF7E72946A06801F0DDF9A56034
:1002280004F10C00FFF7CCFF204638BD982D0A08D2
:1002380010B50446FFF7DCFF2046FFF72AFF2046EB
:1002480010BD00002DE9F04101210A2001F05CFFFA
:1002580001210B2001F058FF01210C2001F054FF6F
:1002680001210D2001F050FF00210A2001F05DFF5F
:1002780000210B2001F059FF00210C2001F055FF4F
:1002880000210D2001F051FF4FF4FA7001F056FCE7
:1002980001F0B2FF404901F0D3FE01F0ADFF01F0DB
:1002A800D3FE0A2001F04AFC01210A2001F03DFF9B
:1002B80001210B2001F039FF01210C2001F035FF4D
:1002C80001210D2001F031FF0A2001F037FC002147
:1002D8000B2001F02AFF314F00210C2001F025FFEF
:1002E80000210D2001F021FF0121384600F06AFDB0
:1002F8004FF47A783021384600F041FA284EC7F892
:1003080004800A2001F01AFC01210B2001F00DFFE6
:100318000121304600F056FD3121304600F02FFA19
:10032800204D0A20C6F8048001F008FC01210C20A9
:1003380001F0FBFE0121284600F044FD3221284649
:1003480000F01DFA184C0A20C5F8048001F0F6FBED
:1003580001210D2001F0E9FE0121204600F032FDC7
:100368003321204600F00BFA0A20C4F8048001F07B
:10037800E5FB38460A2100F01EFB30460A2100F052
:100388001AFB28460A2100F016FB2046BDE8F0417A
:100398000A2100F010BB00BFA08601006403002002
:1003A8007C03002094030020AC03002010B586B025
:1003B80003A800F0DCFF502103A800F0E5FF03A923
:1003C8000E4801F039F8044601F008FD23460C4AAE
:1003D80001210C4C01F066FB002211462046FFF774
:1003E800F8FEA06840B100236FF000428DE80C00D1
:1003F80019461A4601F000F906B010BD4C0300205A
:10040800A42D0A083003002008B5154B00211888D0
:1004180001F07AFE134B0021188801F075FE124B8B
:100428000021188801F070FE104B0021188801F097
:100438006BFE0F4B0021188801F066FE0D4B012161
:10044800188801F061FE0C4B0121188801F05CFE50
:1004580001F0C4FCBDE808404FF4165101F0A4BCFB
:100468000C030020140300201803002000030020C0
:100478001C030020080300200403002013B5184BB8
:1004880000241888224600944FF0FF33154901F0E4
:1004980009FD154B22461888144900944FF0FF3384
:1004A80001F000FD124B22461888124900944FF0C3
:1004B800FF3301F0F7FC104B224618880F490094CF
:1004C8004FF0FF3301F0EEFC0D4B224618880D4922
:1004D80000944FF0FF3301F0E5FC02B010BD00BFFF
:1004E8000C030020CD000A0814030020ED000A08C0
:1004F800180300200D010A08000300202D010A0836
:100508001C0300204D010A08F7B5134B134D0026B4
:10051800B42719884FF408728DE8C0004FF41663A9
:10052800284601F026FA0E4C0E4B4FF40872198833
:1005380020464FF416638DE8C00001F01AFA2846E9
:1005480040F2DC5101F0E1F940F2DC51204603B001
:10055800BDE8F04001F0D9B908030020CC03002021
:10056800DC0300200403002010B5FFF74DFFFFF760
:1005780069FEFFF71BFFFFF781FFFFF7C5FF0120AB
:1005880001F0DFFA0C4C23782BB901F027FC0B495A
:1005980001F052FAF7E701F021FC094901F04CFAA1
:1005A80041F2883001F0CAFA01F018FCBDE81040A9
:1005B800044901F041BA00BF2C030020B42D0A08F9
:1005C800C62D0A08DF2D0A0808B5124B1B7843B15F
:1005D800114B1B782BB1114B1B7813B1104B1B78A7
:1005E8001BB9FF221146104602E000221146FF20E7
:1005F80001F0B7FA0B4B1B785BB140F2DC510A48AB
:1006080001F083F9BDE8084040F2DC51074801F0E9
:100618007CB908BD2103002010030020200300201E
:10062800110300202C030020CC030020DC03002051
:1006380070B588B000F068FF2C4800F07FF82C48AF
:1006480000F07CF82B4800F079F82B4800F076F899
:100658002A4801F07AF92A4801F077F900210120A7
:1006680001F004F9032001F0F1F8264B04AE0493DD
:1006780002AA254C96E80300244B82E80300236075
:1006880004F10C0393E8030086E8030092E80300F2
:1006980083E803001E4B00256361A3692571079356
:1006A8001C4BA560A3611C4A234664210195009553
:1006B80004F10800069500F087FF3046174EFFF753
:1006C8007FFD32461649204601F0B6FD01F094FD43
:1006D800144C11232A460146204600F009FF3246F1
:1006E8001149204601F0A8FD08B070BD6403002040
:1006F8007C03002094030020AC030020CC030020DE
:10070800DC0300206D010A0830030020982D0A0838
:10071800B3000A08AF000A08A9010A082803002044
:10072800F9010A084C030020BD120A080368C9B27F
:100738009B6818470368C9B29B681847292242700A
:10074800002242600272704770B5044615460E4694
:1007580001F052FD617801F08EFC01F04DFD036857
:1007680031469B68984701F047FD036829469B6816
:10077800984701F041FD01F086FC207070BD38B546
:1007880005460C4601F07F028A21FFF7DDFF6C70F9
:1007980038BD70B5044615460E4601F02DFD61784A
:1007A80001F069FC01F028FD036831469B68984711
:1007B80001F022FD290AFFF7BDFF01F01DFDE9B296
:1007C800FFF7B8FF01F018FD01F05DFC207070BD67
:1007D80070B5054614460E4601F00EFD697801F025
:1007E8004AFC01F009FD036831469B68984701F00F
:1007F80003FD210EFFF79AFF01F0FEFCC4F3074149
:10080800FFF794FF01F0F8FCC4F30721FFF78EFF10
:1008180001F0F2FCE1B2FFF789FF01F0EDFC01F015
:1008280032FC287070BD38B504460D4601F0E4FC72
:10083800617801F020FC01F0DFFC036829469B6821
:10084800984701F0D9FC01F01EFC207001F0D4FC9F
:100858000122617801F007FC01F0CEFC03685B69B6
:100868009847C0B238BD38B504460D4601F0C4FCFF
:10087800617801F000FC01F0BFFC036829469B6821
:10088800984701F0B9FC01F0FEFB207001F0B4FCC0
:100898006178022201F0E7FB01F0AEFC03685B69B6
:1008A8009847044601F0A8FC03685B69984740EA4A
:1008B800042080B238BDF8B5064614461D460F46DA
:1008C80001F09AFC717801F0D6FB01F095FC036801
:1008D80039469B6898472544AC4207D001F08CFC08
:1008E800036814F8011B9B689847F5E701F084FC3E
:1008F80001F0C9FB3070F8BDF8B5064614461D4630
:100908000F4601F079FC717801F0B5FB01F074FC39
:10091800036839469B68984701F06EFC01F0B3FB09
:10092800307001F069FC2A46717801F09CFB25447F
:10093800AC4207D001F060FC03685B69984704F893
:10094800010BF5E7F8BD000070B50D46064600211D
:10095800284602F09DF9B0B9284601F01FFF0CA304
:10096800D3E9002301F0ECFF68B94FF0864128462F
:1009780001F0F0FF02F0B4F9442182B23046FFF7EB
:1009880008FF012070BD002070BD00BFAFF30080DC
:10099800A4703D0AD7FF7F4008B509B9502102E08D
:1009A800012906D17021FFF73EFF01304000C0B297
:1009B80008BDFF2008BD38B504460D460122802138
:1009C800FFF7C2FE0122FF212046FFF7BDFE0022ED
:1009D80011462046FFF7B8FE227C91212046FFF7FA
:1009E800B3FE012200212046FFF7AEFE0022FF21C0
:1009F8002046FFF7A9FE002280212046FFF7A4FE2B
:100A08006DB1F8212046FFF72EFF00B145432A4675
:100A180004212046FFF7DCFE0422002101E02946DC
:100A280002222046BDE83840FFF78EBEF8B50446DE
:100A38000F46164680210122FFF786FE0122FF217C
:100A48002046FFF781FE002211462046FFF77CFE74
:100A58000622FF212046FFF777FE83212046FFF775
:100A6800E2FE40F00402D2B283212046FFF76CFE7A
:100A78000722FF212046FFF767FE01228121204639
:100A8800FFF762FE012280212046FFF75DFE6B2200
:100A980094212046FFF758FE002283212046FFF7C5
:100AA80053FE00F089FDE06083212046FFF7BBFE7E
:100AB800054658B96368002BF6D000F07DFDE36861
:100AC800C01A63689842EFD92846F8BD012220462B
:100AD8008321FFF739FE92212046FFF7A4FE00F09C
:100AE8007F03C0F3C0103B70002230708121204684
:100AF800FFF72AFE06222046FF21FFF725FE832165
:100B08002046FFF790FE832102462046FFF71CFE91
:100B180020460122FF21FFF717FE2046012200216F
:100B2800FFF712FE20460022FF21FFF70DFE2046A8
:100B380000228021FFF708FE0120F8BD10B50C4601
:100B48000121FFF770FEC0F300132370C0F3C00348
:100B5800A370C0F380036370C0F38013C0F3C010A8
:100B6800E370207110BD4FF6FF73984228BF1846F6
:100B7800C3B2000A03FA00F0013080B27047B0F542
:100B8800803F01D278B101E04FF6FF7001380023B1
:100B980030F0FF019AB203F1010301D04008F7E7F2
:100BA80040EA022080B27047084B4FF47A725943EA
:100BB80010B501F5FA714FF4FA64B1FBF2F3B1FB29
:100BC800F4F100FB0310B0FBF2F010BD002F3A0067
:100BD80070B50E46002114460546FFF7DDFE462196
:100BE80020802846FFF71FFE013080B22178A080C0
:100BF800FFF7DAFF5121E0602846FFF734FEFFF7E0
:100C0800B2FF2178E080FFF7CFFF702120612846EE
:100C1800FFF709FE01304000C0B26080712128460C
:100C2800FFF721FEFFF79FFF2081F37813B1E388D8
:100C3800C01A2081A1782089FFF7B6FF606170BDD6
:100C480010B5044688B06946FFF778FF02AA6946DE
:100C58002046FFF7BDFF9DF800301BB1059800F650
:100C6800845001E040F636309DF802302BB1059BE8
:100C780003F2B22300EB430006E09DF801301BB1FC
:100C8800059B03F5257318449DF803301BB1069B9B
:100C980003F5257318449DF804301BB1079B03F234
:100CA80026231844606108B010BD0000084B4FF4BB
:100CB8007A7259434FF4FA6301F5FA71B1FBF3F311
:100CC800B1FBF2F102FB0030B0FBF1F0704700BF5E
:100CD800002F3A0044F61F63F0B5994289B00646E2
:100CE8000D4642D96946FFF729FF02AA69463046F0
:100CF800FFF76EFF9DF800301BB1059800F63630FF
:100D080001E040F6E8009DF802302BB1059B03F2A4
:100D1800B22300EB430006E09DF801301BB1059BB0
:100D280003F5257318449DF803701FB1069B03F55E
:100D3800257318449DF80440ACB100F22620854282
:100D480013D39DF80A10281AFFF7B0FF17B1BDF8A2
:100D58000E301844FFF713FF712102463046FFF7A3
:100D680018FD756102E0012400E00024204609B066
:100D7800F0BD38B541F0010200210446FFF7E4FC5C
:100D880000F01AFCE06013212046FFF74CFD10F03C
:100D980007050BD16368002BF5D000F00DFCE36864
:100DA800C01A63689842EED9284638BD2046012209
:100DB8000B21FFF7C9FC002220461146FFF7C4FCAF
:100DC800012038BDF0B5044685B049B18921FFF747
:100DD8002AFD40F00102D2B289212046FFF7B4FC77
:100DE800002288212046FFF7AFFC012280212046FF
:100DF800FFF7AAFC0122FF212046FFF7A5FC0022ED
:100E080011462046FFF7A0FC91212046FFF70BFD75
:100E18000122207400212046FFF796FC0022FF21C2
:100E28002046FFF791FC002280212046FFF78CFC2A
:100E380060212046FFF7F7FC40F01202D2B2602191
:100E48002046FFF781FC4FF07A512046FFF77CFDE2
:100E5800FF2201212046FFF777FC0DF107020DF173
:100E680006012046FFF7E2FD08B900251DE206232A
:100E780002AAB0212046FFF73FFD0122FF212046AC
:100E8800FFF762FC00224F212046FFF75DFC2C2271
:100E98004E212046FFF758FC0022FF212046FFF78D
:100EA80053FC00252046B621B422FFF74DFC294605
:100EB8009DF807309DF80660002B14BF0C20002019
:100EC8000127EBB2DA0898420DF1100E03F0070380
:100ED800724401D88E4208D112F808EC07FA03F3DD
:100EE8002EEA030302F8083C07E012F8082C42FA3D
:100EF80003F3DB0744BF0131C9B20135302DE0D11E
:100F0800062302AAB0212046FFF7D5FC0122FF21C3
:100F18002046FFF719FC002211462046FFF714FC73
:100F28000022FF212046FFF70FFC0022092120465E
:100F3800FFF70AFC002210212046FFF705FC0022DB
:100F480011212046FFF700FC012224212046FFF74B
:100F5800FBFBFF2225212046FFF7F6FB0022752127
:100F68002046FFF7F1FB0122FF212046FFF7ECFBAB
:100F78002C224E212046FFF7E7FB0022482120467D
:100F8800FFF7E2FB202229462046FFF7DDFB00227F
:100F9800FF212046FFF7D8FB092229462046FFF704
:100FA800D3FB002254212046FFF7CEFB0422312137
:100FB8002046FFF7C9FB032232212046FFF7C4FB76
:100FC800832240212046FFF7BFFB252246212046E9
:100FD800FFF7BAFB002260212046FFF7B5FB00228D
:100FE80027212046FFF7B0FB062250212046FFF7B5
:100FF800ABFB002251212046FFF7A6FB9622522187
:101008002046FFF7A1FB082256212046FFF79CFB4C
:101018002A4657212046FFF797FB002261212046E8
:10102800FFF792FB002262212046FFF78DFB00228A
:1010380064212046FFF788FB002265212046FFF740
:1010480083FBA02266212046FFF77EFB0122FF21B9
:101058002046FFF779FB322222212046FFF774FB56
:10106800142247212046FFF76FFBFF224921204623
:10107800FFF76AFB00224A212046FFF765FB0022A2
:10108800FF212046FFF760FB0A227A212046FFF75E
:101098005BFB00227B212046FFF756FB21227821AB
:1010A8002046FFF751FB0122FF212046FFF74CFBAA
:1010B800342223212046FFF747FB00224221204605
:1010C800FFF742FBFF2244212046FFF73DFB262283
:1010D80045212046FFF738FB052246212046FFF729
:1010E80033FB402211462046FFF72EFB06220E2135
:1010F8002046FFF729FB1A2220212046FFF724FB70
:10110800402243212046FFF71FFB0022FF212046F3
:10111800FFF71AFB032234212046FFF715FB442270
:1011280035212046FFF710FB0122FF212046FFF75B
:101138000BFB042231212046FFF706FB09224B2135
:101148002046FFF701FB05224C212046FFF7FCFA59
:1011580004224D212046FFF7F7FA0022FF212046FE
:10116800FFF7F2FA002244212046FFF7EDFA202289
:1011780045212046FFF7E8FA082247212046FFF7D5
:10118800E3FA282248212046FFF7DEFA00226721E9
:101198002046FFF7D9FA042270212046FFF7D4FA37
:1011A800012271212046FFF7CFFAFE227221204644
:1011B800FFF7CAFA002276212046FFF7C5FA002277
:1011C80077212046FFF7C0FA0122FF212046FFF7CA
:1011D800BBFA01220D212046FFF7B6FA0022FF21B3
:1011E8002046FFF7B1FA012280212046FFF7ACFA2A
:1011F800F82201212046FFF7A7FA0122FF21204605
:10120800FFF7A2FA01228E212046FFF79DFA01225C
:1012180000212046FFF798FA0022FF212046FFF719
:1012280093FA002280212046FFF78EFA04220A2131
:101238002046FFF789FA84212046FFF7F4FA842133
:1012480000F0EF022046FFF77FFA01220B2120462B
:10125800FFF77AFA2046FFF7F3FCE82260610121E4
:101268002046FFF771FA61692046FFF733FD012236
:1012780011462046FFF768FA40212046FFF779FD1E
:1012880000283FF4F2AD022201212046FFF75CFA64
:1012980000212046FFF76DFD054600283FF4E5AD27
:1012A800E82201212046FFF74FFA284605B0F0BD95
:1012B80000F02AB9704710B50446FEF7EAFE20464A
:1012C80010BDF8B505461E460F46017CC06841F0C2
:1012D8001801144600F0CFFEE868012E036888BFA5
:1012E80047F080079B68394698472644A642E86835
:1012F80005D0036814F8011B9B689847F6E700F0CF
:10130800C2FEB0FA80F04009F8BDF8B504461E46A2
:101318000F46017CC06841F01801154600F0ABFE8D
:10132800E068012E036888BF47F080079B6839464C
:101338009847E06800F0A7FEA8B9217C324641F042
:101348001801E06800F092FE2E44AE420DD0E0682D
:1013580003681B69984740B1E06803685B69984770
:1013680005F8010BF1E70020F8BD0120F8BD0022C7
:10137800027042708270C270027142718271C271D1
:10138800027242728272704741F007010170704721
:1013980013B5036801AA9C680123A0479DF80400BF
:1013A80002B010BD38B505460A240F212846FFF7BC
:1013B800EFFF33284FF0010005D000F0BFFB013CE0
:1013C800F3D1204638BD38BDF7B50C46072106468F
:1013D800FFF7DEFF00F00800002814BF01250025F4
:1013E8001BD033686A469F68282106233046B847D1
:1013F8009DF801209DF8003043EA022323809DF8E0
:1014080003209DF8023043EA022363809DF80520FB
:101418009DF8043043EA0223A380284603B0F0BDB8
:1014280037B502AC036804F8042DDD6822460123B1
:10143800A84703B030BD000070B504460D46FFF75D
:10144800B1FF064628B900F0C9FC284900F0F4FAB3
:1014580049E02A7820212046FFF7E2FF6A78212117
:101468002046FFF7DDFFAA7822212046FFF7D8FFA4
:10147800EA7823212046FFF7D3FF2A792421204642
:10148800FFF7CEFF6A7925212046FFF7C9FFAB7920
:101498001BB126212046FFF77BFFAA7A2E21204682
:1014A800FFF7BEFFAB785B061DD5EA7932212046EF
:1014B800FFF7B6FF2A7A33212046FFF7B1FF6368AA
:1014C800002B0ADB6A7A204622723021FFF7A8FF38
:1014D80031212046FFF75CFF05E00022227230210F
:1014E8002046FFF79DFF304670BD00BFFC2D0A085F
:1014F80010B54360024BC1600360027410BD00BFA9
:10150800EC2D0A0800F000B808B5024B1B681B68F0
:10151800019308BDB001060808B5024B1B685B685B
:10152800019308BDB001060808B5024B1B689B680B
:10153800019308BDB001060808B5024B1B68DB68BB
:10154800019308BDB001060808B5024B1B681B696A
:10155800019308BDB001060808B5024B1B685B691A
:10156800019308BDB001060808B5024B1B689B69CA
:10157800019308BDB001060808B5024B1B68DB697A
:10158800019308BDB001060808B5024B1B68DB696A
:10159800019308BDB401060808B5024B1B681B6A15
:1015A800019308BDB401060808B5024B1B685B68C7
:1015B800019308BD9C01060808B5024B1B685B69CE
:1015C800019308BD9C01060808B5024B1B681B6AFD
:1015D800019308BDD001060808B5024B1B685B6A79
:1015E800019308BDD001060808B5024B1B689B6A29
:1015F800019308BDD001060808B5024B1B68DB6AD9
:10160800019308BDD001060808B5024B1B681B6B87
:10161800019308BDD001060808B5024B1B689B69F9
:10162800019308BDC401060808B5024B1B685B6A34
:10163800019308BDC401060808B5024B1B689B6AE4
:10164800019308BDC401060808B5024B1B68DB6A94
:10165800019308BDC401060808B5024B1B681B6B43
:10166800019308BDC401060808B5024B1B685B6BF3
:10167800019308BDC401060808B5024B1B689B6BA3
:10168800019308BDC401060808B5024B1B681B6C12
:10169800019308BDC401060808B5024B1B681B6C02
:1016A800019308BDAC01060808B5024B1B68DB6C4A
:1016B800019308BDAC01060808B5024B1B685B6DB9
:1016C800019308BDAC01060808B5024B1B689B6D69
:1016D800019308BDAC01060808B5024B1B68DB6D19
:1016E800019308BDAC01060808B5024B1B681B6EC8
:1016F800019308BDAC01060808B5024B1B685B6E78
:10170800019308BDAC01060808B5024B1B689B6E27
:10171800019308BDAC01060808B5024B1B68DB6ED7
:10172800019308BDAC01060808B5024B1B681B6F86
:10173800019308BDAC01060808B5024B1B685B6F36
:10174800019308BDAC01060808B5034B1B68D3F824
:101758008030019308BD0000AC01060808B5024BB3
:101768001B681B69019308BDA801060808B5024B50
:101778001B685B69019308BDA801060808B5024B00
:101788001B689B69019308BDA801060808B5024BB0
:101798001B681B68019308BDD801060808B5024BF1
:1017A8001B685B68019308BDD801060808B5024BA1
:1017B8001B681B69019308BDD801060808B5024BD0
:1017C8001B685B69019308BDD801060808B5024B80
:1017D8001B689B69019308BDD801060808B5024B30
:1017E8001B68DB69019308BDD801060808B5024BE0
:1017F8001B681B6A019308BDD801060808B5024B8F
:101808001B685B68019308BDA801020808B5024B74
:101818001B689B68019308BDA801020808B5024B24
:101828001B68DB68019308BDA801020808B5024BD4
:101838001B689B69019308BDA801020808B5024B03
:101848001B68DB69019308BDA801020808B5024BB3
:101858001B685B68019308BDA401060808B5024B24
:101868001B685B69019308BDA401060808B5024B13
:101878001B68DB6A019308BDA401060808B5024B82
:101888001B685B6E019308BDA401060808B5024BEE
:101898001B689B6E019308BDA401060808B5024B9E
:1018A8001B681B69019308BDC801060808B5024BEF
:1018B8001B685B68019308BDA001060808B5024BC8
:1018C8001B685B6A019308BDA0010608704710B544
:1018D8000446FEF7DEFB204610BD000070B5044646
:1018E8000E46074B0025036040F80C5FFFF78CFE9F
:1018F80030462671FFF748FEA560204670BD00BF40
:10190800482E0A080079FFF747BEB0F90020531C9B
:101918000BD0438880888B4203D88842034628BF6F
:101928000B46194690B2FFF729BF70474FF6FF7371
:10193800B42202814FF408720380428000234FF4DE
:101948001662C3808280C360704708B5FFF7EEFF58
:1019580008BD10B50446B0F90000431C07D080B29A
:10196800FFF704FF2046FFF7E1FF012010BD00202C
:1019780010BD2DE9F0410D46044602212846904647
:101988001F46FFF7C9FD022801D0002619E02846A6
:1019980000F096FB06460028F7D0B4F90030013372
:1019A80002D02046FFF7D5FFBDF918302580E38027
:1019B800BDF91C30A4F80280A78023812846FFF7D0
:1019C800CDFE3046BDE8F0810020FFF73FBFF8B5F7
:1019D80006460D468F180024BD420CD0336815F812
:1019E800011B9B6830469847002801DB0444F3E755
:1019F800002C08BF04462046F8BD70B505460C46C5
:101A0800084649B101F0ADF92B680246214628463F
:101A1800BDE87040DB68184770BD03689B681847CD
:101A280038B50D210546FFF7F8FF0A210446284678
:101A3800FFF7F3FF204438BD38B50546FFF7DDFF53
:101A480004462846FFF7ECFF204438BD012A98BF1A
:101A58000A2230B50B468BB000218DF824100DF109
:101A68002304B3FBF2F505FB1233DBB2092B94BF59
:101A780030333733DBB2214604F801392B46002DC9
:101A8800EFD1FFF7BAFF0BB030BD10B422B903682D
:101A9800C9B29B6810BC1847D2B210BCFFF7D6BFBA
:101AA800FFF7F3BF0CB42DE9F04387B000AF07F19F
:101AB800380454F8049B05460E4623464A4614212A
:101AC800381D3C60FFF7FAFE132805D8391D284653
:101AD800FFF793FF044613E000F1080323F0070320
:101AE800E846ADEB030D411C23464A4668463C6078
:101AF800FFF7E4FE69462846FFF77FFF0446C54620
:101B08001EB12846FFF78CFF044420461C37BD460B
:101B1800BDE8F04302B07047014A024B1A607047B3
:101B2800082F0A08EC030020024B1A68024B1A60BF
:101B3800704700BF24030020F00300200021FFF7B6
:101B48008DBE10B50446FFF771FE844208D01CB163
:101B5800BDE81040FFF75ABEBDE81040FFF75EBE73
:101B680010BD70B505460E461446FFF75FFE50B12E
:101B780044EA062040EA0540FFF740FEBDE8704011
:101B8800E720FFF75BBE70BD08B5144B33B100F01A
:101B980025F903681B699847002816DC104B33B1F8
:101BA80000F0EAF903681B699847002810DC0D4B20
:101BB8000BB1AFF300800C4B7BB100F04BF903681D
:101BC8001B699847002806DC08BDAFF30080E5E7ED
:101BD800AFF30080EBE7AFF3008008BD0000000022
:101BE80000000000000000000000000008B5FFF73A
:101BF800CBFFFFF7E1FC014B186008BD7C08002013
:101C08000248034A0349121A01F098B800400240FA
:101C18000440024040300A080020704737B5436846
:101C280004460A2B0ED0502B1CD1104B1D68CDB189
:101C3800037D4FF400710093C26800F110038068BF
:101C4800A84707E000F11003C2684FF400718068EC
:101C5800FFF7E2FF30B1002220461146FFF716FEDB
:101C6800012000E0002003B030BD00BFF4030020D5
:101C780038B50C4C0C4D2368AB420C4B0CBF012201
:101C880000221A7002D0FFF7BBFF2560084B1BB17A
:101C9800FFF78AFCAFF30080BDE838400021054813
:101CA800FFF7ECBD004002401E1C279AF8030020F5
:101CB80000000000251C0A08704710B50446FEF70E
:101CC800E8F9204610BDF8B50F4600F10806051DD5
:101CD800002416F8011D0A223846FFF7E1FEAE423D
:101CE800044407D0002CF4D02E213846FFF795FE87
:101CF8000444EEE72046F8BD10B59DF8084044EAD4
:101D0800032343EA024242EA016104234160037566
:101D180010BD000037B5044D05609DF818500095BA
:101D2800FFF7EAFF03B030BD642F0A08417470471B
:101D380070470021007CFFF749BD0121007CFFF7B7
:101D480045BD007CFFF73ABD007CFFF72FBD38B5D5
:101D58000446007C0D46FFF731FD002801DC607C5D
:101D680020B12946207CFFF739FD012038BD007CD1
:101D7800FFF73CBD10B50446FEF78BF9204610BDB1
:101D880010B50446002363604FF47A73A360054BD3
:101D9800084623600123217463741146FFF7F6FC9B
:101DA800204610BD782F0A080022007CFFF7F6BCF9
:101DB80010B504461422002100F0CBFF054B204645
:101DC8006360054BE36040F2011323818123238282
:101DD80010BD00BF810400200004002030B50E4D66
:101DE80087B001A8FFF7E4FF296811F0010410D1BA
:101DF8002846FEF750F960B101AA21460748FFF7C7
:101E0800BFFF2846FEF74CF9054A0649034800F08B
:101E180013FA024807B030BDFC03002084050020F7
:101E280028030020391D0A0810B504461422002191
:101E380000F08FFF054B20466360054BE36040F2DE
:101E4800011323818123238210BD00BF34060020A3
:101E58009C05002010B50E4C86B001A8FFF7E4FFE2
:101E68002368DB0710D42046FEF715F960B101AAF4
:101E780001210848FFF784FF2046FEF711F9064ABA
:101E88000649044800F0D8F9024806B010BD00BF62
:101E9800980500202006002028030020391D0A0884
:101EA80000470000F0B51C4685B005460E461746AB
:101EB800FFF762FB002084424FF0040303908DF883
:101EC8000C30B4BF03469DF828302846A4BF8DF8CF
:101ED8000E3003AB009332463B460449A8BF8DF849
:101EE8000D40FFF741FB012005B0F0BDA91E0A080F
:101EF800704741747047007CFFF7C6BB007CFFF752
:101F08009BBB007CFFF7A8BB007CFFF79DBB007C58
:101F1800FFF7AABB10B50446FEF7BBF8204610BD74
:101F280070B5457C04460E4625B9007CFFF7ACFB2E
:101F3800002805DD3146207CBDE87040FFF774BB02
:101F4800284670BD10B50446084611460022626056
:101F58004FF47A72A260054A2074226001226274EA
:101F68001A46FFF759FB204610BD00BFA82F0A08E4
:101F7800007CFFF781BB000038B50C4D296811F0D3
:101F8800010411D12846FEF786F868B1084A2146AF
:101F9800084B0948FFF7D6FF2846FEF781F8074A9D
:101FA8000749054800F048F9034838BDD007002024
:101FB800D40700204C070020380700202803002001
:101FC800F91E0A087047F8B5064615460C468F18DC
:101FD800BC4206D0336814F8011B9B68304698470A
:101FE800F6E72846F8BD0022007CFFF77DBB0021FC
:101FF800007CFFF781BB0021007CFFF785BB002137
:10200800007CFFF789BB0021007CFFF78DBB10B572
:102018000446FEF73EF8204610BD000010B5044601
:1020280008464FF47A73A360044B00212074616062
:102038002360FFF789FB204610BD00BFD82F0A0890
:102048000022007CFFF728BB00231A461946007CB3
:10205800FFF72ABB13B50024007C0094FFF72CFB84
:10206800C0B202B010BD0123FFF7F4BF0123D2B202
:10207800C9B2FFF7EFBF0022007CFFF725BB0022A3
:10208800007CFFF729BB0121FFF7F9BF0021007C85
:10209800FFF752BB7047002211461046FFF7FEBB00
:1020A8000348044B044A0549036000F0C5B800BF63
:1020B8005808002000300A08280300209D200A083C
:1020C80010B504460F48FFF71DFC28B1A4F10D0315
:1020D800022B01D8002010BD00F08EF8FFF7D6FFC4
:1020E80008B1012CF6D9FFF747FFFFF741FF18B1F8
:1020F800A4F11203012BEDD9172C8CBF002001206D
:1021080010BD00BF5C080020172838B504460D46EE
:102118000AD8FF2908D0FFF7D3FF28B1294620465F
:10212800BDE83840FFF700BA38BD38B504460D465B
:10213800FFF702FAFF2810D0062804D84D2323FA07
:1021480000F0C30709D42046FFF7BAFF28B1294693
:102158002046BDE83840FFF7F7B938BD10B504464A
:10216800FFF7EAF90438C0B2012808D92046FFF77A
:10217800A7FF20B12046BDE81040FFF7EDB90020C9
:1021880010BD000070B50C4C0C4E0D4D00212046C2
:10219800FFF7A4FB20460B4C3246294600F04CF8CA
:1021A80001212046FFF79AFB324629462046BDE822
:1021B800704000F041B800BF5C08002028030020F0
:1021C800D5180A086C08002013B5084C00231A46D5
:1021D800194600932046FFF79DFD2046044A05490D
:1021E80002B0BDE8104000F027B800BF800800200A
:1021F80028030020C11C0A0838B50B4D296811F0C6
:1022080001040FD12846FDF746FF58B1214607487B
:10221800FFF704FF2846FDF743FF054A0549034831
:1022280000F00AF8014838BD980800209C080020F2
:1022380028030020CD1F0A080B460146184600F067
:102248006FBD0000184B1A68D1075CBF01221A60E5
:10225800164B1A68D2075CBF01221A60144B1A6821
:10226800D0075CBF01221A60124B1A68D1075CBF05
:1022780001221A60104B1A68D2075CBF01221A604B
:102288000E4B1A68D0075CBF01221A600C4B1A6803
:10229800D1075CBF01221A600A4B1A68D2075CBFDB
:1022A80001221A60704700BFCC080020C80800202F
:1022B800C4080020C0080020BC080020B80800207E
:1022C800B4080020B0080020244B1A68D0075CBF6F
:1022D80001221A60224B1A68D1075CBF01221A60DA
:1022E800204B1A68D2075CBF01221A601E4B1A687D
:1022F800D0075CBF01221A601C4B1A68D1075CBF6B
:1023080001221A601A4B1A68D2075CBF01221A60B0
:10231800184B1A68D0075CBF01221A60164B1A685E
:10232800D1075CBF01221A60144B1A68D2075CBF40
:1023380001221A60124B1A68D0075CBF01221A608A
:10234800104B1A68D1075CBF01221A600E4B1A683D
:10235800D2075CBF01221A60704700BFFC0800204A
:10236800F8080020F4080020F0080020EC080020FD
:10237800E8080020E4080020E0080020DC0800202D
:10238800D8080020D4080020D0080020244B1A6860
:10239800D0075CBF01221A60224B1A68D1075CBFC4
:1023A80001221A60204B1A68D2075CBF01221A600A
:1023B8001E4B1A68D0075CBF01221A601C4B1A68B2
:1023C800D1075CBF01221A601A4B1A68D2075CBF9A
:1023D80001221A60184B1A68D0075CBF01221A60E4
:1023E800164B1A68D1075CBF01221A60144B1A6891
:1023F800D2075CBF01221A60124B1A68D0075CBF73
:1024080001221A60104B1A68D1075CBF01221A60BA
:102418000E4B1A68D2075CBF01221A60704700BFD2
:102428002C09002028090020240900202009002068
:102438001C09002018090020140900201009002098
:102448000C090020080900200409002000090020C8
:10245800184B1A68D1075CBF01221A60164B1A681C
:10246800D2075CBF01221A60144B1A68D0075CBF00
:1024780001221A60124B1A68D1075CBF01221A6048
:10248800104B1A68D2075CBF01221A600E4B1A68FB
:10249800D0075CBF01221A600C4B1A68D1075CBFD9
:1024A80001221A600A4B1A68D2075CBF01221A601F
:1024B800704700BF4C09002048090020440900204B
:1024C800400900203C090020380900203409002078
:1024D8003009002081F0004102E000BF83F0004392
:1024E80030B54FEA41044FEA430594EA050F08BFA7
:1024F80090EA020F1FBF54EA000C55EA020C7FEA6B
:10250800645C7FEA655C00F0E2804FEA5454D4EBE7
:102518005555B8BF6D420CDD2C4480EA020281EAB1
:10252800030382EA000083EA010180EA020281EAE9
:102538000303362D88BF30BD11F0004F4FEA01313B
:102548004FF4801C4CEA113102D0404261EB41014A
:1025580013F0004F4FEA03334CEA133302D05242D0
:1025680063EB430394EA050F00F0A780A4F101048C
:10257800D5F1200E0DDB02FA0EFC22FA05F28018C6
:1025880041F1000103FA0EF2801843FA05F35941AC
:102598000EE0A5F120050EF1200E012A03FA0EFC2B
:1025A80028BF4CF0020C43FA05F3C01851EBE37155
:1025B80001F0004507D54FF0000EDCF1000C7EEB72
:1025C80000006EEB0101B1F5801F1BD3B1F5001FB0
:1025D8000CD349085FEA30004FEA3C0C04F10104CF
:1025E8004FEA445212F5800F80F09A80BCF1004FF8
:1025F80008BF5FEA500C50F1000041EB045141EA7A
:10260800050130BD5FEA4C0C404141EB010111F47A
:10261800801FA4F10104E9D191F0000F04BF014625
:102628000020B1FA81F308BF2033A3F10B03B3F103
:1026380020020CDA0C3208DD02F1140CC2F10C0293
:1026480001FA0CF021FA02F10CE002F11402D8BFF1
:10265800C2F1200C01FA02F120FA0CFCDCBF41EABD
:102668000C019040E41AA2BF01EB0451294330BD8C
:102678006FEA04041F3C1CDA0C340EDC04F1140469
:10268800C4F1200220FA04F001FA02F340EA030040
:1026980021FA04F345EA030130BDC4F10C04C4F186
:1026A800200220FA02F001FA04F340EA0300294666
:1026B80030BD21FA04F0294630BD94F0000F83F4B0
:1026C800801306BF81F480110134013D4EE77FEA93
:1026D800645C18BF7FEA655C29D094EA050F08BFDF
:1026E80090EA020F05D054EA000C04BF19461046C0
:1026F80030BD91EA030F1EBF0021002030BD5FEA04
:10270800545C05D14000494128BF41F0004130BD2B
:1027180014F580043CBF01F5801130BD01F000457F
:1027280045F0FE4141F470014FF0000030BD7FEAF2
:10273800645C1ABF194610467FEA655C1CBF0B46ED
:10274800024650EA013406BF52EA033591EA030F04
:1027580041F4002130BD00BF90F0000F04BF0021FC
:10276800704730B54FF4806404F132044FF000052F
:102778004FF0000150E700BF90F0000F04BF0021A8
:10278800704730B54FF4806404F1320410F000450E
:1027980048BF40424FF000013EE700BF42004FEA09
:1027A800E2014FEA31014FEA02701FBF12F07F4386
:1027B80093F07F4F81F06051704792F0000F14BF83
:1027C80093F07F4F704730B54FF4607401F00045C7
:1027D80021F0004120E700BF50EA010208BF70471E
:1027E80030B54FF000050AE050EA010208BF704713
:1027F80030B511F0004502D5404261EB41014FF47C
:10280800806404F132045FEA915C3FF4DCAE4FF07F
:1028180003025FEADC0C18BF03325FEADC0C18BF66
:10282800033202EBDC02C2F1200300FA03FC20FAB7
:1028380002F001FA03FE40EA0E0021FA02F1144404
:10284800C1E600BF4FF0FF3C06E000BF4FF0010CAF
:1028580002E000BF4FF0010C4DF804CD4FEA410CE7
:102868007FEA6C5C4FEA430C18BF7FEA6C5C1BD0B4
:1028780001B050EA410C0CBF52EA430C91EA030F35
:1028880002BF90EA020F0020704710F1000F91EA92
:10289800030F58BF994208BF90422CBFD8176FEA60
:1028A800E37040F0010070474FEA410C7FEA6C5C2E
:1028B80002D150EA013C07D14FEA430C7FEA6C5C35
:1028C800D6D152EA033CD3D05DF8040B704700BF61
:1028D8008446104662468C461946634600E000BFAF
:1028E80001B5FFF7B7FF002848BF10F1000F01BD81
:1028F8004DF808EDFFF7F4FF0CBF012000205DF84C
:1029080008FB00BF4DF808EDFFF7EAFF34BF0120D0
:1029180000205DF808FB00BF4DF808EDFFF7E0FF69
:1029280094BF012000205DF808FB00BF4DF808EDBA
:10293800FFF7CEFF94BF012000205DF808FB00BF21
:102948004DF808EDFFF7C4FF34BF012000205DF803
:1029580008FB00BF4FF0FF0C1CEAD0521EBF1CEA58
:10296800D15392EA0C0F93EA0C0F6FD01A4480EA05
:10297800010C400218BF5FEA41211ED04FF00063EE
:1029880043EA501043EA5111A0FB01310CF000401A
:10299800B1F5000F3EBF490041EAD3715B0040EA40
:1029A800010062F17F02FD2A1DD8B3F1004F40EB10
:1029B800C25008BF20F00100704790F0000F0CF0E3
:1029C800004C08BF49024CEA502040EA51207F3AA7
:1029D800C2BFD2F1FF0340EAC250704740F4000082
:1029E8004FF00003013A5DDC12F1190FDCBF00F073
:1029F80000407047C2F10002410021FA02F1C2F121
:102A0800200200FA02FC5FEA310040F1000053EABC
:102A18004C0308BF20EADC70704792F0000F00F00A
:102A2800004C02BF400010F4000F013AF9D040EA10
:102A38000C0093F0000F01F0004C02BF490011F4A4
:102A4800000F013BF9D041EA0C018FE70CEAD153A2
:102A580092EA0C0F18BF93EA0C0F0AD030F0004C22
:102A680018BF31F0004CD8D180EA010000F00040D6
:102A7800704790F0000F17BF90F0004F084691F094
:102A8800000F91F0004F14D092EA0C0F01D14202CE
:102A98000FD193EA0C0F03D14B0218BF084608D197
:102AA80080EA010000F0004040F0FE4040F40000E1
:102AB800704740F0FE4040F4400070474FF0FF0C74
:102AC8001CEAD0521EBF1CEAD15392EA0C0F93EABB
:102AD8000C0F69D0A2EB030280EA010C49024FEA0D
:102AE800402037D04FF0805343EA111143EA1013C6
:102AF8000CF000408B4238BF5B0042F17D024FF47E
:102B0800000C8B4224BF5B1A40EA0C00B3EB510F58
:102B180024BFA3EB510340EA5C00B3EB910F24BF41
:102B2800A3EB910340EA9C00B3EBD10F24BFA3EBC6
:102B3800D10340EADC001B0118BF5FEA1C1CE0D18E
:102B4800FD2A3FF650AF8B4240EBC25008BF20F041
:102B5800010070470CF0004C4CEA50207F32C2BF95
:102B6800D2F1FF0340EAC250704740F400004FF032
:102B78000003013A37E792F0000F00F0004C02BF63
:102B8800400010F4000F013AF9D040EA0C0093F02D
:102B9800000F01F0004C02BF490011F4000F013B87
:102BA800F9D041EA0C0195E70CEAD15392EA0C0FEF
:102BB80008D142027FF47DAF93EA0C0F7FF470AF27
:102BC800084676E793EA0C0F04D14B023FF44CAF6A
:102BD80008466EE730F0004C18BF31F0004CCAD1FF
:102BE80030F000427FF45CAF31F000437FF43CAF3B
:102BF8005FE700BF4FF0FF3C06E000BF4FF0010C5D
:102C080002E000BF4FF0010C4DF804CD4FEA40023E
:102C18004FEA41037FEA226C18BF7FEA236C11D088
:102C280001B052EA530C18BF90EA010F58BFB2EB3B
:102C3800030088BFC81738BF6FEAE17018BF40F0BB
:102C4800010070477FEA226C02D15FEA402C05D16F
:102C58007FEA236CE4D15FEA412CE1D05DF8040BF4
:102C6800704700BF844608466146FFE70FB5FFF787
:102C7800C9FF002848BF10F1000F0FBD4DF808ED3F
:102C8800FFF7F4FF0CBF012000205DF808FB00BF30
:102C98004DF808EDFFF7EAFF34BF012000205DF88A
:102CA80008FB00BF4DF808EDFFF7E0FF94BF0120D7
:102CB80000205DF808FB00BF4DF808EDFFF7D2FFD4
:102CC80094BF012000205DF808FB00BF4DF808ED17
:102CD800FFF7C8FF34BF012000205DF808FB00BFE4
:102CE80042000ED2B2F1FE4F0BD34FF09E03B3EB6E
:102CF800126209D44FEA002343F0004323FA02F09A
:102D080070474FF00000704712F1610F01D1420285
:102D180002D14FF0FF3070474FF00000704700BFFE
:102D280010B5054C13462CB10A4601460220AFF3F4
:102D3800008010BD204610BD0000000010B5431EE5
:102D48000A44914204D011F8014B03F8014FF8E707
:102D580010BD03460244934202D003F8011BFAE770
:102D68007047034613F8012B002AFBD1181A0138C3
:102D7800704700001D000A085D000A0889000A085B
:102D88008D000A080000000000000000000000009C
:102D9800F9010A0839020A0891010A08736574756D
:102DA80070537563636573733D2564005761697477
:102DB800696E6720666F7220537461727400537471
:102DC800617274696E6720696E2035207365636F60
:102DD8006E64732E2E2E00474F2100000000000065
:102DE80000000000BD120A08BF120A0813130A08DF
:102DF800CB120A08646576696365206E6F74206675
:102E08006F756E6400726573657474696E67206CA3
:102E18006173744D6F76656D656E7420696E74317B
:102E28005F7372633D3078257800726563616C6901
:102E380062726174696E67000000000000000000A3
:102E4800D5180A08D7180A0866006C6E00666E0066
:102E5800636F64650064657461696C000D0A002520
:102E68003031307520005D20002C200028293A20C0
:102E780000205B00636F6465203D200025690064C5
:102E8800657461696C73203D20006261756400534C
:102E9800657269616C0055534253657269616C31A2
:102EA800007479706500706172616D00636D640013
:102EB800696400686E64007374726D0066696C748E
:102EC800006C766C0061646448616E646C657200C5
:102ED80072656D6F766548616E646C657200656ECB
:102EE800756D48616E646C657273004A534F4E533A
:102EF800747265616D4C6F6748616E646C657200D1
:102F0800617070006E6F6E65007472616365006950
:102F18006E666F007761726E006572726F72007014
:102F2800616E696300616C6C005A00252B30336454
:102F38003A253032750025592D256D2D25645425E7
:102F4800483A254D3A2553257A0061736374696DB3
:102F5800650000000000000000000000CF1C0A0807
:102F6800C11C0A08C31C0A08000000000000000079
:102F7800391D0A087D1D0A08571D0A08D7190A08AD
:102F8800511D0A083B1D0A08431D0A08771D0A0837
:102F98004B1D0A08351D0A0800000000000000004B
:102FA800F91E0A081D1F0A08291F0A08D7190A0846
:102FB800051F0A08111F0A080B1F0A08171F0A080D
:102FC800FB1E0A08FF1E0A0800000000000000009F
:102FD800CD1F0A0817200A08EF1F0A08CF1F0A0882
:102FE800F71F0A08FF1F0A0807200A080F200A0807
:102FF80000000000000000009F200A0839060A08A7
:10300800B9120A080D150A08D1190A08211B0A085D
:10301800311B0A08A9200A088D210A08D1210A08AB
:103028004D220A08D1220A0895230A0859240A08B9
:08303800000000000000000090
:04304000000000008C
:10304400060000000300000002000000070000006A
:10305400010100000E000000050000000400000053
:0830640001010000522F0A08CF
:10306C00FFFFFFFF00000102030405060708090A21
:10307C000B0C0D0E0F101112131415161718191A1C
:08308C001B1C1D1E1F20280063
:043094007856341224
:04000005080A0018CD
:00000001FF
