:02000004080AE8
:1000000000000A0854330A08000004000600050135
:0800100004026C000000000076
:10001800A82F0A0809480A4908B5884205D0094A9C
:10002800824202D0121A02F09FFF0748074A0021B5
:10003800121A02F0A4FF064808BD00BF0003002002
:1000480004330A082803002028030020540900204C
:100058005409002070B501F021FF074B074C1E46DC
:10006800E41AA4080025A54204D056F8253098477C
:100078000135F8E770BD00BFC0320A08F4320A083B
:1000880000F072BA08B500F09BFABDE8084001F02C
:10009800C3BE01F01BBD0078B0FA80F0400970477C
:1000A80001230370704703681847012A02D0022A07
:1000B80002D004E0016002E00B6800B10360002098
:1000C8007047000008B5054B188802F05DF9044B2D
:1000D800003018BF0120187008BD00BF0C030020B5
:1000E8002103002008B5054B188802F04DF9044B90
:1000F800003018BF0120187008BD00BF140300208D
:100108001003002008B5054B188802F03DF9044B90
:10011800003018BF0120187008BD00BF1803002068
:100128002003002008B5054B188802F02DF9044B70
:10013800003018BF0120187008BD00BF0003002060
:100148001103002008B5054B188802F01DF9044B6F
:10015800003018BF0120187008BD00BF1C03002024
:100168002C03002010B5054C0548214601F064FA1F
:10017800B4F90020034B1A6010BD00BFC40300206F
:100188004C0300206003002010B50123037143696C
:10019800044613B183690C3098470023237110BDBE
:1001A80007B5002302A941F8043D01F055FB20B929
:1001B800019810B103689B68984703B05DF804FB89
:1001C80010B58368044613B10322014698472046B8
:1001D80010BD07B58068002338B18DE80A000221F8
:1001E80001F042FBB0FA80F0400903B05DF804FB6F
:1001F80038B50E4B0446036083688BB100226FF05C
:100208000041FFF7E6FF237903F0FF051BB101204A
:1002180001F0CCFDF7E72946A06801F015FBA560C1
:1002280004F10C00FFF7CCFF204638BDC42F0A08A4
:1002380010B50446FFF7DCFF2046FFF72AFF2046EB
:1002480010BD00002DE9F04101210A2002F072F8EA
:1002580001210B2002F06EF801210C2002F06AF84F
:1002680001210D2002F066F800210A2002F073F83F
:1002780000210B2002F06FF800210C2002F06BF82F
:1002880000210D2002F067F84FF4FA7001F08EFD9E
:1002980002F0C8F8404901F0E9FF02F0C3F801F0A4
:1002A800E9FF0A2001F082FD01210A2002F053F83B
:1002B80001210B2002F04FF801210C2002F04BF82D
:1002C80001210D2002F047F80A2001F06FFD0021FE
:1002D8000B2002F040F8314F00210C2002F03BF8CF
:1002E80000210D2002F037F80121384600F0A2FE67
:1002F8004FF47A783021384600F04BFB284EC7F887
:1003080004800A2001F052FD01210B2002F023F89D
:100318000121304600F08EFE3121304600F039FBD5
:10032800204D0A20C6F8048001F040FD01210C2070
:1003380002F011F80121284600F07CFE32212846FF
:1003480000F027FB184C0A20C5F8048001F02EFDA8
:1003580001210D2001F0FFFF0121204600F06AFE77
:100368003321204600F015FB0A20C4F8048001F070
:100378001DFD38460A2100F02AFC30460A2100F00B
:1003880026FC28460A2100F022FC2046BDE8F04160
:100398000A2100F01CBC00BFA086010064030020F5
:1003A8007C03002094030020AC03002010B586B025
:1003B80003A801F014F9502103A801F01DF903A9BD
:1003C8000E4801F071F9044601F01EFE23460C4A5E
:1003D80001210C4C01F09EFC002211462046FFF73B
:1003E800F8FEA06840B100236FF000428DE80C00D1
:1003F80019461A4601F038FA06B010BD4C03002021
:10040800D02F0A083003002008B5154B00211888A2
:1004180001F090FF134B0021188801F08BFF124B5D
:100428000021188801F086FF104B0021188801F080
:1004380081FF0F4B0021188801F07CFF0D4B012133
:10044800188801F077FF0C4B0121188801F072FF22
:1004580001F0DAFDBDE808404FF4165101F0BABDCD
:100468000C030020140300201803002000030020C0
:100478001C030020080300200403002013B5184BB8
:1004880000241888224600944FF0FF33154901F0E4
:100498001FFE154B22461888144900944FF0FF336D
:1004A80001F016FE124B22461888124900944FF0AC
:1004B800FF3301F00DFE104B224618880F490094B7
:1004C8004FF0FF3301F004FE0D4B224618880D490A
:1004D80000944FF0FF3301F0FBFD02B010BD00BFE8
:1004E8000C030020CD000A0814030020ED000A08C0
:1004F800180300200D010A08000300202D010A0836
:100508001C0300204D010A08F7B5134B134D0026B4
:10051800B42719884FF408728DE8C0004FF41663A9
:10052800284601F036FB0E4C0E4B4FF40872198822
:1005380020464FF416638DE8C00001F02AFB2846D8
:1005480040F2DC5101F0F1FA40F2DC51204603B0F0
:10055800BDE8F04001F0E9BA08030020D00300200C
:10056800E00300200403002010B5FFF74DFFFFF75C
:1005780069FEFFF71BFFFFF781FFFFF7C5FF0C4C74
:1005880023782BB901F040FD0A4901F069FBF7E730
:1005980001F03AFD084901F063FB41F2883001F0AF
:1005A80005FC01F031FDBDE81040044901F058BBDD
:1005B8002C030020E02F0A08F22F0A080B300A0843
:1005C80030B5854C85B001F01FFD844901F035FB3D
:1005D80001F01AFD0A22217801F09AFB01F014FDBE
:1005E8007F4901F02AFB01F00FFD7E4901F025FB50
:1005F80001F00AFD05467C4800F024FB0A2201466A
:10060800284601F085FB01F0FFFC754901F015FB58
:1006180001F0FAFC754901F010FB01F0F5FC054604
:10062800734800F00FFB0A220146284601F070FBD0
:1006380001F0EAFC6A4901F000FB01F0E5FC6D49B4
:1006480001F0FBFA01F0E0FC05466B4800F0FAFA0D
:100658000A220146284601F05BFB01F0D5FC6049FF
:1006680001F0EBFA01F0D0FC644901F0E6FA01F080
:10067800CBFC0546624800F0E5FA0A220146284606
:1006880001F046FB584800F003FB2546002840F0DF
:100698009B80574800F0FCFA002840F095805648A7
:1006A80000F0F6FA002840F08F80554800F0F0FA84
:1006B800002840F0898001F0A7FC494901F0BDFA03
:1006C80001F0A2FC4F4901F0B8FA01F09DFC4E4B35
:1006D8000A22197801F01CFB01F096FC404901F050
:1006E800ACFA01F091FC494901F0A7FA01F08CFC41
:1006F800474B0A22197801F00BFB01F085FC3849B9
:1007080001F09BFA01F080FC424901F096FA01F0F1
:100718007BFC414B0A22197801F0FAFA01F074FCCB
:100728002F4901F08AFA01F06FFC3C4901F085FA83
:1007380001F06AFC3A4B0A22197801F0E9FA01F053
:1007480063FC274901F079FA01F06EF8354C23680B
:10075800C01A63281BD901F067F802A92060324843
:1007680000F06AFF70B101F04FFCBDF90C20BDF933
:1007780008300192BDF90A20012100922B4A01F0AC
:10078800C9FA04E001F040FC294901F069FA01F0D6
:100798003BFC134901F051FA01F036FC254B0A22C3
:1007A800196801F0B5FA01F02FFC01F04DFA2B7829
:1007B80083B140F2DC51204801F0B7F940F2DC5136
:1007C8001E4801F0B2F905E001F01EFC1C4901F0D9
:1007D80034FA70E705B030BD2C0300200F300A084A
:1007E8001E300A0822300A08640300202C300A0848
:1007F8007C03002036300A089403002040300A08A1
:10080800AC0300204A300A082103002056300A08A9
:100818001003002063300A08200300206E300A0805
:1008280011030020CC0300204C0300207A300A0872
:1008380083300A0860030020D0030020E003002072
:100848008D300A0870B588B000F096FF2C4800F08B
:100858007FF82C4800F07CF82B4800F079F82B48FA
:1008680000F076F82A4801F080F92A4801F07DF96D
:100878000021012001F00AF9032001F0F7F8264BC6
:1008880004AE049302AA254C96E80300244B82E8A0
:100898000300236004F10C0393E8030086E80300D7
:1008A80092E8030083E803001E4B00256361A369F7
:1008B800257107931C4BA560A3611C4A234664213C
:1008C8000195009504F10800069500F0B5FF304643
:1008D800174EFFF775FC32461649204601F0C2FD57
:1008E80001F0A0FD144C11232A460146204600F0D1
:1008F80037FF32461149204601F0B4FD08B070BDFB
:10090800640300207C03002094030020AC03002033
:10091800D0030020E00300206D010A083003002006
:10092800C42F0A08B3000A08AF000A08A9010A0878
:1009380028030020F9010A084C0300202D150A0895
:100948000368C9B29B6818470368C9B29B6818470F
:1009580029224270002242600272704770B5044634
:1009680015460E4601F05EFD617801F09AFC01F033
:1009780059FD036831469B68984701F053FD0368A9
:1009880029469B68984701F04DFD01F092FC2070C4
:1009980070BD38B505460C4601F07F028A21FFF785
:1009A800DDFF6C7038BD70B5044615460E4601F083
:1009B80039FD617801F075FC01F034FD03683146BA
:1009C8009B68984701F02EFD290AFFF7BDFF01F04B
:1009D80029FDE9B2FFF7B8FF01F024FD01F069FC39
:1009E800207070BD70B5054614460E4601F01AFD1C
:1009F800697801F056FC01F015FD036831469B68E3
:100A0800984701F00FFD210EFFF79AFF01F00AFD4C
:100A1800C4F30741FFF794FF01F004FDC4F3072175
:100A2800FFF78EFF01F0FEFCE1B2FFF789FF01F04E
:100A3800F9FC01F03EFC287070BD38B504460D463F
:100A480001F0F0FC617801F02CFC01F0EBFC03688C
:100A580029469B68984701F0E5FC01F02AFC2070C4
:100A680001F0E0FC0122617801F013FC01F0DAFCEE
:100A780003685B699847C0B238BD38B504460D466F
:100A880001F0D0FC617801F00CFC01F0CBFC0368AC
:100A980029469B68984701F0C5FC01F00AFC2070C4
:100AA80001F0C0FC6178022201F0F3FB01F0BAFC0E
:100AB80003685B699847044601F0B4FC03685B6906
:100AC800984740EA042080B238BDF8B50646144677
:100AD8001D460F4601F0A6FC717801F0E2FB01F01B
:100AE800A1FC036839469B6898472544AC4207D067
:100AF80001F098FC036814F8011B9B689847F5E718
:100B080001F090FC01F0D5FB3070F8BDF8B5064651
:100B180014461D460F4601F085FC717801F0C1FBB3
:100B280001F080FC036839469B68984701F07AFC1D
:100B380001F0BFFB307001F075FC2A46717801F0B6
:100B4800A8FB2544AC4207D001F06CFC03685B6944
:100B5800984704F8010BF5E7F8BD00000000000015
:100B680070B50D4606460021284602F0A7F9B0B92F
:100B7800284601F029FF0CA3D3E9002301F0F6FF72
:100B880068B94FF08641284601F0FAFF02F0BEF935
:100B9800442182B23046FFF706FF012070BD0020D5
:100BA80070BD00BFAFF30080A4703D0AD7FF7F403F
:100BB80008B509B9502102E0012906D17021FFF7D3
:100BC8003CFF01304000C0B208BDFF2008BD38B569
:100BD80004460D4601228021FFF7C0FE0122FF21B5
:100BE8002046FFF7BBFE002211462046FFF7B6FE5F
:100BF800227C91212046FFF7B1FE012200212046E8
:100C0800FFF7ACFE0022FF212046FFF7A7FE0022D7
:100C180080212046FFF7A2FE6DB1F8212046FFF79C
:100C28002CFF00B145432A4604212046FFF7DAFE8F
:100C38000422002101E0294602222046BDE838406E
:100C4800FFF78CBE38B5044600F0EEFDE0601321D6
:100C58002046FFF7F2FE43070ED16368002BF6D05B
:100C680000F0E2FDE368C01A63689842EFD90123F7
:100C780023724FF6FF7038BD1E212046FFF7FDFE98
:100C88000546012220460B21FFF768FE284638BD9D
:100C980003460022007A1A727047F8B504460F46D8
:100CA800164680210122FFF759FE0122FF21204626
:100CB800FFF754FE002211462046FFF74FFE06229A
:100CC800FF212046FFF74AFE83212046FFF7B5FEA5
:100CD80040F00402D2B283212046FFF73FFE0722EC
:100CE800FF212046FFF73AFE012281212046FFF727
:100CF80035FE012280212046FFF730FE6B22942129
:100D08002046FFF72BFE002283212046FFF726FE10
:100D180000F08AFDE06083212046FFF78EFE05463D
:100D280058B96368002BF6D000F07EFDE368C01A5E
:100D380063689842EFD92846F8BD012220468321EE
:100D4800FFF70CFE92212046FFF777FE00F07F03A5
:100D5800C0F3C0103B700022307081212046FFF79D
:100D6800FDFD06222046FF21FFF7F8FD83212046DE
:100D7800FFF763FE832102462046FFF7EFFD20467A
:100D88000122FF21FFF7EAFD204601220021FFF79B
:100D9800E5FD20460022FF21FFF7E0FD2046002266
:100DA8008021FFF7DBFD0120F8BD10B50C460121BD
:100DB800FFF743FEC0F300132370C0F3C003A37012
:100DC800C0F380036370C0F38013C0F3C010E370F6
:100DD800207110BD4FF6FF73984228BF1846C3B262
:100DE800000A03FA00F0013080B27047B0F5803F86
:100DF80001D278B101E04FF6FF700138002330F0DE
:100E0800FF019AB203F1010301D04008F7E740EA75
:100E1800022080B270470000084B4FF47A725943A1
:100E280010B501F5FA714FF4FA64B1FBF2F3B1FBB6
:100E3800F4F100FB0310B0FBF2F010BD002F3A00F4
:100E480070B50E46002114460546FFF7B1FE46214F
:100E580020802846FFF7F1FD013080B22178A0807C
:100E6800FFF7DAFF5121E0602846FFF706FEFFF79B
:100E7800B1FF2178E080FFF7CFFF7021206128467D
:100E8800FFF7DBFD01304000C0B2608071212846C9
:100E9800FFF7F3FDFFF79EFF2081F37813B1E38896
:100EA800C01A2081A1782089FFF7B6FF606170BD64
:100EB80010B5044688B06946FFF777FF02AA69466D
:100EC8002046FFF7BDFF9DF800301BB1059800F6DE
:100ED800845001E040F636309DF802302BB1059B76
:100EE80003F2B22300EB430006E09DF801301BB18A
:100EF800059B03F5257318449DF803301BB1069B29
:100F080003F5257318449DF804301BB1079B03F2C1
:100F180026231844606108B010BD0000084B4FF448
:100F28007A7259434FF4FA6301F5FA71B1FBF3F39E
:100F3800B1FBF2F102FB0030B0FBF1F0704700BFEB
:100F4800002F3A0044F61F63F0B5994289B006466F
:100F58000D4642D96946FFF728FF02AA694630467E
:100F6800FFF76EFF9DF800301BB1059800F636308C
:100F780001E040F6E8009DF802302BB1059B03F232
:100F8800B22300EB430006E09DF801301BB1059B3E
:100F980003F5257318449DF803701FB1069B03F5EC
:100FA800257318449DF80440ACB100F22620854210
:100FB80013D39DF80A10281AFFF7B0FF17B1BDF830
:100FC8000E301844FFF712FF712102463046FFF732
:100FD800EAFC756102E0012400E00024204609B023
:100FE800F0BD38B541F0010200210446FFF7B6FC18
:100FF80000F01AFCE06013212046FFF71EFD10F0F8
:1010080007050BD16368002BF5D000F00DFCE368F1
:10101800C01A63689842EED9284638BD2046012296
:101028000B21FFF79BFC002220461146FFF796FC98
:10103800012038BDF0B5044685B049B18921FFF7D4
:10104800FCFC40F00102D2B289212046FFF786FC61
:10105800002288212046FFF781FC012280212046BA
:10106800FFF77CFC0122FF212046FFF777FC0022D6
:1010780011462046FFF772FC91212046FFF7DDFC60
:101088000122207400212046FFF768FC0022FF217E
:101098002046FFF763FC002280212046FFF75EFC14
:1010A80060212046FFF7C9FC40F01202D2B260214D
:1010B8002046FFF753FC4FF07A512046FFF750FDCA
:1010C800FF2201212046FFF749FC0DF107020DF12F
:1010D80006012046FFF7E1FD08B900251DE20623B9
:1010E80002AAB0212046FFF711FD0122FF21204668
:1010F800FFF734FC00224F212046FFF72FFC2C225B
:101108004E212046FFF72AFC0022FF212046FFF748
:1011180025FC00252046B621B422FFF71FFC2946EE
:101128009DF807309DF80660002B14BF0C200020A6
:101138000127EBB2DA0898420DF1100E03F007030D
:10114800724401D88E4208D112F808EC07FA03F36A
:101158002EEA030302F8083C07E012F8082C42FACA
:1011680003F3DB0744BF0131C9B20135302DE0D1AB
:10117800062302AAB0212046FFF7A7FC0122FF217F
:101188002046FFF7EBFB002211462046FFF7E6FB5F
:101198000022FF212046FFF7E1FB0022092120461B
:1011A800FFF7DCFB002210212046FFF7D7FB0022C7
:1011B80011212046FFF7D2FB012224212046FFF708
:1011C800CDFBFF2225212046FFF7C8FB0022752111
:1011D8002046FFF7C3FB0122FF212046FFF7BEFB95
:1011E8002C224E212046FFF7B9FB00224821204639
:1011F800FFF7B4FB202229462046FFF7AFFB002269
:10120800FF212046FFF7AAFB092229462046FFF7BF
:10121800A5FB002254212046FFF7A0FB0422312120
:101228002046FFF79BFB032232212046FFF796FB5F
:10123800832240212046FFF791FB252246212046A4
:10124800FFF78CFB002260212046FFF787FB002276
:1012580027212046FFF782FB062250212046FFF770
:101268007DFB002251212046FFF778FB9622522170
:101278002046FFF773FB082256212046FFF76EFB36
:101288002A4657212046FFF769FB002261212046A4
:10129800FFF764FB002262212046FFF75FFB002274
:1012A80064212046FFF75AFB002265212046FFF7FC
:1012B80055FBA02266212046FFF750FB0122FF21A3
:1012C8002046FFF74BFB322222212046FFF746FB40
:1012D800142247212046FFF741FBFF2249212046DF
:1012E800FFF73CFB00224A212046FFF737FB00228C
:1012F800FF212046FFF732FB0A227A212046FFF71A
:101308002DFB00227B212046FFF728FB2122782194
:101318002046FFF723FB0122FF212046FFF71EFB93
:10132800342223212046FFF719FB002242212046C0
:10133800FFF714FBFF2244212046FFF70FFB26226C
:1013480045212046FFF70AFB052246212046FFF7E4
:1013580005FB402211462046FFF700FB06220E211E
:101368002046FFF7FBFA1A2220212046FFF7F6FA5B
:10137800402243212046FFF7F1FA0022FF212046B0
:10138800FFF7ECFA032234212046FFF7E7FA44225C
:1013980035212046FFF7E2FA0122FF212046FFF718
:1013A800DDFA042231212046FFF7D8FA09224B2121
:1013B8002046FFF7D3FA05224C212046FFF7CEFA44
:1013C80004224D212046FFF7C9FA0022FF212046BA
:1013D800FFF7C4FA002244212046FFF7BFFA202273
:1013E80045212046FFF7BAFA082247212046FFF791
:1013F800B5FA282248212046FFF7B0FA00226721D3
:101408002046FFF7ABFA042270212046FFF7A6FA20
:10141800012271212046FFF7A1FAFE2272212046FF
:10142800FFF79CFA002276212046FFF797FA002260
:1014380077212046FFF792FA0122FF212046FFF785
:101448008DFA01220D212046FFF788FA0022FF219C
:101458002046FFF783FA012280212046FFF77EFA13
:10146800F82201212046FFF779FA0122FF212046C0
:10147800FFF774FA01228E212046FFF76FFA012246
:1014880000212046FFF76AFA0022FF212046FFF7D5
:1014980065FA002280212046FFF760FA04220A211B
:1014A8002046FFF75BFA84212046FFF7C6FA84211D
:1014B80000F0EF022046FFF751FA01220B212046E7
:1014C800FFF74CFA2046FFF7F3FCE82260610121A0
:1014D8002046FFF743FA61692046FFF733FD0122F2
:1014E80011462046FFF73AFA40212046FFF779FDDA
:1014F80000283FF4F2AD022201212046FFF72EFA20
:1015080000212046FFF76DFD054600283FF4E5ADB4
:10151800E82201212046FFF721FA284605B0F0BD50
:1015280000F02AB9704710B50446FEF7B2FD204610
:1015380010BDF8B505461E460F46017CC06841F04F
:101548001801144600F0ADFEE868012E036888BF54
:1015580047F080079B68394698472644A642E868C2
:1015680005D0036814F8011B9B689847F6E700F05C
:10157800A0FEB0FA80F04009F8BDF8B504461E4652
:101588000F46017CC06841F01801154600F089FE3D
:10159800E068012E036888BF47F080079B683946DA
:1015A8009847E06800F085FEA8B9217C324641F0F2
:1015B8001801E06800F070FE2E44AE420DD0E068DD
:1015C80003681B69984740B1E06803685B699847FE
:1015D80005F8010BF1E70020F8BD0120F8BD002255
:1015E800027042708270C270027142718271C2715F
:1015F800027242728272704741F0070101707047AF
:1016080013B5036801AA9C680123A0479DF804004C
:1016180002B010BD38B505460A240F212846FFF749
:10162800EFFF33284FF0010005D000F0BFFB013C6D
:10163800F3D1204638BD38BDF7B50C46072106461C
:10164800FFF7DEFF00F00800002814BF0125002581
:101658001BD033686A469F68282106233046B8475E
:101668009DF801209DF8003043EA022323809DF86D
:1016780003209DF8023043EA022363809DF8052089
:101688009DF8043043EA0223A380284603B0F0BD46
:1016980037B502AC036804F8042DDD68224601233F
:1016A800A84703B030BD000070B504460D46FFF7EB
:1016B800B1FF064628B900F0A7FC284900F0D0FA87
:1016C80049E02A7820212046FFF7E2FF6A782121A5
:1016D8002046FFF7DDFFAA7822212046FFF7D8FF32
:1016E800EA7823212046FFF7D3FF2A7924212046D0
:1016F800FFF7CEFF6A7925212046FFF7C9FFAB79AE
:101708001BB126212046FFF77BFFAA7A2E2120460F
:10171800FFF7BEFFAB785B061DD5EA79322120467C
:10172800FFF7B6FF2A7A33212046FFF7B1FF636837
:10173800002B0ADB6A7A204622723021FFF7A8FFC5
:1017480031212046FFF75CFF05E00022227230219C
:101758002046FFF79DFF304670BD00BFB8300A082D
:1017680010B54360024BC1600360027410BD00BF36
:10177800A8300A0800F000B808B5024B1B681B68BF
:10178800019308BDB001060808B5024B1B685B68E9
:10179800019308BDB001060808B5024B1B689B6899
:1017A800019308BDB001060808B5024B1B68DB6849
:1017B800019308BDB001060808B5024B1B681B69F8
:1017C800019308BDB001060808B5024B1B685B69A8
:1017D800019308BDB001060808B5024B1B689B6958
:1017E800019308BDB001060808B5024B1B68DB6908
:1017F800019308BDB001060808B5024B1B68DB69F8
:10180800019308BDB401060808B5024B1B681B6AA2
:10181800019308BDB401060808B5024B1B685B6854
:10182800019308BD9C01060808B5024B1B685B695B
:10183800019308BD9C01060808B5024B1B681B6A8A
:10184800019308BDD001060808B5024B1B685B6A06
:10185800019308BDD001060808B5024B1B689B6AB6
:10186800019308BDD001060808B5024B1B68DB6A66
:10187800019308BDD001060808B5024B1B681B6B15
:10188800019308BDD001060808B5024B1B689B6987
:10189800019308BDC401060808B5024B1B685B6AC2
:1018A800019308BDC401060808B5024B1B689B6A72
:1018B800019308BDC401060808B5024B1B68DB6A22
:1018C800019308BDC401060808B5024B1B681B6BD1
:1018D800019308BDC401060808B5024B1B685B6B81
:1018E800019308BDC401060808B5024B1B689B6B31
:1018F800019308BDC401060808B5024B1B681B6CA0
:10190800019308BDC401060808B5024B1B681B6C8F
:10191800019308BDAC01060808B5024B1B68DB6CD7
:10192800019308BDAC01060808B5024B1B685B6D46
:10193800019308BDAC01060808B5024B1B689B6DF6
:10194800019308BDAC01060808B5024B1B68DB6DA6
:10195800019308BDAC01060808B5024B1B681B6E55
:10196800019308BDAC01060808B5024B1B685B6E05
:10197800019308BDAC01060808B5024B1B689B6EB5
:10198800019308BDAC01060808B5024B1B68DB6E65
:10199800019308BDAC01060808B5024B1B681B6F14
:1019A800019308BDAC01060808B5024B1B685B6FC4
:1019B800019308BDAC01060808B5034B1B68D3F8B2
:1019C8008030019308BD0000AC01060808B5024B41
:1019D8001B681B69019308BDA801060808B5024BDE
:1019E8001B685B69019308BDA801060808B5024B8E
:1019F8001B689B69019308BDA801060808B5024B3E
:101A08001B681B68019308BDD801060808B5024B7E
:101A18001B685B68019308BDD801060808B5024B2E
:101A28001B681B69019308BDD801060808B5024B5D
:101A38001B685B69019308BDD801060808B5024B0D
:101A48001B689B69019308BDD801060808B5024BBD
:101A58001B68DB69019308BDD801060808B5024B6D
:101A68001B681B6A019308BDD801060808B5024B1C
:101A78001B685B68019308BDA401060808B5024B02
:101A88001B685B69019308BDA401060808B5024BF1
:101A98001B68DB6A019308BDA401060808B5024B60
:101AA8001B685B6E019308BDA401060808B5024BCC
:101AB8001B689B6E019308BDA401060808B5024B7C
:101AC8001B681B69019308BDC801060808B5024BCD
:101AD8001B685B68019308BDA001060808B5024BA6
:101AE8001B685B6A019308BDA0010608704710B522
:101AF8000446FEF7CEFA204610BD000070B5044635
:101B08000E46074B0025036040F80C5FFFF7B4FE54
:101B180030462671FFF770FEA560204670BD00BFF5
:101B280004310A080079FFF76FBEB0F90020531C92
:101B38000BD0438880888B4203D88842034628BF4D
:101B48000B46194690B2FFF751BF70474FF6FF7327
:101B5800B42202814FF408720380428000234FF4BC
:101B68001662C3808280C360704708B5FFF7EEFF36
:101B780008BD10B50446B0F90000431C07D080B278
:101B8800FFF72CFF2046FFF7E1FF012010BD0020E2
:101B980010BD2DE9F0410D46044602212846904625
:101BA8001F46FFF7F1FD022801D0002619E028465C
:101BB80000F09CFB06460028F7D0B4F9003001334A
:101BC80002D02046FFF7D5FFBDF918302580E38005
:101BD800BDF91C30A4F80280A78023812846FFF7AE
:101BE800F5FE3046BDE8F0810020FFF73FBFF8B5AD
:101BF80006460D468F180024BD420CD0336815F8F0
:101C0800011B9B6830469847002801DB0444F3E732
:101C1800002C08BF04462046F8BD70B505460C46A2
:101C2800084649B101F0B3F92B6802462146284617
:101C3800BDE87040DB68184770BD08B5FFF7EDFFD9
:101C480008BD03689B68184738B50D210546FFF79E
:101C5800F8FF0A2104462846FFF7F3FF204438BD61
:101C680038B50546FFF7D9FF04462846FFF7ECFFCD
:101C7800204438BD012A98BF0A2230B50B468BB0E4
:101C880000218DF824100DF12304B3FBF2F505FBB8
:101C98001233DBB2092B94BF30333733DBB2214622
:101CA80004F801392B46002DEFD1FFF7B6FF0BB032
:101CB80030BD10B422B90368C9B29B6810BC18477C
:101CC800D2B210BCFFF7D6BFFFF7F3BF2DE9F04142
:101CD80007460E4615462AB9BDE8F0410368C9B261
:101CE8009B6818470A2A02D1002901DA04E0D2B217
:101CF800BDE8F041FFF7BEBF2D21FFF7A2FF2A463E
:101D0800044671423846FFF7B5FF2044BDE8F0812C
:101D1800FFF7DCBF0CB42DE9F04387B000AF07F143
:101D2800380454F8049B05460E4623464A461421B7
:101D3800381D3C60FFF7D2FE132805D8391D284608
:101D4800FFF76BFF044613E000F1080323F00703D5
:101D5800E846ADEB030D411C23464A4668463C6005
:101D6800FFF7BCFE69462846FFF757FF0446C546FD
:101D78001EB12846FFF768FF044420461C37BD46BD
:101D8800BDE8F04302B07047014A024B1A60704741
:101D9800C4310A08F0030020024B1A68024B1A608B
:101DA800704700BF24030020F40300200021FFF740
:101DB80065BE000008B5144B33B100F025F903687F
:101DC8001B699847002816DC104B33B100F0EAF97C
:101DD80003681B699847002810DC0D4B0BB1AFF363
:101DE80000800C4B7BB100F04BF903681B699847E6
:101DF800002806DC08BDAFF30080E5E7AFF30080FC
:101E0800EBE7AFF3008008BD000000000000000011
:101E1800000000000000000008B5FFF7CBFFFFF747
:101E280003FD014B186008BD800800200248034AE2
:101E38000349121A01F098B80040024004400240D9
:101E480000330A080020704737B5436804460A2B58
:101E58000ED0502B1CD1104B1D68CDB1037D4FF413
:101E680000710093C26800F110038068A84707E07A
:101E780000F11003C2684FF400718068FFF7E2FFB9
:101E880030B1002220461146FFF710FE012000E085
:101E9800002003B030BD00BFF803002038B50C4C5B
:101EA8000C4D2368AB420C4B0CBF012200221A7068
:101EB80002D0FFF7BBFF2560084B1BB1FFF7ACFC56
:101EC800AFF30080BDE8384000210548FFF7E6BDC4
:101ED800004002401E1C279AFC030020000000005E
:101EE800511E0A08704710B50446FEF7D2F820467E
:101EF80010BDF8B50F4600F10806051D002416F8B8
:101F0800011D0A223846FFF7DFFEAE42044407D01F
:101F1800002CF4D02E213846FFF793FE0444EEE758
:101F28002046F8BD10B59DF8084044EA032343EA6B
:101F3800024242EA016104234160037510BD0000BA
:101F480037B5044D05609DF818500095FFF7EAFF76
:101F580003B030BD20320A08417470477047002131
:101F6800007CFFF76BBD0121007CFFF767BD007C9B
:101F7800FFF75CBD007CFFF751BD38B50446007C17
:101F88000D46FFF753FD002801DC607C20B129468F
:101F9800207CFFF75BFD012038BD007CFFF75EBDAC
:101FA80010B50446FEF775F8204610BD10B5044676
:101FB800002363604FF47A73A360054B08462360DF
:101FC8000123217463741146FFF718FD204610BDE4
:101FD80034320A080022007CFFF718BD10B5044609
:101FE8001422002100F0CBFF054B20466360054B0F
:101FF800E36040F2011323818123238210BD00BFD7
:10200800850400200404002030B50E4D87B001A8D7
:10201800FFF7E4FF296811F0010410D12846FEF704
:102028003AF860B101AA21460748FFF7BFFF2846E2
:10203800FEF736F8054A0649034800F013FA024845
:1020480007B030BD000400208805002028030020C8
:10205800651F0A0810B504461422002100F08FFFFE
:10206800054B20466360054BE36040F20113238172
:102078008123238210BD00BF38060020A005002060
:1020880010B50E4C86B001A8FFF7E4FF2368DB0704
:1020980010D42046FDF7FFFF60B101AA01210848CE
:1020A800FFF784FF2046FDF7FBFF064A0649044870
:1020B80000F0D8F9024806B010BD00BF9C0500200A
:1020C8002406002028030020651F0A080047000096
:1020D800F0B51C4685B005460E461746FFF784FB4B
:1020E800002084424FF0040303908DF80C30B4BFF5
:1020F80003469DF828302846A4BF8DF80E3003AB60
:10210800009332463B460449A8BF8DF80D40FFF7BF
:1021180063FB012005B0F0BDD5200A087047417463
:102128007047007CFFF7E8BB007CFFF7BDBB007C75
:10213800FFF7CABB007CFFF7BFBB007CFFF7CCBB37
:1021480010B50446FDF7A5FF204610BD70B5457CC7
:1021580004460E4625B9007CFFF7CEFB002805DDB6
:102168003146207CBDE87040FFF796BB284670BD1D
:1021780010B5044608461146002262604FF47A7290
:10218800A260054A20742260012262741A46FFF791
:102198007BFB204610BD00BF64320A08007CFFF7B5
:1021A800A3BB000038B50C4D296811F0010411D10A
:1021B8002846FDF770FF68B1084A2146084B0948D0
:1021C800FFF7D6FF2846FDF76BFF074A0749054882
:1021D80000F048F9034838BDD4070020D80700208C
:1021E800500700203C0700202803002025210A086A
:1021F8007047F8B5064615460C468F18BC4206D0FF
:10220800336814F8011B9B6830469847F6E7284660
:10221800F8BD0022007CFFF79FBB0021007CFFF780
:10222800A3BB0021007CFFF7A7BB0021007CFFF7C0
:10223800ABBB0021007CFFF7AFBB10B50446FDF730
:1022480028FF204610BD000010B5044608464FF48C
:102258007A73A360044B0021207461602360FFF748
:10226800ABFB204610BD00BF94320A080022007C58
:10227800FFF74ABB00231A461946007CFFF74CBB00
:1022880013B50024007C0094FFF74EFBC0B202B0E7
:1022980010BD0123FFF7F4BF0123D2B2C9B2FFF783
:1022A800EFBF0022007CFFF747BB0022007CFFF74E
:1022B8004BBB0121FFF7F9BF0021007CFFF774BB7E
:1022C8007047002211461046FFF7F8BB0348044B3D
:1022D800044A0549036000F0C5B800BF5C08002047
:1022E800BC320A0828030020C9220A0810B504468F
:1022F8000F48FFF717FC28B1A4F10D03022B01D8F2
:10230800002010BD00F08EF8FFF7D6FF08B1012CB1
:10231800F6D9FFF747FFFFF741FF18B1A4F1120301
:10232800012BEDD9172C8CBF0020012010BD00BF58
:1023380060080020172838B504460D460AD8FF293A
:1023480008D0FFF7D3FF28B129462046BDE838401A
:10235800FFF722BA38BD38B504460D46FFF724FA10
:10236800FF2810D0062804D84D2323FA00F0C3070D
:1023780009D42046FFF7BAFF28B129462046BDE810
:102388003840FFF719BA38BD10B50446FFF70CFA04
:102398000438C0B2012808D92046FFF7A7FF20B1AA
:1023A8002046BDE81040FFF70FBA002010BD00001E
:1023B80070B50C4C0C4E0D4D00212046FFF79EFBCE
:1023C80020460B4C3246294600F04CF801212046A5
:1023D800FFF794FB324629462046BDE8704000F0DE
:1023E80041B800BF6008002028030020F51A0A0839
:1023F8007008002013B5084C00231A4619460093AC
:102408002046FFF79DFD2046044A054902B0BDE875
:10241800104000F027B800BF8408002028030020DF
:10242800ED1E0A0838B50B4D296811F001040FD1CB
:102438002846FDF730FE58B121460748FFF704FF4C
:102448002846FDF72DFE054A0549034800F00AF81D
:10245800014838BD9C080020A0080020280300205F
:10246800F9210A080B460146184600F06FBD000026
:10247800184B1A68D1075CBF01221A60164B1A68FC
:10248800D2075CBF01221A60144B1A68D0075CBFE0
:1024980001221A60124B1A68D1075CBF01221A6028
:1024A800104B1A68D2075CBF01221A600E4B1A68DB
:1024B800D0075CBF01221A600C4B1A68D1075CBFB9
:1024C80001221A600A4B1A68D2075CBF01221A60FF
:1024D800704700BFD0080020CC080020C8080020A2
:1024E800C4080020C0080020BC080020B80800204C
:1024F800B4080020244B1A68D0075CBF01221A6078
:10250800224B1A68D1075CBF01221A60204B1A6857
:10251800D2075CBF01221A601E4B1A68D0075CBF45
:1025280001221A601C4B1A68D1075CBF01221A608D
:102538001A4B1A68D2075CBF01221A60184B1A6836
:10254800D0075CBF01221A60164B1A68D1075CBF1E
:1025580001221A60144B1A68D2075CBF01221A6064
:10256800124B1A68D0075CBF01221A60104B1A6818
:10257800D1075CBF01221A600E4B1A68D2075CBFF4
:1025880001221A60704700BF00090020FC080020E3
:10259800F8080020F4080020F0080020EC080020CB
:1025A800E8080020E4080020E0080020DC080020FB
:1025B800D8080020D4080020244B1A68D0075CBF34
:1025C80001221A60224B1A68D1075CBF01221A60E7
:1025D800204B1A68D2075CBF01221A601E4B1A688A
:1025E800D0075CBF01221A601C4B1A68D1075CBF78
:1025F80001221A601A4B1A68D2075CBF01221A60BE
:10260800184B1A68D0075CBF01221A60164B1A686B
:10261800D1075CBF01221A60144B1A68D2075CBF4D
:1026280001221A60124B1A68D0075CBF01221A6097
:10263800104B1A68D1075CBF01221A600E4B1A684A
:10264800D2075CBF01221A60704700BF3009002022
:102658002C09002028090020240900202009002036
:102668001C09002018090020140900201009002066
:102678000C0900200809002004090020184B1A68DA
:10268800D1075CBF01221A60164B1A68D2075CBFDB
:1026980001221A60144B1A68D0075CBF01221A6025
:1026A800124B1A68D1075CBF01221A60104B1A68D6
:1026B800D2075CBF01221A600E4B1A68D0075CBFB4
:1026C80001221A600C4B1A68D1075CBF01221A60FC
:1026D8000A4B1A68D2075CBF01221A60704700BF14
:1026E800500900204C090020480900204409002016
:1026F800400900203C090020380900203409002046
:1027080081F0004102E000BF83F0004330B54FEA9A
:1027180041044FEA430594EA050F08BF90EA020F07
:102728001FBF54EA000C55EA020C7FEA645C7FEA9A
:10273800655C00F0E2804FEA5454D4EB5555B8BFBD
:102748006D420CDD2C4480EA020281EA030382EA2E
:10275800000083EA010180EA020281EA0303362DC0
:1027680088BF30BD11F0004F4FEA01314FF4801C93
:102778004CEA113102D0404261EB410113F0004FA5
:102788004FEA03334CEA133302D0524263EB43035C
:1027980094EA050F00F0A780A4F10104D5F1200EFA
:1027A8000DDB02FA0EFC22FA05F2801841F1000155
:1027B80003FA0EF2801843FA05F359410EE0A5F129
:1027C80020050EF1200E012A03FA0EFC28BF4CF05A
:1027D800020C43FA05F3C01851EBE37101F0004510
:1027E80007D54FF0000EDCF1000C7EEB00006EEB1D
:1027F8000101B1F5801F1BD3B1F5001F0CD34908A7
:102808005FEA30004FEA3C0C04F101044FEA4452FD
:1028180012F5800F80F09A80BCF1004F08BF5FEA84
:10282800500C50F1000041EB045141EA050130BD64
:102838005FEA4C0C404141EB010111F4801FA4F107
:102848000104E9D191F0000F04BF01460020B1FA5C
:1028580081F308BF2033A3F10B03B3F120020CDA94
:102868000C3208DD02F1140CC2F10C0201FA0CF072
:1028780021FA02F10CE002F11402D8BFC2F1200CD7
:1028880001FA02F120FA0CFCDCBF41EA0C0190408D
:10289800E41AA2BF01EB0451294330BD6FEA0404D6
:1028A8001F3C1CDA0C340EDC04F11404C4F12002C1
:1028B80020FA04F001FA02F340EA030021FA04F3D3
:1028C80045EA030130BDC4F10C04C4F1200220FA2A
:1028D80002F001FA04F340EA0300294630BD21FA68
:1028E80004F0294630BD94F0000F83F4801306BF2E
:1028F80081F480110134013D4EE77FEA645C18BF22
:102908007FEA655C29D094EA050F08BF90EA020FB8
:1029180005D054EA000C04BF1946104630BD91EAB0
:10292800030F1EBF0021002030BD5FEA545C05D1B3
:102938004000494128BF41F0004130BD14F58004F2
:102948003CBF01F5801130BD01F0004545F0FE4166
:1029580041F470014FF0000030BD7FEA645C1ABF9B
:10296800194610467FEA655C1CBF0B46024650EAD2
:10297800013406BF52EA033591EA030F41F40021FE
:1029880030BD00BF90F0000F04BF0021704730B584
:102998004FF4806404F132044FF000054FF0000159
:1029A80050E700BF90F0000F04BF0021704730B51A
:1029B8004FF4806404F1320410F0004548BF4042EF
:1029C8004FF000013EE700BF42004FEAE2014FEA44
:1029D80031014FEA02701FBF12F07F4393F07F4F1F
:1029E80081F06051704792F0000F14BF93F07F4F51
:1029F800704730B54FF4607401F0004521F0004194
:102A080020E700BF50EA010208BF704730B54FF019
:102A180000050AE050EA010208BF704730B511F01E
:102A2800004502D5404261EB41014FF4806404F156
:102A380032045FEA915C3FF4DCAE4FF003025FEAD8
:102A4800DC0C18BF03325FEADC0C18BF033202EB60
:102A5800DC02C2F1200300FA03FC20FA02F001FABA
:102A680003FE40EA0E0021FA02F11444C1E600BF59
:102A78004FF0FF3C06E000BF4FF0010C02E000BF42
:102A88004FF0010C4DF804CD4FEA410C7FEA6C5C25
:102A98004FEA430C18BF7FEA6C5C1BD001B050EAC8
:102AA800410C0CBF52EA430C91EA030F02BF90EAB3
:102AB800020F0020704710F1000F91EA030F58BF72
:102AC800994208BF90422CBFD8176FEAE37040F0D4
:102AD800010070474FEA410C7FEA6C5C02D150EA72
:102AE800013C07D14FEA430C7FEA6C5CD6D152EA2D
:102AF800033CD3D05DF8040B704700BF84461046F2
:102B080062468C461946634600E000BF01B5FFF7F0
:102B1800B7FF002848BF10F1000F01BD4DF808EDC0
:102B2800FFF7F4FF0CBF012000205DF808FB00BF91
:102B38004DF808EDFFF7EAFF34BF012000205DF8EB
:102B480008FB00BF4DF808EDFFF7E0FF94BF012038
:102B580000205DF808FB00BF4DF808EDFFF7CEFF39
:102B680094BF012000205DF808FB00BF4DF808ED78
:102B7800FFF7C4FF34BF012000205DF808FB00BF49
:102B88004FF0FF0C1CEAD0521EBF1CEAD15392EA48
:102B98000C0F93EA0C0F6FD01A4480EA010C400224
:102BA80018BF5FEA41211ED04FF0006343EA50107E
:102BB80043EA5111A0FB01310CF00040B1F5000FC0
:102BC8003EBF490041EAD3715B0040EA010062F16F
:102BD8007F02FD2A1DD8B3F1004F40EBC25008BF59
:102BE80020F00100704790F0000F0CF0004C08BF77
:102BF80049024CEA502040EA51207F3AC2BFD2F144
:102C0800FF0340EAC250704740F400004FF0000351
:102C1800013A5DDC12F1190FDCBF00F0004070478B
:102C2800C2F10002410021FA02F1C2F1200200FAC9
:102C380002FC5FEA310040F1000053EA4C0308BF90
:102C480020EADC70704792F0000F00F0004C02BFE1
:102C5800400010F4000F013AF9D040EA0C0093F05C
:102C6800000F01F0004C02BF490011F4000F013BB6
:102C7800F9D041EA0C018FE70CEAD15392EA0C0F24
:102C880018BF93EA0C0F0AD030F0004C18BF31F08F
:102C9800004CD8D180EA010000F00040704790F065
:102CA800000F17BF90F0004F084691F0000F91F009
:102CB800004F14D092EA0C0F01D142020FD193EACF
:102CC8000C0F03D14B0218BF084608D180EA010057
:102CD80000F0004040F0FE4040F40000704740F033
:102CE800FE4040F4400070474FF0FF0C1CEAD05201
:102CF8001EBF1CEAD15392EA0C0F93EA0C0F69D05D
:102D0800A2EB030280EA010C49024FEA402037D0C7
:102D18004FF0805343EA111143EA10130CF00040BE
:102D28008B4238BF5B0042F17D024FF4000C8B42AE
:102D380024BF5B1A40EA0C00B3EB510F24BFA3EB8E
:102D4800510340EA5C00B3EB910F24BFA3EB91035E
:102D580040EA9C00B3EBD10F24BFA3EBD10340EAB8
:102D6800DC001B0118BF5FEA1C1CE0D1FD2A3FF6FE
:102D780050AF8B4240EBC25008BF20F001007047B3
:102D88000CF0004C4CEA50207F32C2BFD2F1FF0356
:102D980040EAC250704740F400004FF00003013A87
:102DA80037E792F0000F00F0004C02BF400010F42B
:102DB800000F013AF9D040EA0C0093F0000F01F03F
:102DC800004C02BF490011F4000F013BF9D041EA61
:102DD8000C0195E70CEAD15392EA0C0F08D1420294
:102DE8007FF47DAF93EA0C0F7FF470AF084676E767
:102DF80093EA0C0F04D14B023FF44CAF08466EE740
:102E080030F0004C18BF31F0004CCAD130F000420D
:102E18007FF45CAF31F000437FF43CAF5FE700BF65
:102E28004FF0FF3C06E000BF4FF0010C02E000BF8E
:102E38004FF0010C4DF804CD4FEA40024FEA410330
:102E48007FEA226C18BF7FEA236C11D001B052EAE6
:102E5800530C18BF90EA010F58BFB2EB030088BFAC
:102E6800C81738BF6FEAE17018BF40F0010070471B
:102E78007FEA226C02D15FEA402C05D17FEA236CFD
:102E8800E4D15FEA412CE1D05DF8040B704700BF44
:102E9800844608466146FFE70FB5FFF7C9FF0028DB
:102EA80048BF10F1000F0FBD4DF808EDFFF7F4FF14
:102EB8000CBF012000205DF808FB00BF4DF808EDAD
:102EC800FFF7EAFF34BF012000205DF808FB00BFD0
:102ED8004DF808EDFFF7E0FF94BF012000205DF8F2
:102EE80008FB00BF4DF808EDFFF7D2FF94BF0120A3
:102EF80000205DF808FB00BF4DF808EDFFF7C8FF9C
:102F080034BF012000205DF808FB00BF42000ED24C
:102F1800B2F1FE4F0BD34FF09E03B3EB126209D40C
:102F28004FEA002343F0004323FA02F070474FF0C2
:102F38000000704712F1610F01D1420202D14FF037
:102F4800FF3070474FF00000704700BF10B5054CC8
:102F580013462CB10A4601460220AFF3008010BD8B
:102F6800204610BD0000000010B5431E0A449142DF
:102F780004D011F8014B03F8014FF8E710BD0346E0
:102F88000244934202D003F8011BFAE77047034654
:102F980013F8012B002AFBD1181A013870470000DA
:102FA8001D000A085D000A0889000A088D000A0841
:102FB800000000000000000000000000F9010A08FD
:102FC80039020A0891010A087365747570537563AC
:102FD800636573733D25640057616974696E672082
:102FE800666F7220537461727400537461727469ED
:102FF8006E6720696E2035207365636F6E64732E6B
:103008002E2E00474F210072656D6F746520737412
:10301800617475733A00207C200073656E736F725B
:1030280020303A0073656E736F7220313A00736511
:103038006E736F7220323A0073656E736F7220334D
:103048003A0066726F6E74206C6566743A00667238
:103058006F6E742072696768743A006261636B20EE
:103068006C6566743A006261636B207269676874A4
:103078003A0025642C25642C2564006E6F2073614A
:103088006D706C65002053454E534F522054494D86
:10309800454F5554000000000000000000000000EB
:1030A8002D150A082F150A0883150A083B150A0862
:1030B800646576696365206E6F7420666F756E64EB
:1030C80000726573657474696E67206C6173744D02
:1030D8006F76656D656E7420696E74315F737263A7
:1030E8003D3078257800726563616C69627261743D
:1030F800696E67000000000000000000F51A0A0869
:10310800F71A0A0866006C6E00666E00636F6465E5
:103118000064657461696C000D0A002530313075F2
:1031280020005D20002C200028293A2000205B0088
:10313800636F6465203D20002569006465746169DA
:103148006C73203D2000626175640053657269618B
:103158006C0055534253657269616C310074797023
:103168006500706172616D00636D64006964006878
:103178006E64007374726D0066696C74006C766CB2
:103188000061646448616E646C65720072656D6F9D
:10319800766548616E646C657200656E756D486130
:1031A8006E646C657273004A534F4E537472656156
:1031B8006D4C6F6748616E646C6572006170700079
:1031C8006E6F6E6500747261636500696E666F008C
:1031D8007761726E006572726F720070616E6963FA
:1031E80000616C6C005A00252B3033643A2530326C
:1031F800750025592D256D2D25645425483A254DF2
:103208003A2553257A0061736374696D650000007F
:103218000000000000000000FB1E0A08ED1E0A085E
:10322800EF1E0A080000000000000000651F0A08E1
:10323800A91F0A08831F0A08F71B0A087D1F0A0826
:10324800671F0A086F1F0A08A31F0A08771F0A08C2
:10325800611F0A08000000000000000025210A087C
:1032680049210A0855210A08F71B0A0831210A08CA
:103278003D210A0837210A0843210A0827210A089C
:103288002B210A080000000000000000F9210A08AC
:1032980043220A081B220A08FB210A0823220A08DB
:1032A8002B220A0833220A083B220A0800000000E1
:1032B80000000000CB220A084D080A0829150A0850
:1032C8007D170A08F11B0A08911D0A08A11D0A08A2
:1032D800D5220A08B9230A08FD230A0879240A080E
:1032E800FD240A08C1250A0885260A0800000000EE
:0832F8000000000000000000CE
:0433000000000000C9
:1033040006000000030000000200000007000000A7
:10331400010100000E000000050000000400000090
:08332400010100000E320A084D
:10332C00FFFFFFFF00000102030405060708090A5E
:10333C000B0C0D0E0F101112131415161718191A59
:08334C001B1C1D1E1F202800A0
:043354007856341261
:04000005080A0018CD
:00000001FF
