:100000000C9476000C949E000C949E000C949E0020
:100010000C949E000C949E000C949E000C949E00E8
:100020000C949E000C949E000C949E000C949E00D8
:100030000C949E000C949E000C949E000C949E00C8
:100040000C949E030C949E000C940A040C94E403FC
:100050000C949E000C949E000C949E000C949E00A8
:100060000C949E000C949E000C9400000C940000D4
:100070000C9400000C9400000000000024002700F5
:100080002A002D0000000000250028002B002E0073
:10009000000000002300260029002C0004040404B2
:1000A0000404040402020202020203030303030322
:1000B000050505050505050301020408102040801B
:1000C00001020408102001020408102002080104A3
:1000D0001040204000000008500201000003040707
:1000E000000000000000000000000E0811241FBEE8
:1000F000CFEFD8E0DEBFCDBF11E0A0E0B1E0E4E19A
:10010000F3E102C005900D92A433B107D9F721E0C5
:10011000A4E3B1E001C01D92A63FB207E1F710E0F1
:10012000C6E7D0E004C02197FE010E945D08C537F4
:10013000D107C9F70E943C040C9488090C94000074
:1001400081508B3088F5E82FF0E0E755FF4F0C9495
:100150005D08BE00C200B400BA00D400D400C500DF
:10016000CB00CF00D500D900809180008F7780939D
:1001700080000895809180008F7DF9CF84B58F77BE
:1001800084BD089584B58F7DFBCF8091B0008F77BB
:100190008093B00008958091B0008F7DF9CF809159
:1001A00090008F77809390000895809190008F7DCC
:1001B000F9CF80919000877FF5CFCF93DF93282FE1
:1001C00030E0F901EC52FF4F8491F901E854FF4F00
:1001D000D491F901E456FF4FC491CC23A1F08111D1
:1001E0000E94A000EC2FF0E0EE0FFF1FE057FF4F42
:1001F000A591B491EC91ED2381E090E009F480E0C9
:10020000DF91CF91089580E090E0FACF1F93CF93D4
:10021000DF93282F30E0F901EC52FF4F8491F90170
:10022000E854FF4FD491F901E456FF4FC491CC2319
:10023000A9F0162F81110E94A000EC2FF0E0EE0F24
:10024000FF1FEC57FF4FA591B4918FB7F894EC9135
:10025000111108C0D095DE23DC938FBFDF91CF91C1
:100260001F910895DE2BF8CFCF93DF93282F30E036
:10027000F901E854FF4F449124563F4FF90124916E
:10028000843019F483E08093A0002223D1F0822FE0
:1002900090E0880F991FFC01E858FF4FA591B49199
:1002A000FC01EC57FF4FC591D49161110DC09FB770
:1002B000F8948C91409584238C93888148234883BB
:1002C0009FBFDF91CF9108958FB7F894EC914E2B9B
:1002D0004C938FBFF6CF1F93CF93DF93182FEB0173
:1002E000843009F475C061E00E943401209709F060
:1002F0006CC060E0812FDF91CF911F910C940601BB
:10030000E330A9F1E43009F074C08091800080628C
:1003100080938000D0938B00C0938A001FC0EA3086
:1003200009F43FC078F4E830A1F1E93009F061C088
:1003300080919000806880939000D0939900C09342
:1003400098000CC0EB30B9F1E03509F052C0C09311
:10035000A10004C084B5806884BDC7BDDF91CF9182
:100360001F91089584B5806284BDC8BDF7CF809188
:100370008000806880938000D0938900C0938800BB
:10038000EDCF8091B00080688093B000C093B3003F
:10039000E5CF8091B00080628093B000C093B4003C
:1003A000DDCF80919000806280939000D0939B007D
:1003B000C0939A00D3CF8091900088608093900082
:1003C000D0939F00C0939E00C9CFCF3FD105A9F025
:1003D000E12FF0E0EC52FF4FE491E73091F208F0AA
:1003E0009ECFE23009F4BECF08F08ACFE13009F4A5
:1003F000B1CFC038D1050CF47CCF61E07BCF8091C8
:100400007A00806480937A0080917A0086FDFCCF28
:10041000809178009091790008950F931F93CF9366
:10042000DF93EDEAF0E09081907F90838E508064BE
:1004300080937C000DE710E0F8018081806280836A
:100440000E94FF01EC01F80180818F7D80830E9472
:10045000FF018C0F9D1F9C0136952795892F9927A9
:10046000A901481B590BCA01DF91CF911F910F9130
:1004700008950E940D029595879595958795089505
:10048000AF92BF92CF92DF92EF92FF920F931F93A2
:10049000CF93DF936C017B018B01040F151FEB01E0
:1004A0005E01AE18BF08C017D10759F06991D60197
:1004B000ED91FC910190F081E02DC6010995892B09
:1004C00079F7C501DF91CF911F910F91FF90EF90C8
:1004D000DF90CF90BF90AF900895FC01538D448D75
:1004E000252F30E0842F90E0821B930B541710F0DF
:1004F000CF96089501970895FC01918D828D9817EC
:1005000061F0A28DAE0FBF2FB11D5D968C91928DC3
:100510009F5F9F73928F90E008958FEF9FEF0895F4
:10052000FC01918D828D981731F0828DE80FF11DBD
:10053000858D90E008958FEF9FEF0895FC01918DD8
:10054000228D892F90E0805C9F4F821B91098F73D1
:100550009927089585E591E00E949E0221E0892B6C
:1005600009F420E0822F089580E090E0892B29F0A3
:100570000E94AA0281110C9400000895FC01A48D30
:10058000A80FB92FB11DA35ABF4F2C91848D90E0B5
:1005900001968F739927848FA689B7892C93A08998
:1005A000B1898C91837080648C93938D848D981322
:1005B00006C00288F389E02D80818F7D80830895B5
:1005C000EF92FF920F931F93CF93DF93EC0181E0A3
:1005D000888F9B8D8C8D98131AC0E889F98980814A
:1005E00085FF15C09FB7F894EE89FF896083E8897D
:1005F000F98980818370806480839FBF81E090E06F
:10060000DF91CF911F910F91FF90EF900895F62EFB
:100610000B8D10E00F5F1F4F0F731127E02E8C8D95
:100620008E110CC00FB607FCFACFE889F9898081DA
:1006300085FFF5CFCE010E94BE02F1CFEB8DEC0F0E
:10064000FD2FF11DE35AFF4FF0829FB7F8940B8FF7
:10065000EA89FB8980818062CFCFCF93DF93EC0161
:10066000888D8823B9F0AA89BB89E889F9898C919A
:1006700085FD03C0808186FD0DC00FB607FCF7CF56
:100680008C9185FFF2CF808185FFEDCFCE010E9456
:10069000BE02E9CFDF91CF910895FC0101900020C7
:1006A000E9F73197AF01481B590BBC0185E591E093
:1006B0000C9440028F929F92AF92BF920F931F9320
:1006C000CF93DF93CDB7DEB7A1970FB6F894DEBF17
:1006D0000FBECDBF19A2423008F44AE08E010F5D73
:1006E0001F4F842E912CB12CA12CA50194010E94A6
:1006F0003B08E62FB901CA01EA30F4F4E05DD80105
:10070000EE938D01232B242B252B79F790E080E0AD
:10071000109719F0CD010E944D03A1960FB6F894E1
:10072000DEBF0FBECDBFDF91CF911F910F91BF9064
:10073000AF909F908F900895E95CE1CF1F920F9248
:100740000FB60F9211242F933F938F939F93AF93E4
:10075000BF938091510190915201A0915301B091AA
:1007600054013091500120E4230F2D3728F023EC61
:10077000230F0196A11DB11D2093500180935101BB
:1007800090935201A0935301B093540180914C0176
:1007900090914D01A0914E01B0914F010196A11D84
:1007A000B11D80934C0190934D01A0934E01B093E5
:1007B0004F01BF91AF919F918F913F912F910F90DA
:1007C0000FBE0F901F9018951F920F920FB60F92A9
:1007D00011242F933F934F935F936F937F938F9346
:1007E0009F93AF93BF93EF93FF9385E591E00E94B2
:1007F000BE02FF91EF91BF91AF919F918F917F9139
:100800006F915F914F913F912F910F900FBE0F907D
:100810001F9018951F920F920FB60F9211242F93CD
:100820008F939F93EF93FF93E0916501F0916601A1
:100830008081E0916B01F0916C0182FD1BC0908181
:1008400080916E018F5F8F7320916F01821741F04D
:10085000E0916E01F0E0EB5AFE4F958F80936E01B0
:10086000FF91EF919F918F912F910F900FBE0F905D
:100870001F9018958081F4CF8091F20080618EBB2B
:1008800080E88093F2009EB39093F2008093610021
:1008900011E0109361009091F2009F799EBB8093CC
:1008A000F2009EB39093F2009091F2009B7F9EBB6A
:1008B0008093F2009EB39093F200809361001092B7
:1008C0006100789484B5826084BD84B5816084BD04
:1008D00085B5826085BD85B5816085BD80916E00DE
:1008E000816080936E00109281008091810082600F
:1008F000809381008091810081608093810080914C
:1009000080008160809380008091B100846080933A
:10091000B1008091B00081608093B000809191001F
:10092000826080939100809191008160809391001A
:100930008091900081608093900080917A00846023
:1009400080937A0080917A008D7F80937A008091E5
:100950007A008E7F80937A0080917A0080688093FD
:100960007A001092C10061E08DE00E94340161E0E4
:100970008BE00E94340161E086E00E94340161E076
:1009800083E10E94340161E085E00E94340161E06E
:1009900083E00E94340160E08EE00E94340160E058
:1009A0008FE00E94340160E08CE00E94340160E03E
:1009B00088E00E94340160E084E00E94340160E03D
:1009C00082E00E9434018CE090E00E946308FC0108
:1009D00080913E0190913F019183808380914001FD
:1009E00090914101938382838091360190913701E8
:1009F0009583848380913801909139019783868310
:100A000080913A0190913B019187808780913C01D0
:100A100090913D0193878287F0934501E0934401D3
:100A200084E090E00E946308EC01198218821B8226
:100A30001A8290934301809342018FB7F894C0903B
:100A40005101D0905201E0905301F09054018FBFBA
:100A50008DE090E00E946308EC01C882D982EA82AE
:100A6000FB821C821D821E821F82C886D986EA866E
:100A7000FB861C8690933501809334018CE090E0D6
:100A80000E946308FC0180914401909145012091EE
:100A90004201309143013183208393838283D58344
:100AA000C48384E090E09783868385E090E091871B
:100AB000808788E090E093878287F0934701E093F6
:100AC0004601E0916501F091660182E08083E0914A
:100AD0006101F09162011083E0916301F091640182
:100AE00080EA808310926D01E0916901F0916A01C2
:100AF00086E08083E0916701F091680180818061E8
:100B00008083E0916701F091680180818860808333
:100B1000E0916701F0916801808180688083E091B5
:100B20006701F091680180818F7D80838EE1C82EFE
:100B3000D12CE12CF12C95E0892E912CA12CB12CFB
:100B4000332433948EE00E94390290933F018093C6
:100B50003E018FE00E943902909341018093400151
:100B60008CE00E94DD00909337018093360188E08D
:100B70000E94DD00909339018093380184E00E9447
:100B8000DD0090933B0180933A0182E00E94DD00FA
:100B900090933D0180933C01E0914401F091450127
:100BA00020913E0130913F0131832083209140010B
:100BB00030914101338322832091360130913701F6
:100BC000358324832091380130913901378326837E
:100BD00020913A0130913B013187208793878287AA
:100BE000E0913401F091350180859185A285B3852E
:100BF0000196A11DB11D80879187A287B38784814B
:100C00009581A681B7810097A105B10539F00197BB
:100C1000A109B10984839583A683B783848588233A
:100C200049F084819581A681B781892B8A2B8B2BF2
:100C300009F4148688E191E00E944D0384E291E07A
:100C40000E944D0340903E0150903F01052C000C46
:100C5000660877084AE0C301B20177FE0DC06DE275
:100C600085E591E00E94E00266277727CB016419B1
:100C70007509860997094AE00E945A0387E291E0C4
:100C80000E944D034090400150904101052C000C02
:100C9000660877084AE0C301B20177FE0DC06DE235
:100CA00085E591E00E94E00266277727CB01641971
:100CB0007509860997094AE00E945A0384E291E087
:100CC0000E944D03A0914601B0914701E09144017B
:100CD000F091450186819781019709F455C080857F
:100CE0009185019709F450C084819581019709F499
:100CF0004EC082859385019709F04CC084E090E056
:100D0000208131812C3B32400CF447C02281338159
:100D10002C3B32400CF044C021E030E017963C936D
:100D20002E93169719969C938E9318971496ED917F
:100D3000FC91159764856111F3C01A964D915C91F1
:100D40001B97C8E0D0E01B96DC93CE931A97892BB3
:100D500009F0EBC084829582A682B78240855185D6
:100D6000628573854083518362837383348687E011
:100D700090E01B969C938E931A97ED91FC918AEAD2
:100D800090E09183808345C090E080E0B9CF83E01C
:100D900090E0B6CF85E090E0B3CF30E020E0BECF6A
:100DA00024E030E0BBCF81309105A9F40D90BC91D7
:100DB000A02D848195810B9744F082E390E01196F9
:100DC0009C938E938EEC9FEFCAC082E390E01196C5
:100DD0009C938E93C4C021153105F1F441E050E09D
:100DE0001B965C934E931A97C482D582E682F78253
:100DF0004085518562857385408351836283738307
:100E00003486ED91FC9182E390E0918380838EECB7
:100E10009FEF93838283A7C021303105D1F41B96C5
:100E20001C921E921A97C482D582E682F782408570
:100E300051856285738540835183628373833486D1
:100E4000ED91FC918EEC9FEF9183808382E390E0A3
:100E5000E0CF8830910501F18430910549F4ED919E
:100E6000FC918AEB9FEF9183808386E490E0D1CF61
:100E70008530910549F4ED91FC9186E490E09183F1
:100E800080838AEB9FEFC5CF069709F06CC0ED9188
:100E9000FC9186E490E075CF611165C000851185F5
:100EA0002285338544305105A1F46EE070E080E086
:100EB00090E0648375838683978300831183228304
:100EC0003383348685E090E01B969C938E931A972B
:100ED0004AC045305105A1F44AE050E060E070E0BE
:100EE000448355836683778300831183228333830E
:100EF000348666E070E01B967C936E931A9733C03D
:100F000047E050E060E070E0448355836683778378
:100F10000083118322833383348664E070E0EBCF57
:100F200048E050E0892B09F422CF1A968D919C91CC
:100F30001B978730910509F420CF009709F033CF34
:100F40000D90BC91A02D848195810B970CF43DCF21
:100F50008EEC9FEF11969C938E9382E390E0139614
:100F60009C938E931297E0914201F091430100818E
:100F700011811093490100934801C281D381D0931C
:100F80004B01C0934A0161E0101611060CF060E0BD
:100F900086E00E94060161E0101611060CF460E084
:100FA00083E10E94060117FF03C011950195110905
:100FB000B8010F3F110519F014F06FEF70E085E0F4
:100FC0000E946B0161E01C161D060CF060E08DE0D4
:100FD0000E94060161E01C161D060CF460E08BE027
:100FE0000E940601D7FF03C0D195C195D109BE016A
:100FF000CF3FD10519F014F06FEF70E083E00E944D
:101000006B0180E090E0892B09F49CCD0E94AA023C
:10101000882309F497CD0E94000092CDE5E5F1E028
:101020001382128288EE93E0A0E0B0E0848395837F
:10103000A683B7838AE091E09183808385EC90E07A
:101040009587848784EC90E09787868780EC90E092
:10105000918B808B81EC90E0938B828B82EC90E083
:10106000958B848B86EC90E0978B868B118E128EFD
:10107000138E148E0895A1E21A2EAA1BBB1BFD012C
:101080000DC0AA1FBB1FEE1FFF1FA217B307E40767
:10109000F50720F0A21BB30BE40BF50B661F771FBF
:1010A000881F991F1A9469F760957095809590959F
:1010B0009B01AC01BD01CF010895EE0FFF1F05900C
:1010C000F491E02D09940F931F93CF93DF93823017
:1010D000910510F482E090E0E091F401F091F501C7
:1010E00030E020E0B0E0A0E0309799F42115310520
:1010F00009F44AC0281B390B24303105D8F58A8100
:101100009B816115710589F1FB0193838283FE0147
:1011100011C0408151810281138148175907E0F0C5
:101120004817590799F4109761F012960C9312978B
:1011300013961C933296CF01DF91CF911F910F919F
:1011400008950093F4011093F501F4CF21153105B2
:1011500051F04217530738F0A901DB019A01BD0194
:10116000DF01F801C1CFEF01F9CF9093F501809332
:10117000F401CDCFFE01E20FF31F81939193225032
:10118000310939832883D7CF2091F2013091F301BF
:10119000232B41F420910201309103013093F3019C
:1011A0002093F201209100013091010121153105B8
:1011B00041F42DB73EB74091040150910501241B25
:1011C000350BE091F201F091F301E217F307A0F47F
:1011D0002E1B3F0B2817390778F0AC014E5F5F4F8D
:1011E0002417350748F04E0F5F1F5093F3014093CB
:1011F000F201819391939FCFF0E0E0E09CCFCF93F9
:10120000DF930097E9F0FC01329713821282A091DC
:10121000F401B091F501ED0130E020E01097A1F468
:1012200020813181820F931F2091F2013091F301CF
:101230002817390709F061C0F093F301E093F20138
:10124000DF91CF910895EA01CE17DF07E8F54A81D3
:101250005B819E0141155105B1F7E901FB83EA83EA
:1012600049915991C40FD51FEC17FD0761F4808196
:1012700091810296840F951FE90199838883828169
:1012800093819B838A83F0E0E0E012968D919C919C
:1012900013970097B9F52D913C911197CD010296C6
:1012A000820F931F2091F2013091F3012817390723
:1012B00039F6309751F51092F5011092F401B09380
:1012C000F301A093F201BCCFD383C283408151814B
:1012D000840F951FC817D90761F44E5F5F4F88814F
:1012E0009981480F591F518340838A819B81938341
:1012F00082832115310509F0B0CFF093F501E09319
:10130000F4019ECFFD01DC01C0CF13821282D7CF42
:04131000F894FFCF7F
:101314000000F601800000000000E00240026D02BF
:101324002D039E027C0290024C656674204C696E0B
:10133400653A20000D0A005269676874204C696E92
:04134400653A2000E6
:00000001FF
