:0200000460009A
:100000004643464200000156000000000101020084
:1000100000000000000000000000000000000000E0
:1000200000000000000000000000000000000000D0
:1000300000000000000000000000000000000000C0
:1000400000000000010403000000000000000000A8
:100050000000200000000000000000000000000080
:100060000000000000000000000000000000000090
:100070000000000000000000000000000000000080
:10008000EB04180A063204260000000000000000FD
:10009000050404240000000000000000000000002F
:1000A0000000000000000000000000000000000050
:1000B0000604000000000000000000000000000036
:1000C0000000000000000000000000000000000030
:1000D00020041808000000000000000000000000DC
:1000E0000000000000000000000000000000000010
:1000F0000000000000000000000000000000000000
:1001000000000000000000000000000000000000EF
:100110000204180804200000000000000000000095
:1001200000000000000000000000000000000000CF
:10013000600400000000000000000000000000005B
:1001400000000000000000000000000000000000AF
:10015000000000000000000000000000000000009F
:10016000000000000000000000000000000000008F
:10017000000000000000000000000000000000007F
:10018000000000000000000000000000000000006F
:10019000000000000000000000000000000000005F
:1001A000000000000000000000000000000000004F
:1001B000000000000000000000000000000000003F
:1001C000000100000010000001000000000000001D
:1001D000000000000000000000000000000000001F
:1001E000000000000000000000000000000000000F
:1001F00000000000000000000000000000000000FF
:10020000D4D4D4D4D4D4D4D4D4D4D4D4D4D4D4D4AE
:10100000D10020400020006000000000000000002F
:1010100020100060001000600000000000000000D0
:101020000000006024AA000000000000EFBEADDE5A
:10103000124880F3088812481249016000F036F81F
:10104000114812490022814201D004C0FBE7104838
:101050001049114A814202D008CA08C0FAE70F4875
:101060004FF47001026842EA01020260BFF34F8F41
:10107000BFF36F8F00F014F800DE00000040002086
:1010800008ED00E00040002000500020988500207E
:10109000B84200204C44002024AA006088ED00E003
:1010A00040F2DB5CC0F2000C6047D4D41C4840F234
:1010B000924188420CBF1B4A1B4A1C4B5360136869
:1010C00023F0800313601A481A4901BF1A480A0C1A
:1010D0008264C1F30F014164016C41F004010164B9
:1010E0001648174A824205D01649814202D008CAE2
:1010F00008C0FAE71448154A824205D014498142D3
:1011000002D008CA08C0FAE71248134A824205D042
:101110001249814202D008CA08C0FAE770470000AD
:10112000240400000080034000C00B4020C528D9E3
:1011300000C00A40AAAAFAFF00400E4000000000CA
:10114000B8220060D871000000400020002000603C
:10115000B8420020000020209094006094152020C8
:10116000D4D4D4D4D4D4D4D4D4D4D4D4D4D4D4D43F
:10117000D4D4D4D4D4D4D4D4D4D4D4D4D4D4D4D42F
:10118000D4D4D4D4D4D4D4D4D4D4D4D4D4D4D4D41F
:10119000D4D4D4D4D4D4D4D4D4D4D4D4D4D4D4D40F
:102000000040002031100060FD2F0000BD71000075
:10201000FD2F0000FD2F0000FD2F0000000000003C
:10202000000000000000000000000000FD2F000084
:10203000FD2F000000000000FD2F0000AD09000092
:10204000FD2F0000FD2F0000FD2F0000FD2F0000E0
:10205000FD2F0000FD2F0000FD2F0000FD2F0000D0
:10206000FD2F0000FD2F0000FD2F0000FD2F0000C0
:10207000FD2F0000FD2F0000FD2F0000FD2F0000B0
:10208000FD2F000000000000000000000000000024
:10209000FD2F0000FD2F0000FD2F0000FD2F000090
:1020A000FD2F0000FD2F0000FD2F0000FD2F000080
:1020B000FD2F0000FD2F0000FD2F0000FD2F000070
:1020C000FD2F0000FD2F0000FD2F0000FD2F000060
:1020D000FD2F0000FD2F0000FD2F0000FD2F000050
:1020E000FD2F0000FD2F0000FD2F0000FD2F000040
:1020F000FD2F0000FD2F0000FD2F0000FD2F000030
:10210000FD2F0000FD2F0000FD2F0000FD2F00001F
:1021100000000000FD2F000000000000FD2F000067
:10212000FD2F0000FD2F0000FD2F0000FD2F0000FF
:10213000FD2F0000FD2F000000000000FD2F00001B
:10214000FD2F0000FD2F0000FD2F0000FD2F0000DF
:10215000FD2F0000FD2F0000000000000000000027
:10216000FD2F0000FD2F0000FD2F0000FD2F0000BF
:10217000FD2F0000FD2F0000FD2F0000FD2F0000AF
:10218000FD2F0000FD2F0000FD2F0000FD2F00009F
:10219000FD2F0000FD2F0000FD2F0000FD2F00008F
:1021A000FD2F0000FD2F0000FD2F0000FD2F00007F
:1021B000FD2F0000FD2F0000FD2F0000FD2F00006F
:1021C000FD2F0000FD2F0000FD2F0000000000008B
:1021D000FD2F0000FD2F0000FD2F0000FD2F00004F
:1021E000FD2F0000FD2F0000FD2F0000FD2F00003F
:1021F000FD2F0000FD2F0000FD2F0000FD2F00002F
:10220000FD2F00001B010000FD2F0000FD2F00002E
:10221000FD2F0000FD2F0000FD2F0000FD2F00000E
:10222000FD2F0000FD2F0000FD2F0000FD2F0000FE
:10223000FD2F0000FD2F0000FD2F0000000000001A
:1022400000000000FD2F0000FD2F0000FD2F00000A
:10225000FD2F0000FD2F0000FD2F0000FD2F0000CE
:10226000FD2F0000FD2F0000FD2F0000FD2F0000BE
:10227000FD2F0000FD2F0000FD2F0000FD2F0000AE
:10228000FD2F0000FD2F0000FD2F0000FD2F00009E
:10229000FD2F0000FD2F0000FD2F0000FD2F00008E
:1022A000FD2F0000FD2F0000FD2F000000000000AA
:0822B000FD2F0000FD2F0000CE
:1022B800F0B503AF2DE9000B82B0044690F8340066
:1022C800D1E900598E6808B1206838E005F0F3FCC0
:1022D800804605F0E3FC20685FEAC8712FD100282A
:1022E8005AD14FF0FF30206028686D46009004F105
:1022F800200001902846D6F8008099F8006003F085
:10230800E6FF284604F02BF8002E18BF01262846C1
:10231800314604F030F82846012103F0F0FF284642
:10232800414603F0FAFF284603F0DDFF206801303C
:10233800206005F0B5FC02B0BDE8000BF0BD58BB4D
:102348004FF0FF30206028686D46009004F12000AF
:1023580001902846D6F8008099F8006003F0B7FF8E
:10236800284603F0FCFF002E18BF012628463146F8
:1023780004F001F82846012103F0C1FF2846414630
:1023880003F0CBFF284603F0AEFF20680130206041
:1023980002B0BDE8000BF0BD40F26000C2F22000C0
:1023A80005F028FE084640F2E801C2F220010222A8
:1023B80006F0DAB945F200000121C2F20000006817
:1023C800BFF35F8F80F87510704780B56F4641F294
:1023D8009C50C2F22000006880470020BDE8804081
:1023E80005F06CBC80B56F4690B04FF0000801E076
:1023F800BFF32F8F45F20000C2F20000066896F87E
:1024080074000028F6D006F17500D0E84F1F0129A6
:10241800EED1C0E8418F0029F7D1BFF35F8F96F85E
:102428007000B8B1314611F86C0F0291B0B10328B1
:1024380040F01982B14619F8680F88B1032840F0B6
:102448001882354615F8650FA5F1450B58B10328D4
:102458005AD014E23168C6E9011808E0F46817E0B8
:10246800D6E904A41DE0B16BD6F860A02DE0D1E94F
:102478000001012201F01F014FF4FA7402FA01F180
:10248800C0F88C10304600F86C8F029040F8604C11
:10249800B14648F2805A09F8688FC2F2000A49E941
:1024A80016A405F0ABFB3546014605F8658F021901
:1024B800002CA5F1450B45F805AC18BF511C45F893
:1024C8002D1C45F84D0C45F8491C304640F83C1F7A
:1024D80080F828809AF80410002900F0B18131466C
:1024E800012241F8408FA1F1200C01F1180381F875
:1024F80024200A4642F81C8F8CE8090441E9052A81
:1025080041F80C2CC1E9051105F078FBDBF8004017
:102518002168401AB0F1FF3F0EDD706D0168002997
:1025280056D0007B002818BF86F8648096F86400AF
:10253800002840F08680ADE0706A056828680028A9
:1025480040F06A8141F24C10C2F22000016840F26A
:102558000510C0F20000884782462868894624682A
:1025680000281EBFC16868688847C5F8108085F8CC
:102578000C80C5E90194B46AC5F800A005F07EFB9B
:10258800BFF35F8F2168002946D08B68AA68D31AE9
:1025980041D40B69002B00F03A819C68141B1C463F
:1025A80014D41969002942D08C68141B0CD40B6907
:1025B800002B00F02C819C68141B00F126811969FE
:1025C800A9B38C68141BE4D50C4619462C611EE18E
:1025D800D6E90C4086F86480D0F800A005F04EFBE0
:1025E800BFF35F8F216839B30A698A4501D1226038
:1025F80022E00AB3924513461CD01169E1B18A451D
:1026080012D00A69C2B1924513D01169A1B18A45A5
:102618000AD00A69EDE72961256005F03AFBF06AFE
:10262800056005F003FBF7E00B46114602E019468A
:10263800EDE013461A690A6105F02BFB96F8640071
:1026480040B3D6E90C40D0F800A005F017FBBFF363
:102658005F8F2168E1B10A698A4501D1226017E0DC
:10266800B2B19245134611D0116989B18A4509D092
:102678000A696AB1924508D0116949B18A4501D001
:102688000A69EDE70B46114600E013461A690A612C
:1026980005F0FFFA306C86F8648000281EBFC16818
:1026A800706C884702990120287089F8000008702A
:1026B80048F29450C2F200000068022829D901208B
:1026C80040F274210B90C2F220010D9003A80C90E7
:1026D80046F60750C0F20000CDF83880049006F1A5
:1026E8000800039040F28820C2F220000A9105F009
:1026F8005DFC40F27C2109900A20C2F2200108907A
:1027080005AACDE905100AA807910321002305F0C1
:10271800E6FB344646F6B75154F8080FCBF2DB61B6
:1027280044F62512C2F29242414391422FD248F216
:102738009451C2F200010968022928D3012040F20D
:10274800B4210B90C2F220010D9003A80C9046F61C
:102758000750C0F20000CDF83880CDE9034040F2C0
:10276800BC20C2F220000A9105F020FC40F27C2136
:1027780009900A20C2F22001089005AACDE90510A7
:102788000AA807910221002305F0A9FB206843F25B
:10279800A77146F22C42CEF6BD11C0F62132414354
:1027A80091422ED848F29451C2F20001096841B30F
:1027B800012040F2E8210B90C2F220010D9003A8FD
:1027C8000C9046F60750C0F20000CDF83880CDE9ED
:1027D800034040F2F020C2F220000A9105F0E6FB27
:1027E80040F27C2109900A20C2F22001089005AA33
:1027F800CDE905100AA807910121002305F06FFB18
:10280800206801307168B06031E61C462B610D61AB
:1028180005F03FFAF06A056041F24C10C2F2200060
:10282800C168032086F8700086F86C0086F8680096
:1028380086F8650040F20510C0F200008847D9E527
:10284800012100200B9140F23C11C2F220010E90B0
:102858000D9004200A9140F2A4110C900AA8C2F22B
:10286800200105F0C8FC40F2D800C2F2200006F0B2
:102878008FFB40F2C410C2F2200006F089FB40F240
:10288800B410C2F2200006F083FB80B56F46A4B0F6
:1028980005F004FA48F28C500121C2F2000048F217
:1028A800985401704EF27140CEF20000F021017090
:1028B8004EF20C10CEF200004FF4003101600020FF
:1028C800ADF8740045F20000C2F2000069460160EC
:1028D80044F20000C2F20004C2F20000A04203D990
:1028E80005F0E6F9A04203D900F015F8FFF77AFDE4
:1028F800012100201F9140F22C31C2F220012290C8
:10290800219004201E9140F2343120901EA8C2F27A
:10291800200105F070FCF0B503AF2DE9000FADF212
:102928002C4D05AC204602F0C9F804F1340004F13E
:10293800380104F1540202F07AFA4F980022016833
:1029480041F0010101604F99086820F00200086019
:102958003598C1F80821C1F81821C1F82821C1F813
:102968003821016821F001010160016841F400414A
:1029780001600168090409D50168090444BF0168B8
:102988005FEA014102D501680904F2D43F21816060
:10299800016821F0010101603698016821F0010108
:1029A8000160016841F4004101600168090409D52A
:1029B8000168090444BF01685FEA014102D5016862
:1029C8000904F2D43F2140F263428160016821F09A
:1029D800010101600599886C40F001008864486C29
:1029E80010434864486C012262F383004864486CD1
:1029F80020F080004864886C40F020008864486CAF
:102A080040F440404864486C40F444704864886C22
:102A180040F080008864886D000709D0886D000741
:102A28001CBF886D5FEA007002D0886D0007F2D184
:102A3800886C40F020008864486C20F4404048646A
:102A48004A6C069822F4447202F588724A64816CD2
:102A580040F2634241F001018164416C11434164D9
:102A6800416C012262F383014164416C21F08001D1
:102A78004164816C41F020018164416C41F4404122
:102A88004164416C41F444714164816C41F08001BE
:102A98008164816D090709D0816D09071CBF816DAB
:102AA8005FEA017102D0816D0907F2D1816C0DF5E1
:102AB800EA7802220F2341F020018164416C4FF033
:102AC8000F0921F440414164416C21F4447101F53E
:102AD800887141646499404602F0D9FC5F9987A8DF
:102AE8004FF4805202F09BFCDDE91C128BA8DDF844
:102AF800B8A0DDF898B1699C6B9D02F055FC51AB0C
:102B08004FF470460FCBA0F88C61A0F88E9187A87F
:102B1800A1F88C61A1F88E91A2F88C61A2F88E912F
:102B2800A3F88C61A3F88E910495CDE902B4CDF891
:102B38001CA202F06CF9044600208D9004208C90B1
:102B480003208B904FF47A600D46759005A802A972
:102B58008BAB0122CDF80080012600F09EF8059885
:102B6800002866D14EF210010698CEF200010A68DC
:102B780022F001020A600A6842F004020A6042F286
:102B8800BF72C0F209024A600A6842F002020A6093
:102B98000A6842F001020A6048F28051BFF35F8F71
:102BA800C2F200010E7145F20001BFF35F8FC2F25D
:102BB8000001096801F17402D2E84F3F4BB90123C3
:102BC800BFF35F8FC2E8463FB6B1D2E84F6F002E21
:102BD800F8D040F21C2040F20023C2F22000BFF3DC
:102BE8002F8F009040F2D410C2F22000C2F22003CE
:102BF8008BAA2B2105F042FB0022BFF35F8F81F8DF
:102C0800702041F29452C2F2200201230A60BFF3FD
:102C18005F8F81F8753041F29C51C2E90045C2F2DC
:102C28002001086005F03CF80DF22C4DBDE8000FBE
:102C3800F0BD05AA8BAB07CA07C340F23C20C2F21D
:102C4800200040F22C23009040F2D410C2F220035E
:102C5800C2F220008BAA2B2105F010FB48F280500D
:102C6800C2F2000000F0C2BA007840F2F8320B4617
:102C780040F2A861C2F22001C2F2200251F82010ED
:102C880052F82020184605F09DBE084640F28C6197
:102C9800C2F22001122205F095BEF0B503AF2DE96E
:102CA800000FB5B00D4648F23011C2F200011E46C1
:102CB80001F2124192460123BFF35F8FD1E84F2FF3
:102CC800C1E8443F002CF9D1BFF35F8F32B195E8DA
:102CD8000E000EC035B0BDE8000FF0BD48F230144C
:102CE8000590C2F200044FF48061204606F0BCFB58
:102CF80004F0C4FF80462046314600F043FE20B170
:102D080095E80700059B07C3FEE148F24850D5F84F
:102D180000C0C2F20000AA68046046F20000C2F2D5
:102D2800000041F23813C61807F8D5ACBFF35F8F1F
:102D380056E8003F43F0004546E80054002CF7D120
:102D4800B3F1FF3FBFF35F8F40F3EB8145F2140609
:102D58000124C2F2000606F5A063BFF35F8FD3E833
:102D68004F5FC3E8414F0029F9D1CDF81080002DFD
:102D7800BFF35F8F40F0E0810021CDE930C2ADF8AC
:102D8800D01041F238110144299000F5865200F51F
:102D980080500DF1A4082F910621CDE93263CDE9C9
:102DA8002A1040462E914FF0010BCDE92C1201213B
:102DB80003F0E8FBB8E87E000DF11C0909F10400F6
:102DC8007EC098E87E007EC00024484651468DF8B3
:102DD80050B0079402F0ABFBB86829A92B90A7F173
:102DE800D5002A9028A82990484628944FF0000A30
:102DF800FFF75EFA48F2000B0420C2F2000B0BF159
:102E08000C088BF805000821B9E83C0040463CC096
:102E1800B9E87C007CC099E87C007CC001200322D2
:102E28008BF804004FF0FF30CBF80800FF20CDE905
:102E3800002180210290404600228023CBF844A044
:102E4800CBF800A002F06BFD0E46DBF80810C007B7
:102E580001F10101CBF8081040F07981DBF800009E
:102E6800002840F07B819BF8045000200029CBF813
:102E7800000005F101028BF8042040F04C814FF06E
:102E8800FF310222CBF808104FF40071CDE9002180
:102E98000021029040460022002302F040FD0C462B
:102EA800DBF80810C00701F10101CBF8081040F069
:102EB8005B81002940F02F814FF0FF304FF4007AFA
:102EC800CBF8080002204FF00009CDE9000A40467F
:102ED800802100228023CDF8089002F020FDDBF845
:102EE8000820C00702F10102CBF8082040F03F811A
:102EF80048F24C50002AC2F2000080F8261040F236
:102F0800FF3180F82D500BF14405A0F80F104FF059
:102F18000801818181804FF4FA51A0F82E9080F841
:102F28002C90A0F827A0A0F824A00562A0F81BA068
:102F38008476A0F818A045618673856080F80690AD
:102F4800016040F0E8804FF0FF304021CBF80800E6
:102F58000020CDE900010021029040460122002313
:102F680002F0DDFC0C46DBF80810C00701F1010196
:102F7800CBF8081040F00E81002940F0CC804FF0CB
:102F8800FF304021CBF808000020CDE90001802166
:102F9800029040460122802302F0C1FCDBF80820A1
:102FA800C00702F10102CBF8082040F0FA80DBF8F4
:102FB8000000002840F008814FF0FF30002ACBF8CD
:102FC800000040F00781CBF8080040460E46039405
:102FD800AA4602F01DFDDBF808000130CBF8080016
:102FE800C0F0FE804FF0FF300DF11C09CBF808004F
:102FF80009F10300BFF35F8FCBF844808021BFF352
:103008005F8F06F02BFA4046812102F0DFFA404636
:10301800012102F0DBFA4046822102F0D7FA40464D
:10302800022102F0D3FA4046832102F0CFFA40464B
:10303800032102F0CBFA4046842102F0C7FA404649
:10304800042102F0C3FA4046852102F0BFFA404647
:10305800052102F0BBFA4046862102F0B7FA404645
:10306800062102F0B3FA4046872102F0AFFA404643
:10307800072102F0ABFA48F248054020C2F20005E9
:103088000399A8830024288205F12100A9744946E0
:103098008322A5F81F40AE77C5F818A0A5F81340FD
:1030A800C5F80CA02C8006F0DBF94FF0806040F2E8
:1030B8009E61C5E937803220C5F8D6000220C4F2E7
:1030C8000000C2F22001C5F8D2001020A5F8D000F7
:1030D80045F62400C2F2DD7085F8E440C5F8CC005E
:1030E8000920C5E92F1041F211710598C0F20001BD
:1030F800C5F8C440C5E92B44C5F8B440C5F8A44098
:10310800C0E90041DDF81080404604F0C2FD35B04A
:10311800BDE8000FF0BD40F2E840C2F2200004F024
:1031280069FF40F2443040F2C832C2F22000C2F2D5
:1031380020021F2104F09CFF40F2184040F2784220
:10314800C2F22000C2F22002202104F091FF40F2D6
:10315800EC508DF81C60C2F220000EE040F22850BE
:10316800C2F2200004F046FF8DF81C4001E08DF803
:103178001C1040F2DC50C2F2200040F2385300909C
:1031880040F2CC5007AAC2F22000C2F220030F215D
:1031980005F074F840F2BC508DF81C40C2F22000D3
:1031A80005E040F2AC508DF81C10C2F2200040F24D
:1031B8003853009040F2D83007AAC2F22000C2F279
:1031C8002003202105F05AF840F21850C2F22000DE
:1031D80004F010FF40F20850C2F2200004F00AFF89
:1031E80040F2F840C2F2200004F004FFF0B503AF4B
:1031F8002DE90007804604F021FD02E06168504691
:10320800884704F03BFDBFF35F8F0546D8F80060A0
:103218009EB3D6F8089004F0F1FCB168401A00217A
:10322800B0F1FF3FC8BF01210028317317D43069BE
:10323800C8F80000D6E90010096888470446307BC2
:1032480005F001008A4604F024FD002CD6D104F0D4
:10325800D5FCA0EB0900B0F1FF3FD2DC0AE005F095
:10326800010004F016FD04F0C9FCA0EB0900B0F160
:10327800FF3FC6DCBDE80007F0BD2846BDE80007F3
:10328800BDE8F04004F005BD0020704770470820F5
:10329800704770470A46D0E9000105F097BB0068FF
:1032A80005F011B880B56F4682B0002280290192DE
:1032B80007D28DF80410012201A900F057FA02B0D4
:1032C80080BD02220B4662F39F13B1F5006F05D251
:1032D8008DF80530C02343EA911125E0B1F5803F10
:1032E80011D28DF806308B0962F39F13E02242EA6F
:1032F80011318DF805308DF80410032201A900F072
:1033080035FA02B080BD8DF807308B0962F39F1340
:103318008DF806300B0B890C62F39F131E2262F3A3
:10332800DF0104228DF805308DF8041001A900F0A2
:103338001DFA02B080BD0A4640F26071C2F2200157
:1033480004F0C6BFD0B502AF537A012B07D1137A68
:10335800012B02BF90F82C3054889C4200D0D0BD7D
:103368009379212B04BF9288072A28D0088840F037
:1033780002000628F3D1C86809220A800068BFF352
:103388005F8F88B18A7C0C461146012202F08BFDC2
:10339800A0690068BFF35F8F00281FBFA17F0122CB
:1033A800BDE8D04002F07FBD40F2C86040F25072E4
:1033B800C2F22000C2F22002222104F02DFF0A8866
:1033C800042A18BFD0BDCA88002390F804C001247D
:1033D80090F805E0072AC1F8AC30837900684862A4
:1033E80008460C8081F8283081F829E081F82AC045
:1033F80028BF0722C1F8B020BDE8D04000F0F6BDD4
:10340800D0B502AF84B0537A012B07D1137A012BC0
:1034180002BF90F82C3054889C4201D004B0D0BD33
:103428009379002B51D0202B0ED0222B2CD112783F
:103438000B8802F0010480F82E40062BC2F34002EC
:1034480080F82F20EAD143E0D1F8B030812B5CD24C
:10345800062B19D991F8282091F8294091F82AE0EB
:10346800032A4B6AB1F800C003604FF0000380F8EC
:1034780004E028BF1A46052C827138BF2346BCF1E8
:10348800060F4371CAD123E0088840F002000628DD
:10349800C4D1C86809220A800068BFF35F8F48B3A7
:1034A8008A7C0C461146012202F0FDFCA0690068E6
:1034B800BFF35F8F00281FBFA17F012204B0BDE8C2
:1034C800D04018BF02F0EFBC14E008880628A5D148
:1034D80088690368BFF35F8F63B18A7F002000901B
:1034E80002A80C461946012302F0F5FA08202080AC
:1034F80004B0D0BD40F2C86040F25072C2F2200061
:10350800C2F22002222104F087FE40F2E07218463F
:10351800C2F22002802105F07EFAF0B503AF4DF823
:10352800048D84B090F82C60804600250220CDE9F7
:1035380000050C46084631460222022304F0BDF875
:10354800C1B2082963D120463146022202230095E0
:1035580004F007F9C1B2082959D140F2F0722046A7
:10356800C2F220022421032303F04CFFC1B2082930
:103578004DD140F2F3722046C2F2200224210223E8
:1035880003F040FFC1B2082941D10620A7F1160275
:1035980007F8156C242198F82D60032307F8160CFA
:1035A800204607F8146C03F02DFFC1B208292ED16C
:1035B8000120A7F1130227F8130C20462421032326
:1035C80007F8116C03F01EFFC1B208291FD108F1DA
:1035D8000801204600F0EAFBC1B2082917D10020F3
:1035E8003146009020460A22002304F0BAF8C1B2FE
:1035F80008290CD108F12001204600F0D7FBC1B200
:10360800082904D108F11401204600F0CFFB04B0CA
:103618005DF8048BF0BD0021C1858171082181808E
:103628004FF4FA5101607047F0B503AF2DE9000B74
:1036380048F29452D1F80080C2F200021268904514
:1036480003D90020BDE8000BF0BD4268F2B1006864
:10365800D1E90194061D02EB4200850003E00C3D10
:1036680006F10C06EDD030688442F8D156F8040C07
:103678004946224605F0F6FE0028F0D17168002080
:10368800884598BF0120BDE8000BF0BD0120BDE8CA
:10369800000BF0BDF0B503AF2DE9000F91B08046E7
:1036A80048F29450C2F20000D1F820900068814599
:1036B8001ED8D8F804008A46F0B1D8F8001000EBFC
:1036C8004000DAE909B60C1D850003E00C3D04F161
:1036D8000C040DD020688642F8D154F8040C5946E1
:1036E800324605F0BFFE0028F0D16068814505D953
:1036F80011B0BDE8000FF0BDDAE909B6002040F2CC
:10370800607105900420029040F2FC70C2F2200023
:1037180001AA01900320049007A8039040F6EF70D7
:10372800C0F20000C2F220010C9010A80B9040F6E5
:10373800E570C0F20000CDF800800A900EA809904C
:1037480045F68130C0F20000CDF8349008900DA8FD
:1037580007900AF12C0010906846CDE90EB604F0E7
:10376800B7FD11B0BDE8000FF0BD7047F0B503AF6D
:103778002DE9000F83B014460D46D0F8008004F000
:103788007DFAD8F80810002940F0F680D8F80C9097
:103798004FF0FF31C8F80810012209F21146BFF3B3
:1037A8005F8FD6E84F1FC6E8432F002BF9D1BFF330
:1037B8005F8F61B10124D8F808100131C8F80810EA
:1037C80004F067FA204603B0BDE8000FF0BDD9F851
:1037D8000014BFF35F8FD9F80424BFF35F8F9142C1
:1037E80003D2CB43D2180AD180E0B1F5806F04D15F
:1037F800012A7BD9013A002101E0C1F58062A24685
:10380800A242019238BF92460AEB01024944BFF333
:103818005F8FC9F80C240290084629465246009545
:1038280005F01EFE029809F20C4B99F81114BFF32B
:103838005F8F59B3D9F80014BFF35F8FBFF35F8F61
:103848005BE8002F4BE80023002BF9D1BFF35F8F13
:10385800B1F5806FD9F80834BFF35F8FD9F80C241D
:10386800BFF35F8F01D08A4203D39A4205D94FF440
:103878008061BFF35F8FC9F80814BFF35F8FC9F881
:1038880000240021BFF35F8F89F811140199A14228
:1038980020D20099A4EB0A020125BFF35F8F51449F
:1038A800D6E84F3FC6E8445F002CF9D1002BBFF3A0
:1038B8005F8F7FF47FAFD9F80034BFF35F8FD9F8FB
:1038C80004C4BFF35F8F634506D2DD431CEB050CD0
:1038D80014D10BE000246EE7B3F5806F0CD1BCF176
:1038E800010F03D9ACF1010C002307E001240021EA
:1038F800BFF35F8F31705EE7C3F5806C944538BFC6
:103908006246D018BFF35F8FC9F80C0409EB0300B7
:1039180005F0A6FD99F81104BFF35F8F48B3D9F8F5
:103928000014BFF35F8FBFF35F8F02985BE8002F2F
:103938004BE80023002BF9D1BFF35F8FB1F5806FFF
:10394800D9F80834BFF35F8FD9F80C24BFF35F8F21
:1039580001D08A4203D39A4205D94FF48061BFF35C
:103968005F8FC9F808140024BFF35F8FC9F80024DB
:10397800BDE7002402981EE740F68400C2F220004A
:1039880004F038FBD0B502AF45F204020C46D1E989
:103998000113C2F200024FF0000CD06082E80A1056
:1039A80040F69401C2F22001104604F053FA0028B0
:1039B80001BF216848F29452C2F200021160D0BDE2
:1039C800F0B503AF4DF8048D84B040F6AC0048F272
:1039D800445648F24805C2F220000390C2F200069D
:1039E80006F10800C2F2000502A902902846012249
:1039F80000F082FE04460021D5F8DC00029102A9FD
:103A080000F058F995F8E2203178022A35D179B9D1
:103A1800D5F8DC108046084601F052FF0021D5F8A1
:103A2800DC00029102A900F0F1F840460121317052
:103A3800F1690968BFF35F8F002900F0968044EAB6
:103A48000005002096F822200123009002A80124F6
:103A580002F035F96DB17068BFF35F8F00F58261D0
:103A6800D1E84F2FC1E8434F002BF9D1BFF35F8F47
:103A78008AB104B05DF8048BF0BD31B10021D5F8EE
:103A8800DC00029102A900F07BF80020307004B03D
:103A98005DF8048BF0BDD0F80054BFF35F8FD0F809
:103AA8000824BFF35F8FD0F80434BFF35F8F9342CD
:103AB80006D19D423EBFBFF35F8F0023C0F8043498
:103AC8009D4228BF2A469A4207D10020BFF35F8F44
:103AD800087004B05DF8048BF0BDB16AD6F80480B4
:103AE8000968BFF35F8F00293FD0D41A96F82E20BB
:103AF800034402A82546B4F5007F28BF4FF400759B
:103B0800009501F0E8FF9DF8080080B198F81004CE
:103B1800BFF35F8F0028ACD008F20440BFF35F8F7B
:103B280050E8001F40E80012002AF9D114E0039879
:103B380098F81014BFF35F8F00299AD008F2044157
:103B4800844238BF2046BFF35F8F51E8002F0244FC
:103B580041E80023002BF8D10020BFF35F8F88F8DD
:103B6800100404B05DF8048BF0BD40F2C86040F268
:103B78005072C2F22000C2F22002222104F04CFB53
:103B8800F0B503AF4DF804BD82B0044690F8340098
:103B980038B12068A0BB4FF0FF3009682060009161
:103BA80021E00E6804F087F8054604F077F82068ED
:103BB800E90713D120BB4FF0FF300096206004F1D5
:103BC80020000190684602F082FB206801302060E6
:103BD80004F066F802B05DF804BBF0BD80B94FF0A0
:103BE800FF300096206004F120000190684602F042
:103BF8006EFB20680130206002B05DF804BBF0BDA8
:103C080040F64010C2F2200004F0F4F9F0B503AF1A
:103C18004DF804BD82B0044690F8340058B12068CD
:103C2800002841D14FF0FF30224642F8200B0968A6
:103C3800CDE9001229E00E6804F03DF8054604F0CD
:103C48002DF82068E90718D170BB4FF0FF302146E6
:103C580041F8200B6846CDE9006102F0A4FB00287A
:103C68001CBF684602F01DFB20680130206004F08C
:103C780017F802B05DF804BBF0BDA8B94FF0FF30EB
:103C8800214641F8200BCDE90061684602F08BFB24
:103C980000281CBF684602F004FB20680130206041
:103CA80002B05DF804BBF0BD40F64010C2F220003F
:103CB80004F0A0F9F0B503AF4DF804BD82B0044696
:103CC80090F83400C8B12068002869D14FF0FF305F
:103CD800224642F8200B68460968CDE9001202F036
:103CE8002EFB002841D06D46284602F038FB2846B6
:103CF80002F025FB0028F7D135E00E6803F0DBFF62
:103D0800054603F0CBFF2068E90717D1002847D103
:103D18004FF0FF30214641F8200B6846CDE900619D
:103D280002F00DFB68B36D46284602F018FB2846E2
:103D380002F005FB0028F7D1012527E080BB4FF0F2
:103D4800FF30214641F8200B6846CDE9006102F0BA
:103D5800F6FA50B16D46284602F001FB284602F0FB
:103D6800EEFA0028F7D1012004E0684602F0A5FA2F
:103D780080F0010021680131216002B05DF804BBC8
:103D8800F0BD684602F099FA80F00105206801301C
:103D9800206003F085FF284602B05DF804BBF0BD43
:103DA80040F64010C2F2200004F024F9F0B503AF49
:103DB8004DF8048D8C46816889B3C36841698B428C
:103DC80049D20269D0F818E0D45C0134D4540EF119
:103DD80002038B421FD80EF58075A9422C4638BFC6
:103DE8000C469D423ED3E41A052C14D39CF8064099
:103DF800BCF80450D45413440EF107049CF808602E
:103E08008C429CF807805E704FEA15269D7083F8F7
:103E18000480DE7007D902205DF8048BF0BD07200E
:103E28005DF8048BF0BD8E4524D2072302F80E30CE
:103E38000EF101038B423FBF0521D1548461082054
:103E48003CBF5DF8048BF0BD40F6D8121846C2F2AC
:103E5800200204F0F4F940F6E8121846C2F22002F3
:103E680004F0EDF940F6B8121846C2F220022146D5
:103E780004F0F0FD40F6C8127046C2F2200204F0C9
:103E8800DEF9D0B502AF84B00188062911D1816965
:103E98000968BFF35F8F79B10023827F009302AB7B
:103EA80004461846012301F016FE0820208004B0BD
:103EB800D0BD072004B0D0BD40F2C86040F25072B7
:103EC800C2F22000C2F22002222104F0A5F9F0B5C6
:103ED80003AF4DF804BD86B0044608880D46411E60
:103EE800032927D3052825D0072832D1D5F8AC00D7
:103EF800D5F8063069898128D5F80220ADF80C106C
:103F0800CDE901236BD2E9680968BFF35F8F002907
:103F18005AD0C0F18003AA7C2844009300F12403FE
:103F280004A801F0CCFE9DF81000C0B39DF8110064
:103F3800D8B92EE0E8680168BFF35F8F002943D045
:103F4800AA7C04A800260123009601F0B8FE2E8062
:103F58001FE0E8680168BFF35F8FA9B30020AA7C5F
:103F6800009004A8012301F0AAFEE868092129802D
:103F78000068BFF35F8F38B3A97C012201F093FF7B
:103F8800A8690068BFF35F8FF0B1A97F012201F033
:103F98008AFF0420607206B05DF804BBF0BD059886
:103FA800D5E92B120844C5F8AC009042F1D3DDE9FD
:103FB80001010623BDF80C202B802060616022815E
:103FC80006B05DF804BBF0BD40F2C86040F2507224
:103FD800C2F22000C2F22002222104F01DF940F6AC
:103FE80060228021C2F2200204F0F6FCB0B502AFD4
:103FF80084B00446D0E92951D0F8AC00D4F8B0C058
:10400800002DA38BAE46ACEB000208BF04F1240ED2
:104018009A4238BF1346002D03EB000C08BF8021DD
:104028009C4525D38C452AD8A1690968BFF35F8FC1
:1040380061B3A27F00930EEB000302A801F04BFDD1
:104048009DF8080008B104B0B0BD0398D4E92B125C
:104058000144C4F8AC109142F5D30021A28BC4F8F6
:10406800A4100321904208BF0221218004B0B0BDF2
:1040780040F680226146C2F2200204F0EBFC40F6D2
:1040880080226046C2F2200204F0C5FC40F2C860FB
:1040980040F25072C2F22000C2F22002222104F043
:1040A800BBF8D0B502AF0446008840F002000628ED
:1040B80015D1E068092121800068BFF35F8F80B1C6
:1040C800A17C012201F0EFFEA0690068BFF35F8FB9
:1040D80038B1A17F012201F0E6FE0820D0BD0720FB
:1040E800D0BD40F2C86040F25072C2F22000C2F265
:1040F8002002222104F090F8F0B503AF2DE9000763
:1041080082B01D469146884682468AB108EBC906A8
:104118004446D4E900012A464B6A51469847BAF802
:10412800000040F00200062835D10834B442F0D12E
:10413800687AA0B3BAF8001041F0020006282AD124
:10414800DAF80C000921AAF800100068BFF35F8FA5
:10415800B0B19AF81210012201F0A5FEDAF81800A1
:104168000068BFF35F8F00281FBF9AF81E10012256
:1041780002B0BDE800071CBFBDE8F04001F093BEE7
:1041880040F2C86040F25072C2F22000C2F220022F
:10419800222104F041F802B0BDE80007F0BD297AF9
:1041A800A87949B3012912D0022908BF0028C1D132
:1041B8006988DAF8DC0001F08F0101F006FFBAF82F
:1041C80000100429B8D1AAF82400002039E080B3EF
:1041D8000A28AFD1BAF800100429ADD1BAF80610F0
:1041E800002001228AF82400AAF80020002918BF1C
:1041F8000121CAE92B0153E0D0B306282CD00828A6
:1042080098D1BAF80010042996D1BAF806100122FC
:104218009AF8E2300020AAF80020002918BF0121EE
:10422800CAE92B01981EB0FA80F040098AF82400E8
:1042380036E0BAF8001004297FF47EAF0020AAF80F
:104248002400BAF806200121AAF80010022A28BF83
:104258000222CAE92B0223E069884A462888534685
:10426800CDE900010AF1B400414600F0D9F861E750
:10427800BAF8001004297FF45FAF9AF8E000012330
:104288009AF8E1100022BAF80660AAF8003041EA6C
:104298004000022E28BF0226CAE92B26AAF82400CD
:1042A8005046FFF7A3FE45E7F0B503AF4DF8048D80
:1042B80084B01D4680468AB101EBC2040E46D6E999
:1042C80000012A460B6A41469847B8F8000040F0BA
:1042D800020006285FD10836A642F0D1687A78B382
:1042E80067E040F00200062855D1D8F80C000921F3
:1042F800A8F800100068BFF35F8FB0B198F81210EB
:10430800012201F0D0FDD8F818000068BFF35F8FD4
:1043180000281FBF98F81E10012204B05DF8048B16
:104328001CBFBDE8F04001F0BEBD40F2C86040F2DD
:104338005072C2F22000C2F22002222103F06CFF68
:104348002A7AA879298852B3012A0AD0022A30D1B8
:10435800012837D0032808BF00292AD169880122FB
:1043680034E00B2808BF002923D1B8F8000006283C
:10437800B7D1D8F818000168BFF35F8F0029D4D0EF
:1043880098F81E200020009002A8012301F0A3FB4A
:104398000820A8F8000004B05DF8048BF0BD0138CF
:1043A800082806D8DFE800F00805220519050505E4
:1043B8002800B8F8000094E70129FAD1002088F80D
:1043C800E00024E00029F4D169880022D8F8DC0054
:1043D80001F08F0101F067FD19E0481E80B27F28C7
:1043E800E7D2D8F8DC0001F0D0FA0DE00129E0D1DD
:1043F800012088F8E0000AE019B10129D9D102208A
:1044080003E098F8E20030B1012088F8E200404665
:10441800FFF737FDCDE74046FFF743FEC9E7D4D4A1
:10442800F0B503AF2DE900078CB0BE680D46014614
:1044380098464FF0FF33B0B203EB10200E2800F27D
:10444800F580DFE810F00F0052002900F300F300B8
:10445800F300F300F300F300F300F300F300F300BC
:10446800F3008500B8F80000042840F09980002087
:1044780080220A908DF82C000690049004A80992D6
:1044880008F12402B8F80640089203F009F8C0B20F
:10449800082840F08580BFE0F3B2032B00F2958036
:1044A80004220846DFE803F002838086B8F800009B
:1044B800042875D1002080210A9001AA8DF82C00CB
:1044C80002230690049040F20940099108F1240162
:1044D800ADF8040004A808910321B8F8064002F0DA
:1044E80091FFC0B208285BD196E0B8F80000042814
:1044F80056D1002014460A9080228DF82C00069090
:10450800049004A8099208F12402B8F806900892C9
:1045180003F05FF8C0B2082842D18CB105EBC4069D
:1045280004AC4FF0000AD5E90001CA68214690475B
:10453800C0B2082834D10835CDF818A0B542F2D158
:1045480004A803F0AAF80A98802800F29C80C2E028
:10455800B8F80000042823D1002080210A901446CE
:104568008DF82C0006900490019004A8039001A8EF
:10457800099108F12401B8F80690089103F035FA7A
:10458800C0B208280CD1E60001AC002E75D0F5E8C1
:1045980002010A6921469047083EC0B20828F4D0B3
:1045A8000CB0BDE80007F0BD01F108000C2200685E
:1045B80028B93BE001F1100014220068B0B38A5812
:1045C800B8F800100429EBD111E0D7F80C90D4000A
:1045D80064B3F5E802014A464B6931469847083CFE
:1045E8000028F5D00A46B8F800100429D8D180234D
:1045F8000021099308F12403089304AB0A918DF86C
:104608002C100691049101461846B8F8064003F0AC
:104618002FF9C0B20828C3D10A98802833D80021BE
:10462800A04238BF0446C8E92B145AE0B8F8000085
:1046380040F002000628B3D1D8F80C000921A8F8E8
:1046480000100068BFF35F8FD0B398F812100122F2
:1046580001F029FCD8F818000068BFF35F8F002824
:104668001FBF98F81E1001220CB0BDE800071CBF40
:10467800BDE8F04001F017BC22E001A803F085FA7C
:104688000A98802827D9D8F80C000921A8F8001022
:104698000068BFF35F8F98B198F81210012201F0FB
:1046A80002FCD8F818000068BFF35F8F40B198F893
:1046B8001E10012201F0F7FB0CB0BDE80007F0BDA9
:1046C80040F2C86040F25072C2F22000C2F22002EA
:1046D800222103F0A1FD0021484538BF8146C8E9E1
:1046E8002B190120A8F800004046FFF77FFC0CB00A
:1046F800BDE80007F0BDD4D4F0B503AF2DE9000F35
:104708008FB00D46D0F8DC10064607A8144601F015
:104718009DFC96F8E200BDF81C10032813D100296F
:104728004FF0000018BF032903D10FB0BDE8000FF8
:10473800F0BD96F8E300042800F0A181042286F871
:10474800E20086F8E320DFE801F01E032D231E00B7
:10475800D6F8DC0001F090F900204FF4806186F86B
:10476800E40086F8E000A6F8E21030805CB105EBC2
:10477800C404083D55F8080F69688969884705F138
:104788000800A042F6D100200FB0BDE8000FF0BD30
:10479800032186F8E30086F8E21000200FB0BDE898
:1047A800000FF0BDBDF81E00BDF82010BDF8222096
:1047B8000490084340EA020A069105925FEACA702B
:1047C800039400F0DD800698C00748D0308801388F
:1047D80007282CD8DFE800F00415082B2B2B2B28F2
:1047E8003046FFF703FC3AE0F0680068BFF35F8FDC
:1047F800002800F04F81B17C002201F054FB052015
:1048080013E0B0690168BFF35F8F002900F04281AF
:104818000020B27F00900CA8012301F05CF99DF8FC
:104828003000E0B9032000E00020308017E0F06895
:10483800092131800068BFF35F8F002800F02A81CA
:10484800B17C012201F02FFBB0690068BFF35F8FD4
:10485800002800F01F81B17F012201F024FB059898
:10486800C0070AD10498C00700F0888009A831461B
:10487800FFF72DFB9DF82D006CE0F0680168BFF391
:104888005F8F002900F0068106F124048020B27CA5
:1048980000900CA8234601F012FA9DF8300018B1D8
:1048A8009DF8310060B969E00D9A812A80F0FD8099
:1048B8000CA8214602F088FD9DF83900042818D17B
:1048C800F068092131800068BFF35F8F002800F08D
:1048D800E180B17C012201F0E6FAB0690068BFF31B
:1048E8005F8F002800F0D680B17F012201F0DBFA4B
:1048F80044E00C980290F068BDF838809DF8379035
:104908009DF836B0BDF834400068BFF35F8F0028CB
:1049180000F0C080B17C002201F0C5FAB9F1000FA7
:1049280000F08A8002990420A6F80A8086F8099087
:1049380086F808B0F480C6F802103080ADF82C80F4
:104948008DF82B908DF82AB0ADF8284009914FEAE0
:104958001820039C042811D09DF82B0040B1802812
:104968000CD109AB304629462246FFF7C5FB05E0C6
:1049780009AB304629462246FFF796FC2AF0010A81
:10498800BAF1000F029542D0039900294FD002983E
:104998000225012600EBC109A0F108080598444644
:1049A80005420AD054F8080F61688A6A3146904770
:1049B80004F108004845F5D10DE0049805420AD0F5
:1049C800444654F8080F6168CA6A3146904704F1B2
:1049D80008004845F5D1069805420DD066F07F04D9
:1049E800C3465BF8080FDBF804100A6B21469047B2
:1049F8000BF108004845F4D12AEA050A5FEA0A40A3
:104A080005D0701C0F2E4FEA45050646C6D30399FC
:104A180069B1029800EBC104A0F1080555F8080F28
:104A28006968C969884705F10800A042F6D10120E4
:104A38000FB0BDE8000FF0BD8CB1802C3FF640AF41
:104A48000020A6F80A80C6E92B0470720298C6F8FE
:104A58000200072086F808B0F48030808EE7062030
:104A6800ADF82C8030800020C6F8B0008DF82B00FF
:104A7800ADF8280002988DF82AB0099067E740F64B
:104A8800902040F61032C2F22000C2F220021C210F
:104A980003F0EEFA40F2C86040F25072C2F2200011
:104AA800C2F22002222103F0B7FB40F67023104621
:104AB800C2F2200380211A4603F0ADFFF0B503AF20
:104AC8002DE9000F81B048F27C514FF0010CC2F281
:104AD8000001BFF35F8FD1E84F2FC1E843CF002B10
:104AE800F9D1BFF35F8F002A01BF48F20001C4F279
:104AF8000D010022C4F22F0201BF02F5542C02F569
:104B0800502E02F54C28A1F5004401BFA1F500354F
:104B180001F5F61601F5F413C0E9683601BFC0E9DE
:104B28006A54C0E96C8EC0E96EC101F5005E01BF30
:104B380001F5805640F2040CC4F22E0C01F5021463
:104B480001BF0CF5FE7501F5004300F5C07888E853
:104B5800380001BF00F5C67383E81210C0E9666E1D
:104B6800A1F5404C01BF01F5881E01F5861801F535
:104B7800841401F5821301BF01F5003602F51025F2
:104B8800C0E9585600F5B47501BF85E81A41C0F868
:104B98007CC1A1F5804C02F51C2E01BF02F5182836
:104BA80002F51424A1F5E03301F5282601BF01F52B
:104BB800EE15C0E9505600F5A47585E8184101BF07
:104BC800C0E9562C02F5782802F5742902F57024FC
:104BD80001BF02F56C234CF2000CC4F2070C0CF573
:104BE800004601BF01F5E03E01F58E15C0E9485EBB
:104BF800C0E94A6101BF00F5987585E81802C0F858
:104C08003C8101F5482801BF01F5442901F5402AF6
:104C180001F53C2B01F5382301BF01F5342401F5DA
:104C2800302501F52C26C0E9406501BFC0E94243A3
:104C3800C0E944BAC0E9469802F5302801BF02F538
:104C48002C2902F5282A02F5242B02F5861301BF28
:104C580002F5841402F5821502F58016C0E938655C
:104C680001BFC0E93A43C0E93CBAC0E93E9801F542
:104C7800F01801BF01F59219A1F5503AA1F5403B92
:104C8800A1F5303301BF01F5901401F58C1501F53C
:104C98008A16C0E9306501BFC0E93243C0E934BAB9
:104CA800C0E9369844F2000B01BFC4F2002B0BF5A3
:104CB80000490BF5804A4FF0844801BF01F56C2686
:104CC80001F5682401F56425A1F5C03301BFC0E9E9
:104CD800283500F1A80383E85009C0E92EA901BFCF
:104CE80001F5602801F5E61901F5E81AA1F5203665
:104CF80001BF0BF5E03301F5582401F55425C0E94F
:104D0800205401BF00F1880484E84804C0E9259EC6
:104D1800C0F89C8001BFA1F5103E01F5FE1801F511
:104D2800001902F5642A01BF02F5602302F55C262A
:104D380002F5582501F5A03401BF00F1600B8BE89E
:104D48007000C0E91B3AC0E91D9801BFC0F87CE0BB
:104D580001F5803E02F540480CF5804901BF01F598
:104D6800804A01F5F21344F20806C4F2090601BFAD
:104D780006F1100506F10804C0E91064C0E91253F1
:104D880001BFC0E914A9C0E9168E0CF5C03E01F5B3
:104D9800103801BF01F5801901F57C2401F578234D
:104DA80002F57C2601BF02F54825C0E9085600F146
:104DB800280585E8180201BFC0E90D81C0F83CE06C
:104DC80002F5442E02F50C2601BF01F5D21501F5B6
:104DD800242402F54022A1F5803301BFA1F5A031BA
:104DE800C0E90013C0E9022C103001BF80E8704010
:104DF80001B0BDE8000FF0BD40F6203040F6B832F3
:104E0800C2F22000C2F22002352103F005FA48F26E
:104E180048110068C4F21F0105230A6863F30302FE
:104E28000A60416841F00801416003217047F0B50C
:104E380003AF4DF804BD0E4600211546044600F0A8
:104E48007FFA284640F2E24100F081FA304600F04D
:104E58002EFA40F258452146C2F220050022284683
:104E6800366800F04AFAA81C2146002200F045FAEC
:104E7800281D2146002200F040FAA81D21460022E4
:104E880000F03BFA05F108002146002200F035FA4F
:104E980005F10A002146002200F02FFA05F10C0066
:104EA8002146002200F029FA05F10E0021460022D1
:104EB80000F023FA05F110002146002200F01DFA47
:104EC80005F112002146002200F017FA05F114003E
:104ED8002146002200F011FA05F1160021460022B1
:104EE80000F00BFA05F118002146002200F005FA3F
:104EF80005F11A002146002200F0FFF905F11C0017
:104F08002146002200F0F9F905F11E002146002291
:104F180000F0F3F920684169890107D5416921F05A
:104F280000714161204600F0FCF9206841690122C6
:104F380021F0605141612068816962F30D3181611E
:104F4800204600F0EEF92068416941F000714161A6
:104F5800204600F0E6F94FF480503060642030605D
:104F68004FF4005070603068002809D43068002879
:104F78005CBF3068002803D43068B0F1FF3FF2DC32
:104F880020680122016962F302010161204600F0F4
:104F9800C8F92068416921F4E0514161204600F0D8
:104FA800C0F92068816941F4402181612068416924
:104FB80021F000714161204600F0B3F9206840F605
:104FC800D435C2F220050022416941F440714161A3
:104FD8002846214600F091F9A81C2146002200F03D
:104FE8008CF9281D2146002200F087F9A81D2146CA
:104FF800002200F082F92068022640F6E4350022FB
:10500800C2F22005816B66F3D84181632068816B09
:1050180041F4802181632846214600F06EF9A81CDE
:105028002146002200F069F9281D2146002200F0DF
:1050380064F9A81D2146002200F05FF9206840F6B7
:10504800C8350322C2F22005816966F30511816122
:105058002068816962F39C618161284621460022AB
:1050680000F04BF9A81C2146002200F046F9281D43
:105078002146002200F041F9A81D2146002200F037
:105088003CF905F108002146002200F036F92068B5
:10509800172240F24065C2F22005C16962F305019A
:1050A800C16120680022C16941F04001C161284600
:1050B800214600F022F9A81C2146002200F01DF923
:1050C800281D2146002200F018F9A81D21460022BB
:1050D80000F013F905F108002146002200F00DF94F
:1050E80005F10A002146002200F007F905F10C003D
:1050F8002146002200F001F905F10E0021460022A8
:1051080000F0FBF8206840F6EC35C2F220050322D7
:10511800416A41F0400141622068416A66F3050135
:1051280041622846214600F0E8F8A81C21460322DF
:1051380000F0E3F8281D2146032200F0DEF8A81D40
:105148002146032200F0D9F805F108002146032280
:1051580000F0D3F805F10A002146032200F0CDF84B
:1051680005F10C002146032200F0C7F805F10E00F6
:105178002146032200F0C1F805F110002146032260
:1051880000F0BBF805F112002146032200F0B5F843
:1051980005F114002146032200F0AFF805F11600CE
:1051A8002146032200F0A9F805F118002146032240
:1051B80000F0A3F805F11A002146032200F09DF83B
:1051C80005F11C002146032200F097F805F11E00A6
:1051D8002146032200F091F805F120002146032220
:1051E80000F08BF805F122002146032200F085F833
:1051F80005F124002146032200F07FF805F126007E
:105208002146032200F079F805F1280021460322FF
:1052180000F073F805F12A002146032200F06DF82A
:1052280005F12C002146032200F067F805F12E0055
:105238002146032200F061F805F1300021460322DF
:1052480000F05BF805F132002146032200F055F822
:1052580005F134002146032200F04FF805F136002D
:105268002146032200F049F805F1380021460322BF
:1052780000F043F805F13A002146032200F03DF81A
:1052880005F13C002146032200F037F805F13E0005
:105298002146032200F031F805F14000214603229F
:1052A8005DF804BBBDE8F04000F027B8FEE780B524
:1052B8006F4600684FF400514FF480524FF0400C95
:1052C8004FF4803E00E0416103699B04FBD503690C
:1052D800DB0401D44261F7E70369B3F1FF3FF3DC74
:1052E8000369DB0306D403695B0648BF80BDC0F8C9
:1052F80014C0E9E7C0F818E0E6E7037840780968E1
:1053080003F03F0301EB83014000C0B20323D1F84F
:1053180068C0834002FA00F02CEA03031843886649
:105328007047006803E0816C002908BF7047816CF2
:1053380029B1816C00291CBF816C0029F3D1704709
:105348000068426D22F0030211434165704740F244
:105358002762914238BF0A46B2F5487F98BF4FF49A
:105368004872A2F5487144F2AF7300688AB25A4392
:10537800C368A1EB124189B2490801EB124123F03D
:105388001F0242EA1111C16004E00168B1F1FF3F58
:10539800D8BF70470168002905D4016800295CBF9F
:1053A80001680029F1D57047F0B503AF2DE9000F6A
:1053B800ADF5057D0DF1040980464FF400714846AE
:1053C80004F052F844F2B82A0DF5017BC2F2000A43
:1053D80000246FF00F055646DAE96001CDE9830134
:1053E80058468294819602F0E3FB0DF5017C09EBA7
:1053F800050010350C369CE80E1001341030B5F558
:10540800F87F80E80E10E7D101A940464FF40072FA
:1054180004F022F80DF5057DBDE8000FF0BDF0B5EC
:1054280003AF2DE9000B44F2E043C4F21F031B68ED
:10543800C3F30B2E4FEA135CE6451FBF0124C1F8E6
:105448008841DBB24FF47A781FBF03FB08F9ACEB55
:105458000E04D1F8906149F658651FBFCFF6FF7565
:1054680013FB085393FBF4F3C2EA06021FBFC1F80B
:10547800902180E80A40C0F80C90BDE8000B18BFE6
:10548800F0BD40F6A040C2F2200003F06EFDB0B5BA
:1054980002AF054608680C4640F48030086008688A
:1054A80040F040000860222063F31340486040F257
:1054B8006850C0F20C10086240F29510C0F2B200B9
:1054C8004862DC20C0F27A0088627D20C0F2580071
:1054D800C8624B20C0F2400008632F20C0F22E00A3
:1054E8004863886346F62010C86040F6A3108860B9
:1054F8004FF4C840C8614FF4C860886140F6C410D2
:10550800C0F6804008613F204861086820F0030029
:1055180010430860086820F480300860C86F402194
:10552800281D03F0A1FF10202C606864B0BDF0B501
:1055380003AF4DF804BD044690F834000D4608B199
:10554800206829E002F0B7FB064602F0A7FB2068B6
:10555800F10721D1002801BF206A4FF0FF312160F7
:10556800D0F8481101BF21F0410165F3000165F34E
:105578008611C0F8481101BF2068013020605DF82D
:1055880004BB04BFBDE8F04002F08ABB40F62050DF
:10559800C2F2200002F02EFD002801BF206A4FF061
:1055A800FF312160D0F8481101BF21F0410165F3B6
:1055B800000165F38611C0F8481101BF2068013069
:1055C80020605DF804BB08BFF0BDDFE7F0B503AFAE
:1055D8004DF804BD044690F834000D4608B1206823
:1055E80035E002F068FB064602F058FB2068F10738
:1055F8002DD1002855D14FF0FF3069002060E8B266
:1056080041EAD011A268C8B2824217D9E26901F012
:105618000F011268BFF35F8F92B222FA01F1C90736
:105628000CD0A169814242D9616900EB800001EB8D
:1056380080008068016821F0005101602068013015
:1056480020605DF804BBBDE8F04002F029BB40BB18
:105658004FF0FF3069002060E8B241EAD011A2683B
:10566800C8B2824217D9E26901F00F011268BFF38C
:105678005F8F92B222FA01F1C9070CD0A169814269
:1056880015D9616900EB800001EB80008068016832
:1056980021F0005101602068013020605DF804BBF2
:1056A800F0BD40F62050C2F2200002F0A3FC40F604
:1056B8005472C2F2200202F0C2FDF0B503AF2DE928
:1056C800000782B006683168002940F0EC8000F1DC
:1056D800040A04694FF0FF3230469AE8220440F881
:1056E800042B0A7862B34C78B268610041EAD4119D
:1056F800CBB29A4211D9F26901F00F011268BFF3D7
:105708005F8F92B222FA01F1C90706D0B1699942B6
:1057180040F2CF8001200521BEE0F16A2B88994232
:10572800C0F0AE80CA1AB16A8A42C0F0A980F2629B
:105738009AF800100091214601F027FD2146AAE0C1
:105748002178B26841F001094FEA490343EAD111CF
:10575800CBB29A4240F28C80F26901F00F011268D4
:10576800BFF35F8F92B222FA01F1C90700F080807F
:10577800B169994240F29D802178B26841F00209EE
:105788004FEA490343EAD111CBB29A4270D9F26980
:1057980001F00F011268BFF35F8F92B222FA01F194
:1057A800C90765D0B169994240F283802178B2680F
:1057B80041F003094FEA490343EAD111CBB29A42B7
:1057C80056D9F26901F00F011268BFF35F8F92B2E8
:1057D80022FA01F1C9074BD0B169994269D92178F8
:1057E800B26841F004094FEA490343EAD111CBB248
:1057F8009A423DD9F26901F00F011268BFF35F8F39
:1058080092B222FA01F1C90732D0B169994250D94E
:105818002178B26841F005094FEA490343EAD111FA
:10582800CBB29A4224D9F26901F00F011268BFF392
:105838005F8F92B222FA01F1C90719D0B169994272
:1058480037D92178804641F00609494600F05FFFC4
:105858000146404661B1207840F007094046494674
:1058680000F055FF0146404611B10120032113E025
:10587800F16A2B88994203D3CA1AB16A8A4202D2C2
:105888000120042108E0F2629AF8001000914946CC
:1058980001F07BFC4946002032680132326002B0D8
:1058A800BDE80007F0BD40F62050C2F2200002F02B
:1058B800A1FB40F644721846C2F2200202F0BFFC77
:1058C800B0B502AF044690F8340008B1206815E07E
:1058D80002F0F1F9054602F0E1F92068E9070DD177
:1058E800B8B94FF0FF302060201D01F0D5FC2068CA
:1058F80001302060BDE8B04002F0D2B948B94FF09D
:10590800FF302060201D01F0C7FC206801302060B6
:10591800B0BD40F62050C2F2200002F06BFBB0B5DB
:1059280002AF88B007F8221CA7F122010791A7F15E
:105938001F010691A7F11E01059190F83410D7E9CF
:10594800024507F8212CA7F1210207F8203C07F8A7
:105958001F4C27F81E5CCDE9030221B103A8FFF70D
:10596800ACFE08B0B0BD02F0A6F9044602F096F904
:1059780003A8FFF7A2FEE20705D104460D4602F090
:105988008FF92946204608B0B0BDF0B503AF4DF8F1
:1059980004BD044690F834000D4608B1206823E0A1
:1059A80002F089F9064602F079F92068F1071BD15F
:1059B800002801BF206A4FF0FF312160690601BF4E
:1059C80001F18071C0F854112068013001BF2060D6
:1059D8005DF804BBBDE8F04002F062B940F6205023
:1059E800C2F2200002F006FB002801BF206A4FF037
:1059F800FF312160690601BF01F18071C0F85411BF
:105A08002068013002BF20605DF804BBF0BDE5E707
:105A1800B0B502AF044690F8340008B120681DE024
:105A280002F049F9054602F039F92068E90715D16D
:105A3800002801BF206AD0F840110022226001BF6F
:105A480041F00101C0F84011BDE8B04002F028B9AA
:105A580040F62050C2F2200002F0CCFA002801BF24
:105A6800206AD0F840110022226002BF41F00101F3
:105A7800C0F84011B0BDEBE7B0B502AF044690F8EE
:105A8800340008B1206815E002F015F9054602F067
:105A980005F92068E9070DD1B8B94FF0FF3020604B
:105AA800201D00F0AFFD206801302060BDE8B04047
:105AB80002F0F6B848B94FF0FF302060201D00F022
:105AC800A1FD206801302060B0BD40F62050C2F230
:105AD800200002F08FFAF0B503AF2DE9000784B07B
:105AE800814691F83400D7F8088016460D46E0B391
:105AF8002868002840F0D7804FF0FF3071002860F8
:105B0800F0B241EAD011AA68C8B2824220D9EA6943
:105B180001F00F011268BFF35F8F92B222FA01F110
:105B2800C90715D0A969814240F2C380291D7006B2
:105B380000F0928002A81A464346009601F053F9F5
:105B48009DF80800002800F091809DF8090000E009
:105B5800052089F801000120296889F80000481CFF
:105B6800286004B0BDE80007F0BD9A4602F0A3F82B
:105B7800044602F093F82868E1072CD1002840F089
:105B880092804FF0FF3071002860F0B241EAD011E6
:105B9800AA68C8B2824249D9EB6901F00F011B68B3
:105BA800BFF35F8F9BB223FA01F1C9073ED0A96901
:105BB80081427ED9291D524670065CD002A8434610
:105BC800009601F010F99DF8080000285BD09DF8B8
:105BD800096001242CE0002865D14FF0FF307100E6
:105BE8002860F0B241EAD011AA68C8B2824225D929
:105BF800EB6901F00F011B68BFF35F8F9BB223FABB
:105C080001F1C9071AD0A969814252D9291D524602
:105C180070063CD002A84346009601F0E4F89DF8CF
:105C28000800E0B39DF80960012409E00124052675
:105C380028680130286002F033F804E001240526C2
:105C4800286801302860F0B244EA0020C9E9000859
:105C580004B0BDE80007F0BD02A81A46434600F0AC
:105C6800B8FE9DF8080000287FF46FAF0398C9F8C4
:105C78000400002070E702A8434600F0AAFE9DF841
:105C880008000028A3D1DDF80C800024D0E702A882
:105C9800434600F09EFE9DF808000028C2D1DDF8BA
:105CA8000C800024CCE740F62050C2F2200002F01D
:105CB800A1F940F64472C2F2200202F0C0FAF0B52F
:105CC80003AF2DE9000784B0814691F83400D7F876
:105CD800088016460D46E0B32868002840F0D780B3
:105CE8004FF0FF3071002860F0B241EAD011AA6885
:105CF800C8B2824220D9EA6901F00F011268BFF3E5
:105D08005F8F92B222FA01F1C90715D0A9698142C1
:105D180040F2C380291D700600F0928002A81A463E
:105D28004346009600F07FFF9DF80800002800F029
:105D380091809DF8090000E0052089F80100012004
:105D4800296889F80000481C286004B0BDE80007ED
:105D5800F0BD9A4601F0AFFF044601F09FFF2868A6
:105D6800E1072CD1002840F092804FF0FF307100FD
:105D78002860F0B241EAD011AA68C8B2824249D973
:105D8800EB6901F00F011B68BFF35F8F9BB223FA29
:105D980001F1C9073ED0A96981427ED9291D524621
:105DA80070065CD002A84346009600F03CFF9DF8C0
:105DB800080000285BD09DF8096001242CE0002829
:105DC80065D14FF0FF3071002860F0B241EAD01180
:105DD800AA68C8B2824225D9EB6901F00F011B6895
:105DE800BFF35F8F9BB223FA01F1C9071AD0A969E3
:105DF800814252D9291D524670063CD002A843461A
:105E0800009600F010FF9DF80800E0B39DF80960C7
:105E1800012409E00124052628680130286001F0E2
:105E28003FFF04E001240526286801302860F0B20D
:105E380044EA0020C9E9000804B0BDE80007F0BD45
:105E480002A81A46434600F085FC9DF80800002881
:105E58007FF46FAF0398C9F80400002070E702A828
:105E6800434600F077FC9DF808000028A3D1DDF830
:105E78000C800024D0E702A8434600F06BFC9DF894
:105E880008000028C2D1DDF80C800024CCE740F6D9
:105E98002050C2F2200002F0ADF840F64472C2F27F
:105EA800200202F0CCF9F0B503AF4DF8048D04469A
:105EB80090F834000D46F0B12068002872D14FF0F8
:105EC800FF3069002060E8B241EAD011A368C8B287
:105ED800834261D9E36901F00F011B68BFF35F8F4B
:105EE8009BB223FA01F1C90756D0A16981425FD953
:105EF800201D11464DE0904601F0DDFE064601F0FA
:105F0800CDFE2068F10728D100284BD14FF0FF3093
:105F18006A002060E8B242EAD012A168D0B2814299
:105F280012D9E36902F00F021B68BFF35F8F9BB2BF
:105F380023FA02F2D20707D0A36983423ED9201D73
:105F480041462A4601F039F82068013020605DF8A2
:105F5800048BBDE8F04001F0A3BE18BB4FF0FF3042
:105F68006A002060E8B242EAD012A168D0B2814249
:105F780012D9E36902F00F021B68BFF35F8F9BB26F
:105F880023FA02F2D20707D0A369834216D9414601
:105F9800201D2A4601F011F82068013020605DF8C4
:105FA800048BF0BD40F62050C2F2200002F022F827
:105FB80040F64472C2F2200202F041F940F64472FF
:105FC8001946C2F2200202F03AF9F0B503AF4DF8D3
:105FD80004BD044690F8340028B120686FF00042F0
:105FE800904222D32CE00E4601F065FE054601F0F2
:105FF80055FE2068E90713D16FF0004188421FD28F
:1060080001302060201D314601F064F80546206803
:106018000138206001F044FE28465DF804BBF0BD5D
:106028006FF0004188420BD2314601302060201DBC
:1060380001F050F82168013921605DF804BBF0BD1A
:1060480040F61050C2F2200001F0EEFFF0B503AFA9
:106058002DE900070C4691F8341079B12168002920
:1060680040F09580216A4FF0FF322260D1F8442138
:1060780053061AD4D2072BD100213DE0064601F081
:106088001AFE054601F00AFE2068E90712D1002829
:106098007DD1206A4FF0FF312160D0F844114A06C3
:1060A80031D4C90739D1002531E04022C1F8442153
:1060B800012121E000286AD1206A4FF0FF312160D8
:1060C800D0F844114A0623D4C90740D1002523E05B
:1060D8000122C1F84421D1F8BC21D1F8BC31D2B297
:1060E800C3F3074322861E04C1F8BC618380428043
:1060F800D1F8AC11C180022122680180501C2060B7
:10610800BDE80007F0BD40210125C0F8441118E0A2
:1061180040210125C0F844112DE001210225C0F8D5
:106128004411D0F8BC11D0F8BC215FFA81F8C2F351
:106138000749A4F830804FEA0941C0F8BC11D0F8EB
:10614800ACA120680130206001F0AAFD16E0012111
:106158000225C0F84411D0F8BC11D0F8BC215FFA70
:1061680081F8C2F30749A4F830804FEA0941C0F822
:10617800BC11D0F8ACA1206801302060C9EA0A40FF
:10618800706045EA08403060BDE80007F0BD40F6A1
:106198002050C2F2200001F02DFFF0B503AF4DF8FA
:1061A800048D82B005468846EE680121006831609A
:1061B8007168F26162F31E417160CAB1B06040F665
:1061C800FF71B068884300F58050F060F0686FF3A5
:1061D8000B0000F58050306130696FF30B0000F55B
:1061E8008050706170696FF30B0000F5805004E017
:1061F8000020B060F06030617061B061802170682B
:1062080040F400407060706861F3070070600096A9
:1062180001F048FD4EF670746846CEF2000420F096
:106228001C00206001F03EFD01F03FFDA86886607B
:10623800C16821F0FF01C160019001F033FD01A8A0
:1062480020F01C0020602030206001F02BFD01F0C0
:106258002CFD95F910204FF47F01D8F800004FF479
:106268008033B2F1FF3F02F01F02C8BFFF21C8BF51
:10627800012303FA02F21140C0F8B011D0F8B011AE
:1062880059B1D0F8B01100291CBFD0F8B0110029BD
:1062980003D0D0F8B0110029F0D102B05DF8048B1A
:1062A800F0BDD0E900018C220968002808BF8422CB
:1062B800885840F0004088507047D0E900018C228F
:1062C8000968002808BF84228858C00F7047D0E9A1
:1062D80000018C220968002808BF8422885820F011
:1062E800004088507047D0E900018C2209680028D6
:1062F80008BF8422885840F0804088507047D0E911
:1063080000028C231268002808BF8423D05820F08C
:10631800807040EA0160D0507047D0E900028823BD
:10632800002808BF80236FF07F401268814238BF81
:106338000846012898BF01200138D0507047D0E99D
:1063480000014FF0007209680028D1F8441108BF15
:106358004FF0807211EA020018BF01207047D0E99F
:1063680000014FF000720968002808BF4FF08072E2
:10637800C1F844217047D0E900024FF00073126859
:10638800002808BF4FF080736FF00070D2F848C142
:1063980008BF6FF08070002900EA0C0018BF18438E
:1063A800C2F848017047D0E900014FF0007209684F
:1063B8000028D1F8481108BF4FF0807211EA020096
:1063C80018BF01207047F0B503AF4DF804BD84B085
:1063D8000168022905D10023184604B05DF804BB02
:1063E800F0BDC268002A1CBFD0E904329A4261D1CC
:1063F80001AD844600292CCD4CF8102FCCE901358D
:1064080040D0D0E9011291423CD2C26A00F1180E84
:106418000224012503E0D0E90113994232D24B1C32
:10642800436041F08003C9B2446141EA032101831A
:106438000021C56003E0D0E904138B42EBD04B1C6C
:10644800CCF800301EF8011056684B0043EAD11111
:10645800CBB29E42EFD9966901F00F013668BFF3BF
:106468005F8FB6B226FA01F1C907E4D051699942A3
:106478007AD9116903EB830301EB8303197C49067D
:10648800D9D0A9E701AEC569002346CE002DC36067
:106498008CE846001CBFD0E908128A4235D101AE0B
:1064A80046CEC0E90926C0E90731184604B05DF8B0
:1064B80004BBF0BDC26A00F1180503E0D0E904315D
:1064C800994220D0591C0161E95C54684B0043EAA9
:1064D800D111CBB29C42F1D9946901F00F01246823
:1064E800BFF35F8FA4B224FA01F1C907E6D051695E
:1064F800994239D9116903EB830301EB8303197CB2
:106508004906DBD068E7016872E7C26A00F128052E
:1065180003E0D0E908168E42C1D04E1C0662695CC1
:1065280056684C0044EAD1115FFA81FC6645F0D9FF
:10653800966901F00F013668BFF35F8FB6B226FA8D
:1065480001F1C907E5D05169614514D911690CEB0E
:106558008C0601EB86010E7C7606DAD00B461846CF
:1065680004B05DF804BBF0BD40F654721846C2F2A0
:10657800200201F064FE40F654726046C2F2200226
:1065880001F05DFE80B56F46D0E9072E4FF0004C54
:106598004FF08043CEF834C0CEF838C0CEF838304B
:1065A8000023CEF800300223C2F84031D2F840313F
:1065B8009B070CD5D2F840319B0744BFD2F8403135
:1065C8005FEA837303D5D2F840319B07EED44FF0CE
:1065D800000C0A23C2F840C10029C2F8A831D2F839
:1065E800843123F0807308BF03F18073C2F88431CB
:1065F800D2F844110068C2F84411C2F848C1C2F880
:10660800580180BDB0B502AF9AB00446C069D0F851
:10661800B811C0F8B811D0F8BC11C0F8BC11D0F846
:106628007811C0F878110021C0F87C11D0F8B011A9
:1066380059B1D0F8B01100291CBFD0F8B011002909
:1066480003D0D0F8B0110029F0D14FF0FF31C0F8D5
:10665800B411D0F8B41159B1D0F8B41100291CBF45
:10666800D0F8B411002903D0D0F8B4110029F0D122
:1066780000200821CDE9060101210C900890039023
:10668800019001A800F11005109405912846FFF724
:106698009AFEF8B1017C11F07F00F7D0082811901C
:1066A8001AD20138E26949B2B1F1FF3FC0B26FF4C2
:1066B8000C0102EB8000D0F8C421C8BF6FF08C0138
:1066C80001EA02014FF40022C8BF08221143C0F8B2
:1066D800C411DBE71AB0B0BD002040F6D0611690B7
:1066E8000220139040F66060C2F22000C2F220013E
:1066F80012900120159018A8149046F60750C0F281
:106708000000199011A8189012A801F074FD024613
:106718004368C8B2490041EAD011C8B2834217D9C8
:10672800936901F00F011B68BFF35F8F9BB223FAD7
:1067380001F1C9070CD05169814284BF012070471B
:1067480080B56F4640F64472C2F2200201F077FD30
:1067580000207047F0B503AF2DE9000F83B08046E5
:10676800486800281FBF88690068BFF35F8F5FEA29
:10677800C07005D140F69450C2F2200001F06EFCC2
:106788004869002800F01D8151F81C4F9A460125E0
:10679800BAF1080F51F80C0CD4F8AC3190F910602C
:1067A80006F01F0C05FA0CF56ED32B406CD0D0F810
:1067B80008C0C4F8AC51D4F8406146F40056C4F897
:1067C8004061DCE90A56D4F840319B0425D4D4F85A
:1067D800403143F40053C4F84031DCE90A56D4F898
:1067E80040319B045FBFD4F8403143F40053C4F8F0
:1067F8004031DCE90A565CBFD4F840315FEA834394
:106808000BD4D4F8403143F40053C4F84031DCE9E8
:106818000A56D4F840319B04CDD5D4F8403123F43E
:106828000053C4F8403190F910C0D4F8B83156601C
:10683800BCF1000F15600CF01F024FF0010648BFB5
:106848001B0C964033401B0614D14FF48033BCF127
:10685800FF3FC8BF01234FF47F0603FA02F2C8BF07
:10686800FF263240C4F8782182681268C2F30A42CF
:10687800FFF793FC0820C8F80400002088F80000FF
:1068880003B0BDE8000FF0BDC3685B6813F0680F84
:1068980001D0072008E0D4F8B831002E48BF1B0CFF
:1068A8002B401B0609D0002088F80100012088F839
:1068B800000003B0BDE8000FF0BDB6F1FF3F4FF494
:1068C80080364FF47F03CDF80880C8BF0126C8BFC3
:1068D800FF2306FA0CF63340C4F8BC314FF4803E6F
:1068E80090F910304FF47F05B3F1FF3F03F01F0319
:1068F800C4BFFF254FF0010E0EFA03F32B40C4F876
:106908007831C668D0E9013EDEF800507468F6694F
:10691800C5F30A45554538BFAA46C4F30E45761B4C
:10692800B24528BFB2469A4528BF9A46BAF1000F29
:1069380036D0D0F800B00AF00305BAF1040F01D23E
:1069480000261EE040F2FC730AEA030902F101087E
:10695800002601950BEB06041BF8065008EB06030E
:1069680094F801C008F806C00436B14594F802C08E
:1069780003F8015C83F801C0E5789D70EAD1019DB8
:10698800B3446DB19BF80030012D935508D03244C3
:106998009BF80130022D53701CBF9BF80230937096
:1069A800DEF80020C2F30A42FFF7F7FBDDF80880A3
:1069B8000020C8F804A088F8000003B0BDE8000F64
:1069C800F0BD40F654720020C2F22002002101F00E
:1069D80036FCF0B503AF2DE9000F87B04E68022EE4
:1069E800C0F00D81D1F818A0DAF80060BFF35F8F0E
:1069F800B60740F104814D69012D40F20681D1F8B6
:106A080010B0DBF82060766816F0680F01D0072117
:106A180012E09BF8246051F81C9F06F01F0C75B219
:106A28000126D9F8B84106FA0CF6002D48BF240C07
:106A38002640360607D0002141700121017007B0B9
:106A4800BDE8000FF0BD4FF480344FF47F06059089
:106A5800B5F1FF3FC8BF0124C8BFFF2604FA0CF5F3
:106A68002E40C9F878610BF11400DBE90656366848
:106A7800C6F30A469E4238BF3346AB4228BF2B4670
:106A8800002B06936BD0D0F8008003F00306042B8C
:106A9800039002D20020C64624E0CDF8109040F2C0
:106AA800FC7003EA000E02F101090020CDE9016A39
:106AB80009EB000519F8004008EB000615F801CCB1
:106AC80095F801A0AD7808F800C0043086457470C8
:106AD80086F802A0F570EBD1DDF8109008EB000EF7
:106AE800DDE9016A04916EB1115C012E8EF8001087
:106AF80008D01044022E41788EF801101CBF80780F
:106B08008EF80200581E012101EB501505F0030410
:106B180001F0C8F8069A4EF6707028F01F01CEF200
:106B28000000612A0FD325F0030201F12003016060
:106B3800036001F14003036001F16003043A01F1CD
:106B480080010360F1D1002C1CBF0160012C4ED1E3
:106B580001F0A8F801F0A9F8069BDDE903011A463F
:106B68000D46FFF71AFBDAF80000BFF35F8FC00786
:106B780053D09BF81000D9F8B83100F01F0142B289
:106B880001208840002A48BF1B0C184000060598C1
:106B980025D1B2F1FF3F4FF48032C8BF01224FF434
:106BA8007F0602FA01F1C8BFFF263140C9F8BC11BF
:106BB8009BF910104FF480304FF47F030022B1F19D
:106BC800FF3F01F01F01C4BFFF2301208840294671
:106BD8001840C9F878015846FFF7DFFA0598069972
:106BE80041600021017007B0BDE8000FF0BD01F160
:106BF80020020260022C1CBF40310160A8E740F669
:106C0800A450C2F2200001F029FA40F65472012083
:106C1800C2F22002294601F012FB40F6B450C2F23B
:106C2800200001F01BFAF0B503AF2DE9000F83B087
:106C38008446387A4D68460046EAD016F0B2854256
:106C480040F2C4808D6906F00F062D68BFF35F8F90
:106C5800ADB225FA06F6F60700F0B880D1F814E0D0
:106C6800864540F2B9800E6900EB800006EB800093
:106C7800C668766816F0680F01D0072012E0057C18
:106C88008E4651F81C9F05F01F0A6CB20125D9F8F1
:106C9800B86105FA0AF5002C48BF360C35402D06B8
:106CA80009D000208CF8010001208CF8000003B006
:106CB800BDE8000FF0BDBEF82C6004F00F05EE40F3
:106CC800F607EED04FF480354FF47F06CDF808C0B4
:106CD800B4F1FF3FC8BF0125C8BFFF2605FA0AF572
:106CE8002E40C9F8BC614FF4803C90F910604FF415
:106CF8007F04B6F1FF3F06F01F06C4BFFF244FF024
:106D0800010C0CFA06F62640C9F87861C568D0E986
:106D1800016EDEF80040D5F804C0ED69C4F30A44FA
:106D28009C4238BF2346CCF30E442D1BAB4228BFF0
:106D38002B46B34228BF3346B3B3D0F800A003F0C4
:106D48000304042B01D200261FE0019440F2FC74D6
:106D580003EA040902F1010B00260AEB06041AF8FB
:106D680006500BEB060C94F801800BF806800436ED
:106D7800B14594F802800CF8015C8CF80180E47845
:106D88008CF80240E9D1019CB2446CB19AF80050E9
:106D9800012C955508D032449AF80150022C5570B0
:106DA8001CBF9AF802609670DEF800201C46C2F3F9
:106DB8000A42FFF7F2F9DDF808C00020CCF80440D9
:106DC8008CF8000003B0BDE8000FF0BD40F6C450D9
:106DD800C2F2200001F042F940F654727146C2F244
:106DE800200201F02CFAF0B503AF2DE9000F81B0B5
:106DF8003E7A4D68740044EAD616F4B2A54240F2D1
:106E0800CE808D6906F00F062D68BFF35F8FADB297
:106E180025FA06F6F60700F0C280D1F814C0A4459A
:106E280040F2C3800E6904EB840506EB850BDBF8A2
:106E38000C60766816F0680F01D0072112E09BF805
:106E4800105051F81CCF05F01F0E6CB20125DCF86C
:106E5800B86105FA0EF5002C48BF360C35402D06F2
:106E680007D0002141700121017001B0BDE8000F79
:106E7800F0BD00904FF48030B4F1FF3FC8BF01204F
:106E88004FF47F0400FA0EF0C8BFFF242040CCF86E
:106E98007801DBE901063668C6F30A469E4238BF28
:106EA8003346834228BF0346002B63D0DBF80080BB
:106EB80003F0030C042B02D2002640461BE040F2EC
:106EC800FC7003EA000E02F10109002609EB060531
:106ED80019F806A015F8014C6878AD7808F806404E
:106EE80008EB06040436B64584F801A0A070E570E6
:106EF800ECD108EB06008946BCF1000F0CD0915D7F
:106F0800BCF1010F017007D09119BCF1020F4A784A
:106F180042701CBF89788170581E01219A4601EB86
:106F2800501404F0030600F0BDFE4EF6707028F011
:106F38001F01CEF20000BAF1610F52460FD324F0C0
:106F4800030201F120030160036001F140030360C3
:106F580001F16003043A01F180010360F1D1002ED0
:106F68001CBF0160012E12D100F09CFE00F09DFEB6
:106F78005346494658461A461C46FFF70EF90098EC
:106F880000214460017001B0BDE8000FF0BD01F1BF
:106F980020020260022E1CBF40310160E4E740F687
:106FA800D450C2F2200001F059F840F6547220463D
:106FB800C2F22002614601F042F9B0B502AF8AB0D0
:106FC8000346D0F804C0D0B2540044EAD01E5FFA99
:106FD8008EF0844556D99C690EF00F0C2468BFF3D7
:106FE8005F8FA4B224FA0CF4E4074BD0D3F814C092
:106FF80084454DD91C6900EB800004EB800090F8B3
:1070080010C00CF07F040194082C48D24FFA8CF57C
:1070180003F11C0C05F03F03002DDCF800E00EEB3B
:107028008303D3F8C04108D424F001040C4452B2BD
:10703800002AC3F8C04109D518E024F4803461F36C
:10704800104452B2002AC3F8C0410FD471B9DEF817
:10705800B811012390F91020002A02F01F0248BF3E
:10706800090C03FA02F21140090601D00AB0B0BDBA
:1070780081680968C1F30A4261460AB0BDE8B040B8
:10708800FFF78BB840F6E450C2F2200000F0E6FFAC
:1070980040F654726146C2F2200201F0D0F8002096
:1070A80040F6D06106900220039040F66060C2F27C
:1070B8002000C2F2200102900120059008A8049047
:1070C80046F60750C0F20000099001A8089002A8EF
:1070D80001F091F880B56F468AB0CBB2490041EA19
:1070E800D3114268CBB29A4227D9826901F00F01C5
:1070F8001268BFF35F8F92B222FA01F1C9071CD060
:10710800416999421FD9016903EB830201EB8201AE
:10711800097C01F07F020192082A1BD249B2C0699A
:1071280001F03F02002900EB8200D0F8C00148BFFF
:10713800000C00F001000AB080BD40F6F450C2F225
:10714800200000F08BFF40F644721846C2F220027D
:1071580001F075F8002040F6D061069002200390F7
:1071680040F66060C2F22000C2F2200102900120C5
:10717800059008A8049046F60750C0F20000099050
:1071880001A8089002A801F036F8F0B503AF2DE980
:10719800000B84464668C8B24D0045EAD014E0B2F8
:1071A800864265D9DCF8189004F00F04D7F80880F7
:1071B800012606FA04FEBFF35F8F59E8006F46EA1E
:1071C8000E0449E80045002DF7D116EA0E0FBFF36B
:1071D8005F8F4DD1DCF80CE086454FD9DCF814E020
:1071E800864552D9DCF800E086011C46B3F5806F6D
:1071F8005EF8065045F000554EF806505EF8065009
:1072080028BF4FF480646FF31A4545EA04444EF8EA
:1072180006405FEA08655EF8064024F400494CB26F
:107228004D4608BF05F50045B4F1FF3FD8BF4D46B0
:10723800DCF80840DCF810C04EF80650450101267D
:10724800665104EB4014656825F0FF05656000EBA6
:1072580080050EEB80104CF825200CEB850282F897
:1072680011801174C2E90130D460BDE8000BF0BD93
:1072780040F60460C2F2200000F0F0FE40F66472AE
:107288007146C2F2200200F0DAFF40F674727146CD
:10729800C2F2200200F0D3FFF0B503AF2DE9000FD2
:1072A80099B080460F9000F11C04684600F1100563
:1072B8004FF0000B4FF008094FF0010ACDF82CB041
:1072C800CDF81CB0CDE905B9CDF810A0CDF808B0BF
:1072D800CDF800B009E001F00F0122F00C0242EAFB
:1072E800810141F0C001C0F8C4112846FFF76BF8CE
:1072F800D8B1027C12F07F01F7D00829109148D24A
:107308004E1E53B22268B3F1FF3F417CF0B202EB4C
:107318008000D0F8C421DEDC22F44C0242EA81412C
:1073280041F44001C0F8C411DFE7CDF83C80CDF846
:107338002CB0CDE9069BCDE904ABCDF808B0CDF86B
:1073480000B009E0B1F1FF3F06DD81680968C1F3CB
:107358000A422146FEF721FF2846FFF734F8A0B17C
:10736800017C11F07F0249B2ECD0082A109210D2A9
:10737800013A23680029D2B203EB8202D2F8C42171
:10738800EAD412F08001E0D1E6E719B0BDE8000FB9
:10739800F0BD002040F6D06115900220129040F612
:1073A8006060C2F22000C2F2200111900120149006
:1073B80017A8139046F60750C0F20000189010A8BE
:1073C800179011A800F017FF082A16D10A784B78F1
:1073D800B1F802C04968C0F8021002F08001C1711A
:1073E80002F01F0183710429A0F800C028BF0421FE
:1073F8000172C2F3411141727047012101700421E9
:1074080041727047F0B503AF2DE90007D0E9058A4E
:1074180004460AF10200404518D80AF58076B045BE
:10742800354638BF454686422BD32E1A9E420DD389
:10743800264624698946114620441A461D4602F00C
:107448000FF8A81C0AEB0001414503D90220BDE84A
:107458000007F0BDC2451BD204F80A000AF101007A
:1074680040453FBF04F80090B1610820BDE800071F
:1074780038BFF0BD41F20C024146C2F2200200F0D2
:10748800DEFE40F6EC722946C2F2200201F0E2FA72
:1074980040F6FC725046C2F22002414600F0CFFE90
:1074A800F0B503AF2DE9000F87B00D690A46D1F892
:1074B80000808E68002D18BF0325B8F1000F18BF93
:1074C8004FF00108002E18BF0126D0E9051C0CF169
:1074D800020E8E4504D9022007B0BDE8000FF0BDAA
:1074E8000CF5807399421C4638BF0C4673455AD335
:1074F800A4EB0E03102B04D2022007B0BDE8000F46
:10750800F0BD740092F821300294012692F82040D0
:107518000394D47F0693B2F818B00494947F538BE5
:107528004FEA1B2A928B0594D0F81090140A019404
:107538001C0A00944FF4047429F80E4009EB0E0459
:10754800A272009AE673029E6272069A6673019EA0
:107558006271039AE6720CF1120622718E42049A45
:10756800E270059AA57384F80C80237284F807A04A
:1075780084F806B0A27004D9022007B0BDE8000F55
:10758800F0BD8C4517D20CF1010312228B4209F889
:107598000C2017D201218661082009F8031007B0D2
:1075A800BDE8000FF0BD40F6EC727046C2F2200252
:1075B800214601F04FFA40F6FC726046C2F2200202
:1075C80000F03DFE41F20C021846C2F2200200F023
:1075D80036FEF0B503AF4DF804BD91F825500122F1
:1075E80091F8233091F8226091F82440002BD0E9DB
:1075F800051E0EF1020305770EF10405C0E900250A
:107608006FF03F0508BF6FF07F058B421AD80EF563
:1076180080729142944638BF8C469A422ED3ACEB86
:107628000302072A0ED345EA441204694FF0807515
:10763800E55023445A7100221A710EF109028A4258
:107648009E7103D902205DF804BBF0BD8E451DD2A2
:10765800092304F80E300EF101038B423FBF0221CB
:10766800E154826108203CBF5DF804BBF0BD41F2E3
:107678000C021846C2F2200200F0E1FD40F6EC725E
:107688001846C2F22002614601F0E4F940F6FC72A5
:107698007046C2F2200200F0D2FD4169032981BF81
:1076A800016980694880704780B56F4641F21C02C5
:1076B8000420C2F2200201F0AEF9F0B503AF2DE9C3
:1076C800000B8E46017F91B3D0E9051C0CF1020432
:1076D8008C421CD80CF58076B142354638BF0D4631
:1076E800A64228D32D1B062D11D305690026D7E9FC
:1076F800028905F804E02C4462700CF108028A4201
:10770800667184F8049084F80380A37003D902207A
:10771800BDE8000BF0BD8C4515D2082305F80C30E8
