:02000004080AE8
:1000000000000A0840550A08000004000600050127
:0800100004026C000000000076
:10001800A4510A0809480A4908B5884205D0094A7E
:10002800824202D0121A05F09DF80748074A0021BB
:10003800121A05F0A2F8064808BD00BF0003002008
:10004800B4540A0864030020640300208C090020CB
:100058008C09002070B503F0B3FC074B074C1E4613
:10006800E41AA4080025A54204D056F8253098477C
:100078000135F8E770BD00BF7C540A08B0540A087F
:1000880001F088B808B501F0ABF8BDE8084003F006
:1000980055BC03F047BA03F04DBA0078B0FA80F0C7
:1000A80040097047012303707047000008B5054BED
:1000B800188803F0F7FE044B003018BF01201870B1
:1000C80008BD00BF280300202403002008B5054B05
:1000D800188803F0E7FE044B003018BF01201870A1
:1000E80008BD00BF180300204403002008B5054BD5
:1000F800188803F0D7FE044B003018BF0120187091
:1001080008BD00BF1C0300202C03002008B5054BC8
:10011800188803F0C7FE044B003018BF0120187080
:1001280008BD00BF200300205C03002008B5054B74
:10013800188803F0B7FE044B003018BF0120187070
:1001480008BD00BF00030020000400202DE9F04195
:1001580001210A2003F07CFE01210B2003F078FE28
:1001680001210C2003F074FE01210D2003F070FE24
:1001780000210A2003F07DFE00210B2003F079FE08
:1001880000210C2003F075FE00210D2003F071FE04
:100198004FF4FA7003F07AFB03F0D2FE404903F003
:1001A800F3FD03F0CDFE03F0F3FD0A2003F06EFB30
:1001B80001210A2003F05DFE01210B2003F059FE06
:1001C80001210C2003F055FE01210D2003F051FE02
:1001D8000A2003F05BFB00210B2003F04AFE314F9D
:1001E80000210C2003F045FE00210D2003F041FE04
:1001F8000121384601F03CFD4FF47A783021384629
:1002080001F0EBF9284EC7F804800A2003F03EFB02
:1002180001210B2003F02DFE0121304601F028FDBD
:100228003121304601F0D9F9204D0A20C6F8048062
:1002380003F02CFB01210C2003F01BFE01212846B2
:1002480001F016FD3221284601F0C7F9184C0A20A2
:10025800C5F8048003F01AFB01210D2003F009FE04
:100268000121204601F004FD3321204601F0B5F9B3
:100278000A20C4F8048003F009FB38460A2101F07B
:10028800CAFA30460A2101F0C6FA28460A2101F0C6
:10029800C2FA2046BDE8F0410A2101F0BCBA00BF0D
:1002A800A0860100A803002008040020C003002045
:1002B800D80300201FB501A801F0AFFF702101A8E5
:1002C80001F0B8FF01A9034802F00CF805B05DF889
:1002D80004FB00BF8003002008B5124B00211888DA
:1002E80003F0B6FD104B0021188803F0B1FD0F4B49
:1002F8000021188803F0ACFD0D4B0021188803F08D
:10030800A7FD0C4B0021188803F0A2FD0A4B012120
:10031800188803F09DFD094B01211888BDE80840A5
:1003280003F096BD28030020180300201C030020BA
:100338002003002000030020480300203C03002085
:1003480013B5184B00241888224600944FF0FF3349
:10035800154903F04BFC154B2246188814490094A4
:100368004FF0FF3303F042FC124B22461888124923
:1003780000944FF0FF3303F039FC104B22461888E5
:100388000F4900944FF0FF3303F030FC0D4B224629
:1003980018880D4900944FF0FF3303F027FC02B092
:1003A80010BD00BF28030020B5000A08180300206C
:1003B800D5000A081C030020F5000A0820030020C5
:1003C80015010A080003002035010A08F7B5134B88
:1003D800134D0026B42719884FF408728DE8C00021
:1003E8004FF41663284603F008F90E4C0E4B4FF4F1
:1003F8000872198820464FF416638DE8C00003F090
:10040800FCF8284640F2DC5103F0C3F840F2DC5116
:10041800204603B0BDE8F04003F0BBB84803002015
:1004280070030020F00300203C03002010B50C4CA2
:1004380023782BB903F076FB0A4903F0B0F9F7E704
:1004480003F070FB084903F0AAF941F2883003F081
:100458001DFA03F067FBBDE81040044903F09FB99B
:1004680000040020B8510A08CA510A08E3510A08D2
:100478002DE9F04F102099B0FFF70BFE044610B19C
:10048800012102F0CCF91420FFF703FE0546C8B19C
:10049800A24B186804F01EFCA14B8046186804F0B3
:1004A80019FCA04B0746186804F014FC9E4B06463E
:1004B800186804F00FFC434600903A463146284637
:1004C80002F029FC1420FFF7E4FD8046C8B1974BE1
:1004D800186804F0FFFB964B8146186804F0FAFB95
:1004E800944B0746186804F0F5FB934B06461868CA
:1004F80004F0F0FB4B4600903A463146404602F085
:100508000AFC1420FFF7C5FD0746C8B18B4B1868D5
:1005180004F0E0FB8A4B8246186804F0DBFB894B49
:100528008146186804F0D6FB874B0646186804F025
:10053800D1FB534600904A463146384602F0EBFB61
:100548002946204602F087F9804E4146204602F0AF
:1005580082F93946204602F07EF92146306802F0D9
:10056800AEFC1020FFF795FDB346044610B10221FA
:1005780002F055F91420FFF78CFD0646C8B1674B09
:10058800186804F0A7FB664A0390106804F0A2FB01
:10059800644A8246106804F09DFB634A81461068ED
:1005A80004F098FB039B009052464946304602F0FF
:1005B800B2FB1420FFF76DFD8146C8B15B4B18688C
:1005C80004F088FB5A4A0490106804F083FB5949E8
:1005D8000390086804F07EFB57498246086804F0D7
:1005E80079FB049B0090039A5146484602F093FB1E
:1005F8001420FFF74EFD8246C0B1504B186804F036
:1006080069FB4F4A0590106804F064FB4D4904905B
:10061800086804F05FFB03904B48006804F05AFB3D
:1006280003A900900EC9504602F075FB31462046DA
:1006380002F011F94946204602F00DF951462046CC
:1006480002F009F92146DBF8000002F038FC10201E
:10065800FFF71FFD044610B1032102F0E0F8142053
:10066800FFF717FD0390C8B12C4B186804F032FB54
:100678002B4A0590106804F02DFB2A49049008685D
:1006880004F028FB28498346086804F023FB059BEF
:100698000090049A5946039802F03DFB1420FFF796
:1006A800F8FC0490C8B1214B186804F013FB204AE9
:1006B8000690106804F00EFB1E490590086804F0C7
:1006C80009FB1D498346086804F004FB069B00905B
:1006D800059A5946049802F01EFB1420FFF7D9FC2E
:1006E8000590002834D0154B186804F0F3FA144A22
:1006F8000790106804F0EEFA12490690086804F0B2
:10070800E9FA11498346086804F0E4FA079B009067
:10071800069A5946059802F0FEFA19E010030020DF
:100728000C030020080300201403002054030020B9
:10073800500300204C030020580300203003002001
:10074800380300202004002034030020A4030020E4
:100758000399204602F07FF80499204602F07BF8BE
:100768000599204602F077F8A94B2146186802F04F
:10077800A6FB1020FFF78DFC834610B1042102F080
:100788004EF81420FFF785FC0446C0B1A14B186849
:1007980004F0A0FAA04A0890106804F09BFA9F4958
:1007A8000790086804F096FA06909D48006804F0DF
:1007B80091FA06A900900EC9204602F0ACFA14205E
:1007C800FFF767FC0690B8B1964B186804F082FAF8
:1007D800954A0990106804F07DFA944908900868D1
:1007E80004F078FA07909248006804F073FA0090D1
:1007F80006A80FC802F08FFA1420FFF74AFC0790EA
:10080800B8B18C4B186804F065FA8B4A0A901068E6
:1008180004F060FA89490990086804F05BFA0890C6
:100828008748006804F056FA009007A80FC802F03D
:1008380072FA2146584602F00EF80699584602F018
:100848000AF80799584602F006F8714B5946186895
:1008580002F035FB1820FFF71CFC834610B101217C
:1008680002F015F81420FFF714FC0F9030B1754B07
:10087800754A00930021754B02F04DFA1420FFF7DA
:1008880008FC109030B1724B724A00937249734B56
:1008980002F041FA1420FFF7FCFB119030B1704BC5
:1008A800704A00937049714B02F035FA1420FFF733
:1008B800F0FB129030B16E4B6E4A00936E496F4B4D
:1008C80002F029FA1420FFF7E4FB139030B16C4BC7
:1008D8006C4A00936C496D4B02F01DFA0F9958460B
:1008E80001F0B9FF1099584601F0B5FF1199584623
:1008F80001F0B1FF1299584601F0ADFF139958461F
:1009080001F0A9FF424B5946186802F0EBFA18208B
:10091800FFF7BFFB0E9008B102F05CFB5246294678
:100928000E9802F05FFB1820FFF7B3FB099008B19F
:1009380002F050FB52464146099802F053FB18203A
:10094800FFF7A7FB0A9008B102F044FB4A46294684
:100958000A9802F047FB1820FFF79BFB089008B1A4
:1009680002F038FB4A464146089802F03BFB182043
:10097800FFF78FFB0D9008B102F02CFB5246394669
:100988000D9802F02FFB1820FFF783FB149008B195
:1009980002F020FB4A463946149802F023FB18203F
:1009A800FFF777FB159008B102F014FB3246414679
:1009B800159802F017FB1820FFF76BFB169008B18B
:1009C80002F008FB39463246169802F00BFB182055
:1009D800FFF75FFB074608B102F0FCFA32462946EA
:1009E800384602F0FFFA1820FFF753FB064608B115
:1009F80002F0F0FA22460599304602F0F3FA182080
:100A0800FFF747FB0B90002842D002F0E3FA3FE0E3
:100A1800A4030020100300200C030020080300207A
:100A28001403002054030020500300204C0300202E
:100A38005803002030030020380300202004002041
:100A4800340300200000A0410000A04000007041D5
:100A5800000020420000F0410000C84100000C42A4
:100A680000007042000048420000344200005C422E
:100A78000000A04200008C42000082420000964222
:100A88000000C8420000B4420000AA420000BE4272
:100A9800069A05990B9802F0A5FA1820FFF7F9FABB
:100AA8000C9008B102F096FA224604990C9802F0CC
:100AB80099FA1820FFF7EDFA179008B102F08AFAB0
:100AC800069A0399179802F08DFA1820FFF7E1FAB1
:100AD800054608B102F07EFA22460399284602F03C
:100AE80081FA1820FFF7D5FA834608B102F072FAA6
:100AF800069A0499584602F075FA1820FFF7C9FAC1
:100B0800069008B102F066FA079A0399069802F06F
:100B180069FA1820FFF7BDFA039008B102F05AFAF3
:100B2800079A0599039802F05DFA1820FFF7B1FAC1
:100B3800059008B102F04EFA079A0499059802F058
:100B480051FA0820FFF7A5FA814608B102F08CF99E
:100B58001199484602F08CF90820FFF79AFA804666
:100B680008B102F081F91099404602F081F9082095
:100B7800FFF78FFA049008B102F076F90F990498FC
:100B880002F076F90820FFF784FA079008B102F01E
:100B98006BF91399079802F06BF90820FFF779FAB7
:100BA800044608B102F060F91299204602F060F993
:100BB8001820FFF76EFA824608B102F00BFA3246A7
:100BC8000E99504602F01DFA1020FFF762FA0F90B6
:100BD80020B14B465246012101F0ECFBB54B0F9971
:100BE800186802F097F91820FFF753FA824608B1FF
:100BF80002F0F0F932460999504602F002FA102044
:100C0800FFF747FA064620B14B465246022101F04B
:100C1800D1FBA84B3146186802F07CF91820FFF781
:100C280038FA064608B102F0D5F90B9A0E99304603
:100C380002F0E7F91020FFF72CFA824620B14B4664
:100C48003246032101F0B6FB9A4B5146186802F070
:100C580061F91820FFF71DFA064608B102F0BAF943
:100C68000C9A0A99304602F0CCF91020FFF711FAD5
:100C7800824620B14B463246042101F09BFB8D4B46
:100C88005146186802F046F91820FFF702FA06469E
:100C980008B102F09FF95A460899304602F0B1F9B6
:100CA8001020FFF7F6F9824620B14B46324605215F
:100CB80001F080FB7F4B5146186802F02BF9182091
:100CC800FFF7E7F9064608B102F084F92A460D99BC
:100CD800304602F096F91020FFF7DBF9824620B182
:100CE80043463246062101F065FB724B51461868AF
:100CF80002F010F91820FFF7CCF9064608B102F007
:100D080069F90C9A0D99304602F07BF91020FFF72B
:100D1800C0F9824620B143463246062101F04AFB1B
:100D2800644B5146186802F0F5F81820FFF7B1F93E
:100D3800064608B102F04EF95A460D99304602F0BF
:100D480060F91020FFF7A5F9824620B143463246E4
:100D5800082101F02FFB574B5146186802F0DAF8CA
:100D68001820FFF796F9064608B102F033F95A46FB
:100D78000999304602F045F91020FFF78AF98246B2
:100D880020B143463246092101F014FB494B514634
:100D9800186802F0BFF81820FFF77BF9064608B17B
:100DA80002F018F90C9A0999304602F02AF9102035
:100DB800FFF76FF9824620B1434632460A2101F017
:100DC800F9FA3C4B5146186802F0A4F81820FFF7CE
:100DD80060F9064608B102F0FDF82A46099930463E
:100DE80002F00FF91020FFF754F9824620B143466C
:100DF80032460B2101F0DEFA2E4B5146186802F0FC
:100E080089F81820FFF745F9064608B102F0E2F81C
:100E18000C9A0899304602F0F4F81020FFF739F9D7
:100E2800824620B1434632460C2101F0C3FA214BD9
:100E38005146186802F06EF81820FFF72AF906469E
:100E480008B102F0C7F82A460899304602F0D9F8E6
:100E58001020FFF71EF9824620B1434632460D2185
:100E680001F0A8FA134B5146186802F053F81820FD
:100E7800FFF70FF9064608B102F0ACF82A461499B4
:100E8800304602F0BEF81020FFF703F9824620B181
:100E9800434632460E2101F08DFA064B514618683A
:100EA80002F038F81820FFF7F4F8064620B102F0EF
:100EB80091F801E0A40300202A461599304602F073
:100EC800A0F81020FFF7E5F8824620B143463246E5
:100ED8000F2101F06FFAAE4B5146186802F01AF86C
:100EE8001820FFF7D6F8064608B102F073F82A462C
:100EF8001699304602F085F81020FFF7CAF88046A8
:100F080020B1049B3246102101F054FAA04E41460C
:100F1800306801F0FFFF1820FFF7BBF8804608B1E2
:100F280002F058F8069A3946404602F06AF810204E
:100F3800FFF7AFF8824620B1079B4246112101F026
:100F480039FA5146306801F0E5FF1820FFF7A1F89B
:100F5800064608B102F03EF8039A3946304602F0D8
:100F680050F81020FFF795F8804620B12346324606
:100F7800122101F01FFA864E4146306801F0CAFF7F
:100F88001820FFF786F8804608B102F023F8039A84
:100F98000A99404602F035F81020FFF77AF88246A1
:100FA80020B123464246132101F004FA5146306825
:100FB80001F0B0FF1820FFF76CF8064608B102F000
:100FC80009F8039A0899304602F01BF81020FFF739
:100FD80060F8804620B123463246142101F0EAF930
:100FE8006B4E4146306801F095FF1820FFF751F825
:100FF800804608B101F0EEFF0B9A0899404602F0CE
:1010080000F81020FFF745F8824620B123464246F3
:10101800152101F0CFF95146306801F07BFF182007
:10102800FFF737F8804608B101F0D4FF0B9A0A9908
:10103800404601F0E6FF1020FFF72BF8824620B16A
:1010480023464246162101F0B5F95146306801F0B1
:1010580061FF1820FFF71DF8804608B101F0BAFFBC
:101068000B9A3946404601F0CCFF1020FFF711F8E3
:10107800824620B123464246172101F09BF951468A
:10108800306801F047FF1820FFF703F8804608B1E1
:1010980001F0A0FF5A460A99404601F0B2FF10201D
:1010A800FEF7F7FF824620B123464246182101F099
:1010B80081F95146306801F02DFF1820FEF7E9FF4D
:1010C800804608B101F086FF5A463946404601F08D
:1010D80098FF1020FEF7DDFF824620B123464246E6
:1010E800192101F067F95146306801F013FF182003
:1010F800FEF7CFFF804608B101F06CFF059A39462C
:10110800404601F07EFF1020FEF7C3FF824620B163
:10111800234642461A2101F04DF95146306801F044
:10112800F9FE1820FEF7B5FF804608B101F052FF1E
:10113800179A3946404601F064FF1020FEF7A9FFD0
:10114800824620B1234642461B2101F033F951461D
:10115800306801F0DFFE1820FEF79BFF044608B157
:1011680001F038FF2A463946204601F04AFF102090
:10117800FEF78FFF054620B14B4622461C2101F0A1
:1011880019F92946306819B0BDE8F04F01F0C2BE20
:10119800A403002008B5FEF7D9FFFFF78BF8FFF787
:1011A8009BF8FFF7CDF8FFF711F9FFF761F9012078
:1011B80002F06FFBBDE80840FFF738B908B540F208
:1011C800DC51054802F0E5F9BDE8084040F2DC5181
:1011D800024802F0DEB900BF70030020F0030020CF
:1011E8002DE9F341994800F051FBDFF8E882984F68
:1011F800A8F80000974800F049FB3880964800F0AE
:1012080045FB964E964D3080964800F03FFB28806F
:1012180003F05CFD944C02460121206801F08DFE2C
:10122800308803F053FD02210246206801F085FE54
:10123800388803F04BFD03210246206801F07DFE4B
:10124800B8F8000003F042FD04210246206801F0CE
:1012580074FE206801F085FE0121206801F0A8FED7
:10126800824B00211860044603F03AFF98B1804988
:10127800204603F021FF70B17E497F4802F045FA0D
:1012880040F20E627D4B00211A607D4B4FF4C8621C
:101298001A60FF2249E07649204603F021FFA0B1F9
:1012A8007849204603F008FF78B17749724802F080
:1012B8002CFA40F22762714B00201A60704B4FF4F1
:1012C800C8621A60802211464AE06E49204603F03F
:1012D80007FF90B16D49204603F0EEFE68B16C49F6
:1012E800654802F012FA40F20E63644AFF21136067
:1012F800634A13600022104632E06449204603F036
:10130800EFFEA0B16349204603F0D6FE78B16249EA
:10131800594802F0FAF9594B4FF4C8621A6040F282
:101328002762574B80211A600022084618E0594965
:10133800204603F0D5FEA8B15849204603F0BCFE6C
:1013480080B157494C4802F0E0F94C4B4FF4C86261
:101358001A6040F20E624A4BFF201A6000221146C2
:1013680002F0A7FA01F08CFF4E4C2368C01AB0F5C2
:101378007A7F02D901F084FF206002F0D3FB3E4B54
:10138800196802F0F9F902F0CDFB474902F0F4F9C7
:1013980002F0C8FB454902F0EFF902F0C3FB0A224C
:1013A800B8F8001002F053FA02F0BCFB3E4902F014
:1013B800E3F902F0B7FB3E4902F0DEF902F0B2FBB6
:1013C8000A22398802F043FA02F0ACFB364902F0EF
:1013D800D3F902F0A7FB374902F0CEF902F0A2FBDD
:1013E8000A22318802F033FA02F09CFB2E4902F0FF
:1013F800C3F902F097FB304902F0BEF902F092FB04
:1014080029880A2202F025FA69462C4800F032FFA2
:1014180020B902F087FB2A4902F0C1F9294B1B7851
:101428003BB9FFF7CBFE02F07DFB274902F0A4F998
:10143800FEE7124B2548198802F0ABF8104B2448F8
:10144800198802F0A6F802B0BDE8F081A8030020D0
:101458002404002008040020C00300200204002007
:1014680026040020D8030020A403002068030020DD
:101478000000A041E7510A0894030020400300201F
:101488000403002000002042F1510A0800007042C5
:10149800FC510A080000A04203520A080000C84292
:1014A8000F520A08040400201A520A081E520A0899
:1014B80028520A0832520A083C520A0880030020BF
:1014C80046520A080004002050520A0870030020FF
:1014D800F00300206C03002010B501F079FE1D48D0
:1014E80000F05AF81C4800F057F81C4800F054F86F
:1014F8001B4800F051F81B4802F06BF81A4802F03C
:1015080068F81820FEF7C5FD044608B101F0CFFCC5
:10151800164B174917481C6002F0E4F8164A174999
:10152800144802F02DFD0021012001F0DBFF03200B
:1015380001F0C8FF02F004FD002201461123104803
:1015480000F02CFFBDE810400B4A0E490C4802F091
:1015580017BD00BFA803002008040020C003002016
:10156800D803002070030020F0030020A40300200B
:10157800DA520A0894030020640300205F360A0840
:101588008003002069210A080368C9B29B681847CC
:101598000368C9B29B68184729224270002242603A
:1015A8000272704770B5044615460E4602F0C8FC34
:1015B800617802F004FC02F0C3FC036831469B68C2
:1015C800984702F0BDFC036829469B68984702F0DB
:1015D800B7FC02F0FCFB207070BD38B505460C4620
:1015E80001F07F028A21FFF7DDFF6C7038BD70B50E
:1015F800044615460E4602F0A3FC617802F0DFFBB4
:1016080002F09EFC036831469B68984702F098FCFC
:10161800290AFFF7BDFF02F093FCE9B2FFF7B8FF14
:1016280002F08EFC02F0D3FB207070BD70B5054649
:1016380014460E4602F084FC697802F0C0FB02F002
:101648007FFC036831469B68984702F079FC210EBD
:10165800FFF79AFF02F074FCC4F30741FFF794FF09
:1016680002F06EFCC4F30721FFF78EFF02F068FC5E
:10167800E1B2FFF789FF02F063FC02F0A8FB2870D3
:1016880070BD38B504460D4602F05AFC617802F088
:1016980096FB02F055FC036829469B68984702F0C0
:1016A8004FFC02F094FB207002F04AFC01226178A2
:1016B80002F07DFB02F044FC03685B699847C0B206
:1016C80038BD38B504460D4602F03AFC617802F0A0
:1016D80076FB02F035FC036829469B68984702F0C0
:1016E8002FFC02F074FB207002F02AFC61780222C1
:1016F80002F05DFB02F024FC03685B69984704462E
:1017080002F01EFC03685B69984740EA042080B237
:1017180038BDF8B5064614461D460F4602F010FCC3
:10172800717802F04CFB02F00BFC036839469B68A9
:1017380098472544AC4207D002F002FC036814F82D
:10174800011B9B689847F5E702F0FAFB02F03FFBA4
:101758003070F8BDF8B5064614461D460F4602F02F
:10176800EFFB717802F02BFB02F0EAFB03683946C5
:101778009B68984702F0E4FB02F029FB307002F006
:10178800DFFB2A46717802F012FB2544AC4207D0F1
:1017980002F0D6FB03685B69984704F8010BF5E78C
:1017A800F8BD00000000000070B50D460646002197
:1017B800284603F081FCB0B9284602F093FE0CA33A
:1017C800D3E9002303F072F968B94FF0864128463F
:1017D80003F0D4FA03F098FC442182B23046FFF7B4
:1017E80006FF012070BD002070BD00BFAFF3008070
:1017F800A4703D0AD7FF7F4008B509B9502102E01F
:10180800012906D17021FFF73CFF01304000C0B22A
:1018180008BDFF2008BD38B504460D4601228021C9
:10182800FFF7C0FE0122FF212046FFF7BBFE002282
:1018380011462046FFF7B6FE227C91212046FFF78D
:10184800B1FE012200212046FFF7ACFE0022FF2155
:101858002046FFF7A7FE002280212046FFF7A2FEC0
:101868006DB1F8212046FFF72CFF00B145432A4609
:1018780004212046FFF7DAFE0422002101E0294670
:1018880002222046BDE83840FFF78CBE38B5044632
:1018980001F0F6FCE06013212046FFF7F2FE430753
:1018A8000ED16368002BF6D001F0EAFCE368C01A99
:1018B80063689842EFD9012323724FF6FF7038BD51
:1018C8001E212046FFF7FDFE0546012220460B217A
:1018D800FFF768FE284638BDF8B504460F46164699
:1018E80080210122FFF75EFE0122FF212046FFF73B
:1018F80059FE002211462046FFF754FE0622FF211A
:101908002046FFF74FFE83212046FFF7BAFE40F03E
:101918000402D2B283212046FFF744FE0722FF21AA
:101928002046FFF73FFE012281212046FFF73AFEBD
:10193800012280212046FFF735FE6B2294212046A4
:10194800FFF730FE002283212046FFF72BFE01F02F
:1019580097FCE06083212046FFF793FE054658B9BF
:101968006368002BF6D001F08BFCE368C01A63684B
:101978009842EFD92846F8BD012220468321FFF777
:1019880011FE92212046FFF77CFE00F07F03C0F392
:10199800C0103B700022307081212046FFF702FE04
:1019A80006222046FF21FFF7FDFD83212046FFF791
:1019B80068FE832102462046FFF7F4FD20460122F7
:1019C800FF21FFF7EFFD204601220021FFF7EAFD86
:1019D80020460022FF21FFF7E5FD20460022802156
:1019E800FFF7E0FD0120F8BD10B50C460121FFF717
:1019F80048FEC0F300132370C0F3C003A370C0F304
:101A080080036370C0F38013C0F3C010E3702071CB
:101A180010BD4FF6FF73984228BF1846C3B2000A9C
:101A280003FA00F0013080B27047B0F5803F01D270
:101A380078B101E04FF6FF700138002330F0FF0164
:101A48009AB203F1010301D04008F7E740EA022007
:101A580080B27047084B4FF47A72594310B501F5BC
:101A6800FA714FF4FA64B1FBF2F3B1FBF4F100FB45
:101A78000310B0FBF2F010BD002F3A0070B50E460F
:101A8800002114460546FFF7B7FE46212080284668
:101A9800FFF7F7FD013080B22178A080FFF7DAFF69
:101AA8005121E0602846FFF70CFEFFF7B2FF2178CE
:101AB800E080FFF7CFFF702120612846FFF7E1FDA6
:101AC80001304000C0B2608071212846FFF7F9FD5F
:101AD800FFF79FFF2081F37813B1E388C01A2081B4
:101AE800A1782089FFF7B6FF606170BD10B5044684
:101AF80088B06946FFF778FF02AA69462046FFF7D3
:101B0800BDFF9DF800301BB1059800F6845001E038
:101B180040F636309DF802302BB1059B03F2B22314
:101B280000EB430006E09DF801301BB1059B03F56F
:101B3800257318449DF803301BB1069B03F52573E4
:101B480018449DF804301BB1079B03F22623184460
:101B5800606108B010BD0000084B4FF47A72594319
:101B68004FF4FA6301F5FA71B1FBF3F3B1FBF2F14B
:101B780002FB0030B0FBF1F0704700BF002F3A00C5
:101B880044F61F63F0B5994289B006460D4642D91E
:101B98006946FFF729FF02AA69463046FFF76EFF3C
:101BA8009DF800301BB1059800F6363001E040F68C
:101BB800E8009DF802302BB1059B03F2B22300EB3D
:101BC800430006E09DF801301BB1059B03F5257322
:101BD80018449DF803701FB1069B03F5257318443C
:101BE8009DF80440ACB100F22620854213D39DF83D
:101BF8000A10281AFFF7B0FF17B1BDF80E301844C5
:101C0800FFF713FF712102463046FFF7F0FC7561BC
:101C180002E0012400E00024204609B0F0BD38B5F8
:101C280041F0010200210446FFF7BCFC01F028FB4B
:101C3800E06013212046FFF724FD10F007050BD1C3
:101C48006368002BF5D001F01BFBE368C01A6368DA
:101C58009842EED9284638BD204601220B21FFF7CD
:101C6800A1FC002220461146FFF79CFC012038BD4C
:101C7800F0B5044685B049B18921FFF702FD40F06F
:101C88000102D2B289212046FFF78CFC002288216C
:101C98002046FFF787FC012280212046FFF782FCBF
:101CA8000122FF212046FFF77DFC00221146204635
:101CB800FFF778FC91212046FFF7E3FC012220740E
:101CC80000212046FFF76EFC0022FF212046FFF787
:101CD80069FC002280212046FFF764FC6021204631
:101CE800FFF7CFFC40F01202D2B260212046FFF786
:101CF80059FC4FF07A512046FFF756FDFF2201218B
:101D08002046FFF74FFC0DF107020DF106012046B2
:101D1800FFF7E2FD08B900251DE2062302AAB0215B
:101D28002046FFF717FD0122FF212046FFF73AFC66
:101D380000224F212046FFF735FC2C224E21204659
:101D4800FFF730FC0022FF212046FFF72BFC00257F
:101D58002046B621B422FFF725FC29469DF8073016
:101D68009DF80660002B14BF0C2000200127EBB261
:101D7800DA0898420DF1100E03F00703724401D8F7
:101D88008E4208D112F808EC07FA03F32EEA03038F
:101D980002F8083C07E012F8082C42FA03F3DB07C4
:101DA80044BF0131C9B20135302DE0D1062302AA62
:101DB800B0212046FFF7ADFC0122FF212046FFF7A6
:101DC800F1FB002211462046FFF7ECFB0022FF2121
:101DD8002046FFF7E7FB002209212046FFF7E2FB38
:101DE800002210212046FFF7DDFB002211212046AA
:101DF800FFF7D8FB012224212046FFF7D3FBFF225F
:101E080025212046FFF7CEFB002275212046FFF74B
:101E1800C9FB0122FF212046FFF7C4FB2C224E21DB
:101E28002046FFF7BFFB002248212046FFF7BAFBF8
:101E3800202229462046FFF7B5FB0022FF21204635
:101E4800FFF7B0FB092229462046FFF7ABFB00222B
:101E580054212046FFF7A6FB042231212046FFF734
:101E6800A1FB032232212046FFF79CFB832240215D
:101E78002046FFF797FB252246212046FFF792FBD5
:101E8800002260212046FFF78DFB002227212046F3
:101E9800FFF788FB062250212046FFF783FB00222C
:101EA80051212046FFF77EFB962252212046FFF75C
:101EB80079FB082256212046FFF774FB2A46572152
:101EC8002046FFF76FFB002261212046FFF76AFBDF
:101ED800002262212046FFF765FB0022642120468C
:101EE800FFF760FB002265212046FFF75BFBA0227D
:101EF80066212046FFF756FB0122FF212046FFF707
:101F080051FB322222212046FFF74CFB14224721A5
:101F18002046FFF747FBFF2249212046FFF742FBF7
:101F280000224A212046FFF73DFB0022FF212046E0
:101F3800FFF738FB0A227A212046FFF733FB0022FD
:101F48007B212046FFF72EFB212278212046FFF730
:101F580029FB0122FF212046FFF724FB34222321FD
:101F68002046FFF71FFB002242212046FFF71AFBFD
:101F7800FF2244212046FFF715FB26224521204653
:101F8800FFF710FB052246212046FFF70BFB4022F6
:101F980011462046FFF706FB06220E212046FFF7D2
:101FA80001FB1A2220212046FFF7FCFA4022432198
:101FB8002046FFF7F7FA0022FF212046FFF7F2FA42
:101FC800032234212046FFF7EDFA4422352120462A
:101FD800FFF7E8FA0122FF212046FFF7E3FA04227F
:101FE80031212046FFF7DEFA09224B212046FFF770
:101FF800D9FA05224C212046FFF7D4FA04224D21B4
:102008002046FFF7CFFA0022FF212046FFF7CAFA41
:10201800002244212046FFF7C5FA20224521204608
:10202800FFF7C0FA082247212046FFF7BBFA28220B
:1020380048212046FFF7B6FA002267212046FFF71D
:10204800B1FA042270212046FFF7ACFA012271216F
:102058002046FFF7A7FAFE2272212046FFF7A2FAD0
:10206800002276212046FFF79DFA0022772120469C
:10207800FFF798FA0122FF212046FFF793FA012281
:102088000D212046FFF78EFA0022FF212046FFF798
:1020980089FA012280212046FFF784FAF8220121DB
:1020A8002046FFF77FFA0122FF212046FFF77AFA40
:1020B80001228E212046FFF775FA012200212046D1
:1020C800FFF770FA0022FF212046FFF76BFA002283
:1020D80080212046FFF766FA04220A212046FFF7EE
:1020E80061FA84212046FFF7CCFA842100F0EF0240
:1020F8002046FFF757FA01220B212046FFF752FA34
:102108002046FFF7F3FCE822606101212046FFF733
:1021180049FA61692046FFF733FD0122114620463E
:10212800FFF740FA40212046FFF779FD00283FF4E9
:10213800F2AD022201212046FFF734FA00212046A1
:10214800FFF76DFD054600283FF4E5ADE8220121C3
:102158002046FFF727FA284605B0F0BD01F038B849
:10216800704710B50446FDF796FF204610BDF8B538
:1021780005461E460F46017CC06841F0180114460A
:1021880001F01DFEE868012E036888BF47F080074C
:102198009B68394698472644A642E86805D00368F4
:1021A80014F8011B9B689847F6E701F010FEB0FA97
:1021B80080F04009F8BDF8B504461E460F46017C7C
:1021C800C06841F01801154601F0F9FDE068012EDC
:1021D800036888BF47F080079B6839469847E068DE
:1021E80001F0F5FDA8B9217C324641F01801E068FC
:1021F80001F0E0FD2E44AE420DD0E06803681B6993
:10220800984740B1E06803685B69984705F8010B97
:10221800F1E70020F8BD0120F8BD002202704270ED
:102228008270C270027142718271C271027242720E
:102238008272704741F007010170704713B5036857
:1022480001AA9C680123A0479DF8040002B010BDB4
:1022580038B505460A240F212846FFF7EFFF332833
:102268004FF0010005D001F011FB013CF3D12046ED
:1022780038BD38BDF7B50C4607210646FFF7DEFF27
:1022880000F00800002814BF012500251BD0336882
:102298006A469F68282106233046B8479DF80120E2
:1022A8009DF8003043EA022323809DF803209DF81F
:1022B800023043EA022363809DF805209DF804302C
:1022C80043EA0223A380284603B0F0BD37B502AC29
:1022D800036804F8042DDD6822460123A84703B0EB
:1022E80030BD000070B504460D46FFF7B1FF064645
:1022F80028B901F017FC284901F051FA49E02A7879
:1023080020212046FFF7E2FF6A7821212046FFF7C7
:10231800DDFFAA7822212046FFF7D8FFEA7823219B
:102328002046FFF7D3FF2A7924212046FFF7CEFF66
:102338006A7925212046FFF7C9FFAB791BB1262111
:102348002046FFF77BFFAA7A2E212046FFF7BEFF23
:10235800AB785B061DD5EA7932212046FFF7B6FF38
:102368002A7A33212046FFF7B1FF6368002B0ADB86
:102378006A7A204622723021FFF7A8FF31212046D1
:10238800FFF75CFF05E00022227230212046FFF7AC
:102398009DFF304670BD00BF70520A0810B54360FB
:1023A800024BC1600360027410BD00BF60520A088E
:1023B80000F00EBF10B5C360002301608260037196
:1023C80010BD38B50446806870B100F029FE0021C0
:1023D800054602F08FFE10B10123237100E0207141
:1023E8002946E06800F057FD207938BD00220260D8
:1023F8004260704770B5044610200E46154601F03D
:1024080091F8002370B1036046608560C36063681B
:1024180013B96060206004E02368036020600368EB
:10242800D860012070BD70B50D46164604685CB1D1
:102438002946606802F036FE20B13146A06802F0F5
:1024480031FE18B92468F2E7204670BD012070BD3E
:102458002DE9F84F0027BA464568002D00F0B180F5
:10246800EE680EB93546F8E76C68D6F80480204661
:10247800414602F017FED5F808B008B15D4691E074
:102488000021584602F00EFE30B9B56800212846F2
:1024980002F008FE002836D00021584602F02AFE35
:1024A80008B9B56800E05D462146404602F05CFB8D
:1024B80001468046284602F061FC4FF07C5102F04C
:1024C8005DFCB1680546584602F0F6FD28B1404665
:1024D80002F008F80022424B04E0404602F002F8FD
:1024E800404B002202F07CF980462046894601F0E4
:1024F800F9FF02460B464046494601F095FE02F0B8
:10250800DFFA04464EE00021584602F0F3FD0021B0
:10251800C0B1284602F0EEFDC0B12946584602F087
:10252800C1FDE8B12146404602F01EFB0146804647
:10253800584602F023FC0546404601F0D3FF00222E
:10254800294B2AE0584602F0D5FD48B30021284619
:1025580002F0D0FD20B32946584602F0A3FDF8B991
:102568002146404602F000FB01F0BCFF8046894648
:102578005846294602F0FAFA01F0B4FF00221A4B35
:1025880002F004F842464B4602F000F802F098FACE
:10259800494605464046144B002201F0F7FFA3E7E1
:1025A800002425462146284602F0E8FB014650460D
:1025B80002F0DCFA29468246384602F0D7FA074686
:1025C80050E70021384602F06DFD28B939465046DB
:1025D80002F088FCBDE8F88F0020BDE8F88F00BF46
:1025E8000000F83F000008400000E03F10B50C462E
:1025F80039B1C968FFF7FAFF2046BDE8104000F07E
:1026080099BF10BD10B504464168FFF7EFFF0023DE
:1026180063602360012010BD08B511B1084600F0C1
:1026280089FF012008BD00002DE9F04F1E464B68C8
:1026380087B001938B68D6F808900293109B059099
:102648000C4698684946174602F08EFA0199824668
:10265800786802F089FAD6F80480109B4146039006
:10266800586802F081FA02998346B86802F07CFA49
:1026780003990490504602F081FB04990546584698
:1026880002F07CFB0146284602F06EFA49460546F0
:10269800029802F069FA41468146019802F064FA0C
:1026A80049468046584602F069FB414683465046F3
:1026B80002F064FB0146584602F056FA4946824643
:1026C800039802F05BFB41468146049802F056FBF2
:1026D8000146484602F048FA00218046284602F0A2
:1026E800EBFC08B105F100450021504602F0E4FC7E
:1026F80008B10AF1004A0021404602F0DDFC08B1A9
:1027080008F10048284601F0EDFE31A3D3E9002383
:1027180002F0AEF908B1002057E02946504602F011
:10272800E1FB0021814602F0C7FC0028F3D14FF0FD
:102738007E51484602F0DEFC0028ECD1294640468E
:1027480002F0D0FB0021054602F0B6FC0028E2D1D9
:102758004FF07E51284602F0CDFC0028DBD14946D7
:10276800039802F00BFB019902F000FA494605466E
:10277800049802F003FB029902F0F8F98046102051
:1027880000F0D0FE0028C6D0109B45600360C0F85A
:102798000880C760D86038607768B668D4F8049055
:1027A80021460598D4F808802568FFF735FF494683
:1027B800384602F077FC20B14146304602F072FC00
:1027C80010B92C46002DE9D1012007B0BDE8F08FE3
:1027D800FCA9F1D24D62503FF7B506464568DDB118
:1027E8002C462768B7B17968606802F065FC08B9BB
:1027F8003C46F6E727463B6863B11A6842B1009247
:10280800E26821463046FFF70FFF08B1756801E01E
:102818003F68F0E7ED68E2E7012003B0F0BD10B5CE
:10282800044600F00FF8204610BD38B50546846808
:1028380034B1206810B1696800F07EFA6468F7E77F
:10284800012038BD002201608260C26070470068C4
:1028580070474160704738B5044608200D4600F0BF
:1028680061FE50B1002305604360A3680BB9A06006
:1028780001E0E3685860E060012038BD10B5846865
:1028880024B1206800F0EDFA6468F9E710BD10B5CE
:102898000446FFF7D7FF04F11000FFF7A7FD204615
:1028A80010BD1030FFF7D4BDF8B58468064625463C
:1028B800CDB1ACB163688BB1206800F035FA6368BC
:1028C8000746186800F030FA0146384602F012FC54
:1028D80020B194E80C00196821601A606468E8E780
:1028E800B4686D68E4E70120F8BD0000000000004E
:1028F8002DE9F74F10980F460E9915461C4602F021
:1029080033F939468246204602F02EF90D99804661
:102918000F9802F029F9294683460C9802F024F909
:1029280041460646504602F029FA314604465846C2
:1029380002F024FA0146204602F016F90E990446E0
:10294800284602F011F90D998146384602F00CF933
:1029580049460190584602F011FA019983465046BB
:1029680002F00CFA0146584602F0FEF84946824643
:10297800404602F003FA01998146304602F0FEF91A
:102988000146484602F0F0F800218146204602F050
:1029980093FB08B104F100440021504602F08CFB7F
:1029A80008B10AF1004A0021484602F085FB08B147
:1029B80009F10049204601F095FD21A3D3E9002340
:1029C80002F056F80190002833D12146504602F013
:1029D80089FA0021824602F06FFB50BB4FF07E510E
:1029E800504602F087FB20BB21460190484602F082
:1029F80079FA0021814602F05FFB0446C8B94FF01E
:102A08007E51484602F076FBA8B95146404602F08E
:102A1800B5F9394602F0AAF8119B514618603046BC
:102A280002F0ACF9294602F0A1F8129B18600120C7
:102A380002E0002000E0204603B0BDE8F08F00BFB0
:102A4800FCA9F1D24D62503F2DE9F04F064600F146
:102A5800100591B02846FFF7D5FDB4684FF07E59B0
:102A68000DAF002C00F05081206800F0F8F900212B
:102A780002F040FB002800F0D880206800F054F9EC
:102A88008046206800F052F90146404602F00AFBF1
:102A980080B9206800F048F9002201462846FFF76F
:102AA800C2FC38B9206800F03FF9002201462846E8
:102AB800FFF7A0FC206800F039F98046206800F094
:102AC80037F90146404602F0EDFA68B1206800F097
:102AD8002BF98046206800F02DF90146404602F0A7
:102AE800E1FA002800F0A380206800F01FF9804672
:102AF800206800F01DF90146404602F0D3FA00288C
:102B080040F09F80206800F0AAF94FF07E5102F053
:102B1800C9FA002840F0C480206800F007F90C903A
:102B2800206800F09CF90D90206800F0FDF88046C0
:102B3800206800F0FBF88246206800F0F5F883462C
:102B4800206800F08CF90A90206800F0F3F80990EA
:102B5800206800F084F9099A0A9B0CA90591049051
:102B680003920293002241460697CDF804B0CDF8AF
:102B7800009053463046FFF7BBFE0D9A0C99284645
:102B8800FFF751FC20B90D9A0C992846FFF732FC43
:102B9800206800F0CBF80E90206800F060F90DF185
:102BA800400848F8040D206800F0C2F88246206802
:102BB80000F0C0F88346206800F0B6F80990206855
:102BC80000F04DF90B90206800F0B4F80A902068E6
:102BD80000F045F90EAB0593099B0A990B9A0193EE
:102BE800002304900391029200934FF07E525146C5
:102BF800CDF818805B463046FFF77AFE0F9A0E999B
:102C08002846FFF710FC20B90F9A0E992846FFF7BF
:102C1800F1FB206800F08CF88046206800F08AF804
:102C28000146404602F03EFA18B3646819E7206886
:102C380000F015F94FF07E5102F034FA00283FF405
:102C48006BAF206800F072F88046206800F007F942
:102C5800414602462846FFF7E6FB0028D9D12068FE
:102C680000F064F88046206800F0F9F84146024612
:102C7800CCE7206800F05EF8002201462846FFF7FE
:102C8800D2FB002837D0206800F054F8804620682E
:102C980000F04AF80146404602F004FA58BBC4E77F
:102CA800206800F043F88046206800F0D8F84146D4
:102CB80002462846FFF7B7FB58B9206800F036F8F7
:102CC8008046206800F0CBF8414602462846FFF7C8
:102CD80091FB206800F02CF88046206800F0BFF8CF
:102CE800414602462846FFF79EFB002891D12068FE
:102CF80000F01EF8B6E7206800F01CF80022014634
:102D08002846FFF777FB90E72846FFF765FD012087
:102D180011B0BDE8F08F10B58360029B0160C360FD
:102D280000234260036110BD006870474068704727
:102D380080687047C06870472DE9F8430768044603
:102D480038460D4602F0D6F9666898B131463846DD
:102D580002F0A8F900282ED0A5683046294602F0CE
:102D6800A1F940BB2846E16802F09CF918BB4FF076
:102D78007E5321E02946384602F0A8F9F0B93146D9
:102D8800284602F0ADF900282FD1D4F8088028464B
:102D9800414602F0AFF9D4F80C9000282CD14946EE
:102DA800284602F0A7F900284DD04946404602F0CF
:102DB80079F900283ED10023236144E031462846B2
:102DC80002F07AF90028DAD03946304601F0CCFE14
:102DD80001464FF07E5002F085F8314607462846F6
:102DE80001F0C2FE014638461CE0A168284602F000
:102DF8006DF90028C9D0BAE74946284602F066F9B5
:102E08000028CCD04946404601F0AEFE01464FF0BE
:102E18007E5002F067F841460646284601F0A4FEB7
:102E28000146304601F0AAFF4FF07E5101F09EFEA8
:102E3800206108E04146304602F034F90028BAD152
:102E48003146384690E70120BDE8F88338B5044696
:102E580000690D4602F030F900B1256138BD0069FE
:102E68007047002303617047002242600260704788
:102E780038B5044608200D4600F054FB50B1002335
:102E88000560436063680BB9606001E023685860BF
:102E98002060012038BD38B50D4644682CB1206843
:102EA8002946FFF7D3FF6468F8E7012038BD002200
:102EB80042600260C260826042610261704738B558
:102EC800044608200D4600F02DFB50B10023056094
:102ED800436063680BB9606001E023685860206054
:102EE800012038BD70B5054608200E4600F01AFBD3
:102EF800044670B10023436006603046FFF7D4FCF7
:102F0800EB680BB9EC6001E0AB685C60AC60012079
:102F180070BD70BD38B5044608200D4600F002FBB0
:102F280050B100230560436063690BB9606101E03B
:102F3800236958602061012038BD70B50D461646DA
:102F4800446864B12068FFF782FCA84205D1206874
:102F58003146FFF77EFC012070BD6468F1E720462A
:102F680070BD38B50446456825B12868FFF786FC6A
:102F78006D68F9E7E56825B12868FFF77FFC6D689B
:102F8800F9E7656825B12868FFF74FFC6D68F9E730
:102F9800656925B12868FFF714FA6D68F9E7E468F0
:102FA80024B12068FFF750FD6468F9E7012038BDB7
:102FB80038B50D46C4685CB12068FFF748FCA842E4
:102FC80004D12068BDE83840FFF76BBC6468F2E7BD
:102FD800002038BD0022026042608260C260026147
:102FE8004261704710B5034639B142B1012002244D
:102FF80083E811009960DA6010BD084610BD1046DC
:1030080010BD10B5034639B142B10120042483E84C
:10301800110019615A6110BD084610BD104610BD57
:1030280038B504466368013B032B00F2CE80DFE825
:1030380003F07602377B2368012B02D0022B1ED0C7
:10304800C3E0A068FFF70BFF002102F053F8002847
:1030580000F0BB80E068FFF702FF002102F04AF8A9
:10306800002800F0B280A068FFF7F9FE0546E06886
:10307800FFF7F5FE0146284602F01EF890E0A0682A
:10308800FFF7EDFE002102F035F800287DD1E06859
:10309800FFF7E5FE002102F02DF8002875D194E035
:1030A8002368012B02D0022B1DD08EE0A068FFF709
:1030B800D6FE002102F01EF8002800F08680206964
:1030C800FFF7AEFF002102F015F800287DD0A068B8
:1030D800FFF7C5FE05462069FFF7A2FF014628460F
:1030E80001F0EAFF19E0A068FFF7B9FE002102F03D
:1030F80001F838B92069FFF793FF002101F0FAFFC2
:10310800002862D0A068FFF7AAFE05462069FFF7ED
:1031180087FF0146284601F0EDFF002844D0A0684B
:10312800BDE83840FFF79BBE2368012B02D0022B75
:103138001CD04AE02069FFF773FF002101F0DAFF95
:10314800002842D06069FFF76BFF002101F0D2FF31
:1031580000283AD02069FFF763FF05466069FFF74A
:103168005FFF0146284601F0A7FF2AE02069FFF724
:1031780057FF002101F0BEFFC0B96069FFF750FF9B
:10318800002101F0B7FF88B91FE0A068FFF767FECC
:103198000546E068FFF763FE0146284601F0AAFFEE
:1031A8000028BCD1E068BBE724693BE72069FFF74A
:1031B80037FF05466069FFF733FF0146284601F0EF
:1031C80099FF0028F0D164692CE7002038BD000081
:1031D80008B5024B1B681B68019308BDB0010608BF
:1031E80008B5024B1B685B68019308BDB00106086F
:1031F80008B5024B1B689B68019308BDB00106081F
:1032080008B5024B1B68DB68019308BDB0010608CE
:1032180008B5024B1B681B69019308BDB00106087D
:1032280008B5024B1B685B69019308BDB00106082D
:1032380008B5024B1B689B69019308BDB0010608DD
:1032480008B5024B1B68DB69019308BDB00106088D
:1032580008B5024B1B68DB69019308BDB401060879
:1032680008B5024B1B681B6A019308BDB401060828
:1032780008B5024B1B685B68019308BD9C010608F2
:1032880008B5024B1B685B69019308BD9C010608E1
:1032980008B5024B1B681B6B019308BDD0010608DB
:1032A80008B5024B1B689B69019308BDC401060859
:1032B80008B5024B1B685B6A019308BDC401060888
:1032C80008B5024B1B689B6A019308BDC401060838
:1032D80008B5024B1B68DB6A019308BDC4010608E8
:1032E80008B5024B1B681B6B019308BDC401060897
:1032F80008B5024B1B685B6B019308BDC401060847
:1033080008B5024B1B689B6B019308BDC4010608F6
:1033180008B5024B1B681B6C019308BDC401060865
:1033280008B5024B1B681B6C019308BDAC0106086D
:1033380008B5024B1B68DB6C019308BDAC0106089D
:1033480008B5024B1B685B6D019308BDAC0106080C
:1033580008B5024B1B689B6D019308BDAC010608BC
:1033680008B5024B1B68DB6D019308BDAC0106086C
:1033780008B5024B1B681B6E019308BDAC0106081B
:1033880008B5024B1B685B6E019308BDAC010608CB
:1033980008B5024B1B689B6E019308BDAC0106087B
:1033A80008B5024B1B68DB6E019308BDAC0106082B
:1033B80008B5024B1B681B6F019308BDAC010608DA
:1033C80008B5024B1B685B6F019308BDAC0106088A
:1033D80008B5034B1B68D3F88030019308BD000083
:1033E800AC01060808B5024B1B681B69019308BDB0
:1033F800A801060808B5024B1B685B69019308BD64
:10340800A801060808B5024B1B689B69019308BD13
:10341800A801060808B5024B1B681B68019308BD84
:10342800D801060808B5024B1B681B69019308BD43
:10343800D801060808B5024B1B685B69019308BDF3
:10344800D801060808B5024B1B689B69019308BDA3
:10345800D801060808B5024B1B68DB69019308BD53
:10346800D801060808B5024B1B681B6A019308BD02
:10347800D801060808B5024B1B685B68019308BDB4
:10348800A801020808B5024B1B689B68019308BD98
:10349800A801020808B5024B1B68DB68019308BD48
:1034A800A801020808B5024B1B689B69019308BD77
:1034B800A801020808B5024B1B68DB69019308BD27
:1034C800A801020808B5024B1B685B68019308BD98
:1034D800A401060808B5024B1B685B69019308BD87
:1034E800A401060808B5024B1B68DB6A019308BDF6
:1034F800A401060808B5024B1B685B6E019308BD62
:10350800A401060808B5024B1B689B6E019308BD11
:10351800A401060808B5024B1B681B69019308BD86
:10352800C801060808B5024B1B681B68019308BD53
:10353800A001060808B5024B1B685B68019308BD2B
:10354800A001060808B5024B1B689B68019308BDDB
:10355800A0010608704710B50446FCF79CFD2046FC
:1035680010BD000070B504460E46074B00250360E9
:1035780040F80C5FFFF78CFE30462671FFF768FEB7
:10358800A560204670BD00BFBC520A080079FFF74D
:1035980067BEB0F90020531C0BD0438880888B424B
:1035A80003D88842034628BF0B46194690B2FFF756
:1035B80029BF70474FF6FF73B42202814FF4087297
:1035C8000380428000234FF41662C3808280C36068
:1035D800704708B5FFF7EEFF08BD10B50446B0F90F
:1035E8000000431C07D080B2FFF704FF2046FFF716
:1035F800E1FF012010BD002010BD2DE9F0410D466E
:1036080004460221284690461F46FFF7E9FD022896
:1036180001D0002619E0284600F0F6FB06460028EF
:10362800F7D0B4F90030013302D02046FFF7D5FFB8
:10363800BDF918302580E380BDF91C30A4F802805C
:10364800A78023812846FFF7CDFE3046BDE8F081EC
:103658000020FFF737BF10B504460068FFF76AFF80
:10366800204610BD10B50446006808B1FFF762FF98
:1036780000232360A360636010BD38B504460D467F
:1036880000680131FFF75EFF10B184E821000120D6
:1036980038BD10B50368044613B143688B4207D29E
:1036A8002046FFF7EAFF20B1A3680BB92268137020
:1036B800012010BD70B50E46114604461546FFF7A9
:1036C800E8FF18B92046FFF7CDFF09E02A46314642
:1036D800A560206801F046FD2268A3680021D15446
:1036E800204670BD38B500230446036043608360FC
:1036F80003730D4639B1084601F047FD29460246D5
:103708002046FFF7D7FF204638BD38B505460C469A
:1037180041B1084601F039FD214602462846FFF727
:10372800C9FF01E0FFF79EFF284638BDF8B50646F9
:103738000D468F180024BD420CD0336815F8011BC4
:103748009B6830469847002801DB0444F3E7002CC7
:1037580008BF04462046F8BD70B505460C46084625
:1037680049B101F012FD2B68024621462846BDE802
:103778007040DB68184770BD08B5FFF7EDFF08BD5E
:1037880003689B68184738B50D210546FFF7F8FF11
:103798000A2104462846FFF7F3FF204438BD38B510
:1037A8000546FFF7D9FF04462846FFF7ECFF2044FB
:1037B80038BD012A98BF0A2230B50B468BB00021CC
:1037C8008DF824100DF12304B3FBF2F505FB123339
:1037D800DBB2092B94BF30333733DBB2214604F810
:1037E80001392B46002DEFD1FFF7B6FF0BB030BDE6
:1037F80010B422B90368C9B29B6810BC1847D2B28A
:1038080010BCFFF7D6BFFFF7F3BF2DE9F04107461D
:103818000E4615462AB9BDE8F0410368C9B29B684F
:1038280018470A2A02D1002901DA04E0D2B2BDE819
:10383800F041FFF7BEBF2D21FFF7A2FF2A4604463D
:1038480071423846FFF7B5FF2044BDE8F081FFF725
:10385800DCBF38B50546FFF7D8FF04462846FFF712
:1038680092FF204438BD0000014A024B1A6070479D
:103878007F530A0828040020024B1A68024B1A607A
:10388800704700BF600300202C0400200021FFF7D0
:1038980021BE10B50446FFF705FE844208D01CB1CE
:1038A800BDE81040FFF7EEBDBDE81040FFF7F2BDE0
:1038B80010BD70B505460E461446FFF7F3FD50B12E
:1038C80044EA062040EA0540FFF7D4FDBDE8704011
:1038D800E720FFF7EFBD70BD08B5144B33B100F01A
:1038E80021F903681B699847002816DC104B33B18F
:1038F80000F0E6F903681B699847002810DC0D4BB7
:103908000BB1AFF300800C4B7BB100F047F90368B3
:103918001B699847002806DC08BDAFF30080E5E77F
:10392800AFF30080EBE7AFF3008008BD00000000B4
:1039380000000000000000000000000008B5FFF7CC
:10394800CBFFFFF79DFC014B186008BDB8080020AD
:103958000248034A0349121A01F004BC004002401D
:1039680004400240B0540A080020704737B5436845
:1039780004460A2B0ED0502B1CD1104B1D68CDB11C
:10398800037D4FF400710093C26800F11003806852
:10399800A84707E000F11003C2684FF4007180687F
:1039A800FFF7E2FF30B1002220461146FFF7AAFDDB
:1039B800012000E0002003B030BD00BF300400202B
:1039C80038B50C4C0C4D2368AB420C4B0CBF012294
:1039D80000221A7002D0FFF7BBFF2560084B1BB10D
:1039E800FFF746FCAFF30080BDE8384000210548EA
:1039F800FFF780BD004002401E1C279A34040020B7
:103A08000000000075390A08704710B50446FCF735
:103A180042FB204610BDF8B50F4600F10806051D0B
:103A2800002416F8011D0A223846FFF7ECFEAE42C4
:103A3800044407D0002CF4D02E213846FFF7A0FE0E
:103A48000444EEE72046F8BD10B59DF8084044EA66
:103A5800032343EA024242EA0161042341600375F9
:103A680010BD000037B5044D05609DF8185000954D
:103A7800FFF7EAFF03B030BDDC530A084174704712
:103A880070470021007CFFF7DDBC0121007CFFF7B7
:103A9800D9BC007CFFF7CEBC007CFFF7C3BC38B5AF
:103AA8000446007C0D46FFF7C5FC002801DC607C5D
:103AB80020B12946207CFFF7CDFC012038BD007CD1
:103AC800FFF7D0BC10B50446FCF7E5FA204610BD58
:103AD80010B50446002363604FF47A73A360054B66
:103AE800084623600123217463741146FFF792FC92
:103AF800204610BDF0530A0810B5044614220021D0
:103B080001F03BFB054B20466360054BE36040F248
:103B1800011323818123238210BD00BFBD0400202F
:103B28003C04002030B50E4D87B001A8FFF7E4FF34
:103B3800296811F0010410D12846FCF7AEFA60B1EB
:103B480001AA21460748FFF7C3FF2846FCF7AAFA4F
:103B5800054A0649034800F013FA024807B030BD89
:103B680038040020C005002064030020893A0A08B0
:103B780010B504461422002101F0FFFA054B204637
:103B88006360054BE36040F20113238181232382A4
:103B980010BD00BF70060020D805002010B50E4CDF
:103BA80086B001A8FFF7E4FF2368DB0710D420469E
:103BB800FCF773FA60B101AA01210848FFF788FFF2
:103BC8002046FCF76FFA064A0649044800F0D8F97F
:103BD800024806B010BD00BFD40500205C060020D6
:103BE80064030020893A0A0800470000F0B51C4623
:103BF80085B005460E461746FFF722FB0020844293
:103C08004FF0040303908DF80C30B4BF03469DF8C1
:103C180028302846A4BF8DF80E3003AB00933246F7
:103C28003B460449A8BF8DF80D40FFF701FB012072
:103C380005B0F0BDF13B0A08704741747047007C3D
:103C4800FFF766BB007CFFF73BBB007CFFF748BB78
:103C5800007CFFF73DBB007CFFF74ABB10B504466C
:103C6800FCF719FA204610BD70B5457C04460E468F
:103C780025B9007CFFF74CFB002805DD3146207C88
:103C8800BDE87040FFF714BB284670BD10B5044668
:103C980008461146002262604FF47A72A260054A13
:103CA80020742260012262741A46FFF7F9FA20464E
:103CB80010BD00BF20540A08007CFFF721BB00009C
:103CC80038B50C4D296811F0010411D12846FCF7CC
:103CD800E4F968B1084A2146084B0948FFF7D6FFBE
:103CE8002846FCF7DFF9074A0749054800F048F974
:103CF800034838BD0C080020100800208807002061
:103D08007407002064030020413C0A087047F8B596
:103D1800064615460C468F18BC4206D0336814F880
:103D2800011B9B6830469847F6E72846F8BD0022F5
:103D3800007CFFF71DBB0021007CFFF721BB0021A1
:103D4800007CFFF725BB0021007CFFF729BB002181
:103D5800007CFFF72DBB10B50446FCF79CF9204604
:103D680010BD000010B5044608464FF47A73A360EE
:103D7800044B0021207461602360FFF729FB204673
:103D880010BD00BF50540A080022007CFFF7C8BAD3
:103D980000231A461946007CFFF7CABA13B5002457
:103DA800007C0094FFF7CCFAC0B202B010BD01232A
:103DB800FFF7F4BF0123D2B2C9B2FFF7EFBF002269
:103DC800007CFFF7C5BA0022007CFFF7C9BA0121C1
:103DD800FFF7F9BF0021007CFFF7F2BA7047002215
:103DE80011461046FFF796BB0348044B044A0549A1
:103DF800036000F0C5B800BF9408002078540A0892
:103E080064030020E53D0A0810B504460F48FFF793
:103E1800BDFB28B1A4F10D03022B01D8002010BD71
:103E280000F08EF8FFF7D6FF08B1012CF6D9FFF79E
:103E380047FFFFF741FF18B1A4F11203012BEDD999
:103E4800172C8CBF0020012010BD00BF980800204F
:103E5800172838B504460D460AD8FF2908D0FFF7B9
:103E6800D3FF28B129462046BDE83840FFF7C0B93E
:103E780038BD38B504460D46FFF7C2F9FF2810D003
:103E8800062804D84D2323FA00F0C30709D4204696
:103E9800FFF7BAFF28B129462046BDE83840FFF7AA
:103EA800B7B938BD10B50446FFF7AAF90438C0B24F
:103EB800012808D92046FFF7A7FF20B12046BDE812
:103EC8001040FFF7ADB9002010BD000070B50C4CD4
:103ED8000C4E0D4D00212046FFF744FB20460B4CAD
:103EE8003246294600F04CF801212046FFF73AFBFC
:103EF800324629462046BDE8704000F041B800BF70
:103F080098080020640300205D350A08A8080020EE
:103F180013B5084C00231A46194600932046FFF7AC
:103F2800A1FD2046044A054902B0BDE8104000F052
:103F380027B800BFBC08002064030020113A0A0813
:103F480038B50B4D296811F001040FD12846FCF74C
:103F5800A4F858B121460748FFF704FF2846FCF7A4
:103F6800A1F8054A0549034800F00AF8014838BD98
:103F7800D4080020D808002064030020153D0A0852
:103F88000B460146184601F0DFB80000184B1A68C6
:103F9800D1075CBF01221A60164B1A68D2075CBFB2
:103FA80001221A60144B1A68D0075CBF01221A60FC
:103FB800124B1A68D1075CBF01221A60104B1A68AD
:103FC800D2075CBF01221A600E4B1A68D0075CBF8B
:103FD80001221A600C4B1A68D1075CBF01221A60D3
:103FE8000A4B1A68D2075CBF01221A60704700BFEB
:103FF800080900200409002000090020FC0800200E
:10400800F8080020F4080020F0080020EC08002040
:10401800244B1A68D0075CBF01221A60224B1A6829
:10402800D1075CBF01221A60204B1A68D2075CBF17
:1040380001221A601E4B1A68D0075CBF01221A6061
:104048001C4B1A68D1075CBF01221A601A4B1A6808
:10405800D2075CBF01221A60184B1A68D0075CBFF0
:1040680001221A60164B1A68D1075CBF01221A6038
:10407800144B1A68D2075CBF01221A60124B1A68E7
:10408800D0075CBF01221A60104B1A68D1075CBFC9
:1040980001221A600E4B1A68D2075CBF01221A600F
:1040A800704700BF3809002034090020300900207B
:1040B8002C090020280900202409002020090020BC
:1040C8001C090020180900201409002010090020EC
:1040D8000C090020244B1A68D0075CBF01221A6023
:1040E800224B1A68D1075CBF01221A60204B1A685C
:1040F800D2075CBF01221A601E4B1A68D0075CBF4A
:1041080001221A601C4B1A68D1075CBF01221A6091
:104118001A4B1A68D2075CBF01221A60184B1A683A
:10412800D0075CBF01221A60164B1A68D1075CBF22
:1041380001221A60144B1A68D2075CBF01221A6068
:10414800124B1A68D0075CBF01221A60104B1A681C
:10415800D1075CBF01221A600E4B1A68D2075CBFF8
:1041680001221A60704700BF680900206409002016
:10417800600900205C09002058090020540900202B
:10418800500900204C09002048090020440900205B
:10419800400900203C090020184B1A68D1075CBF71
:1041A80001221A60164B1A68D2075CBF01221A60F6
:1041B800144B1A68D0075CBF01221A60124B1A68A8
:1041C800D1075CBF01221A60104B1A68D2075CBF86
:1041D80001221A600E4B1A68D0075CBF01221A60D0
:1041E8000C4B1A68D1075CBF01221A600A4B1A6887
:1041F800D2075CBF01221A60704700BF88090020FF
:1042080084090020800900207C090020780900200A
:1042180074090020700900206C09002081F0004119
:1042280002E000BF83F0004330B54FEA41044FEA93
:10423800430594EA050F08BF90EA020F1FBF54EA2E
:10424800000C55EA020C7FEA645C7FEA655C00F0CA
:10425800E2804FEA5454D4EB5555B8BF6D420CDD9B
:104268002C4480EA020281EA030382EA000083EA1E
:10427800010180EA020281EA0303362D88BF30BDBE
:1042880011F0004F4FEA01314FF4801C4CEA113114
:1042980002D0404261EB410113F0004F4FEA033373
:1042A8004CEA133302D0524263EB430394EA050FFE
:1042B80000F0A780A4F10104D5F1200E0DDB02FA6D
:1042C8000EFC22FA05F2801841F1000103FA0EF201
:1042D800801843FA05F359410EE0A5F120050EF1C7
:1042E800200E012A03FA0EFC28BF4CF0020C43FAF8
:1042F80005F3C01851EBE37101F0004507D54FF005
:10430800000EDCF1000C7EEB00006EEB0101B1F554
:10431800801F1BD3B1F5001F0CD349085FEA30009A
:104328004FEA3C0C04F101044FEA445212F5800FA5
:1043380080F09A80BCF1004F08BF5FEA500C50F142
:10434800000041EB045141EA050130BD5FEA4C0C25
:10435800404141EB010111F4801FA4F10104E9D1AE
:1043680091F0000F04BF01460020B1FA81F308BFA5
:104378002033A3F10B03B3F120020CDA0C3208DD71
:1043880002F1140CC2F10C0201FA0CF021FA02F14C
:104398000CE002F11402D8BFC2F1200C01FA02F1BC
:1043A80020FA0CFCDCBF41EA0C019040E41AA2BFE1
:1043B80001EB0451294330BD6FEA04041F3C1CDAA9
:1043C8000C340EDC04F11404C4F1200220FA04F0C9
:1043D80001FA02F340EA030021FA04F345EA030173
:1043E80030BDC4F10C04C4F1200220FA02F001FA35
:1043F80004F340EA0300294630BD21FA04F02946B7
:1044080030BD94F0000F83F4801306BF81F480114F
:104418000134013D4EE77FEA645C18BF7FEA655CC2
:1044280029D094EA050F08BF90EA020F05D054EA94
:10443800000C04BF1946104630BD91EA030F1EBF99
:104448000021002030BD5FEA545C05D1400049419D
:1044580028BF41F0004130BD14F580043CBF01F590
:10446800801130BD01F0004545F0FE4141F4700176
:104478004FF0000030BD7FEA645C1ABF1946104651
:104488007FEA655C1CBF0B46024650EA013406BF52
:1044980052EA033591EA030F41F4002130BD00BF11
:1044A80090F0000F04BF0021704730B54FF48064CE
:1044B80004F132044FF000054FF0000150E700BF4F
:1044C80090F0000F04BF0021704730B54FF48064AE
:1044D80004F1320410F0004548BF40424FF000019B
:1044E8003EE700BF42004FEAE2014FEA31014FEADE
:1044F80002701FBF12F07F4393F07F4F81F060512D
:10450800704792F0000F14BF93F07F4F704730B59B
:104518004FF4607401F0004521F0004120E700BF2E
:1045280050EA010208BF704730B54FF000050AE0B5
:1045380050EA010208BF704730B511F0004502D5B6
:10454800404261EB41014FF4806404F132045FEAB8
:10455800915C3FF4DCAE4FF003025FEADC0C18BF5D
:1045680003325FEADC0C18BF033202EBDC02C2F153
:10457800200300FA03FC20FA02F001FA03FE40EAE5
:104588000E0021FA02F11444C1E600BF70B54FF0E5
:10459800FF0C4CF4E06C1CEA11541DBF1CEA1355C7
:1045A80094EA0C0F95EA0C0F00F0DEF82C4481EA2F
:1045B800030621EA4C5123EA4C5350EA013518BF4F
:1045C80052EA033541F4801143F4801338D0A0FB3C
:1045D80002CE4FF00005E1FB02E506F00042E0FBE9
:1045E80003E54FF00006E1FB03569CF0000F18BFEF
:1045F8004EF0010EA4F1FF04B6F5007F64F5407497
:1046080004D25FEA4E0E6D4146EB060642EAC62129
:1046180041EA55514FEAC52040EA5E504FEACE2E96
:10462800B4F1FD0C88BFBCF5E06F1ED8BEF1004F99
:1046380008BF5FEA500E50F1000041EB045170BD15
:1046480006F0004646EA010140EA020081EA030159
:10465800B4EB5C04C2BFD4EB0C0541EA045170BD55
:1046680041F480114FF0000E013C00F3AB8014F1CF
:10467800360FDEBF002001F0004170BDC4F1000418
:10468800203C35DA0C341BDC04F11404C4F1200599
:1046980000FA05F320FA04F001FA05F240EA0200F4
:1046A80001F0004221F0004110EBD37021FA04F62A
:1046B80042EB06015EEA430E08BF20EAD37070BDE4
:1046C800C4F10C04C4F1200500FA04F320FA05F043
:1046D80001FA04F240EA020001F0004110EBD37045
:1046E80041F100015EEA430E08BF20EAD37070BDB5
:1046F800C4F1200500FA05F24EEA020E20FA04F38E
:1047080001FA05F243EA020321FA04F001F000413C
:1047180021FA04F220EA020000EBD3705EEA430EAD
:1047280008BF20EAD37070BD94F0000F0FD101F0DC
:104738000046400041EB010111F4801F08BF013C15
:10474800F7D041EA060195F0000F18BF704703F053
:104758000046520043EB030313F4801F08BF013DDA
:10476800F7D043EA0603704794EA0C0F0CEA135596
:1047780018BF95EA0C0F0CD050EA410618BF52EA50
:104788004306D1D181EA030101F000414FF0000056
:1047980070BD50EA410606BF1046194652EA430664
:1047A80019D094EA0C0F02D150EA013613D195EAD8
:1047B8000C0F05D152EA03361CBF104619460AD120
:1047C80081EA030101F0004141F0FE4141F470012A
:1047D8004FF0000070BD41F0FE4141F4780170BD1A
:1047E80070B54FF0FF0C4CF4E06C1CEA11541DBF7F
:1047F8001CEA135594EA0C0F95EA0C0F00F0A7F881
:10480800A4EB050481EA030E52EA03354FEA0131AD
:1048180000F088804FEA03334FF0805545EA1313C0
:1048280043EA12634FEA022245EA111545EA106588
:104838004FEA00260EF000419D4208BF964244F11F
:10484800FD0404F5407402D25B084FEA3202B61A3E
:1048580065EB03055B084FEA32024FF480104FF412
:10486800002CB6EB020E75EB030E22BFB61A754686
:1048780040EA0C005B084FEA3202B6EB020E75EB19
:10488800030E22BFB61A754640EA5C005B084FEA81
:104898003202B6EB020E75EB030E22BFB61A75464E
:1048A80040EA9C005B084FEA3202B6EB020E75EB59
:1048B800030E22BFB61A754640EADC0055EA060E1A
:1048C80018D04FEA051545EA16754FEA06164FEA5D
:1048D800C30343EA52734FEAC2025FEA1C1CC0D109
:1048E80011F4801F0BD141EA00014FF000004FF096
:1048F800004CB6E711F4801F04BF01430020B4F157
:10490800FD0C88BFBCF5E06F3FF6AFAEB5EB030C0E
:1049180004BFB6EB020C5FEA500C50F1000041EB0B
:10492800045170BD0EF0004E4EEA113114EB5C04D8
:10493800C2BFD4EB0C0541EA045170BD41F48011AB
:104948004FF0000E013C90E645EA060E8DE60CEAB3
:10495800135594EA0C0F08BF95EA0C0F3FF43BAFD0
:1049680094EA0C0F0AD150EA01347FF434AF95EA87
:104978000C0F7FF425AF104619462CE795EA0C0F6B
:1049880006D152EA03353FF4FDAE1046194622E738
:1049980050EA410618BF52EA43067FF4C5AE50EA12
:1049A80041047FF40DAF52EA43057FF4EBAE12E702
:1049B8004FF0FF3C06E000BF4FF0010C02E000BFE3
:1049C8004FF0010C4DF804CD4FEA410C7FEA6C5CC6
:1049D8004FEA430C18BF7FEA6C5C1BD001B050EA69
:1049E800410C0CBF52EA430C91EA030F02BF90EA54
:1049F800020F0020704710F1000F91EA030F58BF13
:104A0800994208BF90422CBFD8176FEAE37040F074
:104A1800010070474FEA410C7FEA6C5C02D150EA12
:104A2800013C07D14FEA430C7FEA6C5CD6D152EACD
:104A3800033CD3D05DF8040B704700BF8446104692
:104A480062468C461946634600E000BF01B5FFF791
:104A5800B7FF002848BF10F1000F01BD4DF808ED61
:104A6800FFF7F4FF0CBF012000205DF808FB00BF32
:104A78004DF808EDFFF7EAFF34BF012000205DF88C
:104A880008FB00BF4DF808EDFFF7E0FF94BF0120D9
:104A980000205DF808FB00BF4DF808EDFFF7CEFFDA
:104AA80094BF012000205DF808FB00BF4DF808ED19
:104AB800FFF7C4FF34BF012000205DF808FB00BFEA
:104AC8004FEA4102B2F1E04324BFB3F5001CDCF128
:104AD800FE5C0DD901F0004C4FEAC0024CEA507060
:104AE800B2F1004F40EB830008BF20F0010070478F
:104AF80011F0804F21D113F13872BCBF01F0004092
:104B0800704741F480114FEA5252C2F11802C2F1C3
:104B1800200C10FA0CF320FA02F018BF40F0010044
:104B28004FEAC1234FEAD32303FA0CFC40EA0C00F6
:104B380023FA02F34FEA4303CCE77FEA625307D133
:104B480050EA01331EBF4FF0FE4040F4400070476A
:104B580001F0004040F0FE4040F40000704700BF04
:104B680080F0004002E000BF81F0004142001FBF1A
:104B78005FEA410392EA030F7FEA226C7FEA236C23
:104B88006AD04FEA1262D2EB1363C1BFD218414018
:104B980048404140B8BF5B42192B88BF704710F0AE
:104BA800004F40F4000020F07F4018BF404211F051
:104BB800004F41F4000121F07F4118BF494292EAB9
:104BC800030F3FD0A2F1010241FA03FC10EB0C00E5
:104BD800C3F1200301FA03F100F0004302D5494272
:104BE80060EB4000B0F5000F13D3B0F1807F06D31F
:104BF80040084FEA310102F10102FE2A51D2B1F117
:104C0800004F40EBC25008BF20F0010040EA03000B
:104C18007047490040EB000010F4000FA2F10102B8
:104C2800EDD1B0FA80FCACF1080CB2EB0C0200FA42
:104C38000CF0AABF00EBC25052421843BCBFD04090
:104C48001843704792F0000F81F4000106BF80F40A
:104C580000000132013BB5E74FEA41037FEA226CCD
:104C680018BF7FEA236C21D092EA030F04D092F098
:104C7800000F08BF0846704790EA010F1CBF0020CC
:104C8800704712F07F4F04D1400028BF40F0004029
:104C9800704712F100723CBF00F50000704700F049
:104CA800004343F0FE4040F4000070477FEA226270
:104CB80016BF08467FEA23630146420206BF5FEA41
:104CC800412390EA010F40F4800070474FF0000341
:104CD80004E000BF10F0004348BF40425FEA000C08
:104CE80008BF704743F0964301464FF000001CE0B0
:104CF80050EA010208BF70474FF000030AE000BF06
:104D080050EA010208BF704711F0004302D5404243
:104D180061EB41015FEA010C02BF844601460020B5
:104D280043F0B64308BFA3F18053A3F50003BCFAD0
:104D38008CF2083AA3EBC25310DB01FA02FC63447D
:104D480000FA02FCC2F12002BCF1004F20FA02F284
:104D580043EB020008BF20F00100704702F1200277
:104D680001FA02FCC2F1200250EA4C0021FA02F2D8
:104D780043EB020008BF20EADC7070474FF0FF0CDD
:104D88001CEAD0521EBF1CEAD15392EA0C0F93EAD8
:104D98000C0F6FD01A4480EA010C400218BF5FEA7A
:104DA80041211ED04FF0006343EA501043EA5111ED
:104DB800A0FB01310CF00040B1F5000F3EBF4900E7
:104DC80041EAD3715B0040EA010062F17F02FD2AEB
:104DD8001DD8B3F1004F40EBC25008BF20F00100CE
:104DE800704790F0000F0CF0004C08BF49024CEAE5
:104DF800502040EA51207F3AC2BFD2F1FF0340EA77
:104E0800C250704740F400004FF00003013A5DDCE7
:104E180012F1190FDCBF00F000407047C2F1000228
:104E2800410021FA02F1C2F1200200FA02FC5FEA15
:104E3800310040F1000053EA4C0308BF20EADC705F
:104E4800704792F0000F00F0004C02BF400010F4D1
:104E5800000F013AF9D040EA0C0093F0000F01F07E
:104E6800004C02BF490011F4000F013BF9D041EAA0
:104E78000C018FE70CEAD15392EA0C0F18BF93EAA2
:104E88000C0F0AD030F0004C18BF31F0004CD8D1CC
:104E980080EA010000F00040704790F0000F17BF53
:104EA80090F0004F084691F0000F91F0004F14D099
:104EB80092EA0C0F01D142020FD193EA0C0F03D1F1
:104EC8004B0218BF084608D180EA010000F00040F4
:104ED80040F0FE4040F40000704740F0FE4040F4CF
:104EE800400070474FF0FF0C1CEAD0521EBF1CEA6E
:104EF800D15392EA0C0F93EA0C0F69D0A2EB03028C
:104F080080EA010C49024FEA402037D04FF0805325
:104F180043EA111143EA10130CF000408B4238BFEA
:104F28005B0042F17D024FF4000C8B4224BF5B1AF8
:104F380040EA0C00B3EB510F24BFA3EB510340EA46
:104F48005C00B3EB910F24BFA3EB910340EA9C00F4
:104F5800B3EBD10F24BFA3EBD10340EADC001B0164
:104F680018BF5FEA1C1CE0D1FD2A3FF650AF8B4208
:104F780040EBC25008BF20F0010070470CF0004C15
:104F88004CEA50207F32C2BFD2F1FF0340EAC25040
:104F9800704740F400004FF00003013A37E792F001
:104FA800000F00F0004C02BF400010F4000F013A5F
:104FB800F9D040EA0C0093F0000F01F0004C02BF5A
:104FC800490011F4000F013BF9D041EA0C0195E7C3
:104FD8000CEAD15392EA0C0F08D142027FF47DAF5C
:104FE80093EA0C0F7FF470AF084676E793EA0C0F4C
:104FF80004D14B023FF44CAF08466EE730F0004C4A
:1050080018BF31F0004CCAD130F000427FF45CAFD9
:1050180031F000437FF43CAF5FE700BF4FF0FF3C47
:1050280006E000BF4FF0010C02E000BF4FF0010C9A
:105038004DF804CD4FEA40024FEA41037FEA226C63
:1050480018BF7FEA236C11D001B052EA530C18BF85
:1050580090EA010F58BFB2EB030088BFC81738BFEA
:105068006FEAE17018BF40F0010070477FEA226CD8
:1050780002D15FEA402C05D17FEA236CE4D15FEAD4
:10508800412CE1D05DF8040B704700BF8446084608
:105098006146FFE70FB5FFF7C9FF002848BF10F1C9
:1050A800000F0FBD4DF808EDFFF7F4FF0CBF01200E
:1050B80000205DF808FB00BF4DF808EDFFF7EAFF98
:1050C80034BF012000205DF808FB00BF4DF808ED53
:1050D800FFF7E0FF94BF012000205DF808FB00BF48
:1050E8004DF808EDFFF7D2FF94BF012000205DF8CE
:1050F80008FB00BF4DF808EDFFF7C8FF34BF0120DB
:1051080000205DF808FB00BF42000ED2B2F1FE4F4E
:105118000BD34FF09E03B3EB126209D44FEA00237E
:1051280043F0004323FA02F070474FF00000704745
:1051380012F1610F01D1420202D14FF0FF307047E6
:105148004FF00000704700BF10B5054C13462CB156
:105158000A4601460220AFF3008010BD204610BD6C
:105168000000000010B5431E0A44914204D011F813
:10517800014B03F8014FF8E710BD03460244934280
:1051880002D003F8011BFAE77047034613F8012B16
:10519800002AFBD1181A0138704700001D000A08C0
:1051A8005D000A0889000A088D000A08000000004E
:1051B80057616974696E6720666F722053746172F3
:1051C80074005374617274696E6720696E203520AB
:1051D8007365636F6E64732E2E2E00474F21004651
:1051E800756C6C204C65667400536D616C6C204C5A
:1051F8006566740043656E74657200536D616C6C0E
:105208002052696768740046756C6C20526967683B
:105218007400207C200073656E736F7220303A0032
:1052280073656E736F7220313A0073656E736F72B7
:1052380020323A0073656E736F7220333A006E6FD6
:105248002073616D706C650053544F505045440095
:10525800000000000000000069210A086B210A080C
:10526800BF210A0877210A08646576696365206E9C
:105278006F7420666F756E64007265736574746907
:105288006E67206C6173744D6F76656D656E742002
:10529800696E74315F7372633D307825780072658A
:1052A80063616C6962726174696E67000000000076
:1052B800000000005D350A085F350A0866006C6E5C
:1052C80000666E00636F64650064657461696C00F4
:1052D8000D0A00253031307520005D20002564005E
:1052E8002C200028293A2000205B00636F64652089
:1052F8003D200025690064657461696C73203D2058
:1053080000626175640053657269616C00555342AF
:1053180053657269616C31007479706500706172EF
:10532800616D00636D6400696400686E6400737485
:10533800726D0066696C74006C766C006164644818
:10534800616E646C65720072656D6F766548616E3A
:10535800646C657200656E756D48616E646C65722B
:1053680073004A534F4E53747265616D4C6F6748B2
:10537800616E646C657200617070006E6F6E6500BE
:10538800747261636500696E666F007761726E00A2
:105398006572726F720070616E696300616C6C0097
:1053A8005A00252B3033643A253032750025592DA3
:1053B800256D2D25645425483A254D3A2553257ADF
:1053C8000061736374696D650000000000000000EF
:1053D800000000001F3A0A08113A0A08133A0A089E
:1053E8000000000000000000893A0A08CD3A0A08C7
:1053F800A73A0A0835370A08A13A0A088B3A0A0870
:10540800933A0A08C73A0A089B3A0A08853A0A08EA
:105418000000000000000000413C0A08653C0A0842
:10542800713C0A0835370A084D3C0A08593C0A08F5
:10543800533C0A085F3C0A08433C0A08473C0A08F0
:105448000000000000000000153D0A085F3D0A0842
:10545800373D0A08173D0A083F3D0A08473D0A0834
:105468004F3D0A08573D0A080000000000000000F0
:10547800E73D0A08E1140A0865210A08B9230A0861
:1054880059360A0871380A0881380A08F13D0A08AD
:10549800D53E0A08193F0A08953F0A0819400A0824
:0854A800DD400A08A1410A08D9
:0454B00000000000F8
:1054B40004000000DC0500005C030000E8030000B9
:1054C40074040000002000000E000000050000002D
:1054D40006000000010000000700000001000000B9
:1054E40018010000A40100008C000000030000006B
:1054F400DC0500000100000002000000AE01000015
:105504003A020000C602000052030000010000003D
:04551400C9530A0865
:10551800FFFFFFFF00000102030405060708090A50
:105528000B0C0D0E0F101112131415161718191A4B
:085538001B1C1D1E1F20280092
:045540007856341253
:04000005080A0018CD
:00000001FF
