:02000004080AE8
:1000000000000A08505B0A08000004000600050111
:0800100004026C000000000076
:100018007C570A0809480A4908B5884205D0094AA0
:10002800824202D0121A05F089FB0748074A0021CC
:10003800121A05F08EFB064808BD00BF0003002019
:10004800C45A0A08640300206403002080090020C1
:100058008009002070B503F0B1FC074B074C1E4621
:10006800E41AA4080025A54204D056F8253098477C
:100078000135F8E770BD00BF845A0A08B85A0A0863
:1000880001F05CB808B501F095F8BDE8084003F048
:1000980053BC03F0B7B903F0BDB90078B0FA80F0EB
:1000A80040097047012303707047000008B5054BED
:1000B800188804F083F9044B003018BF0120187029
:1000C80008BD00BF280300202403002008B5054B05
:1000D800188804F073F9044B003018BF0120187019
:1000E80008BD00BF180300204403002008B5054BD5
:1000F800188804F063F9044B003018BF0120187009
:1001080008BD00BF1C0300202C03002008B5054BC8
:10011800188804F053F9044B003018BF01201870F8
:1001280008BD00BF200300205C03002008B5054B74
:10013800188804F043F9044B003018BF01201870E8
:1001480008BD00BF00030020F00300202DE9F041A6
:1001580001210A2004F008F901210B2004F004F918
:1001680001210C2004F000F901210D2004F0FCF815
:1001780000210A2004F009F900210B2004F005F9F8
:1001880000210C2004F001F900210D2004F0FDF8F5
:100198004FF4FA7003F09AFB04F05EF9404904F05A
:1001A8007FF804F059F904F07FF80A2003F08EFB79
:1001B80001210A2004F0E9F801210B2004F0E5F8F8
:1001C80001210C2004F0E1F801210D2004F0DDF8F4
:1001D8000A2003F07BFB00210B2004F0D6F8314FF6
:1001E80000210C2004F0D1F800210D2004F0CDF8F6
:1001F8000121384601F0AAFC4FF47A7830213846BC
:1002080001F055F9284EC7F804800A2003F05EFB78
:1002180001210B2004F0B9F80121304601F096FCC9
:100228003121304601F043F9204D0A20C6F80480F8
:1002380003F04CFB01210C2004F0A7F8012128460B
:1002480001F084FC3221284601F031F9184C0A20CB
:10025800C5F8048003F03AFB01210D2004F095F85D
:100268000121204601F072FC3321204601F01FF9DC
:100278000A20C4F8048003F029FB38460A2101F05B
:1002880032FA30460A2101F02EFA28460A2101F0F6
:100298002AFA2046BDE8F0410A2101F024BA00BF3D
:1002A800A086010094030020F8030020AC0300207E
:1002B800C40300201FB501A801F01DFF702101A88B
:1002C80001F026FF01A9064801F07AFF044603F071
:1002D800A3FE2346034A012103F08FFA04B010BDA0
:1002E8007C03002090570A0808B5154B0021188890
:1002F80004F03AF8134B0021188804F035F8124B33
:100308000021188804F030F8104B0021188804F0F8
:100318002BF80F4B0021188804F026F80D4B01210B
:10032800188804F021F80C4B0121188804F01CF8F7
:1003380003F072FEBDE808404FF4165103F052BEB8
:1003480028030020180300201C030020200300209D
:1003580000030020480300203C03002013B5184B7D
:1003680000241888224600944FF0FF33154903F003
:10037800B7FE154B22461888144900944FF0FF33F6
:1003880003F0AEFE124B22461888124900944FF033
:10039800FF3303F0A5FE104B224618880F4900943E
:1003A8004FF0FF3303F09CFE0D4B224618880D4991
:1003B80000944FF0FF3303F093FE02B010BD00BF6E
:1003C80028030020B5000A0818030020D5000A08F1
:1003D8001C030020F5000A082003002015010A0864
:1003E8000003002035010A08F7B5134B134D00260A
:1003F800B42719884FF408728DE8C0004FF41663CB
:10040800284603F072F80E4C0E4B4FF40872198808
:1004180020464FF416638DE8C00003F066F82846BE
:1004280040F2DC5103F02DF840F2DC51204603B0D5
:10043800BDE8F04003F025B8480300206C03002015
:10044800E00300203C0300202DE9F04F102097B076
:10045800FFF71FFE044610B1012102F050F91420E5
:10046800FFF717FE0546C8B1A34B186804F01EFF36
:10047800A24B8046186804F019FFA14B074618687C
:1004880004F014FF9F4B0646186804F00FFF43461C
:1004980000903A463146284602F0ADFB1420FFF79B
:1004A800F8FD0290C8B1984B186804F0FFFE974B0E
:1004B8008146186804F0FAFE954B0746186804F060
:1004C800F5FE944B0646186804F0F0FE4B46009083
:1004D8003A463146029802F08EFB1420FFF7D9FD08
:1004E8000746C8B18C4B186804F0E0FE8B4B824677
:1004F800186804F0DBFE8A4B8146186804F0D6FEC3
:10050800884B0646186804F0D1FE534600904A46C8
:100518003146384602F06FFB2946204602F00BF9B7
:10052800814E0299204602F006F93946204602F02B
:1005380002F92146306802F032FC1020FFF7A9FDCD
:10054800B346044610B1022102F0D9F81420FFF78F
:10055800A0FD0646C8B1684B186804F0A7FE674AB4
:100568008046106804F0A2FE654A8246106804F0CE
:100578009DFE644A8146106804F098FE4346009048
:1005880052464946304602F036FB1420FFF781FDFB
:100598008146C8B15C4B186804F088FE5B4A03903A
:1005A800106804F083FE5A498046086804F07EFE0D
:1005B80058498246086804F079FE039B0090424639
:1005C8005146484602F017FB1420FFF762FD8246A9
:1005D800C8B1514B186804F069FE504A049010687D
:1005E80004F064FE4E490390086804F05FFE8046FC
:1005F8004C48006804F05AFE049B0090039A414658
:10060800504602F0F8FA3146204602F094F849467E
:10061800204602F090F85146204602F08CF8214618
:10062800DBF8000002F0BBFB1020FFF732FD0446A8
:1006380010B1032102F063F81420FFF72AFD03909C
:10064800C8B12D4B186804F031FE2C4A049010688C
:1006580004F02CFE2A498046086804F027FE294940
:100668008346086804F022FE049B009042465946DF
:10067800039802F0C0FA1420FFF70BFD0490C8B1EC
:10068800214B186804F012FE204A0590106804F007
:100698000DFE1F498046086804F008FE1D49834680
:1006A800086804F003FE059B0090424659460498EA
:1006B80002F0A1FA1420FFF7ECFC8046002835D0A0
:1006C800154B186804F0F2FD144A0690106804F0FF
:1006D800EDFD13490590086804F0E8FD11498346CB
:1006E800086804F0E3FD069B0090059A59464046C9
:1006F80002F081FA1AE000BF100300200C0300206A
:100708000803002014030020540300205003002095
:100718004C03002058030020300300203803002039
:100728001004002034030020900300200399204681
:1007380002F001F80499204601F0FDFF41462046E9
:1007480001F0F9FFA44B2146186802F028FB10209D
:10075800FFF79FFC834610B1042101F0D0FF14205D
:10076800FFF797FC0446C0B19C4B186804F09EFD47
:100778009B4A0790106804F099FD9A49069008680A
:1007880004F094FD05909848006804F08FFD05A9D1
:1007980000900EC9204602F02EFA1420FFF779FCCB
:1007A8000590B8B1914B186804F080FD904A089004
:1007B800106804F07BFD8F490790086804F076FD07
:1007C80006908D48006804F071FD009005A80FC8D8
:1007D80002F011FA1420FFF75CFC0790C8B1874BB0
:1007E800186804F063FD864A0990106804F05EFDFD
:1007F80084490890086804F059FD0690824800680A
:1008080004F054FD099B0090089A0699079802F095
:10081800F2F92146584601F08EFF0599584601F035
:100828008AFF0799584601F086FF6B4B59461868AE
:1008380002F0B5FA1820FFF72CFC834610B101210D
:1008480001F095FF1420FFF724FC0D9030B16F4B99
:100858006F4A009300216F4B02F0CDF91420FFF787
:1008680018FC0E9030B16C4B6C4A00936C496D4B80
:1008780002F0C1F91420FFF70CFC0F9030B16A4B5D
:100888006A4A00936A496B4B02F0B5F91420FFF7E6
:1008980000FC109030B1684B684A00936849694B76
:1008A80002F0A9F91420FFF7F4FB119030B1664B60
:1008B800664A00936649674B02F09DF90D995846C0
:1008C80001F039FF0E99584601F035FF0F99584647
:1008D80001F031FF1099584601F02DFF1199584643
:1008E80001F029FF3C4B5946186802F06BFA1820B2
:1008F800FFF7CFFB0C9008B102F0DCFA524629460C
:100908000C9802F0DFFA1820FFF7C3FB089008B133
:1009180002F0D0FA52460299089802F0D3FA182049
:10092800FFF7B7FB099008B102F0C4FA4A46294616
:10093800099802F0C7FA1820FFF7ABFB069008B138
:1009480002F0B8FA4A460299069802F0BBFA182053
:10095800FFF79FFB0B9008B102F0ACFA52463946FC
:100968000B9802F0AFFA1820FFF793FB129008B12A
:1009780002F0A0FA4A463946129802F0A3FA182063
:10098800FFF787FB139008B102F094FA32460299F8
:10099800139802F097FA1820FFF77BFB149008B120
:1009A80002F088FA32463946149802F08BFA182079
:1009B800FFF76FFB834608B102F07CFA32462946FE
:1009C800584602F07FFA1820FFF763FB0646002816
:1009D80042D002F06FFA3FE090030020100300209D
:1009E8000C030020080300201403002054030020F7
:1009F800500300204C03002058030020300300203F
:100A08003803002010040020340300200000A04117
:100A18000000A04000007041000020420000F041AA
:100A28000000C84100000C4200007042000048422B
:100A38000000344200005C420000A04200008C42EA
:100A480000008242000096420000C8420000B44202
:100A58000000AA420000BE4222464146304602F04B
:100A680031FA1820FFF715FB0A9008B102F022FAB4
:100A7800059A41460A9802F025FA1820FFF709FB63
:100A8800074608B102F016FA22460499384602F0E1
:100A980019FA1820FFF7FDFA159008B102F00AFAC2
:100AA800059A0399159802F00DFA1820FFF7F1FA44
:100AB800054608B102F0FEF922460399284602F0DD
:100AC80001FA1820FFF7E5FA029008B102F0F2F9EE
:100AD800059A0499029802F0F5F91820FFF7D9FA57
:100AE800059008B102F0E6F9079A0399059802F013
:100AF800E9F91820FFF7CDFA039008B102F0DAF906
:100B0800079A4146039802F0DDF91820FFF7C1FA69
:100B1800079008B102F0CEF942460499079802F00E
:100B2800D1F90820FFF7B5FA814608B102F00CF9AF
:100B38000F99484602F00CF90820FFF7AAFA8046F8
:100B480008B102F001F90E99404602F001F90820B7
:100B5800FFF79FFA049008B102F0F6F80D9904988F
:100B680002F0F6F80820FFF794FA0D9008B102F0A9
:100B7800EBF811990D9802F0EBF80820FFF789FAC5
:100B8800044608B102F0E0F81099204602F0E0F8B7
:100B98001820FFF77EFA824608B102F08BF9324638
:100BA8000C99504602F09DF91020FFF772FA0E904A
:100BB80020B14B465246012101F06AFBB54B0E9914
:100BC800186802F017F91820FFF763FA824608B18F
:100BD80002F070F932460899504602F082F9102066
:100BE800FFF757FA064620B14B465246022101F05C
:100BF8004FFBA84B3146186802F0FCF81820FFF7A5
:100C080048FA064608B102F055F90A9A0C99304696
:100C180002F067F91020FFF73CFA824620B14B46F4
:100C28003246032101F034FB9A4B5146186802F012
:100C3800E1F81820FFF72DFA064608B102F03AF954
:100C48003A460999304602F04CF91020FFF721FA8C
:100C5800824620B14B463246042101F019FB8D4BE8
:100C68005146186802F0C6F81820FFF712FA06462F
:100C780008B102F01FF9029A0699304602F031F9DC
:100C88001020FFF706FA824620B14B46324605216E
:100C980001F0FEFA7F4B5146186802F0ABF81820B5
:100CA800FFF7F7F9064608B102F004F92A460B994E
:100CB800304602F016F91020FFF7EBF9814620B113
:100CC80043463246062101F0E3FA724B494618685A
:100CD80002F090F81820FFF7DCF9064608B102F098
:100CE800E9F83A460B99304602F0FBF81020FFF776
:100CF800D0F9814620B143463246062101F0C8FAB0
:100D0800644B4946186802F075F81820FFF7C1F9D6
:100D1800064608B102F0CEF8029A0B99304602F066
:100D2800E0F81020FFF7B5F9814620B14346324676
:100D3800082101F0ADFA574B4946186802F05AF8F5
:100D48001820FFF7A6F9064608B102F0B3F8029A90
:100D58000899304602F0C5F81020FFF79AF9814645
:100D680020B143463246092101F092FA494B4946DF
:100D7800186802F03FF81820FFF78BF9064608B10B
:100D880002F098F83A460899304602F0AAF810207E
:100D9800FFF77FF9814620B1434632460A2101F028
:100DA80077FA3C4B4946186802F024F81820FFF7F8
:100DB80070F9064608B102F07DF82A4608993046CF
:100DC80002F08FF81020FFF764F9814620B14346FE
:100DD80032460B2101F05CFA2E4B4946186802F0A6
:100DE80009F81820FFF755F9064608B102F062F82D
:100DF8003A460699304602F074F81020FFF749F990
:100E0800074620B1434632460C2101F041FA214BF6
:100E18003946186801F0EEFF1820FFF73AF9064640
:100E280008B102F047F82A460699304602F059F808
:100E38001020FFF72EF9074620B1434632460D2110
:100E480001F026FA134B3946186801F0D3FF182031
:100E5800FFF71FF9064608B102F02CF82A46129946
:100E6800304602F03EF81020FFF713F9074620B18C
:100E7800434632460E2101F00BFA064B39461868F4
:100E880001F0B8FF1820FFF704F9064620B102F078
:100E980011F801E0900300202A461399304602F029
:100EA80020F81020FFF7F5F8074620B143463246F0
:100EB8000F2101F0EDF9A04E3946306801F09AFF94
:100EC8001820FFF7E6F8074608B101F0F3FF2A46B5
:100ED8001499384602F005F81020FFF7DAF80546AD
:100EE80020B1049B3A46102101F0D2F92946306816
:100EF80001F080FF1820FFF7CCF8054608B101F093
:100F0800D9FF059A5946284601F0EBFF1020FFF754
:100F1800C0F8064620B10D9B2A46112101F0B8F908
:100F2800854D3146286801F065FF1820FFF7B1F8B4
:100F3800064608B101F0BEFF039A5946304601F053
:100F4800D0FF1020FFF7A5F8074620B12346324608
:100F5800122101F09DF93946286801F04BFF18204D
:100F6800FFF797F8064608B101F0A4FF039A09991C
:100F7800304601F0B6FF1020FFF78BF8074620B186
:100F880023463246132101F083F93946286801F0D7
:100F980031FF1820FFF77DF8064608B101F08AFFF7
:100FA800039A0699304601F09CFF1020FFF771F86C
:100FB800074620B123463246142101F069F9394623
:100FC800286801F017FF1820FFF763F8064608B1F4
:100FD80001F070FF0A9A0699304601F082FF10204E
:100FE800FFF757F8074620B123463246152101F08E
:100FF8004FF93946286801F0FDFE1820FFF749F837
:10100800064608B101F056FF0A9A0999304601F0E0
:1010180068FF1020FFF73DF8074620B12346324607
:10102800162101F035F93946286801F0E3FE182049
:10103800FFF72FF8064608B101F03CFF0A9A594617
:10104800304601F04EFF1020FFF723F8074620B185
:1010580023463246172101F01BF93946286801F06A
:10106800C9FE1820FFF715F8064608B101F022FF5F
:10107800029A0999304601F034FF1020FFF709F869
:10108800074620B123463246182101F001F93946B6
:10109800286801F0AFFE1820FEF7FBFF064608B1EE
:1010A80001F008FF029A5946304601F01AFF102055
:1010B800FEF7EFFF074620B123463246192101F01B
:1010C800E7F83946286801F095FE1820FEF7E1FF99
:1010D800064608B101F0EEFE079A5946304601F07F
:1010E80000FF1020FEF7D5FF074620B12346324601
:1010F8001A2101F0CDF83946286801F07BFE182046
:10110800FEF7C7FF064608B101F0D4FE159A594606
:10111800304601F0E6FE1020FEF7BBFF074620B17F
:10112800234632461B2101F0B3F83946286817B028
:10113800BDE8F04F01F05EBE9003002038B5FFF720
:1011480005F8FFF7B7F8FFF7CFF8FFF707F9FFF74C
:101158004BF9144C23782BB902F05EFF124902F0C8
:101168002BFAF7E702F058FF104902F025FA41F28E
:10117800883002F0ABFB02F04FFF0D4902F01CFA79
:1011880001F0EEFF0546FFF75FF902F045FF044660
:1011980001F0E6FF0A22411B2046BDE8384002F074
:1011A80041BA00BFF0030020A0570A08B2570A0846
:1011B800CB570A082DE9F043694885B000F0CEFA0C
:1011C800684D694E2860694800F0C8FA3060684880
:1011D80000F0C4FA674F684C3860684800F0BEFAFF
:1011E80020605F4800F0E0FAA046002840F0B28096
:1011F8005E4800F0D9FA002840F0AC805C4800F066
:10120800D3FA002840F0A6805C4800F0CDFA002808
:1012180040F0A080286804F049F8594C02460121A2
:10122800206801F0FAFD306804F040F80221024617
:10123800206801F0F2FD386804F038F8032102460E
:10124800206801F0EAFDD8F8000004F02FF8042126
:101258000246206801F0E1FD206801F0F2FD01215D
:10126800206801F015FE814602F0D6FE454902F0DD
:1012780090F902F0D1FE0446484603F0C1FB022370
:101288000246009320460B4602F0B2FA02F0C4FE72
:101298003D4902F07EF902F0BFFE3C4902F079F9BF
:1012A80002F0BAFE0A22296802F0E8F902F0B4FE58
:1012B800354902F06EF902F0AFFE354902F069F9DE
:1012C80002F0AAFE0A22316802F0D8F902F0A4FE60
:1012D8002D4902F05EF902F09FFE2E4902F059F9FD
:1012E80002F09AFE0A22396802F0C8F902F094FE68
:1012F800254902F04EF902F08FFE274902F049F91C
:1013080002F08AFE0A22D8F8001002F0B9F9642027
:1013180002F0DCFA02A9214800F01AFF014628B9B8
:101328001F4B3C221B781F4802F046FD1E4B1F4CEA
:101338001A781F4B1AB140F2DC521A6022601988E1
:101348001C4802F09EF821881B4802F09AF805B064
:10135800BDE8F08302F060FE184902F01AF959E777
:101368009403002018040020F4030020F803002050
:10137800AC0300201404002068030020C4030020EC
:1013880090030020CF570A08D8570A08DC570A08E4
:10139800E6570A08F0570A08FA570A087C0300209B
:1013A800DC03002004580A08F0030020040300208E
:1013B800400300206C030020E00300200E580A08B8
:1013C8001B4B10B500221A7001F072FE194800F08C
:1013D8004DF8194800F04AF8184800F047F818483E
:1013E80000F044F8174802F06CF8174802F069F862
:1013F8001820FEF74EFE044608B101F0C8FC134B56
:10140800002101201C6001F0BDFF032001F0AAFFAC
:1014180003F022F80022014611230D4800F02CFFAA
:10142800BDE810400B4A0C49094803F035B800BF25
:10143800DC03002094030020F8030020AC03002004
:10144800C40300206C030020E00300209003002068
:101458007C0300206403002045200A080368C9B201
:101468009B6818470368C9B29B68184729224270CD
:10147800002242600272704770B5044615460E4657
:1014880002F0EAFF617802F026FF02F0E5FF036848
:1014980031469B68984702F0DFFF036829469B683E
:1014A800984702F0D9FF02F01EFF207070BD38B5D2
:1014B80005460C4601F07F028A21FFF7DDFF6C70BC
:1014C80038BD70B5044615460E4602F0C5FF617872
:1014D80002F001FF02F0C0FF036831469B6898479D
:1014E80002F0BAFF290AFFF7BDFF02F0B5FFE9B223
:1014F800FFF7B8FF02F0B0FF02F0F5FE207070BDF4
:1015080070B5054614460E4602F0A6FF697802F04B
:10151800E2FE02F0A1FF036831469B68984702F09B
:101528009BFF210EFFF79AFF02F096FFC4F30741D5
:10153800FFF794FF02F090FFC4F30721FFF78EFF37
:1015480002F08AFFE1B2FFF789FF02F085FF02F09F
:10155800CAFE287070BD38B504460D4602F07CFFFF
:10156800617802F0B8FE02F077FF036829469B68AD
:10157800984702F071FF02F0B6FE207002F06CFF8F
:101588000122617802F09FFE02F066FF03685B6942
:101598009847C0B238BD38B504460D4602F05CFF26
:1015A800617802F098FE02F057FF036829469B68AD
:1015B800984702F051FF02F096FE207002F04CFFAF
:1015C8006178022202F07FFE02F046FF03685B6941
:1015D8009847044602F040FF03685B69984740EA71
:1015E800042080B238BDF8B5064614461D460F469D
:1015F80002F032FF717802F06EFE02F02DFF0368F0
:1016080039469B6898472544AC4207D002F024FF2E
:10161800036814F8011B9B689847F5E702F01CFF64
:1016280002F061FE3070F8BDF8B5064614461D4656
:101638000F4602F011FF717802F04DFE02F00CFF28
:10164800036839469B68984702F006FF02F04BFE94
:10165800307002F001FF2A46717802F034FE25440A
:10166800AC4207D002F0F8FE03685B69984704F8BB
:10167800010BF5E7F8BD000070B50D4606460021E0
:10168800284604F005F8B0B9284603F0B9F90CA3C8
:10169800D3E9002303F098FC68B94FF08641284647
:1016A80003F058FE04F01CF8442182B23046FFF7DC
:1016B80008FF012070BD002070BD00BFAFF300809F
:1016C800A4703D0AD7FF7F4008B509B9502102E050
:1016D800012906D17021FFF73EFF01304000C0B25A
:1016E80008BDFF2008BD38B504460D4601228021FB
:1016F800FFF7C2FE0122FF212046FFF7BDFE0022B0
:1017080011462046FFF7B8FE227C91212046FFF7BC
:10171800B3FE012200212046FFF7AEFE0022FF2182
:101728002046FFF7A9FE002280212046FFF7A4FEED
:101738006DB1F8212046FFF72EFF00B145432A4638
:1017480004212046FFF7DCFE0422002101E029469F
:1017580002222046BDE83840FFF78EBE38B5044661
:1017680001F0FEFCE06013212046FFF7F4FE43077A
:101778000ED16368002BF6D001F0F2FCE368C01AC2
:1017880063689842EFD9012323724FF6FF7038BD82
:101798001E212046FFF7FFFE0546012220460B21A9
:1017A800FFF76AFE284638BD03460022007A1A72FF
:1017B8007047F8B504460F46164680210122FFF708
:1017C8005BFE0122FF212046FFF756FE002211464C
:1017D8002046FFF751FE0622FF212046FFF74CFE68
:1017E80083212046FFF7B7FE40F00402D2B28321DE
:1017F8002046FFF741FE0722FF212046FFF73CFE67
:10180800012281212046FFF737FE01228021204650
:10181800FFF732FE6B2294212046FFF72DFE0022AF
:1018280083212046FFF728FE01F09AFCE06083211F
:101838002046FFF790FE054658B96368002BF6D09E
:1018480001F08EFCE368C01A63689842EFD9284615
:10185800F8BD012220468321FFF70EFE9221204683
:10186800FFF779FE00F07F03C0F3C0103B70002241
:10187800307081212046FFF7FFFD06222046FF2118
:10188800FFF7FAFD83212046FFF765FE8321024614
:101898002046FFF7F1FD20460122FF21FFF7ECFD6E
:1018A800204601220021FFF7E7FD20460022FF2104
:1018B800FFF7E2FD204600228021FFF7DDFD012031
:1018C800F8BD10B50C460121FFF745FEC0F3001323
:1018D8002370C0F3C003A370C0F380036370C0F328
:1018E8008013C0F3C010E370207110BD4FF6FF7372
:1018F800984228BF1846C3B2000A03FA00F0013024
:1019080080B27047B0F5803F01D278B101E04FF660
:10191800FF700138002330F0FF019AB203F1010390
:1019280001D04008F7E740EA022080B27047000083
:10193800084B4FF47A72594310B501F5FA714FF418
:10194800FA64B1FBF2F3B1FBF4F100FB0310B0FB56
:10195800F2F010BD002F3A0070B50E460021144673
:101968000546FFF7B1FE462120802846FFF7F3FD24
:10197800013080B22178A080FFF7DAFF5121E060C2
:101988002846FFF708FEFFF7B1FF2178E080FFF750
:10199800CFFF702120612846FFF7DDFD01304000B0
:1019A800C0B2608071212846FFF7F5FDFFF79EFF62
:1019B8002081F37813B1E388C01A2081A1782089A7
:1019C800FFF7B6FF606170BD10B5044688B0694680
:1019D800FFF777FF02AA69462046FFF7BDFF9DF88B
:1019E80000301BB1059800F6845001E040F636300F
:1019F8009DF802302BB1059B03F2B22300EB4300A4
:101A080006E09DF801301BB1059B03F525731844CA
:101A18009DF803301BB1069B03F5257318449DF808
:101A280004301BB1079B03F226231844606108B0F9
:101A380010BD0000084B4FF47A7259434FF4FA6313
:101A480001F5FA71B1FBF3F3B1FBF2F102FB0030DF
:101A5800B0FBF1F0704700BF002F3A0044F61F6357
:101A6800F0B5994289B006460D4642D96946FFF756
:101A780028FF02AA69463046FFF76EFF9DF800303E
:101A88001BB1059800F6363001E040F6E8009DF8F5
:101A980002302BB1059B03F2B22300EB430006E0B2
:101AA8009DF801301BB1059B03F5257318449DF87B
:101AB80003701FB1069B03F5257318449DF8044075
:101AC800ACB100F22620854213D39DF80A10281ADB
:101AD800FFF7B0FF17B1BDF80E301844FFF712FF3B
:101AE800712102463046FFF7ECFC756102E00124E3
:101AF80000E00024204609B0F0BD38B541F00102ED
:101B080000210446FFF7B8FC01F02AFBE06013212E
:101B18002046FFF720FD10F007050BD16368002B66
:101B2800F5D001F01DFBE368C01A63689842EED94E
:101B3800284638BD204601220B21FFF79DFC0022D4
:101B480020461146FFF798FC012038BDF0B5044641
:101B580085B049B18921FFF7FEFC40F00102D2B2FD
:101B680089212046FFF788FC002288212046FFF7BC
:101B780083FC012280212046FFF77EFC0122FF2101
:101B88002046FFF779FC002211462046FFF774FC37
:101B980091212046FFF7DFFC012220740021204616
:101BA800FFF76AFC0022FF212046FFF765FC0022B0
:101BB80080212046FFF760FC60212046FFF7CBFC20
:101BC80040F01202D2B260212046FFF755FC4FF0D8
:101BD8007A512046FFF750FDFF2201212046FFF7EA
:101BE8004BFC0DF107020DF106012046FFF7E1FD60
:101BF80008B900251DE2062302AAB0212046FFF7F6
:101C080013FD0122FF212046FFF736FC00224F2159
:101C18002046FFF731FC2C224E212046FFF72CFCF2
:101C28000022FF212046FFF727FC00252046B62189
:101C3800B422FFF721FC29469DF807309DF806607D
:101C4800002B14BF0C2000200127EBB2DA089842C1
:101C58000DF1100E03F00703724401D88E4208D12B
:101C680012F808EC07FA03F32EEA030302F8083C1B
:101C780007E012F8082C42FA03F3DB0744BF0131EE
:101C8800C9B20135302DE0D1062302AAB021204681
:101C9800FFF7A9FC0122FF212046FFF7EDFB0022F8
:101CA80011462046FFF7E8FB0022FF212046FFF7F8
:101CB800E3FB002209212046FFF7DEFB002210216A
:101CC8002046FFF7D9FB002211212046FFF7D4FB5D
:101CD800012224212046FFF7CFFBFF2225212046A1
:101CE800FFF7CAFB002275212046FFF7C5FB01223A
:101CF800FF212046FFF7C0FB2C224E212046FFF78C
:101D0800BBFB002248212046FFF7B6FB20222946CC
:101D18002046FFF7B1FB0022FF212046FFF7ACFB6E
:101D2800092229462046FFF7A7FB00225421204616
:101D3800FFF7A2FB042231212046FFF79DFB032277
:101D480032212046FFF798FB832240212046FFF7E7
:101D580093FB252246212046FFF78EFB00226021B7
:101D68002046FFF789FB002227212046FFF784FB46
:101D7800062250212046FFF77FFB002251212046F2
:101D8800FFF77AFB962252212046FFF775FB0822BF
:101D980056212046FFF770FB2A4657212046FFF7B9
:101DA8006BFB002261212046FFF766FB00226221BF
:101DB8002046FFF761FB002264212046FFF75CFB09
:101DC800002265212046FFF757FBA0226621204606
:101DD800FFF752FB0122FF212046FFF74DFB32227D
:101DE80022212046FFF748FB142247212046FFF70F
:101DF80043FBFF2249212046FFF73EFB00224A21F0
:101E08002046FFF739FB0022FF212046FFF734FB6D
:101E18000A227A212046FFF72FFB00227B21204649
:101E2800FFF72AFB212278212046FFF725FB012214
:101E3800FF212046FFF720FB342223212046FFF70D
:101E48001BFB002242212046FFF716FBFF224421FC
:101E58002046FFF711FB262245212046FFF70CFB01
:101E6800052246212046FFF707FB4022114620465F
:101E7800FFF702FB06220E212046FFF7FDFA1A2281
:101E880020212046FFF7F8FA402243212046FFF799
:101E9800F3FA0022FF212046FFF7EEFA032234214D
:101EA8002046FFF7E9FA442235212046FFF7E4FAF5
:101EB8000122FF212046FFF7DFFA042231212046C4
:101EC800FFF7DAFA09224B212046FFF7D5FA052257
:101ED8004C212046FFF7D0FA04224D212046FFF777
:101EE800CBFA0022FF212046FFF7C6FA0022442140
:101EF8002046FFF7C1FA202245212046FFF7BCFA09
:101F0800082247212046FFF7B7FA28224821204611
:101F1800FFF7B2FA002267212046FFF7ADFA042244
:101F280070212046FFF7A8FA012271212046FFF709
:101F3800A3FAFE2272212046FFF79EFA002276219C
:101F48002046FFF799FA002277212046FFF794FAF6
:101F58000122FF212046FFF78FFA01220D2120469A
:101F6800FFF78AFA0022FF212046FFF785FA0122AF
:101F780080212046FFF780FAF82201212046FFF74A
:101F88007BFA0122FF212046FFF776FA01228E21F3
:101F98002046FFF771FA012200212046FFF76CFA6C
:101FA8000022FF212046FFF767FA00228021204601
:101FB800FFF762FA04220A212046FFF75DFA84211E
:101FC8002046FFF7C8FA842100F0EF022046FFF709
:101FD80053FA01220B212046FFF74EFA2046FFF75D
:101FE800F3FCE822606101212046FFF745FA6169A8
:101FF8002046FFF733FD012211462046FFF73CFA41
:1020080040212046FFF779FD00283FF4F2AD022277
:1020180001212046FFF730FA00212046FFF76DFD29
:10202800054600283FF4E5ADE82201212046FFF7E8
:1020380023FA284605B0F0BD01F03AB8704710B54C
:102048000446FEF728F8204610BDF8B505461E469A
:102058000F46017CC06841F01801144602F03BF9B4
:10206800E868012E036888BF47F080079B683946F7
:1020780098472644A642E86805D0036814F8011B6F
:102088009B689847F6E702F02EF9B0FA80F040090D
:10209800F8BDF8B504461E460F46017CC06841F0FD
:1020A8001801154602F017F9E068012E036888BF89
:1020B80047F080079B6839469847E06802F013F9B3
:1020C800A8B9217C324641F01801E06802F0FEF818
:1020D8002E44AE420DD0E06803681B69984740B1B2
:1020E800E06803685B69984705F8010BF1E7002091
:1020F800F8BD0120F8BD0022027042708270C270E3
:10210800027142718271C2710272427282727047A8
:1021180041F007010170704713B5036801AA9C6874
:102128000123A0479DF8040002B010BD38B505464C
:102138000A240F212846FFF7EFFF33284FF001004C
:1021480005D001F0C3FB013CF3D1204638BD38BDB2
:10215800F7B50C4607210646FFF7DEFF00F008003A
:10216800002814BF012500251BD033686A469F68E4
:10217800282106233046B8479DF801209DF80030F5
:1021880043EA022323809DF803209DF8023043EAA6
:10219800022363809DF805209DF8043043EA02235A
:1021A800A380284603B0F0BD37B502AC036804F835
:1021B800042DDD6822460123A84703B030BD000086
:1021C80070B504460D46FFF7B1FF064628B901F081
:1021D80023FF284901F0F0F949E02A782021204618
:1021E800FFF7E2FF6A7821212046FFF7DDFFAA7892
:1021F80022212046FFF7D8FFEA7823212046FFF75F
:10220800D3FF2A7924212046FFF7CEFF6A792521BA
:102218002046FFF7C9FFAB791BB126212046FFF7FF
:102228007BFFAA7A2E212046FFF7BEFFAB785B061C
:102238001DD5EA7932212046FFF7B6FF2A7A3321E5
:102248002046FFF7B1FF6368002B0ADB6A7A204655
:1022580022723021FFF7A8FF31212046FFF75CFFEB
:1022680005E00022227230212046FFF79DFF30460C
:1022780070BD00BF38580A0810B54360024BC160F2
:102288000360027410BD00BF28580A0800F010BF90
:1022980010B5C360002301608260037110BD38B5BA
:1022A8000446806870B100F02BFE0021054603F05B
:1022B8000DFA10B10123237100E020712946E0686E
:1022C80000F059FD207938BD002202604260704755
:1022D80070B5044610200E46154601F093F8002309
:1022E80070B1036046608560C360636813B960605D
:1022F800206004E02368036020600368D860012040
:1023080070BD70B50D46164604685CB12946606814
:1023180003F0B4F920B13146A06803F0AFF918B959
:102328002468F2E7204670BD012070BD2DE9F84F02
:102338000027BA464568002D00F0B180EE680EB956
:102348003546F8E76C68D6F804802046414603F025
:1023580095F9D5F808B008B15D4691E000215846D6
:1023680003F08CF930B9B5680021284603F086F9E6
:10237800002836D00021584603F0A8F908B9B568F6
:1023880000E05D462146404602F0DAFE01468046FE
:10239800284602F0DFFF4FF07C5102F0DBFFB16806
:1023A8000546584603F074F928B1404602F028FB68
:1023B8000022424B04E0404602F022FB404B002240
:1023C80002F09CFC80462046894602F019FB024632
:1023D8000B464046494602F0B5F902F05DFE044658
:1023E8004EE00021584603F071F90021C0B128469B
:1023F80003F06CF9C0B12946584603F03FF9E8B13B
:102408002146404602F09CFE01468046584602F0AE
:10241800A1FF0546404602F0F3FA0022294B2AE0C4
:10242800584603F053F948B30021284603F04EF903
:1024380020B32946584603F021F9F8B92146404609
:1024480002F07EFE02F0DCFA8046894658462946AC
:1024580002F078FE02F0D4FA00221A4B02F024FBB4
:1024680042464B4602F020FB02F016FE494605465E
:102478004046144B002202F017FBA3E70024254630
:102488002146284602F066FF0146504602F05AFEF1
:1024980029468246384602F055FE074650E7002195
:1024A800384603F0EBF828B93946504603F006F8E9
:1024B800BDE8F88F0020BDE8F88F00BF0000F83FA6
:1024C800000008400000E03F10B50C4639B1C9686B
:1024D800FFF7FAFF2046BDE8104000F09BBF10BD93
:1024E80010B504464168FFF7EFFF002363602360DF
:1024F800012010BD08B511B1084600F08BFF01207E
:1025080008BD0000000000002DE9F04F1E464B6892
:1025180087B001938B68D6F808900293109B0590BA
:102528000C4698684946174602F00AFE0199824609
:10253800786802F005FED6F80480109B41460390A7
:10254800586802F0FDFD02998346B86802F0F8FD6C
:1025580003990490504602F0FDFE0499054658463A
:1025680002F0F8FE0146284602F0EAFD4946054613
:10257800029802F0E5FD41468146019802F0E0FD2F
:1025880049468046584602F0E5FE41468346504695
:1025980002F0E0FE0146584602F0D2FD4946824666
:1025A800039802F0D7FE41468146049802F0D2FE15
:1025B8000146484602F0C4FD00218046284603F043
:1025C80067F808B105F100450021504603F060F8AE
:1025D80008B10AF1004A0021404603F059F808B151
:1025E80008F10048284602F00BFA31A3D3E900238A
:1025F80002F0CCFC08B1002057E02946504602F012
:102608005DFF0021814603F043F80028F3D14FF025
:102618007E51484603F05AF80028ECD12946404636
:1026280002F04CFF0021054603F032F80028E2D101
:102638004FF07E51284603F049F80028DBD149467F
:10264800039802F087FE019902F07CFD4946054691
:10265800049802F07FFE029902F074FD8046102073
:1026680000F0D0FE0028C6D0109B45600360C0F87B
:102678000880C760D86038607768B668D4F8049076
:1026880021460598D4F808802568FFF733FF4946A6
:10269800384602F0F3FF20B14146304602F0EEFF23
:1026A80010B92C46002DE9D1012007B0BDE8F08F04
:1026B800FCA9F1D24D62503FF7B506464568DDB139
:1026C8002C462768B7B17968606802F0E1FF08B95D
:1026D8003C46F6E727463B6863B11A6842B1009268
:1026E800E26821463046FFF70FFF08B1756801E040
:1026F8003F68F0E7ED68E2E7012003B0F0BD10B5F0
:10270800044600F00FF8204610BD38B50546846829
:1027180034B1206810B1696800F07EFA6468F7E7A0
:10272800012038BD002201608260C26070470068E5
:1027380070474160704738B5044608200D4600F0E0
:1027480061FE50B1002305604360A3680BB9A06027
:1027580001E0E3685860E060012038BD10B5846886
:1027680024B1206800F0EDFA6468F9E710BD10B5EF
:102778000446FFF7D7FF04F11000FFF7A5FD204638
:1027880010BD1030FFF7D2BDF8B58468064625465F
:10279800CDB1ACB163688BB1206800F035FA6368DD
:1027A8000746186800F030FA0146384602F08EFFF6
:1027B80020B194E80C00196821601A606468E8E7A1
:1027C800B4686D68E4E70120F8BD0000000000006F
:1027D8002DE9F74F10980F460E9915461C4602F042
:1027E800AFFC39468246204602F0AAFC0D99804685
:1027F8000F9802F0A5FC294683460C9802F0A0FC2D
:1028080041460646504602F0A5FD31460446584664
:1028180002F0A0FD0146204602F092FC0E99044603
:10282800284602F08DFC0D998146384602F088FC56
:1028380049460190584602F08DFD0199834650465D
:1028480002F088FD0146584602F07AFC4946824665
:10285800404602F07FFD01998146304602F07AFD3C
:102868000146484602F06CFC00218146204602F0F1
:102878000FFF08B104F100440021504602F008FFA0
:1028880008B10AF1004A0021484602F001FF08B1E8
:1028980009F10049204602F0B3F821A3D3E9002347
:1028A80002F074FB0190002833D12146504602F013
:1028B80005FE0021824602F0EBFE50BB4FF07E5130
:1028C800504602F003FF20BB21460190484602F023
:1028D800F5FD0021814602F0DBFE0446C8B94FF041
:1028E8007E51484602F0F2FEA8B95146404602F031
:1028F80031FD394602F026FC119B514618603046DE
:1029080002F028FD294602F01DFC129B18600120E8
:1029180002E0002000E0204603B0BDE8F08F00BFD1
:10292800FCA9F1D24D62503F2DE9F04F064600F167
:10293800100591B02846FFF7D3FDB4684FF07E59D3
:102948000DAF002C00F05081206800F0F8F900214C
:1029580002F0BCFE002800F0D880206800F054F98E
:102968008046206800F052F90146404602F086FE93
:1029780080B9206800F048F9002201462846FFF790
:10298800C0FC38B9206800F03FF90022014628460B
:10299800FFF79EFC206800F039F98046206800F0B7
:1029A80037F90146404602F069FE68B1206800F038
:1029B8002BF98046206800F02DF90146404602F0C8
:1029C8005DFE002800F0A380206800F01FF9804613
:1029D800206800F01DF90146404602F04FFE00282D
:1029E80040F09F80206800F0AAF94FF07E5102F075
:1029F80045FE002840F0C480206800F007F90C90DC
:102A0800206800F09CF90D90206800F0FDF88046E1
:102A1800206800F0FBF88246206800F0F5F883464D
:102A2800206800F08CF90A90206800F0F3F809900B
:102A3800206800F084F9099A0A9B0CA90591049072
:102A480003920293002241460697CDF804B0CDF8D0
:102A5800009053463046FFF7BBFE0D9A0C99284666
:102A6800FFF74FFC20B90D9A0C992846FFF730FC68
:102A7800206800F0CBF80E90206800F060F90DF1A6
:102A8800400848F8040D206800F0C2F88246206823
:102A980000F0C0F88346206800F0B6F80990206876
:102AA80000F04DF90B90206800F0B4F80A90206807
:102AB80000F045F90EAB0593099B0A990B9A01930F
:102AC800002304900391029200934FF07E525146E6
:102AD800CDF818805B463046FFF77AFE0F9A0E99BC
:102AE8002846FFF70EFC20B90F9A0E992846FFF7E3
:102AF800EFFB206800F08CF88046206800F08AF828
:102B08000146404602F0BAFD18B3646819E7206828
:102B180000F015F94FF07E5102F0B0FD00283FF4A7
:102B28006BAF206800F072F88046206800F007F963
:102B3800414602462846FFF7E4FB0028D9D1206821
:102B480000F064F88046206800F0F9F84146024633
:102B5800CCE7206800F05EF8002201462846FFF71F
:102B6800D0FB002837D0206800F054F88046206851
:102B780000F04AF80146404602F080FD58BBC4E721
:102B8800206800F043F88046206800F0D8F84146F5
:102B980002462846FFF7B5FB58B9206800F036F81A
:102BA8008046206800F0CBF8414602462846FFF7E9
:102BB8008FFB206800F02CF88046206800F0BFF8F2
:102BC800414602462846FFF79CFB002891D1206821
:102BD80000F01EF8B6E7206800F01CF80022014655
:102BE8002846FFF775FB90E72846FFF765FD0120AB
:102BF80011B0BDE8F08F10B58360029B0160C3601F
:102C080000234260036110BD006870474068704748
:102C180080687047C06870472DE9F8430768044624
:102C280038460D4602F052FD666898B1314638467E
:102C380002F024FD00282ED0A5683046294602F06F
:102C48001DFD40BB2846E16802F018FD18BB4FF097
:102C58007E5321E02946384602F024FDF0B931467A
:102C6800284602F029FD00282FD1D4F808802846EC
:102C7800414602F02BFDD4F80C9000282CD149468F
:102C8800284602F023FD00284DD04946404602F070
:102C9800F5FC00283ED10023236144E03146284654
:102CA80002F0F6FC0028DAD03946304602F048FA3D
:102CB80001464FF07E5002F001FC31460746284697
:102CC80002F03EFA014638461CE0A168284602F0A8
:102CD800E9FC0028C9D0BAE74946284602F0E2FCD8
:102CE8000028CCD04946404602F02AFA01464FF067
:102CF8007E5002F0E3FB41460646284602F020FAE1
:102D08000146304602F026FB4FF07E5102F01AFAD7
:102D1800206108E04146304602F0B0FC0028BAD1F4
:102D28003146384690E70120BDE8F88338B50446B7
:102D380000690D4602F0ACFC00B1256138BD0069A0
:102D480070470023036170470022426002607047A9
:102D580038B5044608200D4600F054FB50B1002356
:102D68000560436063680BB9606001E023685860E0
:102D78002060012038BD38B50D4644682CB1206864
:102D88002946FFF7D3FF6468F8E7012038BD002221
:102D980042600260C260826042610261704738B579
:102DA800044608200D4600F02DFB50B100230560B5
:102DB800436063680BB9606001E023685860206075
:102DC800012038BD70B5054608200E4600F01AFBF4
:102DD800044670B10023436006603046FFF7D4FC18
:102DE800EB680BB9EC6001E0AB685C60AC6001209B
:102DF80070BD70BD38B5044608200D4600F002FBD2
:102E080050B100230560436063690BB9606101E05C
:102E1800236958602061012038BD70B50D461646FB
:102E2800446864B12068FFF782FCA84205D1206895
:102E38003146FFF77EFC012070BD6468F1E720464B
:102E480070BD38B50446456825B12868FFF786FC8B
:102E58006D68F9E7E56825B12868FFF77FFC6D68BC
:102E6800F9E7656825B12868FFF74FFC6D68F9E751
:102E7800656925B12868FFF712FA6D68F9E7E46813
:102E880024B12068FFF750FD6468F9E7012038BDD8
:102E980038B50D46C4685CB12068FFF748FCA84205
:102EA80004D12068BDE83840FFF76BBC6468F2E7DE
:102EB800002038BD0022026042608260C260026168
:102EC8004261704710B5034639B142B1012002246E
:102ED80083E811009960DA6010BD084610BD1046FD
:102EE80010BD10B5034639B142B10120042483E86E
:102EF800110019615A6110BD084610BD104610BD79
:102F080038B504466368013B032B00F2CE80DFE846
:102F180003F07602377B2368012B02D0022B1ED0E8
:102F2800C3E0A068FFF70BFF002102F0CFFB0028E9
:102F380000F0BB80E068FFF702FF002102F0C6FB4B
:102F4800002800F0B280A068FFF7F9FE0546E068A7
:102F5800FFF7F5FE0146284602F09AFB90E0A068CC
:102F6800FFF7EDFE002102F0B1FB00287DD1E068FB
:102F7800FFF7E5FE002102F0A9FB002875D194E0D7
:102F88002368012B02D0022B1DD08EE0A068FFF72A
:102F9800D6FE002102F09AFB002800F08680206906
:102FA800FFF7AEFF002102F091FB00287DD0A0685A
:102FB800FFF7C5FE05462069FFF7A2FF0146284630
:102FC80002F066FB19E0A068FFF7B9FE002102F0E5
:102FD8007DFB38B92069FFF793FF002102F076FBEB
:102FE800002862D0A068FFF7AAFE05462069FFF70F
:102FF80087FF0146284602F069FB002844D0A068F4
:10300800BDE83840FFF79BBE2368012B02D0022B96
:103018001CD04AE02069FFF773FF002102F056FB3D
:10302800002842D06069FFF76BFF002102F04EFBD9
:1030380000283AD02069FFF763FF05466069FFF76B
:103048005FFF0146284602F023FB2AE02069FFF7CC
:1030580057FF002102F03AFBC0B96069FFF750FF43
:10306800002102F033FB88B91FE0A068FFF767FE74
:103078000546E068FFF763FE0146284602F026FB96
:103088000028BCD1E068BBE724693BE72069FFF76B
:1030980037FF05466069FFF733FF0146284602F00F
:1030A80015FB0028F0D164692CE7002038BD00002A
:1030B80008B5024B1B681B68019308BDB0010608E0
:1030C80008B5024B1B685B68019308BDB001060890
:1030D80008B5024B1B689B68019308BDB001060840
:1030E80008B5024B1B68DB68019308BDB0010608F0
:1030F80008B5024B1B681B69019308BDB00106089F
:1031080008B5024B1B685B69019308BDB00106084E
:1031180008B5024B1B689B69019308BDB0010608FE
:1031280008B5024B1B68DB69019308BDB0010608AE
:1031380008B5024B1B68DB69019308BDB40106089A
:1031480008B5024B1B681B6A019308BDB401060849
:1031580008B5024B1B685B68019308BD9C01060813
:1031680008B5024B1B685B69019308BD9C01060802
:1031780008B5024B1B681B6B019308BDD0010608FC
:1031880008B5024B1B689B69019308BDC40106087A
:1031980008B5024B1B685B6A019308BDC4010608A9
:1031A80008B5024B1B689B6A019308BDC401060859
:1031B80008B5024B1B68DB6A019308BDC401060809
:1031C80008B5024B1B681B6B019308BDC4010608B8
:1031D80008B5024B1B685B6B019308BDC401060868
:1031E80008B5024B1B689B6B019308BDC401060818
:1031F80008B5024B1B681B6C019308BDC401060887
:1032080008B5024B1B681B6C019308BDAC0106088E
:1032180008B5024B1B68DB6C019308BDAC010608BE
:1032280008B5024B1B685B6D019308BDAC0106082D
:1032380008B5024B1B689B6D019308BDAC010608DD
:1032480008B5024B1B68DB6D019308BDAC0106088D
:1032580008B5024B1B681B6E019308BDAC0106083C
:1032680008B5024B1B685B6E019308BDAC010608EC
:1032780008B5024B1B689B6E019308BDAC0106089C
:1032880008B5024B1B68DB6E019308BDAC0106084C
:1032980008B5024B1B681B6F019308BDAC010608FB
:1032A80008B5024B1B685B6F019308BDAC010608AB
:1032B80008B5034B1B68D3F88030019308BD0000A4
:1032C800AC01060808B5024B1B681B69019308BDD1
:1032D800A801060808B5024B1B685B69019308BD85
:1032E800A801060808B5024B1B689B69019308BD35
:1032F800A801060808B5024B1B681B68019308BDA6
:10330800D801060808B5024B1B685B68019308BD25
:10331800D801060808B5024B1B681B69019308BD54
:10332800D801060808B5024B1B685B69019308BD04
:10333800D801060808B5024B1B689B69019308BDB4
:10334800D801060808B5024B1B68DB69019308BD64
:10335800D801060808B5024B1B681B6A019308BD13
:10336800D801060808B5024B1B685B68019308BDC5
:10337800A401060808B5024B1B685B69019308BDE8
:10338800A401060808B5024B1B68DB6A019308BD57
:10339800A401060808B5024B1B68DB6C019308BD45
:1033A800A401060808B5024B1B685B6D019308BDB4
:1033B800A401060808B5024B1B685B6E019308BDA3
:1033C800A401060808B5024B1B689B6E019308BD53
:1033D800A401060808B5024B1B681B69019308BDC8
:1033E800C801060808B5024B1B689B68019308BD15
:1033F800CC01060808B5024B1B681B6A019308BD7F
:10340800CC01060808B5024B1B681B68019308BD70
:10341800A001060808B5024B1B685B68019308BD4C
:10342800A001060808B5024B1B685B6A019308BD3A
:10343800A001060808B5024B1B68DB6A019308BDAA
:10344800A0010608704710B50446FCF724FE204684
:1034580010BD000070B504460E46074B00250360FA
:1034680040F80C5FFFF784FE30462671FFF760FED8
:10347800A560204670BD00BF84580A080079FFF790
:103488005FBEB0F90020531C0BD0438880888B4264
:1034980003D88842034628BF0B46194690B2FFF767
:1034A80021BF70474FF6FF73B42202814FF40872B0
:1034B8000380428000234FF41662C3808280C36079
:1034C800704708B5FFF7EEFF08BD10B50446B0F920
:1034D8000000431C07D080B2FFF7FCFE2046FFF730
:1034E800E1FF012010BD002010BD2DE9F0410D467F
:1034F80004460221284690461F46FFF7E1FD0228B0
:1035080001D0002619E0284600F00AFF06460028E8
:10351800F7D0B4F90030013302D02046FFF7D5FFC9
:10352800BDF918302580E380BDF91C30A4F802806D
:10353800A78023812846FFF7C5FE3046BDE8F08105
:103548000020FFF70FBFF8B506460D468F18002478
:10355800BD420CD0336815F8011B9B68304698476C
:10356800002801DB0444F3E7002C08BF044620468A
:10357800F8BD70B505460C46084649B102F0F1F8A9
:103588002B68024621462846BDE87040DB6818478C
:1035980070BD08B5FFF7EDFF08BD03689B681847C5
:1035A80038B50D210546FFF7F8FF0A2104462846DD
:1035B800FFF7F3FF204438BD38B50546FFF7D9FFBC
:1035C80004462846FFF7ECFF204438BD012A98BF7F
:1035D8000A2230B50B468BB000218DF824100DF16E
:1035E8002304B3FBF2F505FB1233DBB2092B94BFBE
:1035F80030333733DBB2214604F801392B46002D2E
:10360800EFD1FFF7B6FF0BB030BD10B422B9036895
:10361800C9B29B6810BC1847D2B210BCFFF7D6BF1E
:10362800FFF7F3BF38B50546FFF7EFFF0446284616
:10363800FFF7B6FF204438BD2DE9F04107460E4696
:1036480015462AB9BDE8F0410368C9B29B68184716
:103658000A2A02D1002901DA04E0D2B2BDE8F04119
:10366800FFF7B4BF2D21FFF798FF2A4604467142A1
:103678003846FFF7ABFF2044BDE8F081FFF7DCBF19
:1036880038B50546FFF7D8FF04462846FFF788FFF8
:10369800204438BD2DE9F8431946804610461746A0
:1036A8001E469DF8205001F099FC08B1474912E0E8
:1036B80026F000444FF0FF32454B3846214601F0D2
:1036C8008DFC68B94FF0FF32414B3846214601F076
:1036D80067FC28B93F494046FFF74BFFBDE8F88330
:1036E8004FF060423C4B3846314601F06DFC08B162
:1036F8003A49F0E74FF06042394B3846314601F01D
:1037080045FC0028F4D1002200233846314601F058
:103718003DFC38B12D214046FFF73FFF06F100463A
:10372800044600E004462F494FF0000900205FFAE4
:1037380089F39D4206D900222B4B01F0DFFA09F1EB
:103748000109F4E73A46334600F0FCFF0F46064607
:1037580001F082FC0A22014681464046FFF736FF07
:1037680004447DB3484601F029F902460B46304629
:10377800394600F0E5FF06460F4640461B49FFF76D
:10378800F8FE0444184B00223046394601F08CF903
:103798000F46064601F038FC0A220146814640469B
:1037A800FFF74AFF0444484601F018F902460B4661
:1037B8003046394600F0C4FF013D15F0FF050646C6
:1037C8000F46DFD12046BDE8F88300BF8C580A08B1
:1037D800FFFFEF7F94580A08FFFFEF4190580A084F
:1037E800FFFFEFC10000E03F00002440C9570A086E
:1037F8009DF800100091FFF74DBF0CB42DE9F04380
:1038080087B000AF07F1380454F8049B05460E460C
:1038180023464A461421381D3C60FFF703FE13284F
:1038280005D8391D2846FFF7A4FE044613E000F129
:10383800080323F00703E846ADEB030D411C2346BC
:103848004A4668463C60FFF7EDFD69462846FFF7A3
:1038580090FE0446C5461EB12846FFF7A1FE044463
:1038680020461C37BD46BDE8F04302B0704738B566
:10387800046805467CB16368013B63605BB92368F3
:1038880020469B689847A368013BA3601BB923683F
:103898002046DB689847284638BD0B68036013B19B
:1038A8005A6801325A607047014A024B1A607047E1
:1038B8004E590A081C040020024B1A68024B1A6071
:1038C800704700BF60030020200400200021FFF79C
:1038D80051BD000008B5144B33B100F09DFB0368DF
:1038E8001B699847002816DC104B33B100F062FCC6
:1038F80003681B699847002810DC0D4B0BB1AFF328
:1039080000800C4B7BB100F0C3FB03681B69984730
:10391800002806DC08BDAFF30080E5E7AFF30080C0
:10392800EBE7AFF3008008BD0000000000000000D6
:10393800000000000000000008B5FFF7CBFFFFF70C
:103948000FFC014B186008BDAC0800200248034A70
:103958000349121A01F0F2BE00400240044002403E
:10396800C05A0A080020704737B5436804460A2B36
:103978000ED0502B1CD1104B1D68CDB1037D4FF4D8
:1039880000710093C26800F110038068A84707E03F
:1039980000F11003C2684FF400718068FFF7E2FF7E
:1039A80030B1002220461146FFF70CFD012000E04F
:1039B800002003B030BD00BF2404002038B50C4CF3
:1039C8000C4D2368AB420C4B0CBF012200221A702D
:1039D80002D0FFF7BBFF2560084B1BB1FFF7B8FB10
:1039E800AFF30080BDE8384000210548FFF7E2BC8E
:1039F800004002401E1C279A2804002000000000F6
:103A080071390A087047C06810B103685B681847C5
:103A180070470020704710B50446FCF73CFB204671
:103A280010BD08B508B1FFF7F6FF08BD10B58368EB
:103A3800044613B1032201469847204610BD0000F2
:103A480038B50A4B04460360C5682DB12846FFF710
:103A5800EDFF2846FCF71FFB25692DB12846FFF727
:103A6800E5FF2846FCF717FB204638BDA8590A0889
:103A780010B50446FFF7E4FF2046FCF70CFB204690
:103A880010BD000010B50446024B0360FFF7D8FFD5
:103A9800204610BDB8590A0810B50446FFF7F2FFD2
:103AA8002046FCF7F8FA204610BD38B5002383609D
:103AB8008B6804460D462BB102229847EB68E360F9
:103AC800AB68A360204638BD022A70B5044606D00C
:103AD800032A0FD0012A15D10B68036012E01420C5
:103AE8000E68FCF7D6FA054610B13146FFF7DDFF40
:103AF800256007E004682CB12046FFF797FF2046B1
:103B0800FCF7C9FA002070BD826810B50AB900F048
:103B1800C8FCC368BDE81040184708B50068FFF73F
:103B2800F3FF08BD37B50546486802AC44F8040DF4
:103B380028460B6800224A600A6040F8043B214688
:103B48000093FFF7AAFE2046FFF791FE284603B030
:103B580030BDF7B50C4606460F4654F8043B02AD97
:103B680045F8083D214601A8FFF797FE294630464B
:103B7800FFF7D8FF01A8FFF77AFE2046FFF777FE88
:103B88003846FCF788FA304603B0F0BD13B50B464B
:103B9800044603C88DE8030093E8030084E80300A3
:103BA8009DE8030083E8030002B010BDF0B5BFF341
:103BB8005F8F87B0002350E8006F40E80032002A8A
:103BC800F9D1BFF35F8F002E37D01846FFF7E2FB1D
:103BD800074618B13046FFF797FF28E0314601A89D
:103BE800FFF763FF1020FCF754FA0546B8B1876069
:103BF8001420FCF74EFA044660B18760014601A81C
:103C0800FFF7C4FF039BA268A3600392049BE268CA
:103C1800E36004920A4B2C60EB600A4BAB6001A88E
:103C2800FFF704FF002229460748FFF7BBFB304691
:103C3800FFF7FCFE3046FCF72EFA07B0F0BD00BFD8
:103C4800233B0A08D13A0A0809420A08826810B5D3
:103C58000AB900F026FCC368BDE81040184708B54B
:103C6800006800F11001FFF7F1FF08BD38B5002327
:103C780083608B6804460D462BB102229847EB6897
:103C8800E360AB68A360204638BD022A70B50446DD
:103C980006D0032A11D0012A17D10B68036014E05B
:103CA80014200E68FCF7F5F9054620B13146FFF7F8
:103CB800DDFF338A2B82256007E004682CB120469B
:103CC800FFF7B4FE2046FCF7E6F9002070BD0000BF
:103CD800F0B50C46BFF35F8F87B0002350E8006F44
:103CE80040E80032002AF9D1BFF35F8F002E3ED0A2
:103CF8001846FFF74FFB074620B121463046FFF72D
:103D0800A5FF2EE0314601A8FFF7B0FF2388102059
:103D1800ADF81430FCF7BDF90546D0B18760142022
:103D2800FCF7B7F9044678B18760014601A8FFF7A8
:103D38002DFF039BA268A360049B0392E268E360E3
:103D4800BDF81430049223820A4B2C60EB600A4BB6
:103D5800AB6001A8FFF76AFE002229460748FFF773
:103D680021FB3046FFF762FE3046FCF794F907B0B6
:103D7800F0BD00BF673C0A08933C0A0809420A08DC
:103D880013B5002301930222031D53E8004F002CB2
:103D980004D143E8002EBEF1000FF6D109D181828B
:103DA8000123BFF35F8F00F1140103721030FFF796
:103DB8008FFF02B010BD00002DE9F0478CB009AEAE
:103DC800002507469A4618200C23884691467560B8
:103DD800B5600993FCF75DF9044630B12F4B456097
:103DE8000572C56005610360858200231020039475
:103DF8000493FCF74EF928B1012343608360284BF4
:103E0800C4600360274B049008200A93FCF741F92B
:103E1800044628B1039B04A940F8043BFFF73DFD85
:103E2800009653464A46414638460B94FFF7E2FA55
:103E380010B90398037AB3B1039B04A908A80793A0
:103E4800FFF72BFD07A905A8FFF76CFE08A8FFF7E9
:103E58000EFD0020059CFFF79DFA80B1237A73B907
:103E6800FFF7C0FAFAE74FF06401FFF789FF07A8E8
:103E78000B99FFF76EFE08A8FFF7F9FCDCE7059B36
:103E880006A85C68FFF7F3FC04A8FFF7F0FC631EC4
:103E9800584258410CB0BDE8F08700BFB8590A082D
:103EA800C8590A08B13E0A081FB50446114602A8B7
:103EB800FFF74FFE24B121460298FFF761FF15E096
:103EC80002980194021D012352E8001F002903D122
:103ED80042E80034002CF7D101D0019106E0BFF38D
:103EE8005F8F0C3000F8043CFFF760FE03A8FFF773
:103EF800BEFC04B010BD704710B50446FCF7CBF803
:103F0800204610BDF8B50F4600F10806051D00242F
:103F180016F8011D0A223846FFF782FBAE42044418
:103F280007D0002CF4D02E213846FFF736FB044486
:103F3800EEE72046F8BD10B59DF8084044EA032393
:103F480043EA024242EA016104234160037510BD5D
:103F580037B5044D05609DF818500095FFF7EBFF45
:103F680003B030BDE4590A08417470477047002116
:103F7800007CFFF7DFB90121007CFFF7DBB9007C8B
:103F8800FFF7D0B9007CFFF7C5B938B50446007C07
:103F98000D46FFF7C7F9002801DC607C20B12946EF
:103FA800207CFFF7CFF9012038BD007CFFF7D2B99C
:103FB80010B50446FCF76FF8204610BD10B504464E
:103FC800002363604FF47A73A360054B08462360AF
:103FD8000123217463741146FFF78CF9204610BD44
:103FE800F8590A080022007CFFF78CB910B504467E
:103FF8001422002101F0ADFB054B20466360054B00
:10400800E36040F2011323818123238210BD00BFA6
:10401800B10400203004002030B50E4D87B001A84F
:10402800FFF7E4FF296811F0010410D12846FCF7D6
:1040380034F860B101AA21460748FFF7BFFF2846B8
:10404800FCF730F8054A0649034800F025FA02480B
:1040580007B030BD2C040020B40500206403002004
:10406800753F0A0810B504461422002101F071FBBF
:10407800054B20466360054BE36040F20113238142
:104088008123238210BD00BF64060020CC050020D8
:1040980010B50E4C86B001A8FFF7E4FF2368DB07D4
:1040A80010D42046FBF7F9FF60B101AA01210848A6
:1040B800FFF784FF2046FBF7F5FF064A0649044848
:1040C80000F0EAF9024806B010BD00BFC80500209C
:1040D8005006002064030020753F0A0800470000CE
:1040E800F0B51C4685B005460E461746FFF718F88A
:1040F800002084424FF0040303908DF80C30B4BFC5
:1041080003469DF828302846A4BF8DF80E3003AB2F
:10411800009332463B460449A8BF8DF80D40FEF790
:10412800F7FF012005B0F0BDE5400A08704741746B
:104138007047007CFFF75CB8007CFFF731B8007C63
:10414800FFF73EB8007CFFF733B8007CFFF740B8B4
:1041580010B50446FBF79FFF204610BD70B5457C9F
:1041680004460E4625B9007CFFF742F8002805DD15
:104178003146207CBDE87040FFF70AB8284670BD7C
:1041880010B5044608461146002262604FF47A7260
:10419800A260054A20742260012262741A46FEF762
:1041A800EFFF204610BD00BF285A0A08007CFFF721
:1041B80017B8000038B50C4D296811F0010411D169
:1041C8002846FBF76AFF68B1084A2146084B0948A8
:1041D800FFF7D6FF2846FBF765FF074A074905485A
:1041E80000F05AF9034838BD0008002004080020F0
:1041F8007C070020680700206403002035410A0876
:1042080010B5836804460BB900F04BF9C3689847AA
:10421800A3681BB103222146204698472046BDE8E3
:104228001040FBF738BF7047F8B5064615460C46F0
:104238008F18BC4206D0336814F8011B9B683046BF
:104248009847F6E72846F8BD0022007CFFF700B83B
:104258000021007CFFF704B80021007CFFF708B8B4
:104268000021007CFFF70CB80021007CFFF710B894
:1042780010B50446FBF70FFF204610BD10B50446E5
:1042880008464FF47A73A360044B002120746160E0
:104298002360FFF70DF8204610BD00BF585A0A08E2
:1042A8000022007CFEF7ACBF00231A461946007CAA
:1042B800FEF7AEBF13B50024007C0094FEF7B0FFF4
:1042C800C0B202B010BD0123FFF7F4BF0123D2B280
:1042D800C9B2FFF7EFBF0022007CFEF7A9BF00229A
:1042E800007CFEF7ADBF0121FFF7F9BF0021007C7C
:1042F800FEF7D6BF7047002211461046FFF76AB88E
:104308000348044B044A0549036000F0C5B800BFE0
:1043180088080020805A0A0864030020FD420A0821
:1043280010B504460F48FFF7A9F828B1A4F10D030A
:10433800022B01D8002010BD00F08EF8FFF7D6FF41
:1043480008B1012CF6D9FFF735FFFFF72FFF18B199
:10435800A4F11203012BEDD9172C8CBF00200120EA
:1043680010BD00BF8C080020172838B504460D463C
:104378000AD8FF2908D0FFF7D3FF28B129462046DD
:10438800BDE83840FEF7A4BE38BD38B504460D4632
:10439800FEF7A6FEFF2810D0062804D84D2323FADE
:1043A80000F0C30709D42046FFF7BAFF28B1294611
:1043B8002046BDE83840FEF79BBE38BD10B5044620
:1043C800FEF78EFE0438C0B2012808D92046FFF750
:1043D800A7FF20B12046BDE81040FEF791BE00209F
:1043E80010BD000070B50C4C0C4E0D4D0021204640
:1043F800FFF730F820460B4C3246294600F04CF8BF
:1044080001212046FFF726F8324629462046BDE816
:10441800704000F041B800BF8C0800206403002001
:104428004D340A089C08002013B5084C00231A468E
:10443800194600932046FFF78BFD2046044A05499C
:1044480002B0BDE8104000F027B800BFB008002057
:1044580064030020FF3E0A0838B50B4D296811F0A7
:1044680001040FD12846FBF718FE58B1214607482A
:10447800FFF704FF2846FBF715FE054A05490348E0
:1044880000F00AF8014838BDC8080020CC08002010
:10449800640300202F420A080B460146184601F023
:1044A8003FB908B5FEF7C6FF184B1A68D1075CBFBD
:1044B80001221A60164B1A68D2075CBF01221A60E3
:1044C800144B1A68D0075CBF01221A60124B1A6895
:1044D800D1075CBF01221A60104B1A68D2075CBF73
:1044E80001221A600E4B1A68D0075CBF01221A60BD
:1044F8000C4B1A68D1075CBF01221A600A4B1A6874
:10450800D2075CBF01221A60704700BFFC08002078
:10451800F8080020F4080020F0080020EC0800202B
:10452800E8080020E4080020E0080020244B1A686E
:10453800D0075CBF01221A60224B1A68D1075CBF02
:1045480001221A60204B1A68D2075CBF01221A6048
:104558001E4B1A68D0075CBF01221A601C4B1A68F0
:10456800D1075CBF01221A601A4B1A68D2075CBFD8
:1045780001221A60184B1A68D0075CBF01221A6022
:10458800164B1A68D1075CBF01221A60144B1A68CF
:10459800D2075CBF01221A60124B1A68D0075CBFB1
:1045A80001221A60104B1A68D1075CBF01221A60F9
:1045B8000E4B1A68D2075CBF01221A60704700BF11
:1045C8002C090020280900202409002020090020A7
:1045D8001C090020180900201409002010090020D7
:1045E8000C09002008090020040900200009002007
:1045F800244B1A68D0075CBF01221A60224B1A6844
:10460800D1075CBF01221A60204B1A68D2075CBF31
:1046180001221A601E4B1A68D0075CBF01221A607B
:104628001C4B1A68D1075CBF01221A601A4B1A6822
:10463800D2075CBF01221A60184B1A68D0075CBF0A
:1046480001221A60164B1A68D1075CBF01221A6052
:10465800144B1A68D2075CBF01221A60124B1A6801
:10466800D0075CBF01221A60104B1A68D1075CBFE3
:1046780001221A600E4B1A68D2075CBF01221A6029
:10468800704700BF5C090020580900205409002029
:10469800500900204C090020480900204409002046
:1046A800400900203C090020380900203409002076
:1046B80030090020184B1A68D1075CBF01221A6024
:1046C800164B1A68D2075CBF01221A60144B1A688D
:1046D800D0075CBF01221A60124B1A68D1075CBF71
:1046E80001221A60104B1A68D2075CBF01221A60B7
:1046F8000E4B1A68D0075CBF01221A600C4B1A686F
:10470800D1075CBF01221A600A4B1A68D2075CBF46
:1047180001221A60704700BF7C0900207809002038
:1047280074090020700900206C0900206809002025
:10473800640900206009002081F0004102E000BF08
:1047480083F0004330B54FEA41044FEA430594EA49
:10475800050F08BF90EA020F1FBF54EA000C55EA84
:10476800020C7FEA645C7FEA655C00F0E2804FEA55
:104778005454D4EB5555B8BF6D420CDD2C4480EA37
:10478800020281EA030382EA000083EA010180EA67
:10479800020281EA0303362D88BF30BD11F0004FB5
:1047A8004FEA01314FF4801C4CEA113102D04042EB
:1047B80061EB410113F0004F4FEA03334CEA133326
:1047C80002D0524263EB430394EA050F00F0A7803E
:1047D800A4F10104D5F1200E0DDB02FA0EFC22FA39
:1047E80005F2801841F1000103FA0EF2801843FA2D
:1047F80005F359410EE0A5F120050EF1200E012A1E
:1048080003FA0EFC28BF4CF0020C43FA05F3C0185B
:1048180051EBE37101F0004507D54FF0000EDCF1D4
:10482800000C7EEB00006EEB0101B1F5801F1BD37D
:10483800B1F5001F0CD349085FEA30004FEA3C0C81
:1048480004F101044FEA445212F5800F80F09A8077
:10485800BCF1004F08BF5FEA500C50F1000041EB7B
:10486800045141EA050130BD5FEA4C0C404141EB7F
:10487800010111F4801FA4F10104E9D191F0000FA6
:1048880004BF01460020B1FA81F308BF2033A3F129
:104898000B03B3F120020CDA0C3208DD02F1140C20
:1048A800C2F10C0201FA0CF021FA02F10CE002F15B
:1048B8001402D8BFC2F1200C01FA02F120FA0CFC54
:1048C800DCBF41EA0C019040E41AA2BF01EB04519D
:1048D800294330BD6FEA04041F3C1CDA0C340EDC9B
:1048E80004F11404C4F1200220FA04F001FA02F3DE
:1048F80040EA030021FA04F345EA030130BDC4F19C
:104908000C04C4F1200220FA02F001FA04F340EA90
:104918000300294630BD21FA04F0294630BD94F041
:10492800000F83F4801306BF81F480110134013D28
:104938004EE77FEA645C18BF7FEA655C29D094EA99
:10494800050F08BF90EA020F05D054EA000C04BF17
:104958001946104630BD91EA030F1EBF0021002002
:1049680030BD5FEA545C05D14000494128BF41F0A1
:10497800004130BD14F580043CBF01F5801130BD05
:1049880001F0004545F0FE4141F470014FF0000090
:1049980030BD7FEA645C1ABF194610467FEA655C41
:1049A8001CBF0B46024650EA013406BF52EA0335E3
:1049B80091EA030F41F4002130BD00BF90F0000FD1
:1049C80004BF0021704730B54FF4806404F132040D
:1049D8004FF000054FF0000150E700BF90F0000FC6
:1049E80004BF0021704730B54FF4806404F13204ED
:1049F80010F0004548BF40424FF000013EE700BFBD
:104A080042004FEAE2014FEA31014FEA02701FBF4C
:104A180012F07F4393F07F4F81F06051704792F01E
:104A2800000F14BF93F07F4F704730B54FF4607498
:104A380001F0004521F0004120E700BF50EA0102E3
:104A480008BF704730B54FF000050AE050EA010290
:104A580008BF704730B511F0004502D5404261EB00
:104A680041014FF4806404F132045FEA915C3FF441
:104A7800DCAE4FF003025FEADC0C18BF03325FEADA
:104A8800DC0C18BF033202EBDC02C2F1200300FA8F
:104A980003FC20FA02F001FA03FE40EA0E0021FAB4
:104AA80002F11444C1E600BF70B54FF0FF0C4CF49E
:104AB800E06C1CEA11541DBF1CEA135594EA0C0F54
:104AC80095EA0C0F00F0DEF82C4481EA030621EA8F
:104AD8004C5123EA4C5350EA013518BF52EA0335CA
:104AE80041F4801143F4801338D0A0FB02CE4FF07C
:104AF8000005E1FB02E506F00042E0FB03E54FF0AC
:104B08000006E1FB03569CF0000F18BF4EF0010EA3
:104B1800A4F1FF04B6F5007F64F5407404D25FEA9F
:104B28004E0E6D4146EB060642EAC62141EA555152
:104B38004FEAC52040EA5E504FEACE2EB4F1FD0C94
:104B480088BFBCF5E06F1ED8BEF1004F08BF5FEA12
:104B5800500E50F1000041EB045170BD06F00046C4
:104B680046EA010140EA020081EA0301B4EB5C0471
:104B7800C2BFD4EB0C0541EA045170BD41F4801169
:104B88004FF0000E013C00F3AB8014F1360FDEBF8E
:104B9800002001F0004170BDC4F10004203C35DA6A
:104BA8000C341BDC04F11404C4F1200500FA05F3ED
:104BB80020FA04F001FA05F240EA020001F000428E
:104BC80021F0004110EBD37021FA04F642EB060104
:104BD8005EEA430E08BF20EAD37070BDC4F10C042E
:104BE800C4F1200500FA04F320FA05F001FA04F2F2
:104BF80040EA020001F0004110EBD37041F10001DE
:104C08005EEA430E08BF20EAD37070BDC4F12005E8
:104C180000FA05F24EEA020E20FA04F301FA05F250
:104C280043EA020321FA04F001F0004121FA04F2F8
:104C380020EA020000EBD3705EEA430E08BF20EAC8
:104C4800D37070BD94F0000F0FD101F00046400002
:104C580041EB010111F4801F08BF013CF7D041EA84
:104C6800060195F0000F18BF704703F00046520088
:104C780043EB030313F4801F08BF013DF7D043EA59
:104C88000603704794EA0C0F0CEA135518BF95EA0F
:104C98000C0F0CD050EA410618BF52EA4306D1D196
:104CA80081EA030101F000414FF0000070BD50EAB5
:104CB800410606BF1046194652EA430619D094EA3F
:104CC8000C0F02D150EA013613D195EA0C0F05D129
:104CD80052EA03361CBF104619460AD181EA03017D
:104CE80001F0004141F0FE4141F470014FF0000035
:104CF80070BD41F0FE4141F4780170BD70B54FF0D0
:104D0800FF0C4CF4E06C1CEA11541DBF1CEA13554F
:104D180094EA0C0F95EA0C0F00F0A7F8A4EB050431
:104D280081EA030E52EA03354FEA013100F0888028
:104D38004FEA03334FF0805545EA131343EA1263F1
:104D48004FEA022245EA111545EA10654FEA0026A6
:104D58000EF000419D4208BF964244F1FD0404F55F
:104D6800407402D25B084FEA3202B61A65EB0305BB
:104D78005B084FEA32024FF480104FF4002CB6EB78
:104D8800020E75EB030E22BFB61A754640EA0C00F8
:104D98005B084FEA3202B6EB020E75EB030E22BF38
:104DA800B61A754640EA5C005B084FEA3202B6EB79
:104DB800020E75EB030E22BFB61A754640EA9C0038
:104DC8005B084FEA3202B6EB020E75EB030E22BF08
:104DD800B61A754640EADC0055EA060E18D04FEAC6
:104DE800051545EA16754FEA06164FEAC30343EA66
:104DF80052734FEAC2025FEA1C1CC0D111F4801F33
:104E08000BD141EA00014FF000004FF0004CB6E72B
:104E180011F4801F04BF01430020B4F1FD0C88BFCA
:104E2800BCF5E06F3FF6AFAEB5EB030C04BFB6EBD5
:104E3800020C5FEA500C50F1000041EB045170BDC8
:104E48000EF0004E4EEA113114EB5C04C2BFD4EBF5
:104E58000C0541EA045170BD41F480114FF0000E79
:104E6800013C90E645EA060E8DE60CEA135594EAF5
:104E78000C0F08BF95EA0C0F3FF43BAF94EA0C0FF8
:104E88000AD150EA01347FF434AF95EA0C0F7FF46D
:104E980025AF104619462CE795EA0C0F06D152EAC1
:104EA80003353FF4FDAE1046194622E750EA4106A5
:104EB80018BF52EA43067FF4C5AE50EA41047FF4B6
:104EC8000DAF52EA43057FF4EBAE12E74FF0FF3C1B
:104ED80006E000BF4FF0010C02E000BF4FF0010CEC
:104EE8004DF804CD4FEA410C7FEA6C5C4FEA430C65
:104EF80018BF7FEA6C5C1BD001B050EA410C0CBFB4
:104F080052EA430C91EA030F02BF90EA020F002015
:104F1800704710F1000F91EA030F58BF994208BF7C
:104F280090422CBFD8176FEAE37040F00100704739
:104F38004FEA410C7FEA6C5C02D150EA013C07D190
:104F48004FEA430C7FEA6C5CD6D152EA033CD3D0DB
:104F58005DF8040B704700BF8446104662468C46D5
:104F68001946634600E000BF01B5FFF7B7FF002808
:104F780048BF10F1000F01BD4DF808EDFFF7F4FF31
:104F88000CBF012000205DF808FB00BF4DF808EDBC
:104F9800FFF7EAFF34BF012000205DF808FB00BFDF
:104FA8004DF808EDFFF7E0FF94BF012000205DF801
:104FB80008FB00BF4DF808EDFFF7CEFF94BF0120B6
:104FC80000205DF808FB00BF4DF808EDFFF7C4FFAF
:104FD80034BF012000205DF808FB00BF4FEA410CF8
:104FE8007FEA6C5C02D150EA013C0AD14FEA430CDB
:104FF8007FEA6C5C02D152EA033C02D14FF0000018
:1050080070474FF0010070474FEA410212F5001255
:1050180015D211D56FF47873B3EB625212D94FEAF7
:10502800C12343F0004343EA505311F0004F23FAE1
:1050380002F018BF404270474FF00000704750EA36
:10504800013005D111F0004008BF6FF000407047F3
:105058004FF00000704700BF4A0011D212F500124D
:1050680011D20DD56FF47873B3EB62520ED44FEAB8
:10507800C12343F0004343EA505323FA02F0704738
:105088004FF00000704750EA013002D14FF0FF3076
:1050980070474FF0000070474FEA4102B2F1E04319
:1050A80024BFB3F5001CDCF1FE5C0DD901F0004C07
:1050B8004FEAC0024CEA5070B2F1004F40EB830057
:1050C80008BF20F00100704711F0804F21D113F183
:1050D8003872BCBF01F00040704741F480114FEABC
:1050E8005252C2F11802C2F1200C10FA0CF320FA45
:1050F80002F018BF40F001004FEAC1234FEAD32362
:1051080003FA0CFC40EA0C0023FA02F34FEA4303CB
:10511800CCE77FEA625307D150EA01331EBF4FF054
:10512800FE4040F44000704701F0004040F0FE406F
:1051380040F40000704700BF80F0004002E000BF6C
:1051480081F0004142001FBF5FEA410392EA030F6A
:105158007FEA226C7FEA236C6AD04FEA1262D2EBB4
:105168001363C1BFD218414048404140B8BF5B42B9
:10517800192B88BF704710F0004F40F4000020F052
:105188007F4018BF404211F0004F41F4000121F068
:105198007F4118BF494292EA030F3FD0A2F10102B2
:1051A80041FA03FC10EB0C00C3F1200301FA03F1F0
:1051B80000F0004302D5494260EB4000B0F5000F13
:1051C80013D3B0F1807F06D340084FEA310102F1D2
:1051D8000102FE2A51D2B1F1004F40EBC25008BF84
:1051E80020F0010040EA03007047490040EB00004E
:1051F80010F4000FA2F10102EDD1B0FA80FCACF17D
:10520800080CB2EB0C0200FA0CF0AABF00EBC2507B
:1052180052421843BCBFD0401843704792F0000F69
:1052280081F4000106BF80F400000132013BB5E7BC
:105238004FEA41037FEA226C18BF7FEA236C21D032
:1052480092EA030F04D092F0000F08BF0846704797
:1052580090EA010F1CBF0020704712F07F4F04D165
:10526800400028BF40F00040704712F100723CBF78
:1052780000F50000704700F0004343F0FE4040F4A2
:10528800000070477FEA226216BF08467FEA236360
:105298000146420206BF5FEA412390EA010F40F44B
:1052A800800070474FF0000304E000BF10F0004397
:1052B80048BF40425FEA000C08BF704743F096437E
:1052C80001464FF000001CE050EA010208BF704799
:1052D8004FF000030AE000BF50EA010208BF704720
:1052E80011F0004302D5404261EB41015FEA010C35
:1052F80002BF84460146002043F0B64308BFA3F12D
:105308008053A3F50003BCFA8CF2083AA3EBC2530E
:1053180010DB01FA02FC634400FA02FCC2F120022D
:10532800BCF1004F20FA02F243EB020008BF20F064
:105338000100704702F1200201FA02FCC2F12002CA
:1053480050EA4C0021FA02F243EB020008BF20EABF
:10535800DC7070474FF0FF0C1CEAD0521EBF1CEAED
:10536800D15392EA0C0F93EA0C0F6FD01A4480EADB
:10537800010C400218BF5FEA41211ED04FF00063C4
:1053880043EA501043EA5111A0FB01310CF00040F0
:10539800B1F5000F3EBF490041EAD3715B0040EA16
:1053A800010062F17F02FD2A1DD8B3F1004F40EBE6
:1053B800C25008BF20F00100704790F0000F0CF0B9
:1053C800004C08BF49024CEA502040EA51207F3A7D
:1053D800C2BFD2F1FF0340EAC250704740F4000058
:1053E8004FF00003013A5DDC12F1190FDCBF00F049
:1053F80000407047C2F10002410021FA02F1C2F1F7
:10540800200200FA02FC5FEA310040F1000053EA92
:105418004C0308BF20EADC70704792F0000F00F0E0
:10542800004C02BF400010F4000F013AF9D040EAE6
:105438000C0093F0000F01F0004C02BF490011F47A
:10544800000F013BF9D041EA0C018FE70CEAD15378
:1054580092EA0C0F18BF93EA0C0F0AD030F0004CF8
:1054680018BF31F0004CD8D180EA010000F00040AC
:10547800704790F0000F17BF90F0004F084691F06A
:10548800000F91F0004F14D092EA0C0F01D14202A4
:105498000FD193EA0C0F03D14B0218BF084608D16D
:1054A80080EA010000F0004040F0FE4040F40000B7
:1054B800704740F0FE4040F4400070474FF0FF0C4A
:1054C8001CEAD0521EBF1CEAD15392EA0C0F93EA91
:1054D8000C0F69D0A2EB030280EA010C49024FEAE3
:1054E800402037D04FF0805343EA111143EA10139C
:1054F8000CF000408B4238BF5B0042F17D024FF454
:10550800000C8B4224BF5B1A40EA0C00B3EB510F2E
:1055180024BFA3EB510340EA5C00B3EB910F24BF17
:10552800A3EB910340EA9C00B3EBD10F24BFA3EB9C
:10553800D10340EADC001B0118BF5FEA1C1CE0D164
:10554800FD2A3FF650AF8B4240EBC25008BF20F017
:10555800010070470CF0004C4CEA50207F32C2BF6B
:10556800D2F1FF0340EAC250704740F400004FF008
:105578000003013A37E792F0000F00F0004C02BF39
:10558800400010F4000F013AF9D040EA0C0093F003
:10559800000F01F0004C02BF490011F4000F013B5D
:1055A800F9D041EA0C0195E70CEAD15392EA0C0FC5
:1055B80008D142027FF47DAF93EA0C0F7FF470AFFD
:1055C800084676E793EA0C0F04D14B023FF44CAF40
:1055D80008466EE730F0004C18BF31F0004CCAD1D5
:1055E80030F000427FF45CAF31F000437FF43CAF11
:1055F8005FE700BF4FF0FF3C06E000BF4FF0010C33
:1056080002E000BF4FF0010C4DF804CD4FEA400214
:105618004FEA41037FEA226C18BF7FEA236C11D05E
:1056280001B052EA530C18BF90EA010F58BFB2EB11
:10563800030088BFC81738BF6FEAE17018BF40F091
:10564800010070477FEA226C02D15FEA402C05D145
:105658007FEA236CE4D15FEA412CE1D05DF8040BCA
:10566800704700BF844608466146FFE70FB5FFF75D
:10567800C9FF002848BF10F1000F0FBD4DF808ED15
:10568800FFF7F4FF0CBF012000205DF808FB00BF06
:105698004DF808EDFFF7EAFF34BF012000205DF860
:1056A80008FB00BF4DF808EDFFF7E0FF94BF0120AD
:1056B80000205DF808FB00BF4DF808EDFFF7D2FFAA
:1056C80094BF012000205DF808FB00BF4DF808EDED
:1056D800FFF7C8FF34BF012000205DF808FB00BFBA
:1056E80042000ED2B2F1FE4F0BD34FF09E03B3EB44
:1056F800126209D44FEA002343F0004323FA02F070
:1057080070474FF00000704712F1610F01D142025B
:1057180002D14FF0FF3070474FF00000704700BFD4
:1057280010B5054C13462CB10A4601460220AFF3CA
:10573800008010BD204610BD0000000010B5431EBB
:105748000A44914204D011F8014B03F8014FF8E7DD
:1057580010BD03460244934202D003F8011BFAE746
:105768007047034613F8012B002AFBD1181A013899
:10577800704700001D000A085D000A0889000A0831
:105788008D000A0800000000736574757053756316
:10579800636573733D25640057616974696E67209A
:1057A800666F722053746172740053746172746905
:1057B8006E6720696E2035207365636F6E64732E83
:1057C8002E2E00474F21004F55545055543A200073
:1057D800207C200073656E736F7220303A00736509
:1057E8006E736F7220313A0073656E736F72203278
:1057F8003A0073656E736F7220333A006E6F2073D0
:10580800616D706C65002053454E534F52205449CA
:105818004D454F55540000000000000000000000F6
:1058280045200A0847200A089B200A0853200A082E
:10583800646576696365206E6F7420666F756E6443
:1058480000726573657474696E67206C6173744D5A
:105858006F76656D656E7420696E74315F737263FF
:105868003D3078257800726563616C696272617495
:10587800696E670000000000000000004D340A084F
:105888004F340A086E616E006F766600696E6600B6
:105898006C6E00666E00636F6465006465746169B0
:1058A8006C000D0A00253031307520005D20002C79
:1058B800200028293A2000205B00636F6465203DA2
:1058C800200025690064657461696C73203D2000BF
:1058D800626175640053657269616C005553425387
:1058E800657269616C31007479706500706172610C
:1058F8006D00636D6400696400686E64007374729F
:105908006D0066696C74006C766C00616464486153
:105918006E646C65720072656D6F766548616E6461
:105928006C657200656E756D48616E646C65727346
:10593800004A534F4E53747265616D4C6F674861EE
:105948006E646C657200617070006E6F6E650074D5
:105958007261636500696E666F007761726E0065DB
:1059680072726F720070616E696300616C6C005ACC
:1059780000252B3033643A253032750025592D2502
:105988006D2D25645425483A254D3A2553257A002E
:1059980061736374696D6500000000000000000019
:1059A800493A0A08793A0A08000000000000000095
:1059B8008D3A0A08A13A0A08000000000000000019
:1059C8000D3A0A081F3A0A080F3A0A082B3A0A0839
:1059D8001B3A0A0800000000000000000D3F0A08FA
:1059E800FF3E0A08013F0A0800000000000000000E
:1059F800753F0A08B93F0A08933F0A084F350A0855
:105A08008D3F0A08773F0A087F3F0A08B33F0A0814
:105A1800873F0A08713F0A080000000000000000E4
:105A280035410A0859410A0865410A084F350A08EC
:105A380041410A084D410A0847410A0853410A08EA
:105A480037410A083B410A08000000000000000036
:105A58002F420A0879420A0851420A0831420A08C4
:105A680059420A0861420A0869420A0871420A084A
:105A78000000000000000000FF420A08C9130A08DD
:105A880041200A0895220A0849350A08B1380A0847
:105A9800C1380A0809430A08ED430A0831440A08CC
:105AA800B1440A0835450A08F9450A08BD460A08F6
:085AB8000000000000000000E6
:045AC00000000000E2
:105AC40004000000DC0500005C030000E8030000A3
