:02000004080AE8
:1000000000000A08E0590A08000004000600050183
:0800100004026C000000000076
:1000180020560A0809480A4908B5884205D0094AFD
:10002800824202D0121A05F0DBFA0748074A00217B
:10003800121A05F0E0FA064808BD00BF00030020C8
:1000480054590A0864030020640300209009002022
:100058009009002070B503F061FC074B074C1E4661
:10006800E41AA4080025A54204D056F8253098477C
:100078000135F8E770BD00BF1C590A0850590A0835
:1000880001F096B808B501F0A5F8BDE8084003F0FE
:1000980003BC03F0DFB903F0E5B90078B0FA80F0EB
:1000A80040097047012303707047000008B5054BED
:1000B800188804F033F9044B003018BF0120187079
:1000C80008BD00BF280300202403002008B5054B05
:1000D800188804F023F9044B003018BF0120187069
:1000E80008BD00BF180300204403002008B5054BD5
:1000F800188804F013F9044B003018BF0120187059
:1001080008BD00BF1C0300202C03002008B5054BC8
:10011800188804F003F9044B003018BF0120187048
:1001280008BD00BF200300205C03002008B5054B74
:10013800188804F0F3F8044B003018BF0120187039
:1001480008BD00BF000300201C0400202DE9F04179
:1001580001210A2004F0B8F801210B2004F0B4F8BA
:1001680001210C2004F0B0F801210D2004F0ACF8B6
:1001780000210A2004F0B9F800210B2004F0B5F89A
:1001880000210C2004F0B1F800210D2004F0ADF896
:100198004FF4FA7003F04AFB04F00EF9404904F0FA
:1001A8002FF804F009F904F02FF80A2003F03EFBB9
:1001B80001210A2004F099F801210B2004F095F898
:1001C80001210C2004F091F801210D2004F08DF894
:1001D8000A2003F02BFB00210B2004F086F8314F96
:1001E80000210C2004F081F800210D2004F07DF896
:1001F8000121384601F0D2FC4FF47A783021384694
:1002080001F07DF9284EC7F804800A2003F00EFBA0
:1002180001210B2004F069F80121304601F0BEFCF1
:100228003121304601F06BF9204D0A20C6F80480D0
:1002380003F0FCFA01210C2004F057F801212846AC
:1002480001F0ACFC3221284601F059F9184C0A207B
:10025800C5F8048003F0EAFA01210D2004F045F8FE
:100268000121204601F09AFC3321204601F047F98C
:100278000A20C4F8048003F0D9FA38460A2101F0AC
:100288005AFA30460A2101F056FA28460A2101F0A6
:1002980052FA2046BDE8F0410A2101F04CBA00BFED
:1002A800A0860100A8030020C0030020D803002076
:1002B800F00300201FB501A801F045FF702101A837
:1002C80001F04EFF01A9064801F0A2FF044603F021
:1002D80053FE2346034A012103F03FFA04B010BD40
:1002E8008003002034560A0808B5154B00211888E9
:1002F80003F0EAFF134B0021188803F0E5FF124BC7
:100308000021188803F0E0FF104B0021188803F043
:10031800DBFF0F4B0021188803F0D6FF0D4B01219E
:10032800188803F0D1FF0C4B0121188803F0CCFF8B
:1003380003F022FEBDE808404FF4165103F002BE58
:1003480028030020180300201C030020200300209D
:1003580000030020480300203C03002013B5184B7D
:1003680000241888224600944FF0FF33154903F003
:1003780067FE154B22461888144900944FF0FF3346
:1003880003F05EFE124B22461888124900944FF083
:10039800FF3303F055FE104B224618880F4900948E
:1003A8004FF0FF3303F04CFE0D4B224618880D49E1
:1003B80000944FF0FF3303F043FE02B010BD00BFBE
:1003C80028030020B5000A0818030020D5000A08F1
:1003D8001C030020F5000A082003002015010A0864
:1003E8000003002035010A08F7B5134B134D00260A
:1003F800B42719884FF408728DE8C0004FF41663CB
:10040800284603F0A2F80E4C0E4B4FF408721988D8
:1004180020464FF416638DE8C00003F096F828468E
:1004280040F2DC5103F05DF840F2DC51204603B0A5
:10043800BDE8F04003F055B84803002070030020E1
:100448000C0400203C03002010B50C4C23782BB979
:1004580003F092FD0A4903F04AF9F7E703F08CFD2F
:10046800084903F044F941F2883003F0DFF903F05A
:1004780083FDBDE81040044903F039B91C0400208D
:1004880044560A0856560A086F560A082DE9F04FCE
:10049800102099B0FFF7FDFD044610B1012102F0CC
:1004A80056F91420FFF7F5FD0546C8B1A24B1868A8
:1004B80004F04EFEA14B8046186804F049FEA04B9C
:1004C8000746186804F044FE9E4B0646186804F078
:1004D8003FFE434600903A463146284602F0B3FBB9
:1004E8001420FFF7D6FD8046C8B1974B186804F072
:1004F8002FFE964B8146186804F02AFE944B074657
:10050800186804F025FE934B0646186804F020FE90
:100518004B4600903A463146404602F094FB142080
:10052800FFF7B7FD0746C8B18B4B186804F010FEFB
:100538008A4B8246186804F00BFE894B814618687E
:1005480004F006FE874B0646186804F001FE534681
:1005580000904A463146384602F075FB2946204647
:1005680002F011F9804E4146204602F00CF9394656
:10057800204602F008F92146306802F038FC1020C5
:10058800FFF787FDB346044610B1022102F0DFF8F9
:100598001420FFF77EFD0646C8B1674B186804F0C3
:1005A800D7FD664A0390106804F0D2FD644A82467B
:1005B800106804F0CDFD634A8146106804F0C8FD58
:1005C800039B009052464946304602F03CFB1420FB
:1005D800FFF75FFD8146C8B15B4B186804F0B8FDB2
:1005E8005A4A0490106804F0B3FD5949039008680A
:1005F80004F0AEFD57498246086804F0A9FD049B43
:100608000090039A5146484602F01DFB1420FFF75C
:1006180040FD8246C0B1504B186804F099FD4F4A1E
:100628000590106804F094FD4D490490086804F0A2
:100638008FFD03904B48006804F08AFD03A90090E1
:100648000EC9504602F0FFFA3146204602F09BF8E8
:100658004946204602F097F85146204602F093F8A2
:100668002146DBF8000002F0C2FB1020FFF711FD65
:10067800044610B1032102F06AF81420FFF709FDBF
:100688000390C8B12C4B186804F062FD2B4A059002
:10069800106804F05DFD2A490490086804F058FDCC
:1006A80028498346086804F053FD059B0090049A86
:1006B8005946039802F0C7FA1420FFF7EAFC0490A1
:1006C800C8B1214B186804F043FD204A0690106811
:1006D80004F03EFD1E490590086804F039FD1D49E7
:1006E8008346086804F034FD069B0090059A594635
:1006F800049802F0A8FA1420FFF7CBFC0590002814
:1007080034D0154B186804F023FD144A079010687C
:1007180004F01EFD12490690086804F019FD1149FD
:100728008346086804F014FD079B0090069A594612
:10073800059802F088FA19E0100300200C03002045
:100748000803002014030020540300205003002055
:100758004C030020580300203003002038030020F9
:100768002404002034030020A40300200399204619
:1007780002F009F80499204602F005F80599204688
:1007880002F001F8A94B2146186802F030FB10204E
:10079800FFF77FFC834610B1042101F0D8FF142035
:1007A800FFF777FC0446C0B1A14B186804F0D0FCF1
:1007B800A04A0890106804F0CBFC9F49079008688D
:1007C80004F0C6FC06909D48006804F0C1FC06A928
:1007D80000900EC9204602F036FA1420FFF759FCA3
:1007E8000690B8B1964B186804F0B2FC954A099087
:1007F800106804F0ADFC94490890086804F0A8FC5F
:1008080007909248006804F0A3FC009006A80FC85F
:1008180002F019FA1420FFF73CFC0790B8B18C4B92
:10082800186804F095FC8B4A0A90106804F090FC54
:1008380089490990086804F08BFC0890874800688B
:1008480004F086FC009007A80FC802F0FCF92146C6
:10085800584601F098FF0699584601F094FF079909
:10086800584601F090FF714B5946186802F0BFFADC
:100878001820FFF70EFC834610B1012101F09FFFFD
:100888001420FFF706FC0F9030B1754B754A0093A2
:100898000021754B02F0D7F91420FFF7FAFB1090EE
:1008A80030B1724B724A00937249734B02F0CBF924
:1008B8001420FFF7EEFB119030B1704B704A009393
:1008C8007049714B02F0BFF91420FFF7E2FB129058
:1008D80030B16E4B6E4A00936E496F4B02F0B3F91C
:1008E8001420FFF7D6FB139030B16C4B6C4A009381
:1008F8006C496D4B02F0A7F90F99584601F043FF78
:100908001099584601F03FFF1199584601F03BFFF6
:100918001299584601F037FF1399584601F033FFF2
:10092800424B5946186802F075FA1820FFF7B1FBD8
:100938000E9008B102F0E6FA524629460E9802F0E7
:10094800E9FA1820FFF7A5FB099008B102F0DAFAD6
:1009580052464146099802F0DDFA1820FFF799FB44
:100968000A9008B102F0CEFA4A4629460A9802F0DF
:10097800D1FA1820FFF78DFB089008B102F0C2FAEF
:100988004A464146089802F0C5FA1820FFF781FB4D
:100998000D9008B102F0B6FA524639460D9802F0A9
:1009A800B9FA1820FFF775FB149008B102F0AAFAFB
:1009B8004A463946149802F0ADFA1820FFF769FB49
:1009C800159008B102F09EFA32464146159802F099
:1009D800A1FA1820FFF75DFB169008B102F092FA11
:1009E80039463246169802F095FA1820FFF751FB5F
:1009F800074608B102F086FA32462946384602F020
:100A080089FA1820FFF745FB064608B102F07AFA82
:100A180022460599304602F07DFA1820FFF739FB87
:100A28000B90002842D002F06DFA3FE0A4030020AA
:100A3800100300200C0300200803002014030020EA
:100A480054030020500300204C03002058030020CA
:100A58003003002038030020240400203403002041
:100A68000000A0410000A0400000704100002042AA
:100A78000000F0410000C84100000C420000704234
:100A8800000048420000344200005C420000A042DE
:100A980000008C4200008242000096420000C842DA
:100AA8000000B4420000AA420000BE42069A05991E
:100AB8000B9802F02FFA1820FFF7EBFA0C9008B108
:100AC80002F020FA224604990C9802F023FA182022
:100AD800FFF7DFFA179008B102F014FA069A0399A3
:100AE800179802F017FA1820FFF7D3FA054608B14D
:100AF80002F008FA22460399284602F00BFA182059
:100B0800FFF7C7FA834608B102F0FCF9069A049980
:100B1800584602F0FFF91820FFF7BBFA069008B113
:100B280002F0F0F9079A0399069802F0F3F91820F1
:100B3800FFF7AFFA039008B102F0E4F9079A0599B4
:100B4800039802F0E7F91820FFF7A3FA059008B117
:100B580002F0D8F9079A0499059802F0DBF9082001
:100B6800FFF797FA814608B102F016F9119948463D
:100B780002F016F90820FFF78CFA804608B102F057
:100B88000BF91099404602F00BF90820FFF781FA9B
:100B9800049008B102F000F90F99049802F000F9E6
:100BA8000820FFF776FA079008B102F0F5F81399D4
:100BB800079802F0F5F80820FFF76BFA044608B129
:100BC80002F0EAF81299204602F0EAF81820FFF736
:100BD80060FA824608B102F095F932460E995046FD
:100BE80002F0A7F91020FFF754FA0F9020B14B46F6
:100BF8005246012101F074FBB54B0F99186802F0B9
:100C080021F91820FFF745FA824608B102F07AF96F
:100C180032460999504602F08CF91020FFF739FA4C
:100C2800064620B14B465246022101F059FBA84B1B
:100C38003146186802F006F91820FFF72AFA064626
:100C480008B102F05FF90B9A0E99304602F071F97B
:100C58001020FFF71EFA824620B14B463246032188
:100C680001F03EFB9A4B5146186802F0EBF8182049
:100C7800FFF70FFA064608B102F044F90C9A0A99F0
:100C8800304602F056F91020FFF703FA824620B1E9
:100C98004B463246042101F023FB8D4B5146186820
:100CA80002F0D0F81820FFF7F4F9064608B102F070
:100CB80029F95A460899304602F03BF91020FFF707
:100CC800E8F9824620B14B463246052101F008FB7F
:100CD8007F4B5146186802F0B5F81820FFF7D9F98C
:100CE800064608B102F00EF92A460D99304602F080
:100CF80020F91020FFF7CDF9824620B1434632464D
:100D0800062101F0EDFA724B5146186802F09AF884
:100D18001820FFF7BEF9064608B102F0F3F80C9A5E
:100D28000D99304602F005F91020FFF7B2F9824616
:100D380020B143463246062101F0D2FA644B5146AF
:100D4800186802F07FF81820FFF7A3F9064608B1E3
:100D580002F0D8F85A460D99304602F0EAF8102009
:100D6800FFF797F9824620B143463246082101F041
:100D7800B7FA574B5146186802F064F81820FFF785
:100D880088F9064608B102F0BDF85A460999304676
:100D980002F0CFF81020FFF77CF9824620B14346D5
:100DA8003246092101F09CFA494B5146186802F075
:100DB80049F81820FFF76DF9064608B102F0A2F8C5
:100DC8000C9A0999304602F0B4F81020FFF761F93F
:100DD800824620B1434632460A2101F081FA3C4B53
:100DE8005146186802F02EF81820FFF752F9064607
:100DF80008B102F087F82A460999304602F099F8B6
:100E08001020FFF746F9824620B1434632460B21AF
:100E180001F066FA2E4B5146186802F013F81820B4
:100E2800FFF737F9064608B102F06CF80C9A0899F2
:100E3800304602F07EF81020FFF72BF9824620B1E9
:100E4800434632460C2101F04BFA214B51461868B3
:100E580001F0F8FF1820FFF71CF9064608B102F068
:100E680051F82A460899304602F063F81020FFF737
:100E780010F9824620B1434632460D2101F030FA7E
:100E8800134B5146186801F0DDFF1820FFF701F9F0
:100E9800064608B102F036F82A461499304602F0A0
:100EA80048F81020FFF7F5F8824620B1434632464D
:100EB8000E2101F015FA064B5146186801F0C2FFE1
:100EC8001820FFF7E6F8064620B102F01BF801E00B
:100ED800A40300202A461599304602F02AF810206B
:100EE800FFF7D7F8824620B1434632460F2101F07A
:100EF800F7F9AE4B5146186801F0A4FF1820FFF728
:100F0800C8F8064608B101F0FDFF2A461699304692
:100F180002F00FF81020FFF7BCF8804620B1049BC0
:100F28003246102101F0DCF9A04E4146306801F04C
:100F380089FF1820FFF7ADF8804608B101F0E2FFFD
:100F4800069A3946404601F0F4FF1020FFF7A1F851
:100F5800824620B1079B4246112101F0C1F9514652
:100F6800306801F06FFF1820FFF793F8064608B1C4
:100F780001F0C8FF039A3946304601F0DAFF102025
:100F8800FFF787F8804620B123463246122101F048
:100F9800A7F9864E4146306801F054FF1820FFF744
:100FA80078F8804608B101F0ADFF039A0A994046E7
:100FB80001F0BFFF1020FFF76CF8824620B12346EE
:100FC8004246132101F08CF95146306801F03AFF8E
:100FD8001820FFF75EF8064608B101F093FF039A60
:100FE8000899304601F0A5FF1020FFF752F8804617
:100FF80020B123463246142101F072F96B4E414666
:10100800306801F01FFF1820FFF743F8804608B149
:1010180001F078FF0B9A0899404601F08AFF1020EA
:10102800FFF737F8824620B123464246152101F0E2
:1010380057F95146306801F005FF1820FFF729F8E5
:10104800804608B101F05EFF0B9A0A99404601F00C
:1010580070FF1020FFF71DF8824620B12346424654
:10106800162101F03DF95146306801F0EBFE1820D9
:10107800FFF70FF8804608B101F044FF0B9A394694
:10108800404601F056FF1020FFF703F8824620B1D2
:1010980023464246172101F023F95146306801F0F2
:1010A800D1FE1820FEF7F5FF804608B101F02AFFAF
:1010B8005A460A99404601F03CFF1020FEF7E9FF26
:1010C800824620B123464246182101F009F95146CB
:1010D800306801F0B7FE1820FEF7DBFF804608B144
:1010E80001F010FF5A463946404601F022FF102011
:1010F800FEF7CFFF824620B123464246192101F070
:10110800EFF85146306801F09DFE1820FEF7C1FF48
:10111800804608B101F0F6FE059A3946404601F0CE
:1011280008FF1020FEF7B5FF824620B1234642464D
:101138001A2101F0D5F85146306801F083FE1820D5
:10114800FEF7A7FF804608B101F0DCFE179A394682
:10115800404601F0EEFE1020FEF79BFF824620B1CC
:10116800234642461B2101F0BBF85146306801F086
:1011780069FE1820FEF78DFF044608B101F0C2FE93
:101188002A463946204601F0D4FE1020FEF781FF9A
:10119800054620B14B4622461C2101F0A1F82946FC
:1011A800306819B0BDE8F04F01F04CBEA403002030
:1011B80008B5FEF7CBFFFFF77DF8FFF795F8FFF7C7
:1011C800CDF8FFF711F9FFF73FF9BDE80840FFF741
:1011D8005DB900002DE9F341674800F0E7FA674C74
:1011E800674E2080674800F0E1FA3080664800F0DA
:1011F800DDFA664FDFF8F8813880654800F0D6FAE6
:10120800A8F800005C4800F0F7FA2546002840F0EE
:10121800AC805C4800F0F0FA002840F0A6805A48FC
:1012280000F0EAFA002840F0A080594800F0E4FAFB
:10123800002840F09A80B8F8000003F085FF554C6C
:1012480002460121206801F010FE388803F07CFF77
:1012580002210246206801F008FE308803F074FF7E
:1012680003210246206801F000FE288803F06CFF85
:1012780004210246206801F0F8FD206801F009FE0B
:101288000121206801F02CFE434B00211860044620
:1012980004F064F930B14149204604F04BF908B133
:1012A8003F492EE03D49204604F058F930B13D4908
:1012B800204604F03FF908B13B4922E0394920466D
:1012C80004F04CF930B13949204604F033F908B13B
:1012D800374916E03549204604F040F930B1354920
:1012E800204604F027F908B133490AE0314920467D
:1012F80004F034F940B13149204604F01BF918B123
:101308002F49304802F0A9F901F052FF2E4C23680A
:10131800C01AB0F57A7F0AD92C4B2A481B783C2290
:101328000021006802F0F8FC01F042FF20606946E5
:10133800274800F035FF20B902F01EFE254902F0CB
:10134800D6F9254B254C1A78254B1AB140F2DC52B8
:101358001A6022601988234802F0C3F821882248BD
:1013680002F0BFF802B0BDE8F08102F005FE1F49A7
:1013780002F0AAF95FE700BFA80300206C03002071
:1013880028040020C0030020D80300201E040020E9
:10139800F0030020A4030020680300200000A041FF
:1013A80073560A08000020427D560A080000704261
:1013B80088560A080000A0428F560A080000C84252
:1013C8009B560A08940300202004002008040020EB
:1013D80080030020A6560A081C04002004030020ED
:1013E80040030020700300200C040020B0560A08B7
:1013F8002A0400201F4B10B500221A7001F080FE4D
:101408001D4800F05BF81D4800F058F81C4800F033
:1014180055F81C4800F052F81B4802F082F81B48A7
:1014280002F07FF81820FEF734FE044608B101F0F8
:10143800D6FC174B174918481C6002F0FBF8174AEE
:101448001749154802F0D8FF0021012001F0C2FF1A
:10145800012001F0AFFF02F0AFFF00220146112387
:10146800104800F031FFBDE810400C4A0E490D4805
:1014780002F0C2BF08040020A8030020C003002017
:10148800D8030020F0030020700300200C04002083
:10149800A403002042570A08940300206403002094
:1014A800AF350A088003002095200A080368C9B2EE
:1014B8009B6818470368C9B29B681847292242707D
:1014C800002242600272704770B5044615460E4607
:1014D80002F072FF617802F0AEFE02F06DFF036861
:1014E80031469B68984702F067FF036829469B6866
:1014F800984702F061FF02F0A6FE207070BD38B573
:1015080005460C4601F07F028A21FFF7DDFF6C706B
:1015180038BD70B5044615460E4602F04DFF617899
:1015280002F089FE02F048FF036831469B6898473D
:1015380002F042FF290AFFF7BDFF02F03DFFE9B2C2
:10154800FFF7B8FF02F038FF02F07DFE207070BD93
:1015580070B5054614460E4602F02EFF697802F073
:101568006AFE02F029FF036831469B68984702F03B
:1015780023FF210EFFF79AFF02F01EFFC4F3074175
:10158800FFF794FF02F018FFC4F30721FFF78EFF5F
:1015980002F012FFE1B2FFF789FF02F00DFF02F03F
:1015A80052FE287070BD38B504460D4602F004FF9F
:1015B800617802F040FE02F0FFFE036829469B684E
:1015C800984702F0F9FE02F03EFE207002F0F4FEA9
:1015D8000122617802F027FE02F0EEFE03685B69E3
:1015E8009847C0B238BD38B504460D4602F0E4FE4F
:1015F800617802F020FE02F0DFFE036829469B684E
:10160800984702F0D9FE02F01EFE207002F0D4FEC8
:101618006178022202F007FE02F0CEFE03685B69E1
:101628009847044602F0C8FE03685B69984740EA99
:10163800042080B238BDF8B5064614461D460F464C
:1016480002F0BAFE717802F0F6FD02F0B5FE03680A
:1016580039469B6898472544AC4207D002F0ACFE57
:10166800036814F8011B9B689847F5E702F0A4FE8D
:1016780002F0E9FD3070F8BDF8B5064614461D467F
:101688000F4602F099FE717802F0D5FD02F094FE43
:10169800036839469B68984702F08EFE02F0D3FD36
:1016A800307002F089FE2A46717802F0BCFD2544AC
:1016B800AC4207D002F080FE03685B69984704F8E3
:1016C800010BF5E7F8BD000070B50D460646002190
:1016D800284603F02FFFB0B9284603F041F90CA3C0
:1016E800D3E9002303F020FC68B94FF0864128466F
:1016F80003F082FD03F046FF442182B23046FFF733
:1017080008FF012070BD002070BD00BFAFF300804E
:10171800A4703D0AD7FF7F4008B509B9502102E0FF
:10172800012906D17021FFF73EFF01304000C0B209
:1017380008BDFF2008BD38B504460D4601228021AA
:10174800FFF7C2FE0122FF212046FFF7BDFE00225F
:1017580011462046FFF7B8FE227C91212046FFF76C
:10176800B3FE012200212046FFF7AEFE0022FF2132
:101778002046FFF7A9FE002280212046FFF7A4FE9D
:101788006DB1F8212046FFF72EFF00B145432A46E8
:1017980004212046FFF7DCFE0422002101E029464F
:1017A80002222046BDE83840FFF78EBE38B5044611
:1017B80001F0FEFCE06013212046FFF7F4FE43072A
:1017C8000ED16368002BF6D001F0F2FCE368C01A72
:1017D80063689842EFD9012323724FF6FF7038BD32
:1017E8001E212046FFF7FFFE0546012220460B2159
:1017F800FFF76AFE284638BD03460022007A1A72AF
:101808007047F8B504460F46164680210122FFF7B7
:101818005BFE0122FF212046FFF756FE00221146FB
:101828002046FFF751FE0622FF212046FFF74CFE17
:1018380083212046FFF7B7FE40F00402D2B283218D
:101848002046FFF741FE0722FF212046FFF73CFE16
:10185800012281212046FFF737FE01228021204600
:10186800FFF732FE6B2294212046FFF72DFE00225F
:1018780083212046FFF728FE01F09AFCE0608321CF
:101888002046FFF790FE054658B96368002BF6D04E
:1018980001F08EFCE368C01A63689842EFD92846C5
:1018A800F8BD012220468321FFF70EFE9221204633
:1018B800FFF779FE00F07F03C0F3C0103B700022F1
:1018C800307081212046FFF7FFFD06222046FF21C8
:1018D800FFF7FAFD83212046FFF765FE83210246C4
:1018E8002046FFF7F1FD20460122FF21FFF7ECFD1E
:1018F800204601220021FFF7E7FD20460022FF21B4
:10190800FFF7E2FD204600228021FFF7DDFD0120E0
:10191800F8BD10B50C460121FFF745FEC0F30013D2
:101928002370C0F3C003A370C0F380036370C0F3D7
:101938008013C0F3C010E370207110BD4FF6FF7321
:10194800984228BF1846C3B2000A03FA00F00130D3
:1019580080B27047B0F5803F01D278B101E04FF610
:10196800FF700138002330F0FF019AB203F1010340
:1019780001D04008F7E740EA022080B27047000033
:10198800084B4FF47A72594310B501F5FA714FF4C8
:10199800FA64B1FBF2F3B1FBF4F100FB0310B0FB06
:1019A800F2F010BD002F3A0070B50E460021144623
:1019B8000546FFF7B1FE462120802846FFF7F3FDD4
:1019C800013080B22178A080FFF7DAFF5121E06072
:1019D8002846FFF708FEFFF7B1FF2178E080FFF700
:1019E800CFFF702120612846FFF7DDFD0130400060
:1019F800C0B2608071212846FFF7F5FDFFF79EFF12
:101A08002081F37813B1E388C01A2081A178208956
:101A1800FFF7B6FF606170BD10B5044688B069462F
:101A2800FFF777FF02AA69462046FFF7BDFF9DF83A
:101A380000301BB1059800F6845001E040F63630BE
:101A48009DF802302BB1059B03F2B22300EB430053
:101A580006E09DF801301BB1059B03F5257318447A
:101A68009DF803301BB1069B03F5257318449DF8B8
:101A780004301BB1079B03F226231844606108B0A9
:101A880010BD0000084B4FF47A7259434FF4FA63C3
:101A980001F5FA71B1FBF3F3B1FBF2F102FB00308F
:101AA800B0FBF1F0704700BF002F3A0044F61F6307
:101AB800F0B5994289B006460D4642D96946FFF706
:101AC80028FF02AA69463046FFF76EFF9DF80030EE
:101AD8001BB1059800F6363001E040F6E8009DF8A5
:101AE80002302BB1059B03F2B22300EB430006E062
:101AF8009DF801301BB1059B03F5257318449DF82B
:101B080003701FB1069B03F5257318449DF8044024
:101B1800ACB100F22620854213D39DF80A10281A8A
:101B2800FFF7B0FF17B1BDF80E301844FFF712FFEA
:101B3800712102463046FFF7ECFC756102E0012492
:101B480000E00024204609B0F0BD38B541F001029C
:101B580000210446FFF7B8FC01F02AFBE0601321DE
:101B68002046FFF720FD10F007050BD16368002B16
:101B7800F5D001F01DFBE368C01A63689842EED9FE
:101B8800284638BD204601220B21FFF79DFC002284
:101B980020461146FFF798FC012038BDF0B50446F1
:101BA80085B049B18921FFF7FEFC40F00102D2B2AD
:101BB80089212046FFF788FC002288212046FFF76C
:101BC80083FC012280212046FFF77EFC0122FF21B1
:101BD8002046FFF779FC002211462046FFF774FCE7
:101BE80091212046FFF7DFFC0122207400212046C6
:101BF800FFF76AFC0022FF212046FFF765FC002260
:101C080080212046FFF760FC60212046FFF7CBFCCF
:101C180040F01202D2B260212046FFF755FC4FF087
:101C28007A512046FFF750FDFF2201212046FFF799
:101C38004BFC0DF107020DF106012046FFF7E1FD0F
:101C480008B900251DE2062302AAB0212046FFF7A5
:101C580013FD0122FF212046FFF736FC00224F2109
:101C68002046FFF731FC2C224E212046FFF72CFCA2
:101C78000022FF212046FFF727FC00252046B62139
:101C8800B422FFF721FC29469DF807309DF806602D
:101C9800002B14BF0C2000200127EBB2DA08984271
:101CA8000DF1100E03F00703724401D88E4208D1DB
:101CB80012F808EC07FA03F32EEA030302F8083CCB
:101CC80007E012F8082C42FA03F3DB0744BF01319E
:101CD800C9B20135302DE0D1062302AAB021204631
:101CE800FFF7A9FC0122FF212046FFF7EDFB0022A8
:101CF80011462046FFF7E8FB0022FF212046FFF7A8
:101D0800E3FB002209212046FFF7DEFB0022102119
:101D18002046FFF7D9FB002211212046FFF7D4FB0C
:101D2800012224212046FFF7CFFBFF222521204650
:101D3800FFF7CAFB002275212046FFF7C5FB0122E9
:101D4800FF212046FFF7C0FB2C224E212046FFF73B
:101D5800BBFB002248212046FFF7B6FB202229467C
:101D68002046FFF7B1FB0022FF212046FFF7ACFB1E
:101D7800092229462046FFF7A7FB002254212046C6
:101D8800FFF7A2FB042231212046FFF79DFB032227
:101D980032212046FFF798FB832240212046FFF797
:101DA80093FB252246212046FFF78EFB0022602167
:101DB8002046FFF789FB002227212046FFF784FBF6
:101DC800062250212046FFF77FFB002251212046A2
:101DD800FFF77AFB962252212046FFF775FB08226F
:101DE80056212046FFF770FB2A4657212046FFF769
:101DF8006BFB002261212046FFF766FB002262216F
:101E08002046FFF761FB002264212046FFF75CFBB8
:101E1800002265212046FFF757FBA02266212046B5
:101E2800FFF752FB0122FF212046FFF74DFB32222C
:101E380022212046FFF748FB142247212046FFF7BE
:101E480043FBFF2249212046FFF73EFB00224A219F
:101E58002046FFF739FB0022FF212046FFF734FB1D
:101E68000A227A212046FFF72FFB00227B212046F9
:101E7800FFF72AFB212278212046FFF725FB0122C4
:101E8800FF212046FFF720FB342223212046FFF7BD
:101E98001BFB002242212046FFF716FBFF224421AC
:101EA8002046FFF711FB262245212046FFF70CFBB1
:101EB800052246212046FFF707FB4022114620460F
:101EC800FFF702FB06220E212046FFF7FDFA1A2231
:101ED80020212046FFF7F8FA402243212046FFF749
:101EE800F3FA0022FF212046FFF7EEFA03223421FD
:101EF8002046FFF7E9FA442235212046FFF7E4FAA5
:101F08000122FF212046FFF7DFFA04223121204673
:101F1800FFF7DAFA09224B212046FFF7D5FA052206
:101F28004C212046FFF7D0FA04224D212046FFF726
:101F3800CBFA0022FF212046FFF7C6FA00224421EF
:101F48002046FFF7C1FA202245212046FFF7BCFAB8
:101F5800082247212046FFF7B7FA282248212046C1
:101F6800FFF7B2FA002267212046FFF7ADFA0422F4
:101F780070212046FFF7A8FA012271212046FFF7B9
:101F8800A3FAFE2272212046FFF79EFA002276214C
:101F98002046FFF799FA002277212046FFF794FAA6
:101FA8000122FF212046FFF78FFA01220D2120464A
:101FB800FFF78AFA0022FF212046FFF785FA01225F
:101FC80080212046FFF780FAF82201212046FFF7FA
:101FD8007BFA0122FF212046FFF776FA01228E21A3
:101FE8002046FFF771FA012200212046FFF76CFA1C
:101FF8000022FF212046FFF767FA002280212046B1
:10200800FFF762FA04220A212046FFF75DFA8421CD
:102018002046FFF7C8FA842100F0EF022046FFF7B8
:1020280053FA01220B212046FFF74EFA2046FFF70C
:10203800F3FCE822606101212046FFF745FA616957
:102048002046FFF733FD012211462046FFF73CFAF0
:1020580040212046FFF779FD00283FF4F2AD022227
:1020680001212046FFF730FA00212046FFF76DFDD9
:10207800054600283FF4E5ADE82201212046FFF798
:1020880023FA284605B0F0BD01F03AB8704710B5FC
:102098000446FEF700F8204610BDF8B505461E4672
:1020A8000F46017CC06841F01801144602F0C3F8DD
:1020B800E868012E036888BF47F080079B683946A7
:1020C80098472644A642E86805D0036814F8011B1F
:1020D8009B689847F6E702F0B6F8B0FA80F0400936
:1020E800F8BDF8B504461E460F46017CC06841F0AD
:1020F8001801154602F09FF8E068012E036888BFB2
:1021080047F080079B6839469847E06802F09BF8DB
:10211800A8B9217C324641F01801E06802F086F83F
:102128002E44AE420DD0E06803681B69984740B161
:10213800E06803685B69984705F8010BF1E7002040
:10214800F8BD0120F8BD0022027042708270C27092
:10215800027142718271C271027242728272704758
:1021680041F007010170704713B5036801AA9C6824
:102178000123A0479DF8040002B010BD38B50546FC
:102188000A240F212846FFF7EFFF33284FF00100FC
:1021980005D001F04BFB013CF3D1204638BD38BDDA
:1021A800F7B50C4607210646FFF7DEFF00F00800EA
:1021B800002814BF012500251BD033686A469F6894
:1021C800282106233046B8479DF801209DF80030A5
:1021D80043EA022323809DF803209DF8023043EA56
:1021E800022363809DF805209DF8043043EA02230A
:1021F800A380284603B0F0BD37B502AC036804F8E5
:10220800042DDD6822460123A84703B030BD000035
:1022180070B504460D46FFF7B1FF064628B901F030
:10222800ABFE284901F063FA49E02A7820212046CC
:10223800FFF7E2FF6A7821212046FFF7DDFFAA7841
:1022480022212046FFF7D8FFEA7823212046FFF70E
:10225800D3FF2A7924212046FFF7CEFF6A7925216A
:102268002046FFF7C9FFAB791BB126212046FFF7AF
:102278007BFFAA7A2E212046FFF7BEFFAB785B06CC
:102288001DD5EA7932212046FFF7B6FF2A7A332195
:102298002046FFF7B1FF6368002B0ADB6A7A204605
:1022A80022723021FFF7A8FF31212046FFF75CFF9B
:1022B80005E00022227230212046FFF79DFF3046BC
:1022C80070BD00BFD8560A0810B54360024BC16004
:1022D8000360027410BD00BFC8560A0800F010BFA2
:1022E80010B5C360002301608260037110BD38B56A
:1022F8000446806870B100F02BFE0021054603F00B
:1023080037F910B10123237100E020712946E068F4
:1023180000F059FD207938BD002202604260704704
:1023280070B5044610200E46154601F093F80023B8
:1023380070B1036046608560C360636813B960600C
:10234800206004E02368036020600368D8600120EF
:1023580070BD70B50D46164604685CB129466068C4
:1023680003F0DEF820B13146A06803F0D9F818B9B7
:102378002468F2E7204670BD012070BD2DE9F84FB2
:102388000027BA464568002D00F0B180EE680EB906
:102398003546F8E76C68D6F804802046414603F0D5
:1023A800BFF8D5F808B008B15D4691E0002158465D
:1023B80003F0B6F830B9B5680021284603F0B0F844
:1023C800002836D00021584603F0D2F808B9B5687D
:1023D80000E05D462146404602F004FE0146804684
:1023E800284602F009FF4FF07C5102F005FFB16862
:1023F8000546584603F09EF828B1404602F0B0FA68
:102408000022424B04E0404602F0AAFA404B002268
:1024180002F024FC80462046894602F0A1FA0246D2
:102428000B464046494602F03DF902F087FD044656
:102438004EE00021584603F09BF80021C0B1284621
:1024480003F096F8C0B12946584603F069F8E8B198
:102458002146404602F0C6FD01468046584602F035
:10246800CBFE0546404602F07BFA0022294B2AE0C3
:10247800584603F07DF848B30021284603F078F861
:1024880020B32946584603F04BF8F8B92146404690
:1024980002F0A8FD02F064FA8046894658462946AB
:1024A80002F0A2FD02F05CFA00221A4B02F0ACFA2C
:1024B80042464B4602F0A8FA02F040FD494605465E
:1024C8004046144B002202F09FFAA3E70024254659
:1024D8002146284602F090FE0146504602F084FD4F
:1024E80029468246384602F07FFD074650E700211C
:1024F800384603F015F828B93946504602F030FF3F
:10250800BDE8F88F0020BDE8F88F00BF0000F83F55
:10251800000008400000E03F10B50C4639B1C9681A
:10252800FFF7FAFF2046BDE8104000F09BBF10BD42
:1025380010B504464168FFF7EFFF0023636023608E
:10254800012010BD08B511B1084600F08BFF01202D
:1025580008BD0000000000002DE9F04F1E464B6842
:1025680087B001938B68D6F808900293109B05906A
:102578000C4698684946174602F034FD0199824690
:10258800786802F02FFDD6F80480109B414603902E
:10259800586802F027FD02998346B86802F022FDC8
:1025A80003990490504602F027FE049905465846C0
:1025B80002F022FE0146284602F014FD494605466F
:1025C800029802F00FFD41468146019802F00AFD8B
:1025D80049468046584602F00FFE4146834650461B
:1025E80002F00AFE0146584602F0FCFC49468246C3
:1025F800039802F001FE41468146049802F0FCFD72
:102608000146484602F0EEFC00218046284602F0CA
:1026180091FF08B105F100450021504602F08AFFFC
:1026280008B10AF1004A0021404602F083FF08B1D0
:1026380008F10048284602F093F931A3D3E90023B2
:1026480002F054FC08B1002057E02946504602F039
:1026580087FE0021814602F06DFF0028F3D14FF07C
:102668007E51484602F084FF0028ECD129464046B6
:1026780002F076FE0021054602F05CFF0028E2D158
:102688004FF07E51284602F073FF0028DBD14946FF
:10269800039802F0B1FD019902F0A6FC49460546EF
:1026A800049802F0A9FD029902F09EFC80461020D1
:1026B80000F0D0FE0028C6D0109B45600360C0F82B
:1026C8000880C760D86038607768B668D4F8049026
:1026D80021460598D4F808802568FFF733FF494656
:1026E800384602F01DFF20B14146304602F018FF7F
:1026F80010B92C46002DE9D1012007B0BDE8F08FB4
:10270800FCA9F1D24D62503FF7B506464568DDB1E8
:102718002C462768B7B17968606802F00BFF08B9E2
:102728003C46F6E727463B6863B11A6842B1009217
:10273800E26821463046FFF70FFF08B1756801E0EF
:102748003F68F0E7ED68E2E7012003B0F0BD10B59F
:10275800044600F00FF8204610BD38B505468468D9
:1027680034B1206810B1696800F07EFA6468F7E750
:10277800012038BD002201608260C2607047006895
:1027880070474160704738B5044608200D4600F090
:1027980061FE50B1002305604360A3680BB9A060D7
:1027A80001E0E3685860E060012038BD10B5846836
:1027B80024B1206800F0EDFA6468F9E710BD10B59F
:1027C8000446FFF7D7FF04F11000FFF7A5FD2046E8
:1027D80010BD1030FFF7D2BDF8B58468064625460F
:1027E800CDB1ACB163688BB1206800F035FA63688D
:1027F8000746186800F030FA0146384602F0B8FE7D
:1028080020B194E80C00196821601A606468E8E750
:10281800B4686D68E4E70120F8BD0000000000001E
:102828002DE9F74F10980F460E9915461C4602F0F1
:10283800D9FB39468246204602F0D4FB0D998046E2
:102848000F9802F0CFFB294683460C9802F0CAFB8A
:1028580041460646504602F0CFFC314604465846EB
:1028680002F0CAFC0146204602F0BCFB0E99044661
:10287800284602F0B7FB0D998146384602F0B2FBB4
:1028880049460190584602F0B7FC019983465046E4
:1028980002F0B2FC0146584602F0A4FB49468246C3
:1028A800404602F0A9FC01998146304602F0A4FC9A
:1028B8000146484602F096FB00218146204602F078
:1028C80039FE08B104F100440021504602F032FEFE
:1028D80008B10AF1004A0021484602F02BFE08B16F
:1028E80009F10049204602F03BF821A3D3E900236F
:1028F80002F0FCFA0190002833D12146504602F03C
:102908002FFD0021824602F015FE50BB4FF07E518C
:10291800504602F02DFE20BB21460190484602F0A9
:102928001FFD0021814602F005FE0446C8B94FF09C
:102938007E51484602F01CFEA8B95146404602F0B6
:102948005BFC394602F050FB119B5146186030463B
:1029580002F052FC294602F047FB129B1860012046
:1029680002E0002000E0204603B0BDE8F08F00BF81
:10297800FCA9F1D24D62503F2DE9F04F064600F117
:10298800100591B02846FFF7D3FDB4684FF07E5983
:102998000DAF002C00F05081206800F0F8F90021FC
:1029A80002F0E6FD002800F0D880206800F054F915
:1029B8008046206800F052F90146404602F0B0FD1A
:1029C80080B9206800F048F9002201462846FFF740
:1029D800C0FC38B9206800F03FF9002201462846BB
:1029E800FFF79EFC206800F039F98046206800F067
:1029F80037F90146404602F093FD68B1206800F0BF
:102A08002BF98046206800F02DF90146404602F077
:102A180087FD002800F0A380206800F01FF9804699
:102A2800206800F01DF90146404602F079FD0028B3
:102A380040F09F80206800F0AAF94FF07E5102F024
:102A48006FFD002840F0C480206800F007F90C9062
:102A5800206800F09CF90D90206800F0FDF8804691
:102A6800206800F0FBF88246206800F0F5F88346FD
:102A7800206800F08CF90A90206800F0F3F80990BB
:102A8800206800F084F9099A0A9B0CA90591049022
:102A980003920293002241460697CDF804B0CDF880
:102AA800009053463046FFF7BBFE0D9A0C99284616
:102AB800FFF74FFC20B90D9A0C992846FFF730FC18
:102AC800206800F0CBF80E90206800F060F90DF156
:102AD800400848F8040D206800F0C2F882462068D3
:102AE80000F0C0F88346206800F0B6F80990206826
:102AF80000F04DF90B90206800F0B4F80A902068B7
:102B080000F045F90EAB0593099B0A990B9A0193BE
:102B1800002304900391029200934FF07E52514695
:102B2800CDF818805B463046FFF77AFE0F9A0E996B
:102B38002846FFF70EFC20B90F9A0E992846FFF792
:102B4800EFFB206800F08CF88046206800F08AF8D7
:102B58000146404602F0E4FC18B3646819E72068AF
:102B680000F015F94FF07E5102F0DAFC00283FF42E
:102B78006BAF206800F072F88046206800F007F913
:102B8800414602462846FFF7E4FB0028D9D12068D1
:102B980000F064F88046206800F0F9F841460246E3
:102BA800CCE7206800F05EF8002201462846FFF7CF
:102BB800D0FB002837D0206800F054F88046206801
:102BC80000F04AF80146404602F0AAFC58BBC4E7A8
:102BD800206800F043F88046206800F0D8F84146A5
:102BE80002462846FFF7B5FB58B9206800F036F8CA
:102BF8008046206800F0CBF8414602462846FFF799
:102C08008FFB206800F02CF88046206800F0BFF8A1
:102C1800414602462846FFF79CFB002891D12068D0
:102C280000F01EF8B6E7206800F01CF80022014604
:102C38002846FFF775FB90E72846FFF765FD01205A
:102C480011B0BDE8F08F10B58360029B0160C360CE
:102C580000234260036110BD0068704740687047F8
:102C680080687047C06870472DE9F84307680446D4
:102C780038460D4602F07CFC666898B13146384605
:102C880002F04EFC00282ED0A5683046294602F0F6
:102C980047FC40BB2846E16802F042FC18BB4FF0F5
:102CA8007E5321E02946384602F04EFCF0B9314601
:102CB800284602F053FC00282FD1D4F80880284673
:102CC800414602F055FCD4F80C9000282CD1494616
:102CD800284602F04DFC00284DD04946404602F0F7
:102CE8001FFC00283ED10023236144E031462846DA
:102CF80002F020FC0028DAD03946304602F072F99A
:102D080001464FF07E5002F02BFB3146074628461D
:102D180002F068F9014638461CE0A168284602F02E
:102D280013FC0028C9D0BAE74946284602F00CFC33
:102D38000028CCD04946404602F054F901464FF0ED
:102D48007E5002F00DFB41460646284602F04AF93D
:102D58000146304602F050FA4FF07E5102F044F935
:102D6800206108E04146304602F0DAFB0028BAD17B
:102D78003146384690E70120BDE8F88338B5044667
:102D880000690D4602F0D6FB00B1256138BD006927
:102D98007047002303617047002242600260704759
:102DA80038B5044608200D4600F054FB50B1002306
:102DB8000560436063680BB9606001E02368586090
:102DC8002060012038BD38B50D4644682CB1206814
:102DD8002946FFF7D3FF6468F8E7012038BD0022D1
:102DE80042600260C260826042610261704738B529
:102DF800044608200D4600F02DFB50B10023056065
:102E0800436063680BB9606001E023685860206024
:102E1800012038BD70B5054608200E4600F01AFBA3
:102E2800044670B10023436006603046FFF7D4FCC7
:102E3800EB680BB9EC6001E0AB685C60AC6001204A
:102E480070BD70BD38B5044608200D4600F002FB81
:102E580050B100230560436063690BB9606101E00C
:102E6800236958602061012038BD70B50D461646AB
:102E7800446864B12068FFF782FCA84205D1206845
:102E88003146FFF77EFC012070BD6468F1E72046FB
:102E980070BD38B50446456825B12868FFF786FC3B
:102EA8006D68F9E7E56825B12868FFF77FFC6D686C
:102EB800F9E7656825B12868FFF74FFC6D68F9E701
:102EC800656925B12868FFF712FA6D68F9E7E468C3
:102ED80024B12068FFF750FD6468F9E7012038BD88
:102EE80038B50D46C4685CB12068FFF748FCA842B5
:102EF80004D12068BDE83840FFF76BBC6468F2E78E
:102F0800002038BD0022026042608260C260026117
:102F18004261704710B5034639B142B1012002241D
:102F280083E811009960DA6010BD084610BD1046AC
:102F380010BD10B5034639B142B10120042483E81D
:102F4800110019615A6110BD084610BD104610BD28
:102F580038B504466368013B032B00F2CE80DFE8F6
:102F680003F07602377B2368012B02D0022B1ED098
:102F7800C3E0A068FFF70BFF002102F0F9FA002870
:102F880000F0BB80E068FFF702FF002102F0F0FAD2
:102F9800002800F0B280A068FFF7F9FE0546E06857
:102FA800FFF7F5FE0146284602F0C4FA90E0A06853
:102FB800FFF7EDFE002102F0DBFA00287DD1E06882
:102FC800FFF7E5FE002102F0D3FA002875D194E05E
:102FD8002368012B02D0022B1DD08EE0A068FFF7DA
:102FE800D6FE002102F0C4FA002800F0868020698D
:102FF800FFF7AEFF002102F0BBFA00287DD0A068E1
:10300800FFF7C5FE05462069FFF7A2FF01462846DF
:1030180002F090FA19E0A068FFF7B9FE002102F06B
:10302800A7FA38B92069FFF793FF002102F0A0FA48
:10303800002862D0A068FFF7AAFE05462069FFF7BE
:1030480087FF0146284602F093FA002844D0A0687A
:10305800BDE83840FFF79BBE2368012B02D0022B46
:103068001CD04AE02069FFF773FF002102F080FAC4
:10307800002842D06069FFF76BFF002102F078FA60
:1030880000283AD02069FFF763FF05466069FFF71B
:103098005FFF0146284602F04DFA2AE02069FFF753
:1030A80057FF002102F064FAC0B96069FFF750FFCA
:1030B800002102F05DFA88B91FE0A068FFF767FEFB
:1030C8000546E068FFF763FE0146284602F050FA1D
:1030D8000028BCD1E068BBE724693BE72069FFF71B
:1030E80037FF05466069FFF733FF0146284602F0BF
:1030F8003FFA0028F0D164692CE7002038BD0000B1
:1031080008B5024B1B681B68019308BDB00106088F
:1031180008B5024B1B685B68019308BDB00106083F
:1031280008B5024B1B689B68019308BDB0010608EF
:1031380008B5024B1B68DB68019308BDB00106089F
:1031480008B5024B1B681B69019308BDB00106084E
:1031580008B5024B1B685B69019308BDB0010608FE
:1031680008B5024B1B689B69019308BDB0010608AE
:1031780008B5024B1B68DB69019308BDB00106085E
:1031880008B5024B1B68DB69019308BDB40106084A
:1031980008B5024B1B681B6A019308BDB4010608F9
:1031A80008B5024B1B685B68019308BD9C010608C3
:1031B80008B5024B1B685B69019308BD9C010608B2
:1031C80008B5024B1B681B6B019308BDD0010608AC
:1031D80008B5024B1B689B69019308BDC40106082A
:1031E80008B5024B1B685B6A019308BDC401060859
:1031F80008B5024B1B689B6A019308BDC401060809
:1032080008B5024B1B68DB6A019308BDC4010608B8
:1032180008B5024B1B681B6B019308BDC401060867
:1032280008B5024B1B685B6B019308BDC401060817
:1032380008B5024B1B689B6B019308BDC4010608C7
:1032480008B5024B1B681B6C019308BDC401060836
:1032580008B5024B1B681B6C019308BDAC0106083E
:1032680008B5024B1B68DB6C019308BDAC0106086E
:1032780008B5024B1B685B6D019308BDAC010608DD
:1032880008B5024B1B689B6D019308BDAC0106088D
:1032980008B5024B1B68DB6D019308BDAC0106083D
:1032A80008B5024B1B681B6E019308BDAC010608EC
:1032B80008B5024B1B685B6E019308BDAC0106089C
:1032C80008B5024B1B689B6E019308BDAC0106084C
:1032D80008B5024B1B68DB6E019308BDAC010608FC
:1032E80008B5024B1B681B6F019308BDAC010608AB
:1032F80008B5024B1B685B6F019308BDAC0106085B
:1033080008B5034B1B68D3F88030019308BD000053
:10331800AC01060808B5024B1B681B69019308BD80
:10332800A801060808B5024B1B685B69019308BD34
:10333800A801060808B5024B1B689B69019308BDE4
:10334800A801060808B5024B1B681B68019308BD55
:10335800D801060808B5024B1B685B68019308BDD5
:10336800D801060808B5024B1B681B69019308BD04
:10337800D801060808B5024B1B685B69019308BDB4
:10338800D801060808B5024B1B689B69019308BD64
:10339800D801060808B5024B1B68DB69019308BD14
:1033A800D801060808B5024B1B681B6A019308BDC3
:1033B800D801060808B5024B1B685B68019308BD75
:1033C800A401060808B5024B1B685B69019308BD98
:1033D800A401060808B5024B1B68DB6A019308BD07
:1033E800A401060808B5024B1B68DB6C019308BDF5
:1033F800A401060808B5024B1B685B6D019308BD64
:10340800A401060808B5024B1B685B6E019308BD52
:10341800A401060808B5024B1B689B6E019308BD02
:10342800A401060808B5024B1B681B69019308BD77
:10343800C801060808B5024B1B689B68019308BDC4
:10344800CC01060808B5024B1B681B6A019308BD2E
:10345800CC01060808B5024B1B681B68019308BD20
:10346800A001060808B5024B1B685B68019308BDFC
:10347800A001060808B5024B1B689B68019308BDAC
:10348800A001060808B5024B1B685B6A019308BDDA
:10349800A001060808B5024B1B68DB6A019308BD4A
:1034A800A0010608704710B50446FCF7F4FD204655
:1034B80010BD000070B504460E46074B002503609A
:1034C80040F80C5FFFF77CFE30462671FFF758FE88
:1034D800A560204670BD00BF24570A080079FFF791
:1034E80057BEB0F90020531C0BD0438880888B420C
:1034F80003D88842034628BF0B46194690B2FFF707
:1035080019BF70474FF6FF73B42202814FF4087257
:103518000380428000234FF41662C3808280C36018
:10352800704708B5FFF7EEFF08BD10B50446B0F9BF
:103538000000431C07D080B2FFF7F4FE2046FFF7D7
:10354800E1FF012010BD002010BD2DE9F0410D461E
:1035580004460221284690461F46FFF7D9FD022857
:1035680001D0002619E0284600F08AFE0646002809
:10357800F7D0B4F90030013302D02046FFF7D5FF69
:10358800BDF918302580E380BDF91C30A4F802800D
:10359800A78023812846FFF7BDFE3046BDE8F081AD
:1035A8000020FFF707BF10B504460068FFF75AFF71
:1035B800204610BD10B50446006808B1FFF752FF59
:1035C80000232360A360636010BD38B504460D4630
:1035D80000680131FFF74EFF10B184E82100012097
:1035E80038BD10B50368044613B143688B4207D24F
:1035F8002046FFF7EAFF20B1A3680BB922681370D1
:10360800012010BD70B50E46114604461546FFF759
:10361800E8FF18B92046FFF7CDFF09E02A463146F2
:10362800A560206801F0DCFF2268A3680021D1545E
:10363800204670BD38B500230446036043608360AC
:1036480003730D4639B1084601F0DDFF29460246ED
:103658002046FFF7D7FF204638BD38B505460C464B
:1036680041B1084601F0CFFF214602462846FFF740
:10367800C9FF01E0FFF79EFF284638BDF8B50646AA
:103688000D468F180024BD420CD0336815F8011B75
:103698009B6830469847002801DB0444F3E7002C78
:1036A80008BF04462046F8BD70B505460C460846D6
:1036B80049B101F0A8FF2B68024621462846BDE81B
:1036C8007040DB68184770BD08B5FFF7EDFF08BD0F
:1036D80003689B68184738B50D210546FFF7F8FFC2
:1036E8000A2104462846FFF7F3FF204438BD38B5C1
:1036F8000546FFF7D9FF04462846FFF7ECFF2044AC
:1037080038BD012A98BF0A2230B50B468BB000217C
:103718008DF824100DF12304B3FBF2F505FB1233E9
:10372800DBB2092B94BF30333733DBB2214604F8C0
:1037380001392B46002DEFD1FFF7B6FF0BB030BD96
:1037480010B422B90368C9B29B6810BC1847D2B23A
:1037580010BCFFF7D6BFFFF7F3BF0CB42DE9F04359
:1037680087B000AF07F1380454F8049B05460E46AD
:1037780023464A461421381D3C60FFF783FE132870
:1037880005D8391D2846FFF78FFF044613E000F1DE
:10379800080323F00703E846ADEB030D411C23465D
:1037A8004A4668463C60FFF76DFE69462846FFF7C3
:1037B8007BFF0446C5461EB12846FFF78CFF04442C
:1037C80020461C37BD46BDE8F04302B0704738B507
:1037D800046805467CB16368013B63605BB9236894
:1037E80020469B689847A368013BA3601BB92368E0
:1037F8002046DB689847284638BD0B68036013B13C
:103808005A6801325A607047014A024B1A60704781
:10381800E4570A082C040020024B1A68024B1A606D
:10382800704700BF60030020300400200021FFF72C
:10383800C9BD000008B5144B33B100F09DFB036807
:103848001B699847002816DC104B33B100F062FC66
:1038580003681B699847002810DC0D4B0BB1AFF3C8
:1038680000800C4B7BB100F0C3FB03681B699847D1
:10387800002806DC08BDAFF30080E5E7AFF3008061
:10388800EBE7AFF3008008BD000000000000000077
:10389800000000000000000008B5FFF7CBFFFFF7AD
:1038A80087FC014B186008BDBC0800200248034A89
:1038B8000349121A01F094BE00400240044002403D
:1038C80050590A080020704737B5436804460A2B48
:1038D8000ED0502B1CD1104B1D68CDB1037D4FF479
:1038E80000710093C26800F110038068A84707E0E0
:1038F80000F11003C2684FF400718068FFF7E2FF1F
:1039080030B1002220461146FFF784FD012000E077
:10391800002003B030BD00BF3404002038B50C4C83
:103928000C4D2368AB420C4B0CBF012200221A70CD
:1039380002D0FFF7BBFF2560084B1BB1FFF730FC37
:10394800AFF30080BDE8384000210548FFF75ABDB5
:10395800004002401E1C279A380400200000000086
:10396800D1380A087047C06810B103685B68184707
:1039780070470020704710B50446FCF78CFB2046C2
:1039880010BD08B508B1FFF7F6FF08BD10B583688C
:10399800044613B1032201469847204610BD000093
:1039A80038B50A4B04460360C5682DB12846FFF7B1
:1039B800EDFF2846FCF76FFB25692DB12846FFF778
:1039C800E5FF2846FCF767FB204638BD40580A0843
:1039D80010B50446FFF7E4FF2046FCF75CFB2046E1
:1039E80010BD000010B50446024B0360FFF7D8FF76
:1039F800204610BD50580A0810B50446FFF7F2FFDC
:103A08002046FCF748FB204610BD38B500238360EC
:103A18008B6804460D462BB102229847EB68E36099
:103A2800AB68A360204638BD022A70B5044606D0AC
:103A3800032A0FD0012A15D10B68036012E0142065
:103A48000E68FCF726FB054610B13146FFF7DDFF8F
:103A5800256007E004682CB12046FFF797FF204651
:103A6800FCF719FB002070BD826810B50AB900F098
:103A7800C8FCC368BDE81040184708B50068FFF7E0
:103A8800F3FF08BD37B50546486802AC44F8040D95
:103A980028460B6800224A600A6040F8043B214629
:103AA8000093FFF7AAFE2046FFF791FE284603B0D1
:103AB80030BDF7B50C4606460F4654F8043B02AD38
:103AC80045F8083D214601A8FFF797FE29463046EC
:103AD800FFF7D8FF01A8FFF77AFE2046FFF777FE29
:103AE8003846FCF7D8FA304603B0F0BD13B50B469C
:103AF800044603C88DE8030093E8030084E8030044
:103B08009DE8030083E8030002B010BDF0B5BFF3E1
:103B18005F8F87B0002350E8006F40E80032002A2A
:103B2800F9D1BFF35F8F002E37D01846FFF75AFC44
:103B3800074618B13046FFF797FF28E0314601A83D
:103B4800FFF763FF1020FCF7A4FA0546B8B18760B9
:103B58001420FCF79EFA044660B18760014601A86C
:103B6800FFF7C4FF039BA268A3600392049BE2686B
:103B7800E36004920A4B2C60EB600A4BAB6001A82F
:103B8800FFF704FF002229460748FFF733FC3046B9
:103B9800FFF7FCFE3046FCF77EFA07B0F0BD00BF29
:103BA800833A0A08313A0A0869410A08826810B556
:103BB8000AB900F026FCC368BDE81040184708B5EC
:103BC800006800F11001FFF7F1FF08BD38B50023C8
:103BD80083608B6804460D462BB102229847EB6838
:103BE800E360AB68A360204638BD022A70B504467E
:103BF80006D0032A11D0012A17D10B68036014E0FC
:103C080014200E68FCF745FA054620B13146FFF747
:103C1800DDFF338A2B82256007E004682CB120463B
:103C2800FFF7B4FE2046FCF736FA002070BD00000E
:103C3800F0B50C46BFF35F8F87B0002350E8006FE4
:103C480040E80032002AF9D1BFF35F8F002E3ED042
:103C58001846FFF7C7FB074620B121463046FFF755
:103C6800A5FF2EE0314601A8FFF7B0FF23881020FA
:103C7800ADF81430FCF70DFA0546D0B18760142072
:103C8800FCF707FA044678B18760014601A8FFF7F8
:103C98002DFF039BA268A360049B0392E268E36084
:103CA800BDF81430049223820A4B2C60EB600A4B57
:103CB800AB6001A8FFF76AFE002229460748FFF714
:103CC80099FB3046FFF762FE3046FCF7E4F907B08F
:103CD800F0BD00BFC73B0A08F33B0A0869410A0860
:103CE80013B5002301930222031D53E8004F002C53
:103CF80004D143E8002EBEF1000FF6D109D181822C
:103D08000123BFF35F8F00F1140103721030FFF736
:103D18008FFF02B010BD00002DE9F0478CB009AE4E
:103D2800002507469A4618200C2388469146756058
:103D3800B5600993FCF7ADF9044630B12F4B4560E7
:103D48000572C56005610360858200231020039415
:103D58000493FCF79EF928B1012343608360284B44
:103D6800C4600360274B049008200A93FCF791F97C
:103D7800044628B1039B04A940F8043BFFF73DFD26
:103D8800009653464A46414638460B94FFF75AFB7D
:103D980010B90398037AB3B1039B04A908A8079341
:103DA800FFF72BFD07A905A8FFF76CFE08A8FFF78A
:103DB8000EFD0020059CFFF715FB80B1237A73B92F
:103DC800FFF738FBFAE74FF06401FFF789FF07A810
:103DD8000B99FFF76EFE08A8FFF7F9FCDCE7059BD7
:103DE80006A85C68FFF7F3FC04A8FFF7F0FC631E65
:103DF800584258410CB0BDE8F08700BF50580A0837
:103E080060580A08113E0A081FB50446114602A860
:103E1800FFF74FFE24B121460298FFF761FF15E036
:103E280002980194021D012352E8001F002903D1C2
:103E380042E80034002CF7D101D0019106E0BFF32D
:103E48005F8F0C3000F8043CFFF760FE03A8FFF713
:103E5800BEFC04B010BD704710B50446FCF71BF952
:103E6800204610BDF8B50F4600F10806051D0024D0
:103E780016F8011D0A223846FFF76DFCAE420444CD
:103E880007D0002CF4D02E213846FFF721FC04443B
:103E9800EEE72046F8BD10B59DF8084044EA032334
:103EA80043EA024242EA016104234160037510BDFE
:103EB80037B5044D05609DF818500095FFF7EBFFE6
:103EC80003B030BD7C580A08417470477047002120
:103ED800007CFFF757BA0121007CFFF753BA007C3A
:103EE800FFF748BA007CFFF73DBA38B50446007CB6
:103EF8000D46FFF73FFA002801DC607C20B1294617
:103F0800207CFFF747FA012038BD007CFFF74ABA4A
:103F180010B50446FCF7BFF8204610BD10B504469E
:103F2800002363604FF47A73A360054B084623604F
:103F38000123217463741146FFF704FA204610BD6B
:103F480090580A080022007CFFF704BA10B504460E
:103F58001422002101F04FFB054B20466360054BFE
:103F6800E36040F2011323818123238210BD00BF47
:103F7800C10400204004002030B50E4D87B001A8D0
:103F8800FFF7E4FF296811F0010410D12846FCF777
:103F980084F860B101AA21460748FFF7BFFF284609
:103FA800FCF780F8054A0649034800F025FA02485C
:103FB80007B030BD3C040020C40500206403002085
:103FC800D53E0A0810B504461422002101F013FB5F
:103FD800054B20466360054BE36040F201132381E3
:103FE8008123238210BD00BF74060020DC05002059
:103FF80010B50E4C86B001A8FFF7E4FF2368DB0775
:1040080010D42046FCF749F860B101AA01210848FC
:10401800FFF784FF2046FCF745F8064A064904489E
:1040280000F0EAF9024806B010BD00BFD80500202C
:104038006006002064030020D53E0A0800470000FF
:10404800F0B51C4685B005460E461746FFF790F8B2
:10405800002084424FF0040303908DF80C30B4BF65
:1040680003469DF828302846A4BF8DF80E3003ABD0
:10407800009332463B460449A8BF8DF80D40FFF730
:104088006FF8012005B0F0BD45400A08704741743B
:104098007047007CFFF7D4B8007CFFF7A9B8007C14
:1040A800FFF7B6B8007CFFF7ABB8007CFFF7B8B8ED
:1040B80010B50446FBF7EFFF204610BD70B5457CF0
:1040C80004460E4625B9007CFFF7BAF8002805DD3E
:1040D8003146207CBDE87040FFF782B8284670BDA5
:1040E80010B5044608461146002262604FF47A7201
:1040F800A260054A20742260012262741A46FFF702
:1041080067F8204610BD00BFC0580A08007CFFF7BA
:104118008FB8000038B50C4D296811F0010411D191
:104128002846FBF7BAFF68B1084A2146084B0948F8
:10413800FFF7D6FF2846FBF7B5FF074A07490548AA
:1041480000F05AF9034838BD100800201408002070
:104158008C070020780700206403002095400A0897
:1041680010B5836804460BB900F04BF9C36898474B
:10417800A3681BB103222146204698472046BDE884
:104188001040FBF788BF7047F8B5064615460C4641
:104198008F18BC4206D0336814F8011B9B68304660
:1041A8009847F6E72846F8BD0022007CFFF778B864
:1041B8000021007CFFF77CB80021007CFFF780B865
:1041C8000021007CFFF784B80021007CFFF788B845
:1041D80010B50446FBF75FFF204610BD10B5044636
:1041E80008464FF47A73A360044B00212074616081
:1041F8002360FFF785F8204610BD00BFF0580A0875
:104208000022007CFFF724B800231A461946007CD8
:10421800FFF726B813B50024007C0094FFF728F8B0
:10422800C0B202B010BD0123FFF7F4BF0123D2B220
:10423800C9B2FFF7EFBF0022007CFFF721B80022C8
:10424800007CFFF725B80121FFF7F9BF0021007CAA
:10425800FFF74EB87047002211461046FFF7E2B844
:104268000348044B044A0549036000F0C5B800BF81
:104278009808002018590A08640300205D420A08BB
:1042880010B504460F48FFF729F928B1A4F10D032A
:10429800022B01D8002010BD00F08EF8FFF7D6FFE2
:1042A80008B1012CF6D9FFF735FFFFF72FFF18B13A
:1042B800A4F11203012BEDD9172C8CBF002001208B
:1042C80010BD00BF9C080020172838B504460D46CD
:1042D8000AD8FF2908D0FFF7D3FF28B1294620467E
:1042E800BDE83840FEF71CBF38BD38B504460D465A
:1042F800FEF71EFFFF2810D0062804D84D2323FA06
:1043080000F0C30709D42046FFF7BAFF28B12946B1
:104318002046BDE83840FEF713BF38BD10B5044647
:10432800FEF706FF0438C0B2012808D92046FFF777
:10433800A7FF20B12046BDE81040FEF709BF0020C6
:1043480010BD000070B50C4C0C4E0D4D00212046E0
:10435800FFF7B0F820460B4C3246294600F04CF8DF
:1043680001212046FFF7A6F8324629462046BDE837
:10437800704000F041B800BF9C0800206403002092
:10438800AD340A08AC08002013B5084C00231A46BF
:10439800194600932046FFF78BFD2046044A05493D
:1043A80002B0BDE8104000F027B800BFC0080020E8
:1043B800640300205F3E0A0838B50B4D296811F0E8
:1043C80001040FD12846FBF768FE58B1214607487B
:1043D800FFF704FF2846FBF765FE054A0549034831
:1043E80000F00AF8014838BDD8080020DC08002091
:1043F800640300208F410A080B460146184601F065
:10440800E1B808B5FFF746F8184B1A68D1075CBF42
:1044180001221A60164B1A68D2075CBF01221A6083
:10442800144B1A68D0075CBF01221A60124B1A6835
:10443800D1075CBF01221A60104B1A68D2075CBF13
:1044480001221A600E4B1A68D0075CBF01221A605D
:104458000C4B1A68D1075CBF01221A600A4B1A6814
:10446800D2075CBF01221A60704700BF0C09002008
:10447800080900200409002000090020FC08002089
:10448800F8080020F4080020F0080020244B1A68DF
:10449800D0075CBF01221A60224B1A68D1075CBFA3
:1044A80001221A60204B1A68D2075CBF01221A60E9
:1044B8001E4B1A68D0075CBF01221A601C4B1A6891
:1044C800D1075CBF01221A601A4B1A68D2075CBF79
:1044D80001221A60184B1A68D0075CBF01221A60C3
:1044E800164B1A68D1075CBF01221A60144B1A6870
:1044F800D2075CBF01221A60124B1A68D0075CBF52
:1045080001221A60104B1A68D1075CBF01221A6099
:104518000E4B1A68D2075CBF01221A60704700BFB1
:104528003C09002038090020340900203009002007
:104538002C09002028090020240900202009002037
:104548001C09002018090020140900201009002067
:10455800244B1A68D0075CBF01221A60224B1A68E4
:10456800D1075CBF01221A60204B1A68D2075CBFD2
:1045780001221A601E4B1A68D0075CBF01221A601C
:104588001C4B1A68D1075CBF01221A601A4B1A68C3
:10459800D2075CBF01221A60184B1A68D0075CBFAB
:1045A80001221A60164B1A68D1075CBF01221A60F3
:1045B800144B1A68D2075CBF01221A60124B1A68A2
:1045C800D0075CBF01221A60104B1A68D1075CBF84
:1045D80001221A600E4B1A68D2075CBF01221A60CA
:1045E800704700BF6C09002068090020640900209A
:1045F800600900205C0900205809002054090020A7
:10460800500900204C0900204809002044090020D6
:1046180040090020184B1A68D1075CBF01221A60B4
:10462800164B1A68D2075CBF01221A60144B1A682D
:10463800D0075CBF01221A60124B1A68D1075CBF11
:1046480001221A60104B1A68D2075CBF01221A6057
:104658000E4B1A68D0075CBF01221A600C4B1A680F
:10466800D1075CBF01221A600A4B1A68D2075CBFE7
:1046780001221A60704700BF8C09002088090020B9
:1046880084090020800900207C0900207809002086
:10469800740900207009002081F0004102E000BF89
:1046A80083F0004330B54FEA41044FEA430594EAEA
:1046B800050F08BF90EA020F1FBF54EA000C55EA25
:1046C800020C7FEA645C7FEA655C00F0E2804FEAF6
:1046D8005454D4EB5555B8BF6D420CDD2C4480EAD8
:1046E800020281EA030382EA000083EA010180EA08
:1046F800020281EA0303362D88BF30BD11F0004F56
:104708004FEA01314FF4801C4CEA113102D040428B
:1047180061EB410113F0004F4FEA03334CEA1333C6
:1047280002D0524263EB430394EA050F00F0A780DE
:10473800A4F10104D5F1200E0DDB02FA0EFC22FAD9
:1047480005F2801841F1000103FA0EF2801843FACD
:1047580005F359410EE0A5F120050EF1200E012ABE
:1047680003FA0EFC28BF4CF0020C43FA05F3C018FC
:1047780051EBE37101F0004507D54FF0000EDCF175
:10478800000C7EEB00006EEB0101B1F5801F1BD31E
:10479800B1F5001F0CD349085FEA30004FEA3C0C22
:1047A80004F101044FEA445212F5800F80F09A8018
:1047B800BCF1004F08BF5FEA500C50F1000041EB1C
:1047C800045141EA050130BD5FEA4C0C404141EB20
:1047D800010111F4801FA4F10104E9D191F0000F47
:1047E80004BF01460020B1FA81F308BF2033A3F1CA
:1047F8000B03B3F120020CDA0C3208DD02F1140CC1
:10480800C2F10C0201FA0CF021FA02F10CE002F1FB
:104818001402D8BFC2F1200C01FA02F120FA0CFCF4
:10482800DCBF41EA0C019040E41AA2BF01EB04513D
:10483800294330BD6FEA04041F3C1CDA0C340EDC3B
:1048480004F11404C4F1200220FA04F001FA02F37E
:1048580040EA030021FA04F345EA030130BDC4F13C
:104868000C04C4F1200220FA02F001FA04F340EA31
:104878000300294630BD21FA04F0294630BD94F0E2
:10488800000F83F4801306BF81F480110134013DC9
:104898004EE77FEA645C18BF7FEA655C29D094EA3A
:1048A800050F08BF90EA020F05D054EA000C04BFB8
:1048B8001946104630BD91EA030F1EBF00210020A3
:1048C80030BD5FEA545C05D14000494128BF41F042
:1048D800004130BD14F580043CBF01F5801130BDA6
:1048E80001F0004545F0FE4141F470014FF0000031
:1048F80030BD7FEA645C1ABF194610467FEA655CE2
:104908001CBF0B46024650EA013406BF52EA033583
:1049180091EA030F41F4002130BD00BF90F0000F71
:1049280004BF0021704730B54FF4806404F13204AD
:104938004FF000054FF0000150E700BF90F0000F66
:1049480004BF0021704730B54FF4806404F132048D
:1049580010F0004548BF40424FF000013EE700BF5D
:1049680042004FEAE2014FEA31014FEA02701FBFED
:1049780012F07F4393F07F4F81F06051704792F0BF
:10498800000F14BF93F07F4F704730B54FF4607439
:1049980001F0004521F0004120E700BF50EA010284
:1049A80008BF704730B54FF000050AE050EA010231
:1049B80008BF704730B511F0004502D5404261EBA1
:1049C80041014FF4806404F132045FEA915C3FF4E2
:1049D800DCAE4FF003025FEADC0C18BF03325FEA7B
:1049E800DC0C18BF033202EBDC02C2F1200300FA30
:1049F80003FC20FA02F001FA03FE40EA0E0021FA55
:104A080002F11444C1E600BF70B54FF0FF0C4CF43E
:104A1800E06C1CEA11541DBF1CEA135594EA0C0FF4
:104A280095EA0C0F00F0DEF82C4481EA030621EA2F
:104A38004C5123EA4C5350EA013518BF52EA03356A
:104A480041F4801143F4801338D0A0FB02CE4FF01C
:104A58000005E1FB02E506F00042E0FB03E54FF04C
:104A68000006E1FB03569CF0000F18BF4EF0010E44
:104A7800A4F1FF04B6F5007F64F5407404D25FEA40
:104A88004E0E6D4146EB060642EAC62141EA5551F3
:104A98004FEAC52040EA5E504FEACE2EB4F1FD0C35
:104AA80088BFBCF5E06F1ED8BEF1004F08BF5FEAB3
:104AB800500E50F1000041EB045170BD06F0004665
:104AC80046EA010140EA020081EA0301B4EB5C0412
:104AD800C2BFD4EB0C0541EA045170BD41F480110A
:104AE8004FF0000E013C00F3AB8014F1360FDEBF2F
:104AF800002001F0004170BDC4F10004203C35DA0B
:104B08000C341BDC04F11404C4F1200500FA05F38D
:104B180020FA04F001FA05F240EA020001F000422E
:104B280021F0004110EBD37021FA04F642EB0601A4
:104B38005EEA430E08BF20EAD37070BDC4F10C04CE
:104B4800C4F1200500FA04F320FA05F001FA04F292
:104B580040EA020001F0004110EBD37041F100017E
:104B68005EEA430E08BF20EAD37070BDC4F1200589
:104B780000FA05F24EEA020E20FA04F301FA05F2F1
:104B880043EA020321FA04F001F0004121FA04F299
:104B980020EA020000EBD3705EEA430E08BF20EA69
:104BA800D37070BD94F0000F0FD101F000464000A3
:104BB80041EB010111F4801F08BF013CF7D041EA25
:104BC800060195F0000F18BF704703F00046520029
:104BD80043EB030313F4801F08BF013DF7D043EAFA
:104BE8000603704794EA0C0F0CEA135518BF95EAB0
:104BF8000C0F0CD050EA410618BF52EA4306D1D137
:104C080081EA030101F000414FF0000070BD50EA55
:104C1800410606BF1046194652EA430619D094EADF
:104C28000C0F02D150EA013613D195EA0C0F05D1C9
:104C380052EA03361CBF104619460AD181EA03011D
:104C480001F0004141F0FE4141F470014FF00000D5
:104C580070BD41F0FE4141F4780170BD70B54FF070
:104C6800FF0C4CF4E06C1CEA11541DBF1CEA1355F0
:104C780094EA0C0F95EA0C0F00F0A7F8A4EB0504D2
:104C880081EA030E52EA03354FEA013100F08880C9
:104C98004FEA03334FF0805545EA131343EA126392
:104CA8004FEA022245EA111545EA10654FEA002647
:104CB8000EF000419D4208BF964244F1FD0404F500
:104CC800407402D25B084FEA3202B61A65EB03055C
:104CD8005B084FEA32024FF480104FF4002CB6EB19
:104CE800020E75EB030E22BFB61A754640EA0C0099
:104CF8005B084FEA3202B6EB020E75EB030E22BFD9
:104D0800B61A754640EA5C005B084FEA3202B6EB19
:104D1800020E75EB030E22BFB61A754640EA9C00D8
:104D28005B084FEA3202B6EB020E75EB030E22BFA8
:104D3800B61A754640EADC0055EA060E18D04FEA66
:104D4800051545EA16754FEA06164FEAC30343EA06
:104D580052734FEAC2025FEA1C1CC0D111F4801FD3
:104D68000BD141EA00014FF000004FF0004CB6E7CC
:104D780011F4801F04BF01430020B4F1FD0C88BF6B
:104D8800BCF5E06F3FF6AFAEB5EB030C04BFB6EB76
:104D9800020C5FEA500C50F1000041EB045170BD69
:104DA8000EF0004E4EEA113114EB5C04C2BFD4EB96
:104DB8000C0541EA045170BD41F480114FF0000E1A
:104DC800013C90E645EA060E8DE60CEA135594EA96
:104DD8000C0F08BF95EA0C0F3FF43BAF94EA0C0F99
:104DE8000AD150EA01347FF434AF95EA0C0F7FF40E
:104DF80025AF104619462CE795EA0C0F06D152EA62
:104E080003353FF4FDAE1046194622E750EA410645
:104E180018BF52EA43067FF4C5AE50EA41047FF456
:104E28000DAF52EA43057FF4EBAE12E74FF0FF3CBB
:104E380006E000BF4FF0010C02E000BF4FF0010C8C
:104E48004DF804CD4FEA410C7FEA6C5C4FEA430C05
:104E580018BF7FEA6C5C1BD001B050EA410C0CBF54
:104E680052EA430C91EA030F02BF90EA020F0020B6
:104E7800704710F1000F91EA030F58BF994208BF1D
:104E880090422CBFD8176FEAE37040F001007047DA
:104E98004FEA410C7FEA6C5C02D150EA013C07D131
:104EA8004FEA430C7FEA6C5CD6D152EA033CD3D07C
:104EB8005DF8040B704700BF8446104662468C4676
:104EC8001946634600E000BF01B5FFF7B7FF0028A9
:104ED80048BF10F1000F01BD4DF808EDFFF7F4FFD2
:104EE8000CBF012000205DF808FB00BF4DF808ED5D
:104EF800FFF7EAFF34BF012000205DF808FB00BF80
:104F08004DF808EDFFF7E0FF94BF012000205DF8A1
:104F180008FB00BF4DF808EDFFF7CEFF94BF012056
:104F280000205DF808FB00BF4DF808EDFFF7C4FF4F
:104F380034BF012000205DF808FB00BF4FEA4102A2
:104F4800B2F1E04324BFB3F5001CDCF1FE5C0DD9DF
:104F580001F0004C4FEAC0024CEA5070B2F1004F29
:104F680040EB830008BF20F00100704711F0804F2C
:104F780021D113F13872BCBF01F00040704741F4F1
:104F880080114FEA5252C2F11802C2F1200C10FAF5
:104F98000CF320FA02F018BF40F001004FEAC123D9
:104FA8004FEAD32303FA0CFC40EA0C0023FA02F37D
:104FB8004FEA4303CCE77FEA625307D150EA013353
:104FC8001EBF4FF0FE4040F44000704701F0004023
:104FD80040F0FE4040F40000704700BF80F0004001
:104FE80002E000BF81F0004142001FBF5FEA4103B9
:104FF80092EA030F7FEA226C7FEA236C6AD04FEAB9
:105008001262D2EB1363C1BFD218414048404140FD
:10501800B8BF5B42192B88BF704710F0004F40F4AF
:10502800000020F07F4018BF404211F0004F41F4CB
:10503800000121F07F4118BF494292EA030F3FD097
:10504800A2F1010241FA03FC10EB0C00C3F12003AA
:1050580001FA03F100F0004302D5494260EB400039
:10506800B0F5000F13D3B0F1807F06D340084FEAA4
:10507800310102F10102FE2A51D2B1F1004F40EB99
:10508800C25008BF20F0010040EA03007047490001
:1050980040EB000010F4000FA2F10102EDD1B0FACC
:1050A80080FCACF1080CB2EB0C0200FA0CF0AABFC1
:1050B80000EBC25052421843BCBFD040184370475F
:1050C80092F0000F81F4000106BF80F40000013265
:1050D800013BB5E74FEA41037FEA226C18BF7FEA3C
:1050E800236C21D092EA030F04D092F0000F08BF7E
:1050F8000846704790EA010F1CBF0020704712F065
:105108007F4F04D1400028BF40F00040704712F1A3
:1051180000723CBF00F50000704700F0004343F008
:10512800FE4040F4000070477FEA226216BF08463E
:105138007FEA23630146420206BF5FEA412390EA01
:10514800010F40F4800070474FF0000304E000BFF7
:1051580010F0004348BF40425FEA000C08BF7047A8
:1051680043F0964301464FF000001CE050EA01026C
:1051780008BF70474FF000030AE000BF50EA010281
:1051880008BF704711F0004302D5404261EB41016E
:105198005FEA010C02BF84460146002043F0B64393
:1051A80008BFA3F18053A3F50003BCFA8CF2083AB8
:1051B800A3EBC25310DB01FA02FC634400FA02FCC1
:1051C800C2F12002BCF1004F20FA02F243EB0200C8
:1051D80008BF20F00100704702F1200201FA02FC2A
:1051E800C2F1200250EA4C0021FA02F243EB02001D
:1051F80008BF20EADC7070474FF0FF0C1CEAD05261
:105208001EBF1CEAD15392EA0C0F93EA0C0F6FD021
:105218001A4480EA010C400218BF5FEA41211ED0FF
:105228004FF0006343EA501043EA5111A0FB0131EB
:105238000CF00040B1F5000F3EBF490041EAD371C0
:105248005B0040EA010062F17F02FD2A1DD8B3F13C
:10525800004F40EBC25008BF20F00100704790F0AB
:10526800000F0CF0004C08BF49024CEA502040EAFD
:1052780051207F3AC2BFD2F1FF0340EAC2507047C3
:1052880040F400004FF00003013A5DDC12F1190F01
:10529800DCBF00F000407047C2F10002410021FA73
:1052A80002F1C2F1200200FA02FC5FEA310040F18B
:1052B800000053EA4C0308BF20EADC70704792F004
:1052C800000F00F0004C02BF400010F4000F013A3C
:1052D800F9D040EA0C0093F0000F01F0004C02BF37
:1052E800490011F4000F013BF9D041EA0C018FE7A6
:1052F8000CEAD15392EA0C0F18BF93EA0C0F0AD0AC
:1053080030F0004C18BF31F0004CD8D180EA0100D1
:1053180000F00040704790F0000F17BF90F0004F6A
:10532800084691F0000F91F0004F14D092EA0C0F4C
:1053380001D142020FD193EA0C0F03D14B0218BFDF
:10534800084608D180EA010000F0004040F0FE4025
:1053580040F40000704740F0FE4040F440007047C1
:105368004FF0FF0C1CEAD0521EBF1CEAD15392EA40
:105378000C0F93EA0C0F69D0A2EB030280EA010C30
:1053880049024FEA402037D04FF0805343EA1111C9
:1053980043EA10130CF000408B4238BF5B0042F127
:1053A8007D024FF4000C8B4224BF5B1A40EA0C00CC
:1053B800B3EB510F24BFA3EB510340EA5C00B3EBFE
:1053C800910F24BFA3EB910340EA9C00B3EBD10FEC
:1053D80024BFA3EBD10340EADC001B0118BF5FEA3E
:1053E8001C1CE0D1FD2A3FF650AF8B4240EBC25067
:1053F80008BF20F0010070470CF0004C4CEA502028
:105408007F32C2BFD2F1FF0340EAC250704740F476
:1054180000004FF00003013A37E792F0000F00F068
:10542800004C02BF400010F4000F013AF9D040EAE6
:105438000C0093F0000F01F0004C02BF490011F47A
:10544800000F013BF9D041EA0C0195E70CEAD15372
:1054580092EA0C0F08D142027FF47DAF93EA0C0F59
:105468007FF470AF084676E793EA0C0F04D14B023D
:105478003FF44CAF08466EE730F0004C18BF31F0EF
:10548800004CCAD130F000427FF45CAF31F00043E9
:105498007FF43CAF5FE700BF4FF0FF3C06E000BF82
:1054A8004FF0010C02E000BF4FF0010C4DF804CDA5
:1054B8004FEA40024FEA41037FEA226C18BF7FEAB5
:1054C800236C11D001B052EA530C18BF90EA010FB7
:1054D80058BFB2EB030088BFC81738BF6FEAE17046
:1054E80018BF40F0010070477FEA226C02D15FEAE2
:1054F800402C05D17FEA236CE4D15FEA412CE1D04E
:105508005DF8040B704700BF844608466146FFE714
:105518000FB5FFF7C9FF002848BF10F1000F0FBDF6
:105528004DF808EDFFF7F4FF0CBF012000205DF8EF
:1055380008FB00BF4DF808EDFFF7EAFF34BF012074
:1055480000205DF808FB00BF4DF808EDFFF7E0FF0D
:1055580094BF012000205DF808FB00BF4DF808ED5E
:10556800FFF7D2FF94BF012000205DF808FB00BFC1
:105578004DF808EDFFF7C8FF34BF012000205DF8A3
:1055880008FB00BF42000ED2B2F1FE4F0BD34FF022
:105598009E03B3EB126209D44FEA002343F00043A1
:1055A80023FA02F070474FF00000704712F1610FC4
:1055B80001D1420202D14FF0FF3070474FF0000096
:1055C800704700BF10B5054C13462CB10A4601467A
:1055D8000220AFF3008010BD204610BD000000007F
:1055E80010B5431E0A44914204D011F8014B03F848
:1055F800014FF8E710BD03460244934202D003F876
:10560800011BFAE77047034613F8012B002AFBD168
:10561800181A0138704700001D000A085D000A08C2
:1056280089000A088D000A08000000007365747577
:1056380070537563636573733D25640057616974BE
:10564800696E6720666F72205374617274005374B8
:10565800617274696E6720696E2035207365636FA7
:105668006E64732E2E2E00474F210046756C6C20F9
:105678004C65667400536D616C6C204C65667400F3
:1056880043656E74657200536D616C6C2052696776
:1056980068740046756C6C205269676874006E6F98
:1056A8002073616D706C65002053454E534F522036
:1056B80054494D454F5554000000000000000000BB
:1056C80095200A0897200A08EB200A08A3200A0850
:1056D800646576696365206E6F7420666F756E64A5
:1056E80000726573657474696E67206C6173744DBC
:1056F8006F76656D656E7420696E74315F73726361
:105708003D3078257800726563616C6962726174F6
:10571800696E67000000000000000000AD340A0850
:10572800AF340A0866006C6E00666E00636F6465CD
:105738000064657461696C000D0A002530313075AC
:1057480020005D20002C200028293A2000205B0042
:10575800636F6465203D2000256900646574616994
:105768006C73203D20006261756400536572696145
:105778006C0055534253657269616C3100747970DD
:105788006500706172616D00636D64006964006832
:105798006E64007374726D0066696C74006C766C6C
:1057A8000061646448616E646C65720072656D6F57
:1057B800766548616E646C657200656E756D4861EA
:1057C8006E646C657273004A534F4E537472656110
:1057D8006D4C6F6748616E646C6572006170700033
:1057E8006E6F6E6500747261636500696E666F0046
:1057F8007761726E006572726F720070616E6963B4
:1058080000616C6C005A00252B3033643A25303225
:10581800750025592D256D2D25645425483A254DAB
:105828003A2553257A0061736374696D6500000039
:105838000000000000000000A9390A08D9390A0848
:105848000000000000000000ED390A08013A0A08CB
:1058580000000000000000006D390A087F390A08BE
:105868006F390A088B390A087B390A0800000000DA
:10587800000000006D3E0A085F3E0A08613E0A0803
:105888000000000000000000D53E0A08193F0A0881
:10589800F33E0A0885360A08ED3E0A08D73E0A088C
:1058A800DF3E0A08133F0A08E73E0A08D13E0A0805
:1058B800000000000000000095400A08B9400A08EE
:1058C800C5400A0885360A08A1400A08AD400A08FA
:1058D800A7400A08B3400A0897400A089B400A08EC
:1058E80000000000000000008F410A08D9410A08A2
:1058F800B1410A0891410A08B9410A08C1410A0898
:10590800C9410A08D1410A0800000000000000004F
:105918005F420A08FD130A0891200A08E5220A08CE
:10592800A9350A0811380A0821380A0869420A08FC
:105938004D430A0891430A0811440A0895440A0885
:0859480059450A081D460A0832
:045950000000000053
:1059540004000000DC0500005C030000E803000014
:1059640074040000002000000E0000000500000088
:105974000600000001000000070000000100000014
:1059840018010000A40100008C00000003000000C6
:10599400DC0500000100000002000000AE01000070
:1059A4003A020000C6020000520300000100000099
:0459B4002E580A0857
:1059B800FFFFFFFF00000102030405060708090AAC
:1059C8000B0C0D0E0F101112131415161718191AA7
:0859D8001B1C1D1E1F202800EE
:0459E00078563412AF
:04000005080A0018CD
:00000001FF
