:02000004080AE8
:1000000000000A0870570A080000040006000501F5
:0800100004026C000000000076
:1000180098530A0809480A4908B5884205D0094A88
:10002800824202D0121A05F097F90748074A0021C0
:10003800121A05F09CF9064808BD00BF000300200D
:1000480014570A08340300203403002074090020E0
:100058007409002070B503F0A9FD074B074C1E4634
:10006800E41AA4080025A54204D056F8253098477C
:100078000135F8E770BD00BFD4560A0808570A08CA
:1000880001F034B908B501F0F7FABDE8084003F00B
:100098004BBD03F06BBB03F071BB0078B0FA80F086
:1000A8004009704701230370704703681847012A05
:1000B80002D0022A02D004E0016002E00B6800B11D
:1000C800036000207047000008B5054B188803F04E
:1000D800E3FF044B003018BF0120187008BD00BFB3
:1000E8001C0300202403002008B5054B188803F0E2
:1000F800D3FF044B003018BF0120187008BD00BFA3
:100108000C0300202503002008B5054B188803F0D0
:10011800C3FF044B003018BF0120187008BD00BF92
:10012800140300201003002008B5054B188803F0BD
:10013800B3FF044B003018BF0120187008BD00BF82
:10014800180300202C03002008B5054B188803F07D
:10015800A3FF044B003018BF0120187008BD00BF72
:10016800000300203E03002007B5002302A941F840
:10017800043D03F099F920B9019810B103689B6810
:10018800984703B05DF804FB10B501230371436978
:10019800044613B183690C3098470023237110BDBE
:1001A80010B5054C0548214602F060F9B4F9002065
:1001B800034B1A6010BD00BF380300205403002011
:1001C800C803002008B51E4A1E4B12681B689B1AFC
:1001D80040F2ED2293420DDC1B4A4B2313601B4A6D
:1001E80013601B4A002313601A4A136003F094FD3E
:1001F800194921E040F2DB5293420EDC124A4B23AC
:100208001360124A1360134B00221A60104B01222C
:100218001A6003F081FD11490EE0114A01231370A1
:10022800104A1370104A1370104A1370104B0022B2
:100238001A7003F071FD0F49BDE8084003F0D3BB05
:10024800B4030020CC030020D40300200C040020B9
:100258002003002004030020C0530A08D9530A08C9
:100268002403002025030020100300202C03002075
:10027800D0030020E5530A0810B58368044613B17B
:10028800032201469847204610BD07B58068002321
:1002980038B18DE80A00022103F00EF9B0FA80F0B7
:1002A800400903B05DF804FB38B50E4B0446036003
:1002B80083688BB100226FF00041FFF7E6FF2379D6
:1002C80003F0FF051BB1012003F0D6FBF7E7294631
:1002D800A06803F0E1F8A56004F10C00FFF7CCFF7B
:1002E800204638BDB4530A0810B50446FFF7DCFFB2
:1002F8002046FFF7D0FE204610BD00002DE9F04152
:1003080001210A2003F09EFE01210B2003F09AFE32
:1003180001210C2003F096FE01210D2003F092FE2E
:1003280000210A2003F09FFE00210B2003F09BFE12
:1003380000210C2003F097FE00210D2003F093FE0E
:100348004FF4FA7003F098FB03F0F4FE404903F011
:1003580015FE03F0EFFE03F015FE0A2003F08CFBF8
:1003680001210A2003F07FFE01210B2003F07BFE10
:1003780001210C2003F077FE01210D2003F073FE0C
:100388000A2003F079FB00210B2003F06CFE314FAB
:1003980000210C2003F067FE00210D2003F063FE0E
:1003A8000121384601F060FD4FF47A783021384653
:1003B80001F00FFA284EC7F804800A2003F05CFB0E
:1003C80001210B2003F04FFE0121304601F04CFDC6
:1003D8003121304601F0FDF9204D0A20C6F804808D
:1003E80003F04AFB01210C2003F03DFE01212846C1
:1003F80001F03AFD3221284601F0EBF9184C0A20A9
:10040800C5F8048003F038FB01210D2003F02BFE12
:100418000121204601F028FD3321204601F0D9F9B9
:100428000A20C4F8048003F027FB38460A2101F0AB
:10043800EEFA30460A2101F0EAFA28460A2101F0CC
:10044800E6FA2046BDE8F0410A2101F0E0BA00BF13
:10045800A08601006C030020EC0300208403002028
:100468009C0300201FB501A801F0D3FF702101A84B
:1004780001F0DCFF01A9034802F030F805B05DF88F
:1004880004FB00BF5403002008B5154B0021188851
:1004980003F0D8FD134B0021188803F0D3FD124B4D
:1004A8000021188803F0CEFD104B0021188803F0B6
:1004B800C9FD0F4B0021188803F0C4FD0D4B012125
:1004C800188803F0BFFD0C4B0121188803F0BAFD12
:1004D80003F022FCBDE808404FF4165103F002BCBB
:1004E8001C0300200C030020140300201803002024
:1004F80000030020280300200803002030B5364BF5
:1005080091B00024188822464FF0FF3333490094F5
:1005180003F066FC324B2246188832494FF0FF330D
:10052800009403F05DFC304B224618882F494FF0A9
:10053800FF33009403F054FC2D4B224618882D49B4
:100548004FF0FF33009403F04BFC2B4B22461888E6
:100558002A494FF0FF33009403F042FC284B03AACA
:10056800059305AD95E80300264B82E8030009933F
:100578000CAB93E8030085E8030092E8030083E8E6
:100588000300214B214A0E930F9B64210893204BB3
:1005980001940F93009409AB0BA88DF828400B9495
:1005A800079402F071FF2846FFF766FE22462146AF
:1005B80009A8FFF76AFE0B9840B16FF0004300935B
:1005C800019423462246214602F076FF09A8FFF748
:1005D8006BFE11B030BD00BF1C030020D1000A081B
:1005E8000C030020F1000A081403002011010A0876
:1005F8001803002031010A080003002051010A08ED
:10060800A9010A08B4530A08B7000A0871010A08C0
:10061800B3000A08F7B5134B134D0026B427198801
:100628004FF408728DE8C0004FF41663284603F0B3
:1006380008F90E4C0E4B4FF40872198820464FF4F7
:1006480016638DE8C00003F0FCF8284640F2DC5140
:1006580003F0C3F840F2DC51204603B0BDE8F04097
:1006680003F0BBB82803002044030020B80300208F
:100678000803002008B502F0FFFE014B186008BD12
:10068800B403002010B50C4C23782BB903F044FBBD
:100698000A4903F0A8F9F7E703F03EFB084903F01D
:1006A800A2F941F2883003F0E7F903F035FBBDE821
:1006B8001040044903F097B93E03002004540A0887
:1006C80016540A082F540A082DE9F04F102099B043
:1006D800FFF7DFFC054610B1012102F09CF9142058
:1006E800FFF7D7FC064638B14FF08C430093A64A73
:1006F800A64BA74902F00BFC1420FFF7CAFC814661
:1007080030B1A44BA44A0093A449A54B02F0FFFBC7
:100718001420FFF7BEFC804630B1A24BA24A0093DA
:100728000021A24B02F0F3FB3146284602F08FF974
:100738009F4C4946284602F08AF94146284602F06D
:1007480086F92946206802F0B6FC1020FFF7A1FCC4
:10075800054610B1022102F05EF91420FFF799FC5A
:10076800074638B14FF08C430093874A874B884936
:1007780002F0CDFB1420FFF78CFC824630B1854B8C
:10078800854A00938549864B02F0C1FB1420FFF788
:1007980080FC834630B1834B834A00930021834B0E
:1007A80002F0B5FB3946284602F051F95146284671
:1007B80002F04DF95946284602F049F929462068C1
:1007C80002F079FC1020FFF764FC054610B1032104
:1007D80002F021F91420FFF75CFC079038B14FF0C4
:1007E8008C430093684A694B694902F090FB1420D6
:1007F800FFF74FFC089030B1664B674A0093674992
:10080800674B02F084FB1420FFF743FC099030B1DA
:10081800644B654A00930021644B02F078FB07990A
:10082800284602F014F90899284602F010F90999A7
:10083800284602F00CF92946206802F03CFC1020FA
:10084800FFF727FC044610B1042102F0E4F8142055
:10085800FFF71FFC054638B14FF08C4300934A4A16
:100868004A4B4B4902F053FB1420FFF712FC0A9045
:1008780030B1484B484A00934849494B02F047FB7E
:100888001420FFF706FC0B9030B1464B464A009304
:100898000021464B02F03BFB2946204602F0D7F8E0
:1008A8000A99204602F0D3F80B99204602F0CFF8B7
:1008B8003F4B2146186802F0FEFB1820FFF7E9FBC2
:1008C800044610B1012102F0DEF81420FFF7E1FB25
:1008D8000F9030B1374B384A00930021374B02F064
:1008E80016FB1420FFF7D5FB109030B1344B354A76
:1008F80000933549354B02F00AFB1420FFF7C9FB7A
:10090800119030B1324B334A00933349334B02F0E4
:10091800FEFA1420FFF7BDFB129030B1304B314A7C
:1009280000933149314B02F0F2FA1420FFF7B1FB82
:10093800139030B12E4B2F4A00932F492F4B02F0C2
:10094800E6FA0F99204602F082F81099204602F044
:100958007EF81199204602F07AF81299204602F0A2
:1009680076F81399204602F072F8114B2146186860
:1009780002F0B4FB1820FFF78CFB0C9000283FD046
:1009880002F024FC3CE000BF00007A4400808E4462
:10099800000057440080544400800E440000D743B0
:1009A800008031440000D24300000C4300008C4317
:1009B800680300200000A0410000A0400000704132
:1009C800000020420000F0410000C84100000C4235
:1009D80000007042000048420000344200005C42BF
:1009E8000000A04200008C420000824200009642B3
:1009F8000000C8420000B4420000AA420000BE4203
:100A08005A4631460C9802F0E9FB1820FFF741FBE3
:100A1800059008B102F0DAFB5A464946059802F0FB
:100A2800DDFB1820FFF735FB029008B102F0CEFB82
:100A380052463146029802F0D1FB1820FFF729FBF5
:100A4800039008B102F0C2FB52464946039802F0EF
:100A5800C5FB1820FFF71DFB0D9008B102F0B6FB8F
:100A68005A4641460D9802F0B9FB1820FFF711FBD2
:100A7800149008B102F0AAFB52464146149802F0BD
:100A8800ADFB1820FFF705FB159008B102F09EFB9F
:100A98003A464946159802F0A1FB1820FFF7F9FAE3
:100AA800169008B102F092FB3A464146169802F0B9
:100AB80095FB1820FFF7EDFA044608B102F086FB13
:100AC8003A463146204602F089FB1820FFF7E1FA42
:100AD8000E9008B102F07AFB2A4609990E9802F0A6
:100AE8007DFB1820FFF7D5FA069008B102F06EFBDF
:100AF8000A9A0999069802F071FB1820FFF7C9FABB
:100B0800049008B102F062FB2A460899049802F0A2
:100B180065FB1820FFF7BDFA179008B102F056FBE5
:100B28000A9A0799179802F059FB1820FFF7B1FAAB
:100B3800064608B102F04AFB2A460799304602F0F9
:100B48004DFB1820FFF7A5FA834608B102F03EFBDB
:100B58000A9A0899584602F041FB1820FFF799FABB
:100B68000A9008B102F032FB0B9A07990A9802F032
:100B780035FB1820FFF78DFA079008B102F026FB25
:100B88000B9A0999079802F029FB1820FFF781FAB8
:100B9800099008B102F01AFB0B9A0899099802F01B
:100BA8001DFB0820FFF775FA804608B102F058FAD5
:100BB8001199404602F058FA0820FFF76AFA0746EA
:100BC80008B102F04DFA1099384602F04DFA0820A3
:100BD800FFF75FFA089008B102F042FA0F990898F7
:100BE80002F042FA0820FFF754FA0B9008B102F01D
:100BF80037FA13990B9802F037FA0820FFF749FAE9
:100C0800054608B102F02CFA1299284602F02CFA8F
:100C18001820FFF73EFA814608B102F0D7FA0E9A7B
:100C28000C99484602F0E9FA1020FFF732FA82469A
:100C380020B143464A46012101F0B8FCB54B514664
:100C4800186802F063FA1820FFF723FA814608B102
:100C580002F0BCFA0E9A0599484602F0CEFA102026
:100C6800FFF717FA824620B143464A46022101F0AF
:100C78009DFCA84B5146186802F048FA1820FFF767
:100C880008FA814608B102F0A1FA069A0C9948467A
:100C980002F0B3FA1020FFF7FCF9824620B1434670
:100CA8004A46032101F082FC9A4B5146186802F02B
:100CB8002DFA1820FFF7EDF9814608B102F086FAFF
:100CC800049A0299484602F098FA1020FFF7E1F9D1
:100CD800824620B143464A46042101F067FC8D4B09
:100CE8005146186802F012FA1820FFF7D2F9814627
:100CF80008B102F06BFA5A460399484602F07DFAA9
:100D08001020FFF7C6F9824620B143464A4605211E
:100D180001F04CFC7F4B5146186802F0F7F9182097
:100D2800FFF7B7F9814608B102F050FA32460D993B
:100D3800484602F062FA1020FFF7ABF9824620B16C
:100D48003B464A46062101F031FC724B5146186871
:100D580002F0DCF91820FFF79CF9814608B102F08F
:100D680035FA049A0D99484602F047FA1020FFF721
:100D780090F9824620B13B464A46062101F016FC0E
:100D8800644B5146186802F0C1F91820FFF781F941
:100D9800814608B102F01AFA5A460D99484602F0FF
:100DA8002CFA1020FFF775F9824620B13B464A46D7
:100DB800082101F0FBFB574B5146186802F0A6F9D1
:100DC8001820FFF766F9814608B102F0FFF95A4684
:100DD8000599484602F011FA1020FFF75AF98246A1
:100DE80020B13B464A46092101F0E0FB494B5146F8
:100DF800186802F08BF91820FFF74BF9814608B103
:100E080002F0E4F9049A0599484602F0F6F9102030
:100E1800FFF73FF9824620B13B464A460A2101F0D6
:100E2800C5FB3C4B5146186802F070F91820FFF7D3
:100E380030F9814608B102F0C9F9324605994846A9
:100E480002F0DBF91020FFF724F9824620B13B4677
:100E58004A460B2101F0AAFB2E4B5146186802F0B6
:100E680055F91820FFF715F9814608B102F0AEF9D7
:100E7800049A0399484602F0C0F91020FFF709F9CF
:100E8800824620B13B464A460C2101F08FFB214B9C
:100E98005146186802F03AF91820FFF7FAF8814627
:100EA80008B102F093F932460399484602F0A5F9D1
:100EB8001020FFF7EEF8824620B13B464A460D2146
:100EC80001F074FB134B5146186802F01FF9182003
:100ED800FFF7DFF8814608B102F078F93246149935
:100EE800484602F08AF91020FFF7D3F8824620B16D
:100EF8003B464A460E2101F059FB064B51461868FD
:100F080002F004F91820FFF7C4F8814620B102F076
:100F18005DF901E06803002032461599484602F061
:100F28006CF91020FFF7B5F8824620B13B464A46D7
:100F38000F2101F03BFBBF4B5146186802F0E6F861
:100F48001820FFF7A6F8814608B102F03FF93246AB
:100F58001699484602F051F91020FFF79AF8824690
:100F680020B1089B4A46102101F020FBB14B5146A5
:100F7800186802F0CBF81820FFF78BF8814608B103
:100F880002F024F90A9A2146484602F036F9102060
:100F9800FFF77FF8824620B10B9B4A46112101F0EA
:100FA80005FBA44B5146186802F0B0F81820FFF76B
:100FB80070F8814608B102F009F9079A21464846B7
:100FC80002F01BF91020FFF764F8824620B12B4687
:100FD8004A46122101F0EAFA964B5146186802F087
:100FE80095F81820FFF755F8814608B102F0EEF899
:100FF800079A0299484602F000F91020FFF749F8CD
:10100800824620B12B464A46132101F0CFFA894B7C
:101018005146186802F07AF81820FFF73AF8814626
:1010280008B102F0D3F8079A0399484602F0E5F8A8
:101038001020FFF72EF8824620B12B464A4614218D
:1010480001F0B4FA7B4B5146186802F05FF818209B
:10105800FFF71FF8814608B102F0B8F8069A03991D
:10106800484602F0CAF81020FFF713F8824620B16C
:101078002B464A46152101F099FA6E4B51461868DD
:1010880002F044F81820FFF704F8814608B102F08E
:101098009DF8069A0299484602F0AFF81020FEF72C
:1010A800F8FF824620B12B464A46162101F07EFA07
:1010B800604B5146186802F029F81820FEF7E9FF3E
:1010C800814608B102F082F8069A2146484602F0A5
:1010D80094F81020FEF7DDFF824620B12B464A46E1
:1010E800172101F063FA534B5146186802F00EF8C5
:1010F8001820FEF7CEFF814608B102F067F85A467D
:101108000299484602F079F81020FEF7C2FF82469D
:1011180020B12B464A46182101F048FADFF814910D
:101128005146D9F8000001F0F1FF1820FEF7B1FF91
:10113800824608B102F04AF85A462146504602F063
:101148005CF81020FEF7A5FF834620B12B465246D7
:10115800192101F02BFA5946D9F8000001F0D6FF01
:101168001820FEF796FF814608B102F02FF8099A79
:101178002146484602F041F81020FEF78AFF8246D1
:1011880020B12B464A461A2101F010FADFF8A49044
:101198005146D9F8000001F0B9FF1820FEF779FF91
:1011A800824608B102F012F8179A2146504602F01A
:1011B80024F81020FEF76DFF834620B12B465246D7
:1011C8001B2101F0F3F95946D9F8000001F09EFF00
:1011D8001820FEF75EFF824608B101F0F7FF32469D
:1011E8002146504602F009F81020FEF752FF8346C8
:1011F80020B1434652461C2101F0D8F95946D9F886
:10120800000001F083FF1820FEF743FF804608B175
:1012180001F0DCFF32460C99404601F0EEFF102049
:10122800FEF737FF824638B13B4642461D2101F0A2
:10123800BDF901E0680300205146D9F8000001F02B
:1012480065FF1820FEF725FF804608B101F0BEFFB4
:1012580032460299404601F0D0FF1020FEF719FFF0
:10126800064620B13B4642461E2101F09FF9314611
:10127800D9F8000001F04AFF1820FEF70AFF0646D9
:1012880008B101F0A3FF049A2146304601F0B5FFEA
:101298001020FEF7FEFE074620B12B4632461F21DE
:1012A80001F084F93946D9F8000001F02FFF182021
:1012B800FEF7EFFE064608B101F088FF21460E9AB8
:1012C800304601F09AFF1020FEF7E3FE044620B1F5
:1012D8002B463246202101F069F92146D9F8000051
:1012E80019B0BDE8F04F01F011BF00BF08B5FFF716
:1012F80005F8FFF7B7F8FFF7C7F8FFF7FFF8FFF7AC
:1013080089F9FFF7E1F9012002F0B9FBFFF7BAF913
:10131800BDE80840FFF7AEB908B540F2DC51054812
:1013280002F05BFABDE8084040F2DC51024802F0E6
:1013380054BA00BF44030020B803002008B50A4887
:1013480000F0A0FB094B1880094800F09BFB094BF3
:101358001880094800F096FB084B1880084800F0F0
:1013680091FB084B188008BD6C0300204003002047
:10137800EC0300200404002084030020D80300208C
:101388009C0300200604002010B5574B574C1888C2
:1013980003F096FD01210246206801F0CAFE544B75
:1013A800188803F08DFD02210246206801F0C1FE75
:1013B800504B188803F084FD03210246206801F091
:1013C800B8FE4D4B188803F07BFD042102462068C7
:1013D80001F0AFFE206801F0C0FE0121206801F095
:1013E800E3FE464B00211860044603F073FF90B1FA
:1013F8004349204603F05AFF68B14249424802F087
:10140800A8FA0021FF22084602F049FB3F4B32228E
:101418001A604B225FE03A49204603F05BFF90B127
:101428003B49204603F042FF68B13A49364802F08A
:1014380090FA80221146002002F031FB334B28221B
:101448001A603C2247E03249204603F043FF98B136
:101458003149204603F02AFF70B130492A4802F08A
:1014680078FA00221046FF2102F019FB274A32239E
:1014780013602B4A136030E02749204603F02AFF07
:1014880090B12849204603F011FF68B126491E484B
:1014980002F05FFA80210022084602F000FB1B4B95
:1014A8003C221A60282216E01E49204603F012FF4B
:1014B800C0B11E49204603F0F9FE98B11C491248F4
:1014C80002F047FA00221146FF2002F0E8FA0F4B1B
:1014D8004B221A603222124B1A60164A01231360FB
:1014E800154A136010BD00BF0604002068030020E1
:1014F800D803002004040020400300200804002032
:101508000000A04133540A08DC030020D403002063
:10151800000020423D540A080000704248540A085E
:101528000C0400200000A0424F540A080000C842E2
:101538005B540A08200300200403002008B5064B6A
:101548001B783BB9FFF7E8FE02F0E6FB034902F01F
:1015580037FAFEE708BD00BF3E03002066540A08BC
:10156800012A16BFC1F5BB6101F2DC510431012823
:1015780089B20CBF0148024802F02FB9B803002015
:101588004403002008B568B9124A4B231360124A75
:101598001360124A01231360114A136002F0BCFB66
:1015A800104912E00A2803D1BDE80840FEF70ABE38
:1015B800084A00231360084A1360094A012313608C
:1015C800064A136002F0A8FB0749BDE8084002F08C
:1015D8000ABA00BFD40300200C0400202003002016
:1015E800040300206E540A088D540A0808B51A4BE3
:1015F8001A781A4B22B11A4A12780AB11A789AB193
:101608001B786BB9FF221046114602F048FA154BB9
:1016180001201A68144B1A60104B1870FFF7B2FFBC
:10162800BDE80840FEF7CEBD104B1B7813B1104B38
:101638001B784BB9FF221046114602F030FABDE87C
:1016480008400020FFF79EBF02F066FBBDE8084097
:10165800084902F0C8B900BF24030020D0030020C5
:1016680025030020CC030020B40300202C03002015
:1016780010030020A2540A0808B5FFF7B7FF0E4B65
:101688001B781BB9FFF75AFEFFF77EFE01F0F4FE48
:101698000A4B1860FFF752FF094B01201A68094BE3
:1016A8001968FFF75DFF084B02201A68074B196895
:1016B800BDE80840FFF754BFD0030020CC0300204A
:1016C800040300200C04002020030020D403002081
:1016D80010B501F079FE1D4800F05AF81C4800F0DA
:1016E80057F81C4800F054F81B4800F051F802F075
:1016F80021FD112301460022184800F04BFF184A2B
:101708001849164802F036FD174802F086F81748BF
:1017180002F083F81820FEF7BCFC044608B101F07B
:10172800C2FC134B134914481C6002F0FFF80C4A22
:101738001249114802F01EFD0120002101F0F6FFB8
:10174800BDE81040032001F0E1BF00BF6C0300209A
:10175800EC030020840300209C0300205403002095
:101768003403002061230A0844030020B803002042
:101778006803002032550A08DC030020A7380A084D
:101788000368C9B29B6818470368C9B29B681847C1
:1017980029224270002242600272704770B50446E6
:1017A80015460E4602F0C6FC617802F002FC02F013
:1017B800C1FC036831469B68984702F0BBFC03688C
:1017C80029469B68984702F0B5FC02F0FAFB2070A6
:1017D80070BD38B505460C4601F07F028A21FFF737
:1017E800DDFF6C7038BD70B5044615460E4602F034
:1017F800A1FC617802F0DDFB02F09CFC0368314635
:101808009B68984702F096FC290AFFF7BDFF02F093
:1018180091FCE9B2FFF7B8FF02F08CFC02F0D1FBB3
:10182800207070BD70B5054614460E4602F082FC65
:10183800697802F0BEFB02F07DFC036831469B68C4
:10184800984702F077FC210EFFF79AFF02F072FC2E
:10185800C4F30741FFF794FF02F06CFCC4F30721BF
:10186800FFF78EFF02F066FCE1B2FFF789FF02F096
:1018780061FC02F0A6FB287070BD38B504460D4621
:1018880002F058FC617802F094FB02F053FC036804
:1018980029469B68984702F04DFC02F092FB2070A5
:1018A80002F048FC0122617802F07BFB02F042FC66
:1018B80003685B699847C0B238BD38B504460D4621
:1018C80002F038FC617802F074FB02F033FC036824
:1018D80029469B68984702F02DFC02F072FB2070A5
:1018E80002F028FC6178022202F05BFB02F022FC85
:1018F80003685B699847044602F01CFC03685B694F
:10190800984740EA042080B238BDF8B50646144628
:101918001D460F4602F00EFC717802F04AFB02F0F9
:1019280009FC036839469B6898472544AC4207D0B0
:1019380002F000FC036814F8011B9B689847F5E760
:1019480002F0F8FB02F03DFB3070F8BDF8B5064632
:1019580014461D460F4602F0EDFB717802F029FB94
:1019680002F0E8FB036839469B68984702F0E2FBFF
:1019780002F027FB307002F0DDFB2A46717802F096
:1019880010FB2544AC4207D002F0D4FB03685B6926
:10199800984704F8010BF5E7F8BD000000000000C7
:1019A80070B50D4606460021284603F07FFCB0B905
:1019B800284602F091FE0CA3D3E9002303F070F946
:1019C80068B94FF08641284603F0D2FA03F096FC36
:1019D800442182B23046FFF706FF012070BD002087
:1019E80070BD00BFAFF30080A4703D0AD7FF7F40F1
:1019F80008B509B9502102E0012906D17021FFF785
:101A08003CFF01304000C0B208BDFF2008BD38B51A
:101A180004460D4601228021FFF7C0FE0122FF2166
:101A28002046FFF7BBFE002211462046FFF7B6FE10
:101A3800227C91212046FFF7B1FE01220021204699
:101A4800FFF7ACFE0022FF212046FFF7A7FE002289
:101A580080212046FFF7A2FE6DB1F8212046FFF74E
:101A68002CFF00B145432A4604212046FFF7DAFE41
:101A78000422002101E0294602222046BDE8384020
:101A8800FFF78CBE38B5044601F0F6FCE060132180
:101A98002046FFF7F2FE43070ED16368002BF6D00D
:101AA80001F0EAFCE368C01A63689842EFD90123A1
:101AB80023724FF6FF7038BD1E212046FFF7FDFE4A
:101AC8000546012220460B21FFF768FE284638BD4F
:101AD800F8B504460F46164680210122FFF75EFE40
:101AE8000122FF212046FFF759FE00221146204619
:101AF800FFF754FE0622FF212046FFF74FFE832101
:101B08002046FFF7BAFE40F00402D2B283212046F5
:101B1800FFF744FE0722FF212046FFF73FFE012280
:101B280081212046FFF73AFE012280212046FFF757
:101B380035FE6B2294212046FFF730FE00228321D8
:101B48002046FFF72BFE01F097FCE060832120463A
:101B5800FFF793FE054658B96368002BF6D001F0ED
:101B68008BFCE368C01A63689842EFD92846F8BD31
:101B7800012220468321FFF711FE92212046FFF71C
:101B88007CFE00F07F03C0F3C0103B700022307071
:101B980081212046FFF702FE06222046FF21FFF79B
:101BA800FDFD83212046FFF768FE8321024620467B
:101BB800FFF7F4FD20460122FF21FFF7EFFD204645
:101BC80001220021FFF7EAFD20460022FF21FFF74E
:101BD800E5FD204600228021FFF7E0FD0120F8BD49
:101BE80010B50C460121FFF748FEC0F3001323701F
:101BF800C0F3C003A370C0F380036370C0F3801305
:101C0800C0F3C010E370207110BD4FF6FF73984207
:101C180028BF1846C3B2000A03FA00F0013080B2A8
:101C28007047B0F5803F01D278B101E04FF6FF7000
:101C38000138002330F0FF019AB203F1010301D00B
:101C48004008F7E740EA022080B27047084B4FF49B
:101C58007A72594310B501F5FA714FF4FA64B1FB81
:101C6800F2F3B1FBF4F100FB0310B0FBF2F010BD8E
:101C7800002F3A0070B50E46002114460546FFF7BE
:101C8800B7FE462120802846FFF7F7FD013080B2D5
:101C98002178A080FFF7DAFF5121E0602846FFF79E
:101CA8000CFEFFF7B2FF2178E080FFF7CFFF70212D
:101CB80020612846FFF7E1FD01304000C0B2608096
:101CC80071212846FFF7F9FDFFF79FFF2081F37880
:101CD80013B1E388C01A2081A1782089FFF7B6FFE5
:101CE800606170BD10B5044688B06946FFF778FF9B
:101CF80002AA69462046FFF7BDFF9DF800301BB1D8
:101D0800059800F6845001E040F636309DF8023020
:101D18002BB1059B03F2B22300EB430006E09DF8CC
:101D280001301BB1059B03F5257318449DF803305A
:101D38001BB1069B03F5257318449DF804301BB1AD
:101D4800079B03F226231844606108B010BD000009
:101D5800084B4FF47A7259434FF4FA6301F5FA715C
:101D6800B1FBF3F3B1FBF2F102FB0030B0FBF1F091
:101D7800704700BF002F3A0044F61F63F0B5994240
:101D880089B006460D4642D96946FFF729FF02AADF
:101D980069463046FFF76EFF9DF800301BB1059885
:101DA80000F6363001E040F6E8009DF802302BB12D
:101DB800059B03F2B22300EB430006E09DF80130D7
:101DC8001BB1059B03F5257318449DF803701FB1DB
:101DD800069B03F5257318449DF80440ACB100F246
:101DE8002620854213D39DF80A10281AFFF7B0FF62
:101DF80017B1BDF80E301844FFF713FF71210246E2
:101E08003046FFF7F0FC756102E0012400E0002491
:101E1800204609B0F0BD38B541F001020021044662
:101E2800FFF7BCFC01F028FBE06013212046FFF718
:101E380024FD10F007050BD16368002BF5D001F0E5
:101E48001BFBE368C01A63689842EED9284638BD80
:101E5800204601220B21FFF7A1FC00222046114653
:101E6800FFF79CFC012038BDF0B5044685B049B1A8
:101E78008921FFF702FD40F00102D2B289212046F4
:101E8800FFF78CFC002288212046FFF787FC0122FF
:101E980080212046FFF782FC0122FF212046FFF720
:101EA8007DFC002211462046FFF778FC9121204650
:101EB800FFF7E3FC0122207400212046FFF76EFCA7
:101EC8000022FF212046FFF769FC002280212046DE
:101ED800FFF764FC60212046FFF7CFFC40F01202B8
:101EE800D2B260212046FFF759FC4FF07A512046C4
:101EF800FFF756FDFF2201212046FFF74FFC0DF1A9
:101F080007020DF106012046FFF7E2FD08B900259A
:101F18001DE2062302AAB0212046FFF717FD012281
:101F2800FF212046FFF73AFC00224F212046FFF709
:101F380035FC2C224E212046FFF730FC0022FF21E1
:101F48002046FFF72BFC00252046B621B422FFF7D8
:101F580025FC29469DF807309DF80660002B14BF24
:101F68000C2000200127EBB2DA0898420DF1100E80
:101F780003F00703724401D88E4208D112F808EC26
:101F880007FA03F32EEA030302F8083C07E012F805
:101F9800082C42FA03F3DB0744BF0131C9B201350B
:101FA800302DE0D1062302AAB0212046FFF7ADFC70
:101FB8000122FF212046FFF7F1FB002211462046AF
:101FC800FFF7ECFB0022FF212046FFF7E7FB00228A
:101FD80009212046FFF7E2FB002210212046FFF7E7
:101FE800DDFB002211212046FFF7D8FB0122242126
:101FF8002046FFF7D3FBFF2225212046FFF7CEFB23
:10200800002275212046FFF7C9FB0122FF21204647
:10201800FFF7C4FB2C224E212046FFF7BFFB00220E
:1020280048212046FFF7BAFB202229462046FFF721
:10203800B5FB0022FF212046FFF7B0FB0922294605
:102048002046FFF7ABFB002254212046FFF7A6FBF2
:10205800042231212046FFF7A1FB0322322120462A
:10206800FFF79CFB832240212046FFF797FB2522A0
:1020780046212046FFF792FB002260212046FFF709
:102088008DFB002227212046FFF788FB06225021DE
:102098002046FFF783FB002251212046FFF77EFBF5
:1020A800962252212046FFF779FB08225621204626
:1020B800FFF774FB2A4657212046FFF76FFB0022E3
:1020C80061212046FFF76AFB002262212046FFF7C4
:1020D80065FB002264212046FFF760FB0022652192
:1020E8002046FFF75BFBA02266212046FFF756FB40
:1020F8000122FF212046FFF751FB322222212046F0
:10210800FFF74CFB142247212046FFF747FBFF222D
:1021180049212046FFF742FB00224A212046FFF7CB
:102128003DFB0022FF212046FFF738FB0A227A21D7
:102138002046FFF733FB00227B212046FFF72EFBCA
:10214800212278212046FFF729FB0122FF21204682
:10215800FFF724FB342223212046FFF71FFB002230
:1021680042212046FFF71AFBFF2244212046FFF7B1
:1021780015FB262245212046FFF710FB05224621A4
:102188002046FFF70BFB402211462046FFF706FBCF
:1021980006220E212046FFF701FB1A2220212046A5
:1021A800FFF7FCFA402243212046FFF7F7FA002206
:1021B800FF212046FFF7F2FA032234212046FFF7D9
:1021C800EDFA442235212046FFF7E8FA0122FF21E3
:1021D8002046FFF7E3FA042231212046FFF7DEFA12
:1021E80009224B212046FFF7D9FA05224C21204627
:1021F800FFF7D4FA04224D212046FFF7CFFA002238
:10220800FF212046FFF7CAFA002244212046FFF7A3
:10221800C5FA202245212046FFF7C0FA08224721A7
:102228002046FFF7BBFA282248212046FFF7B6FAD6
:10223800002267212046FFF7B1FA042270212046C8
:10224800FFF7ACFA012271212046FFF7A7FAFE2218
:1022580072212046FFF7A2FA002276212046FFF7D6
:102268009DFA002277212046FFF798FA0122FF21E4
:102278002046FFF793FA01220D212046FFF78EFA38
:102288000022FF212046FFF789FA012280212046FB
:10229800FFF784FAF82201212046FFF77FFA01228E
:1022A800FF212046FFF77AFA01228E212046FFF708
:1022B80075FA012200212046FFF770FA0022FF215B
:1022C8002046FFF76BFA002280212046FFF766FAC6
:1022D80004220A212046FFF761FA84212046FFF7ED
:1022E800CCFA842100F0EF022046FFF757FA0122CA
:1022F8000B212046FFF752FA2046FFF7F3FCE822AD
:10230800606101212046FFF749FA61692046FFF71D
:1023180033FD012211462046FFF740FA40212046AE
:10232800FFF779FD00283FF4F2AD02220121204693
:10233800FFF734FA00212046FFF76DFD0546002817
:102348003FF4E5ADE82201212046FFF727FA2846A9
:1023580005B0F0BD01F038B8704710B50446FDF778
:102368009AFE204610BDF8B505461E460F46017C6C
:10237800C06841F01801144601F01BFEE868012E00
:10238800036888BF47F080079B683946984726440A
:10239800A642E86805D0036814F8011B9B689847B3
:1023A800F6E701F00EFEB0FA80F04009F8BDF8B586
:1023B80004461E460F46017CC06841F018011546C8
:1023C80001F0F7FDE068012E036888BF47F0800739
:1023D8009B6839469847E06801F0F3FDA8B9217C6D
:1023E800324641F01801E06801F0DEFD2E44AE42AD
:1023F8000DD0E06803681B69984740B1E06803683E
:102408005B69984705F8010BF1E70020F8BD01204A
:10241800F8BD0022027042708270C270027142716F
:102428008271C271027242728272704741F0070172
:102438000170704713B5036801AA9C680123A0477F
:102448009DF8040002B010BD38B505460A240F21D6
:102458002846FFF7EFFF33284FF0010005D001F0C1
:102468000BFB013CF3D1204638BD38BDF7B50C460F
:1024780007210646FFF7DEFF00F00800002814BF1A
:10248800012500251BD033686A469F68282106234A
:102498003046B8479DF801209DF8003043EA0223F2
:1024A80023809DF803209DF8023043EA02236380CD
:1024B8009DF805209DF8043043EA0223A3802846AE
:1024C80003B0F0BD37B502AC036804F8042DDD682D
:1024D80022460123A84703B030BD000070B504466A
:1024E8000D46FFF7B1FF064628B901F015FC28494B
:1024F80001F079FA49E02A7820212046FFF7E2FF27
:102508006A7821212046FFF7DDFFAA78222120469C
:10251800FFF7D8FFEA7823212046FFF7D3FF2A796F
:1025280024212046FFF7CEFF6A7925212046FFF7B0
:10253800C9FFAB791BB126212046FFF77BFFAA7A9A
:102548002E212046FFF7BEFFAB785B061DD5EA7942
:1025580032212046FFF7B6FF2A7A33212046FFF7BB
:10256800B1FF6368002B0ADB6A7A204622723021A9
:10257800FFF7A8FF31212046FFF75CFF05E00022A6
:10258800227230212046FFF79DFF304670BD00BF04
:10259800C8540A0810B54360024BC1600360027456
:1025A80010BD00BFB8540A0800F00EBF10B5C360D4
:1025B800002301608260037110BD38B5044680684D
:1025C80070B100F029FE0021054602F08DFE10B121
:1025D8000123237100E020712946E06800F057FDCF
:1025E800207938BD002202604260704770B5044609
:1025F80010200E46154601F0B9F8002370B10360AB
:1026080046608560C360636813B96060206004E059
:102618002368036020600368D860012070BD70B52E
:102628000D46164604685CB12946606802F034FE1F
:1026380020B13146A06802F02FFE18B92468F2E7ED
:10264800204670BD012070BD2DE9F84F0027BA461D
:102658004568002D00F0B180EE680EB93546F8E700
:102668006C68D6F804802046414602F015FED5F87D
:1026780008B008B15D4691E00021584602F00CFE12
:1026880030B9B5680021284602F006FE002836D089
:102698000021584602F028FE08B9B56800E05D46FA
:1026A8002146404602F05AFB01468046284602F081
:1026B8005FFC4FF07C5102F05BFCB1680546584660
:1026C80002F0F4FD28B1404602F006F80022424B21
:1026D80004E0404602F000F8404B002202F07AF98C
:1026E80080462046894601F0F7FF02460B464046E1
:1026F800494601F093FE02F0DDFA04464EE000215F
:10270800584602F0F1FD0021C0B1284602F0ECFD68
:10271800C0B12946584602F0BFFDE8B121464046FF
:1027280002F01CFB01468046584602F021FC054693
:10273800404601F0D1FF0022294B2AE0584602F01A
:10274800D3FD48B30021284602F0CEFD20B3294628
:10275800584602F0A1FDF8B92146404602F0FEFABB
:1027680001F0BAFF804689465846294602F0F8FA31
:1027780001F0B2FF00221A4B02F002F842464B4623
:1027880001F0FEFF02F096FA494605464046144B12
:10279800002201F0F5FFA3E700242546214628463C
:1027A80002F0E6FB0146504602F0DAFA2946824674
:1027B800384602F0D5FA074650E70021384602F0BD
:1027C8006BFD28B93946504602F086FCBDE8F88F03
:1027D8000020BDE8F88F00BF0000F83F0000084067
:1027E8000000E03F10B50C4639B1C968FFF7FAFFA1
:1027F8002046BDE8104000F0C1BF10BD10B504462A
:102808004168FFF7EFFF002363602360012010BDDC
:1028180008B511B1084600F0B1FF012008BD00005D
:102828002DE9F04F1E464B6887B001938B68D6F8A8
:1028380008900293109B05900C46986849461746E5
:1028480002F08CFA01998246786802F087FAD6F885
:102858000480109B41460390586802F07FFA029961
:102868008346B86802F07AFA03990490504602F059
:102878007FFB04990546584602F07AFB0146284634
:1028880002F06CFA49460546029802F067FA41469A
:102898008146019802F062FA49468046584602F09D
:1028A80067FB41468346504602F062FB01465846A4
:1028B80002F054FA49468246039802F059FB414611
:1028C8008146049802F054FB0146484602F046FA55
:1028D80000218046284602F0E9FC08B105F10045D0
:1028E8000021504602F0E2FC08B10AF1004A00213A
:1028F800404602F0DBFC08B108F10048284601F028
:10290800EBFE31A3D3E9002302F0ACF908B10020B3
:1029180057E02946504602F0DFFB0021814602F0CD
:10292800C5FC0028F3D14FF07E51484602F0DCFC8C
:102938000028ECD12946404602F0CEFB002105468E
:1029480002F0B4FC0028E2D14FF07E51284602F094
:10295800CBFC0028DBD14946039802F009FB01991A
:1029680002F0FEF949460546049802F001FB029977
:1029780002F0F6F98046102000F0F8FE0028C6D0D4
:10298800109B45600360C0F80880C760D860386055
:102998007768B668D4F8049021460598D4F808807A
:1029A8002568FFF735FF4946384602F075FC20B127
:1029B8004146304602F070FC10B92C46002DE9D192
:1029C800012007B0BDE8F08FFCA9F1D24D62503F5D
:1029D800F7B506464568DDB12C462768B7B1796872
:1029E800606802F063FC08B93C46F6E727463B6896
:1029F80063B11A6842B10092E26821463046FFF797
:102A08000FFF08B1756801E03F68F0E7ED68E2E79D
:102A1800012003B0F0BD10B5044600F00FF82046C1
:102A280010BD38B50546846834B1206810B16968AE
:102A380000F07EFA6468F7E7012038BD00220160E3
:102A48008260C2607047006870474160704738B55F
:102A5800044608200D4600F089FE50B100230560A9
:102A68004360A3680BB9A06001E0E3685860E060C8
:102A7800012038BD10B5846824B1206800F0EDFA53
:102A88006468F9E710BD10B50446FFF7D7FF04F1F5
:102A98001000FFF7A7FD204610BD1030FFF7D4BD8A
:102AA800F8B5846806462546CDB1ACB163688BB1EC
:102AB800206800F035FA63680746186800F030FAB5
:102AC8000146384602F010FC20B194E80C00196861
:102AD80021601A606468E8E7B4686D68E4E701207B
:102AE800F8BD0000000000002DE9F74F10980F46D0
:102AF8000E9915461C4602F031F9394682462046A1
:102B080002F02CF90D9980460F9802F027F9294612
:102B180083460C9802F022F941460646504602F0D8
:102B280027FA31460446584602F022FA0146204662
:102B380002F014F90E990446284602F00FF90D998F
:102B48008146384602F00AF949460190584602F093
:102B58000FFA01998346504602F00AFA0146584690
:102B680002F0FCF849468246404602F001FA019913
:102B78008146304602F0FCF90146484602F0EEF87C
:102B880000218146204602F091FB08B104F100447F
:102B98000021504602F08AFB08B10AF1004A0021E0
:102BA800484602F083FB08B109F10049204601F0CC
:102BB80093FD21A3D3E9002302F054F801900028E3
:102BC80033D12146504602F087FA0021824602F0AE
:102BD8006DFB50BB4FF07E51504602F085FB20BB89
:102BE80021460190484602F077FA0021814602F01A
:102BF8005DFB0446C8B94FF07E51484602F074FBAD
:102C0800A8B95146404602F0B3F9394602F0A8F88F
:102C1800119B51461860304602F0AAF9294602F085
:102C28009FF8129B1860012002E0002000E0204677
:102C380003B0BDE8F08F00BFFCA9F1D24D62503F50
:102C48002DE9F04F064600F1100591B02846FFF730
:102C5800D5FDB4684FF07E590DAF002C00F05081BF
:102C6800206800F0F8F9002102F03EFB002800F08F
:102C7800D880206800F054F98046206800F052F9A6
:102C88000146404602F008FB80B9206800F048F988
:102C9800002201462846FFF7C2FC38B9206800F038
:102CA8003FF9002201462846FFF7A0FC206800F003
:102CB80039F98046206800F037F90146404602F0AD
:102CC800EBFA68B1206800F02BF98046206800F024
:102CD8002DF90146404602F0DFFA002800F0A380F3
:102CE800206800F01FF98046206800F01DF90146B1
:102CF800404602F0D1FA002840F09F80206800F09A
:102D0800AAF94FF07E5102F0C7FA002840F0C480BB
:102D1800206800F007F90C90206800F09CF90D90ED
:102D2800206800F0FDF88046206800F0FBF8824635
:102D3800206800F0F5F88346206800F08CF90A90C6
:102D4800206800F0F3F80990206800F084F9099AE7
:102D58000A9B0CA905910490039202930022414614
:102D68000697CDF804B0CDF8009053463046FFF7EB
:102D7800BBFE0D9A0C992846FFF751FC20B90D9A15
:102D88000C992846FFF732FC206800F0CBF80E902B
:102D9800206800F060F90DF1400848F8040D20683B
:102DA80000F0C2F88246206800F0C0F88346206828
:102DB80000F0B6F80990206800F04DF90B902068F3
:102DC80000F0B4F80A90206800F045F90EAB0593BE
:102DD800099B0A990B9A019300230490039102928C
:102DE80000934FF07E525146CDF818805B4630462E
:102DF800FFF77AFE0F9A0E992846FFF710FC20B9C4
:102E08000F9A0E992846FFF7F1FB206800F08CF81E
:102E18008046206800F08AF80146404602F03CFAF5
:102E280018B3646819E7206800F015F94FF07E516F
:102E380002F032FA00283FF46BAF206800F072F815
:102E48008046206800F007F9414602462846FFF709
:102E5800E6FB0028D9D1206800F064F88046206895
:102E680000F0F9F841460246CCE7206800F05EF829
:102E7800002201462846FFF7D2FB002837D02068F9
:102E880000F054F88046206800F04AF801464046B1
:102E980002F002FA58BBC4E7206800F043F8804605
:102EA800206800F0D8F8414602462846FFF7B7FBED
:102EB80058B9206800F036F88046206800F0CBF852
:102EC800414602462846FFF791FB206800F02CF89F
:102ED8008046206800F0BFF8414602462846FFF7C2
:102EE8009EFB002891D1206800F01EF8B6E7206804
:102EF80000F01CF8002201462846FFF777FB90E710
:102F08002846FFF765FD012011B0BDE8F08F10B528
:102F18008360029B0160C36000234260036110BDAF
:102F2800006870474068704780687047C06870479D
:102F38002DE9F8430768044638460D4602F0D4F9EF
:102F4800666898B13146384602F0A6F900282ED0B6
:102F5800A5683046294602F09FF940BB2846E1683B
:102F680002F09AF918BB4FF07E5321E02946384603
:102F780002F0A6F9F0B93146284602F0ABF900286C
:102F88002FD1D4F808802846414602F0ADF9D4F88C
:102F98000C9000282CD14946284602F0A5F90028B3
:102FA8004DD04946404602F077F900283ED100232B
:102FB800236144E03146284602F078F90028DAD047
:102FC8003946304601F0CAFE01464FF07E5002F005
:102FD80083F831460746284601F0C0FE01463846C8
:102FE8001CE0A168284602F06BF90028C9D0BAE7AE
:102FF8004946284602F064F90028CCD049464046A4
:1030080001F0ACFE01464FF07E5002F065F84146F3
:103018000646284601F0A2FE0146304601F0A8FF08
:103028004FF07E5101F09CFE206108E04146304699
:1030380002F032F90028BAD13146384690E701202B
:10304800BDE8F88338B5044600690D4602F02EF94C
:1030580000B1256138BD00697047002303617047DE
:10306800002242600260704738B5044608200D46C9
:1030780000F07CFB50B100230560436063680BB926
:10308800606001E0236858602060012038BD38B5D1
:103098000D4644682CB120682946FFF7D3FF6468C1
:1030A800F8E7012038BD002242600260C2608260F9
:1030B80042610261704738B5044608200D4600F0A9
:1030C80055FB50B100230560436063680BB960602D
:1030D80001E0236858602060012038BD70B50546BE
:1030E80008200E4600F042FB044670B100234360FE
:1030F80006603046FFF7D4FCEB680BB9EC6001E0E2
:10310800AB685C60AC60012070BD70BD38B504462A
:1031180008200D4600F02AFB50B1002305604360EB
:1031280063690BB9606101E023695860206101207F
:1031380038BD70B50D461646446864B12068FFF77F
:1031480082FCA84205D120683146FFF77EFC0120A9
:1031580070BD6468F1E7204670BD38B5044645681F
:1031680025B12868FFF786FC6D68F9E7E56825B1A1
:103178002868FFF77FFC6D68F9E7656825B128685E
:10318800FFF74FFC6D68F9E7656925B12868FFF717
:1031980014FA6D68F9E7E46824B12068FFF750FD78
:1031A8006468F9E7012038BD38B50D46C4685CB1DC
:1031B8002068FFF748FCA84204D12068BDE83840E1
:1031C800FFF76BBC6468F2E7002038BD002202609C
:1031D80042608260C26002614261704710B5034676
:1031E80039B142B10120022483E811009960DA6004
:1031F80010BD084610BD104610BD10B5034639B1C4
:1032080042B10120042483E8110019615A6110BDFC
:10321800084610BD104610BD38B504466368013B2A
:10322800032B00F2CE80DFE803F07602377B2368B9
:10323800012B02D0022B1ED0C3E0A068FFF70BFFC2
:10324800002102F051F8002800F0BB80E068FFF789
:1032580002FF002102F048F8002800F0B280A068C0
:10326800FFF7F9FE0546E068FFF7F5FE0146284638
:1032780002F01CF890E0A068FFF7EDFE002102F0D4
:1032880033F800287DD1E068FFF7E5FE002102F061
:103298002BF8002875D194E02368012B02D0022B6B
:1032A8001DD08EE0A068FFF7D6FE002102F01CF8C2
:1032B800002800F086802069FFF7AEFF002102F0A9
:1032C80013F800287DD0A068FFF7C5FE05462069E1
:1032D800FFF7A2FF0146284601F0E8FF19E0A068C1
:1032E800FFF7B9FE002101F0FFFF38B92069FFF7A9
:1032F80093FF002101F0F8FF002862D0A068FFF7D3
:10330800AAFE05462069FFF787FF0146284601F017
:10331800EBFF002844D0A068BDE83840FFF79BBE0B
:103328002368012B02D0022B1CD04AE02069FFF74A
:1033380073FF002101F0D8FF002842D06069FFF731
:103348006BFF002101F0D0FF00283AD02069FFF779
:1033580063FF05466069FFF75FFF0146284601F0F5
:10336800A5FF2AE02069FFF757FF002101F0BCFF05
:10337800C0B96069FFF750FF002101F0B5FF88B9B7
:103388001FE0A068FFF767FE0546E068FFF763FEE9
:103398000146284601F0A8FF0028BCD1E068BBE739
:1033A80024693BE72069FFF737FF05466069FFF7A7
:1033B80033FF0146284601F097FF0028F0D16469E1
:1033C8002CE7002038BD000008B5024B1B681B68BD
:1033D800019308BDB001060808B5024B1B685B687D
:1033E800019308BDB001060808B5024B1B689B682D
:1033F800019308BDB001060808B5024B1B68DB68DD
:10340800019308BDB001060808B5024B1B681B698B
:10341800019308BDB001060808B5024B1B685B693B
:10342800019308BDB001060808B5024B1B689B69EB
:10343800019308BDB001060808B5024B1B68DB699B
:10344800019308BDB001060808B5024B1B68DB698B
:10345800019308BDB401060808B5024B1B681B6A36
:10346800019308BDB401060808B5024B1B685B68E8
:10347800019308BD9C01060808B5024B1B685B69EF
:10348800019308BD9C01060808B5024B1B681B6A1E
:10349800019308BDD001060808B5024B1B685B6A9A
:1034A800019308BDD001060808B5024B1B689B6A4A
:1034B800019308BDD001060808B5024B1B68DB6AFA
:1034C800019308BDD001060808B5024B1B681B6BA9
:1034D800019308BDD001060808B5024B1B689B691B
:1034E800019308BDC401060808B5024B1B685B6A56
:1034F800019308BDC401060808B5024B1B689B6A06
:10350800019308BDC401060808B5024B1B68DB6AB5
:10351800019308BDC401060808B5024B1B681B6B64
:10352800019308BDC401060808B5024B1B685B6B14
:10353800019308BDC401060808B5024B1B689B6BC4
:10354800019308BDC401060808B5024B1B681B6C33
:10355800019308BDC401060808B5024B1B681B6C23
:10356800019308BDAC01060808B5024B1B68DB6C6B
:10357800019308BDAC01060808B5024B1B685B6DDA
:10358800019308BDAC01060808B5024B1B689B6D8A
:10359800019308BDAC01060808B5024B1B68DB6D3A
:1035A800019308BDAC01060808B5024B1B681B6EE9
:1035B800019308BDAC01060808B5024B1B685B6E99
:1035C800019308BDAC01060808B5024B1B689B6E49
:1035D800019308BDAC01060808B5024B1B68DB6EF9
:1035E800019308BDAC01060808B5024B1B681B6FA8
:1035F800019308BDAC01060808B5024B1B685B6F58
:10360800019308BDAC01060808B5034B1B68D3F845
:103618008030019308BD0000AC01060808B5024BD4
:103628001B681B69019308BDA801060808B5024B71
:103638001B685B69019308BDA801060808B5024B21
:103648001B689B69019308BDA801060808B5024BD1
:103658001B681B68019308BDD801060808B5024B12
:103668001B685B68019308BDD801060808B5024BC2
:103678001B681B69019308BDD801060808B5024BF1
:103688001B685B69019308BDD801060808B5024BA1
:103698001B689B69019308BDD801060808B5024B51
:1036A8001B68DB69019308BDD801060808B5024B01
:1036B8001B681B6A019308BDD801060808B5024BB0
:1036C8001B685B68019308BDA801020808B5024B96
:1036D8001B689B68019308BDA801020808B5024B46
:1036E8001B68DB68019308BDA801020808B5024BF6
:1036F8001B689B69019308BDA801020808B5024B25
:103708001B68DB69019308BDA801020808B5024BD4
:103718001B685B68019308BDA401060808B5024B45
:103728001B685B69019308BDA401060808B5024B34
:103738001B68DB6A019308BDA401060808B5024BA3
:103748001B685B6E019308BDA401060808B5024B0F
:103758001B689B6E019308BDA401060808B5024BBF
:103768001B681B69019308BDC801060808B5024B10
:103778001B681B68019308BDA001060808B5024B29
:103788001B685B68019308BDA001060808B5024BD9
:103798001B689B68019308BDA0010608704710B517
:1037A8000446FCF778FC204610BD000070B50446BE
:1037B8000E46074B0025036040F80C5FFFF784FEB8
:1037C80030462671FFF740FEA560204670BD00BF59
:1037D80014550A080079FFF73FBEB0F90020531CC2
:1037E8000BD0438880888B4203D88842034628BF81
:1037F8000B46194690B2FFF721BF70474FF6FF738B
:10380800B42202814FF408720380428000234FF4EF
:103818001662C3808280C360704708B5FFF7EEFF69
:1038280008BD10B50446B0F90000431C07D080B2AB
:10383800FFF7FCFE2046FFF7E1FF012010BD002046
:1038480010BD2DE9F0410D46044602212846904658
:103858001F46FFF7C1FD022801D0002619E02846BF
:1038680000F0CCFB06460028F7D0B4F9003001334D
:1038780002D02046FFF7D5FFBDF918302580E38038
:10388800BDF91C30A4F80280A78023812846FFF7E1
:10389800C5FE3046BDE8F0810020FFF737BF10B500
:1038A80004460068FFF76AFF204610BD10B50446BD
:1038B800006808B1FFF762FF00232360A36063601C
:1038C80010BD38B504460D4600680131FFF75EFFAC
:1038D80010B184E82100012038BD10B50368044602
:1038E80013B143688B4207D22046FFF7EAFF20B1A5
:1038F800A3680BB922681370012010BD70B50E467D
:10390800114604461546FFF7E8FF18B92046FFF7A9
:10391800CDFF09E02A463146A560206801F01CFD6C
:103928002268A3680021D154204670BD38B5002311
:10393800044603604360836003730D4639B108464B
:1039480001F01DFD294602462046FFF7D7FF204615
:1039580038BD38B505460C4641B1084601F00FFDA3
:10396800214602462846FFF7C9FF01E0FFF79EFF00
:10397800284638BDF8B506460D468F180024BD42C6
:103988000CD0336815F8011B9B683046984700280F
:1039980001DB0444F3E7002C08BF04462046F8BDC9
:1039A80070B505460C46084649B101F0E8FC2B689D
:1039B800024621462846BDE87040DB68184770BDBE
:1039C80008B5FFF7EDFF08BD03689B68184738B5D1
:1039D8000D210546FFF7F8FF0A2104462846FFF7A0
:1039E800F3FF204438BD38B50546FFF7D9FF044634
:1039F8002846FFF7ECFF204438BD012A98BF0A2269
:103A080030B50B468BB000218DF824100DF123043E
:103A1800B3FBF2F505FB1233DBB2092B94BF30334D
:103A28003733DBB2214604F801392B46002DEFD19C
:103A3800FFF7B6FF0BB030BD10B422B90368C9B2A6
:103A48009B6810BC1847D2B210BCFFF7D6BFFFF76F
:103A5800F3BF0000014A024B1A607047D7550A08A5
:103A680010040020024B1A68024B1A60704700BF0E
:103A780030030020140400200021FFF74FBE10B5CA
:103A88000446FFF733FE844208D01CB1BDE810405D
:103A9800FFF71CBEBDE81040FFF720BE10BD70B593
:103AA80005460E461446FFF721FE50B144EA0620AB
:103AB80040EA0540FFF702FEBDE87040E720FFF747
:103AC8001DBE70BD08B5144B33B100F025F903686D
:103AD8001B699847002816DC104B33B100F0EAF94F
:103AE80003681B699847002810DC0D4B0BB1AFF336
:103AF80000800C4B7BB100F04BF903681B699847B9
:103B0800002806DC08BDAFF30080E5E7AFF30080CE
:103B1800EBE7AFF3008008BD0000000000000000E4
:103B2800000000000000000008B5FFF7CBFFFFF71A
:103B3800A3FC014B186008BDA00800200248034AF6
:103B48000349121A01F008BC004002400440024038
:103B580010570A080020704737B5436804460A2BF7
:103B68000ED0502B1CD1104B1D68CDB1037D4FF4E6
:103B780000710093C26800F110038068A84707E04D
:103B880000F11003C2684FF400718068FFF7E2FF8C
:103B980030B1002220461146FFF7D8FD012000E091
:103BA800002003B030BD00BF1804002038B50C4C0D
:103BB8000C4D2368AB420C4B0CBF012200221A703B
:103BC80002D0FFF7BBFF2560084B1BB1FFF74CFC89
:103BD800AFF30080BDE8384000210548FFF7AEBDCF
:103BE800004002401E1C279A1C0400200000000010
:103BF800613B0A08704710B50446FCF74CFA2046AA
:103C080010BDF8B50F4600F10806051D002416F88A
:103C1800011D0A223846FFF71AFFAE42044407D0B6
:103C2800002CF4D02E213846FFF7CEFE0444EEE7F0
:103C38002046F8BD10B59DF8084044EA032343EA3E
:103C4800024242EA016104234160037510BD00008D
:103C580037B5044D05609DF818500095FFF7EAFF49
:103C680003B030BD34560A084174704770470021CC
:103C7800007CFFF70BBD0121007CFFF707BD007C2E
:103C8800FFF7FCBC007CFFF7F1BC38B50446007CAC
:103C98000D46FFF7F3FC002801DC607C20B12946C3
:103CA800207CFFF7FBFC012038BD007CFFF7FEBC41
:103CB80010B50446FCF7EFF9204610BD10B50446D0
:103CC800002363604FF47A73A360054B08462360B2
:103CD8000123217463741146FFF7B8FC204610BD18
:103CE80048560A080022007CFFF7B8BC10B5044605
:103CF8001422002101F03BFB054B20466360054B75
:103D0800E36040F2011323818123238210BD00BFA9
:103D1800A50400202404002030B50E4D87B001A86A
:103D2800FFF7E4FF296811F0010410D12846FCF7D9
:103D3800B4F960B101AA21460748FFF7BFFF28463A
:103D4800FCF7B0F9054A0649034800F013FA02489F
:103D580007B030BD20040020A8050020340300204F
:103D6800753C0A0810B504461422002101F0FFFA38
:103D7800054B20466360054BE36040F20113238145
:103D88008123238210BD00BF58060020C0050020F3
:103D980010B50E4C86B001A8FFF7E4FF2368DB07D7
:103DA80010D42046FCF779F960B101AA012108482E
:103DB800FFF784FF2046FCF775F9064A06490448D0
:103DC80000F0D8F9024806B010BD00BFBC050020BD
:103DD8004406002034030020753C0A080047000010
:103DE800F0B51C4685B005460E461746FFF724FB7E
:103DF800002084424FF0040303908DF80C30B4BFC8
:103E080003469DF828302846A4BF8DF80E3003AB32
:103E1800009332463B460449A8BF8DF80D40FFF792
:103E280003FB012005B0F0BDE53D0A087047417469
:103E38007047007CFFF788BB007CFFF75DBB007C08
:103E4800FFF76ABB007CFFF75FBB007CFFF76CBB2A
:103E580010B50446FCF71FF9204610BD70B5457C27
:103E680004460E4625B9007CFFF76EFB002805DDE9
:103E78003146207CBDE87040FFF736BB284670BD50
:103E880010B5044608461146002262604FF47A7263
:103E9800A260054A20742260012262741A46FFF764
:103EA8001BFB204610BD00BF78560A08007CFFF7B0
:103EB80043BB000038B50C4D296811F0010411D13D
:103EC8002846FCF7EAF868B1084A2146084B094831
:103ED800FFF7D6FF2846FCF7E5F8074A07490548E3
:103EE80000F048F9034838BDF4070020F80700201F
:103EF800700700205C07002034030020353E0A08C4
:103F08007047F8B5064615460C468F18BC4206D0D1
:103F1800336814F8011B9B6830469847F6E7284633
:103F2800F8BD0022007CFFF73FBB0021007CFFF7B3
:103F380043BB0021007CFFF747BB0021007CFFF753
:103F48004BBB0021007CFFF74FBB10B50446FCF7C4
:103F5800A2F8204610BD000010B5044608464FF4EC
:103F68007A73A360044B0021207461602360FFF71B
:103F78004BFB204610BD00BFA8560A080022007C53
:103F8800FFF7EABA00231A461946007CFFF7ECBA95
:103F980013B50024007C0094FFF7EEFAC0B202B01B
:103FA80010BD0123FFF7F4BF0123D2B2C9B2FFF756
:103FB800EFBF0022007CFFF7E7BA0022007CFFF782
:103FC800EBBA0121FFF7F9BF0021007CFFF714BB12
:103FD8007047002211461046FFF7C0BB0348044B48
:103FE800044A0549036000F0C5B800BF7C080020FA
:103FF800D0560A0834030020D93F0A0810B50446F1
:104008000F48FFF7E7FB28B1A4F10D03022B01D8F5
:10401800002010BD00F08EF8FFF7D6FF08B1012C84
:10402800F6D9FFF747FFFFF741FF18B1A4F11203D4
:10403800012BEDD9172C8CBF0020012010BD00BF2B
:1040480080080020172838B504460D460AD8FF29ED
:1040580008D0FFF7D3FF28B129462046BDE83840ED
:10406800FFF7C2B938BD38B504460D46FFF7C4F9A5
:10407800FF2810D0062804D84D2323FA00F0C307E0
:1040880009D42046FFF7BAFF28B129462046BDE8E3
:104098003840FFF7B9B938BD10B50446FFF7ACF999
:1040A8000438C0B2012808D92046FFF7A7FF20B17D
:1040B8002046BDE81040FFF7AFB9002010BD000052
:1040C80070B50C4C0C4E0D4D00212046FFF76EFBD1
:1040D80020460B4C3246294600F04CF80121204678
:1040E800FFF764FB324629462046BDE8704000F0E1
:1040F80041B800BF8008002034030020A5370A0813
:104108009008002013B5084C00231A46194600935E
:104118002046FFF79DFD2046044A054902B0BDE848
:10412800104000F027B800BFA40800203403002086
:10413800FD3B0A0838B50B4D296811F001040FD171
:104148002846FBF7AAFF58B121460748FFF704FFA6
:104158002846FBF7A7FF054A0549034800F00AF877
:10416800014838BDBC080020C008002034030020E6
:10417800093F0A080B460146184601F0DFB800005F
:10418800184B1A68D1075CBF01221A60164B1A68CF
:10419800D2075CBF01221A60144B1A68D0075CBFB3
:1041A80001221A60124B1A68D1075CBF01221A60FB
:1041B800104B1A68D2075CBF01221A600E4B1A68AE
:1041C800D0075CBF01221A600C4B1A68D1075CBF8C
:1041D80001221A600A4B1A68D2075CBF01221A60D2
:1041E800704700BFF0080020EC080020E808002015
:1041F800E4080020E0080020DC080020D80800209F
:10420800D4080020244B1A68D0075CBF01221A602A
:10421800224B1A68D1075CBF01221A60204B1A682A
:10422800D2075CBF01221A601E4B1A68D0075CBF18
:1042380001221A601C4B1A68D1075CBF01221A6060
:104248001A4B1A68D2075CBF01221A60184B1A6809
:10425800D0075CBF01221A60164B1A68D1075CBFF1
:1042680001221A60144B1A68D2075CBF01221A6037
:10427800124B1A68D0075CBF01221A60104B1A68EB
:10428800D1075CBF01221A600E4B1A68D2075CBFC7
:1042980001221A60704700BF200900201C09002075
:1042A8001809002014090020100900200C0900201A
:1042B800080900200409002000090020FC0800204B
:1042C800F8080020F4080020244B1A68D0075CBFC7
:1042D80001221A60224B1A68D1075CBF01221A60BA
:1042E800204B1A68D2075CBF01221A601E4B1A685D
:1042F800D0075CBF01221A601C4B1A68D1075CBF4B
:1043080001221A601A4B1A68D2075CBF01221A6090
:10431800184B1A68D0075CBF01221A60164B1A683E
:10432800D1075CBF01221A60144B1A68D2075CBF20
:1043380001221A60124B1A68D0075CBF01221A606A
:10434800104B1A68D1075CBF01221A600E4B1A681D
:10435800D2075CBF01221A60704700BF50090020D5
:104368004C09002048090020440900204009002089
:104378003C090020380900203409002030090020B9
:104388002C0900202809002024090020184B1A684D
:10439800D1075CBF01221A60164B1A68D2075CBFAE
:1043A80001221A60144B1A68D0075CBF01221A60F8
:1043B800124B1A68D1075CBF01221A60104B1A68A9
:1043C800D2075CBF01221A600E4B1A68D0075CBF87
:1043D80001221A600C4B1A68D1075CBF01221A60CF
:1043E8000A4B1A68D2075CBF01221A60704700BFE7
:1043F800700900206C090020680900206409002069
:10440800600900205C090020580900205409002098
:1044180081F0004102E000BF83F0004330B54FEA6D
:1044280041044FEA430594EA050F08BF90EA020FDA
:104438001FBF54EA000C55EA020C7FEA645C7FEA6D
:10444800655C00F0E2804FEA5454D4EB5555B8BF90
:104458006D420CDD2C4480EA020281EA030382EA01
:10446800000083EA010180EA020281EA0303362D93
:1044780088BF30BD11F0004F4FEA01314FF4801C66
:104488004CEA113102D0404261EB410113F0004F78
:104498004FEA03334CEA133302D0524263EB43032F
:1044A80094EA050F00F0A780A4F10104D5F1200ECD
:1044B8000DDB02FA0EFC22FA05F2801841F1000128
:1044C80003FA0EF2801843FA05F359410EE0A5F1FC
:1044D80020050EF1200E012A03FA0EFC28BF4CF02D
:1044E800020C43FA05F3C01851EBE37101F00045E3
:1044F80007D54FF0000EDCF1000C7EEB00006EEBF0
:104508000101B1F5801F1BD3B1F5001F0CD3490879
:104518005FEA30004FEA3C0C04F101044FEA4452D0
:1045280012F5800F80F09A80BCF1004F08BF5FEA57
:10453800500C50F1000041EB045141EA050130BD37
:104548005FEA4C0C404141EB010111F4801FA4F1DA
:104558000104E9D191F0000F04BF01460020B1FA2F
:1045680081F308BF2033A3F10B03B3F120020CDA67
:104578000C3208DD02F1140CC2F10C0201FA0CF045
:1045880021FA02F10CE002F11402D8BFC2F1200CAA
:1045980001FA02F120FA0CFCDCBF41EA0C01904060
:1045A800E41AA2BF01EB0451294330BD6FEA0404A9
:1045B8001F3C1CDA0C340EDC04F11404C4F1200294
:1045C80020FA04F001FA02F340EA030021FA04F3A6
:1045D80045EA030130BDC4F10C04C4F1200220FAFD
:1045E80002F001FA04F340EA0300294630BD21FA3B
:1045F80004F0294630BD94F0000F83F4801306BF01
:1046080081F480110134013D4EE77FEA645C18BFF4
:104618007FEA655C29D094EA050F08BF90EA020F8B
:1046280005D054EA000C04BF1946104630BD91EA83
:10463800030F1EBF0021002030BD5FEA545C05D186
:104648004000494128BF41F0004130BD14F58004C5
:104658003CBF01F5801130BD01F0004545F0FE4139
:1046680041F470014FF0000030BD7FEA645C1ABF6E
:10467800194610467FEA655C1CBF0B46024650EAA5
:10468800013406BF52EA033591EA030F41F40021D1
:1046980030BD00BF90F0000F04BF0021704730B557
:1046A8004FF4806404F132044FF000054FF000012C
:1046B80050E700BF90F0000F04BF0021704730B5ED
:1046C8004FF4806404F1320410F0004548BF4042C2
:1046D8004FF000013EE700BF42004FEAE2014FEA17
:1046E80031014FEA02701FBF12F07F4393F07F4FF2
:1046F80081F06051704792F0000F14BF93F07F4F24
:10470800704730B54FF4607401F0004521F0004166
:1047180020E700BF50EA010208BF704730B54FF0EC
:1047280000050AE050EA010208BF704730B511F0F1
:10473800004502D5404261EB41014FF4806404F129
:1047480032045FEA915C3FF4DCAE4FF003025FEAAB
:10475800DC0C18BF03325FEADC0C18BF033202EB33
:10476800DC02C2F1200300FA03FC20FA02F001FA8D
:1047780003FE40EA0E0021FA02F11444C1E600BF2C
:1047880070B54FF0FF0C4CF4E06C1CEA11541DBFDF
:104798001CEA135594EA0C0F95EA0C0F00F0DEF8AA
:1047A8002C4481EA030621EA4C5123EA4C5350EA8F
:1047B800013518BF52EA033541F4801143F48013E0
:1047C80038D0A0FB02CE4FF00005E1FB02E506F071
:1047D8000042E0FB03E54FF00006E1FB03569CF0C6
:1047E800000F18BF4EF0010EA4F1FF04B6F5007FCC
:1047F80064F5407404D25FEA4E0E6D4146EB06063E
:1048080042EAC62141EA55514FEAC52040EA5E50C6
:104818004FEACE2EB4F1FD0C88BFBCF5E06F1ED870
:10482800BEF1004F08BF5FEA500E50F1000041EBA7
:10483800045170BD06F0004646EA010140EA020054
:1048480081EA0301B4EB5C04C2BFD4EB0C0541EA76
:10485800045170BD41F480114FF0000E013C00F38B
:10486800AB8014F1360FDEBF002001F0004170BDAF
:10487800C4F10004203C35DA0C341BDC04F11404C8
:10488800C4F1200500FA05F320FA04F001FA05F254
:1048980040EA020001F0004221F0004110EBD37021
:1048A80021FA04F642EB06015EEA430E08BF20EA4D
:1048B800D37070BDC4F10C04C4F1200500FA04F3F0
:1048C80020FA05F001FA04F240EA020001F0004182
:1048D80010EBD37041F100015EEA430E08BF20EAF5
:1048E800D37070BDC4F1200500FA05F24EEA020E3D
:1048F80020FA04F301FA05F243EA020321FA04F06C
:1049080001F0004121FA04F220EA020000EBD37022
:104918005EEA430E08BF20EAD37070BD94F0000F22
:104928000FD101F00046400041EB010111F4801F56
:1049380008BF013CF7D041EA060195F0000F18BF07
:10494800704703F00046520043EB030313F4801F43
:1049580008BF013DF7D043EA0603704794EA0C0FFD
:104968000CEA135518BF95EA0C0F0CD050EA410613
:1049780018BF52EA4306D1D181EA030101F0004190
:104988004FF0000070BD50EA410606BF10461946B8
:1049980052EA430619D094EA0C0F02D150EA0136C4
:1049A80013D195EA0C0F05D152EA03361CBF104605
:1049B80019460AD181EA030101F0004141F0FE41A4
:1049C80041F470014FF0000070BD41F0FE4141F428
:1049D800780170BD70B54FF0FF0C4CF4E06C1CEA28
:1049E80011541DBF1CEA135594EA0C0F95EA0C0FDD
:1049F80000F0A7F8A4EB050481EA030E52EA033598
:104A08004FEA013100F088804FEA03334FF08055B8
:104A180045EA131343EA12634FEA022245EA1115E5
:104A280045EA10654FEA00260EF000419D4208BF96
:104A3800964244F1FD0404F5407402D25B084FEA43
:104A48003202B61A65EB03055B084FEA32024FF4EF
:104A580080104FF4002CB6EB020E75EB030E22BF4C
:104A6800B61A754640EA0C005B084FEA3202B6EB0C
:104A7800020E75EB030E22BFB61A754640EA5C00BB
:104A88005B084FEA3202B6EB020E75EB030E22BF4B
:104A9800B61A754640EA9C005B084FEA3202B6EB4C
:104AA800020E75EB030E22BFB61A754640EADC000B
:104AB80055EA060E18D04FEA051545EA16754FEA6D
:104AC80006164FEAC30343EA52734FEAC2025FEA8B
:104AD8001C1CC0D111F4801F0BD141EA00014FF01A
:104AE80000004FF0004CB6E711F4801F04BF0143EB
:104AF8000020B4F1FD0C88BFBCF5E06F3FF6AFAE07
:104B0800B5EB030C04BFB6EB020C5FEA500C50F196
:104B1800000041EB045170BD0EF0004E4EEA113119
:104B280014EB5C04C2BFD4EB0C0541EA045170BD20
:104B380041F480114FF0000E013C90E645EA060E64
:104B48008DE60CEA135594EA0C0F08BF95EA0C0F92
:104B58003FF43BAF94EA0C0F0AD150EA01347FF4DA
:104B680034AF95EA0C0F7FF425AF104619462CE7B1
:104B780095EA0C0F06D152EA03353FF4FDAE104614
:104B8800194622E750EA410618BF52EA43067FF465
:104B9800C5AE50EA41047FF40DAF52EA43057FF4F5
:104BA800EBAE12E74FF0FF3C06E000BF4FF0010C00
:104BB80002E000BF4FF0010C4DF804CD4FEA410C64
:104BC8007FEA6C5C4FEA430C18BF7FEA6C5C1BD031
:104BD80001B050EA410C0CBF52EA430C91EA030FB2
:104BE80002BF90EA020F0020704710F1000F91EA0F
:104BF800030F58BF994208BF90422CBFD8176FEADD
:104C0800E37040F0010070474FEA410C7FEA6C5CAA
:104C180002D150EA013C07D14FEA430C7FEA6C5CB1
:104C2800D6D152EA033CD3D05DF8040B704700BFDD
:104C38008446104662468C461946634600E000BF2B
:104C480001B5FFF7B7FF002848BF10F1000F01BDFD
:104C58004DF808EDFFF7F4FF0CBF012000205DF8C8
:104C680008FB00BF4DF808EDFFF7EAFF34BF01204D
:104C780000205DF808FB00BF4DF808EDFFF7E0FFE6
:104C880094BF012000205DF808FB00BF4DF808ED37
:104C9800FFF7CEFF94BF012000205DF808FB00BF9E
:104CA8004DF808EDFFF7C4FF34BF012000205DF880
:104CB80008FB00BF4FEA4102B2F1E04324BFB3F55D
:104CC800001CDCF1FE5C0DD901F0004C4FEAC0027B
:104CD8004CEA5070B2F1004F40EB830008BF20F05F
:104CE8000100704711F0804F21D113F13872BCBF19
:104CF80001F00040704741F480114FEA5252C2F16E
:104D08001802C2F1200C10FA0CF320FA02F018BFB6
:104D180040F001004FEAC1234FEAD32303FA0CFC09
:104D280040EA0C0023FA02F34FEA4303CCE77FEA98
:104D3800625307D150EA01331EBF4FF0FE4040F4E2
:104D48004000704701F0004040F0FE4040F4000091
:104D5800704700BF80F0004002E000BF81F00041D2
:104D680042001FBF5FEA410392EA030F7FEA226C09
:104D78007FEA236C6AD04FEA1262D2EB1363C1BF99
:104D8800D218414048404140B8BF5B42192B88BF08
:104D9800704710F0004F40F4000020F07F4018BF2B
:104DA800404211F0004F41F4000121F07F4118BF4B
:104DB800494292EA030F3FD0A2F1010241FA03FCF3
:104DC80010EB0C00C3F1200301FA03F100F00043DB
:104DD80002D5494260EB4000B0F5000F13D3B0F1A3
:104DE800807F06D340084FEA310102F10102FE2A12
:104DF80051D2B1F1004F40EBC25008BF20F0010082
:104E080040EA03007047490040EB000010F4000F2F
:104E1800A2F10102EDD1B0FA80FCACF1080CB2EBC2
:104E28000C0200FA0CF0AABF00EBC2505242184321
:104E3800BCBFD0401843704792F0000F81F40001C6
:104E480006BF80F400000132013BB5E74FEA410399
:104E58007FEA226C18BF7FEA236C21D092EA030F05
:104E680004D092F0000F08BF0846704790EA010F7F
:104E78001CBF0020704712F07F4F04D1400028BFAC
:104E880040F00040704712F100723CBF00F500008E
:104E9800704700F0004343F0FE4040F400007047C4
:104EA8007FEA226216BF08467FEA23630146420270
:104EB80006BF5FEA412390EA010F40F48000704783
:104EC8004FF0000304E000BF10F0004348BF404229
:104ED8005FEA000C08BF704743F0964301464FF065
:104EE80000001CE050EA010208BF70474FF00003C1
:104EF8000AE000BF50EA010208BF704711F0004302
:104F080002D5404261EB41015FEA010C02BF8446D1
:104F18000146002043F0B64308BFA3F18053A3F530
:104F28000003BCFA8CF2083AA3EBC25310DB01FA77
:104F380002FC634400FA02FCC2F12002BCF1004FFB
:104F480020FA02F243EB020008BF20F0010070478C
:104F580002F1200201FA02FCC2F1200250EA4C00E0
:104F680021FA02F243EB020008BF20EADC70704726
:104F78004FF0FF0C1CEAD0521EBF1CEAD15392EA34
:104F88000C0F93EA0C0F6FD01A4480EA010C400210
:104F980018BF5FEA41211ED04FF0006343EA50106A
:104FA80043EA5111A0FB01310CF00040B1F5000FAC
:104FB8003EBF490041EAD3715B0040EA010062F15B
:104FC8007F02FD2A1DD8B3F1004F40EBC25008BF45
:104FD80020F00100704790F0000F0CF0004C08BF63
:104FE80049024CEA502040EA51207F3AC2BFD2F130
:104FF800FF0340EAC250704740F400004FF000033E
:10500800013A5DDC12F1190FDCBF00F00040704777
:10501800C2F10002410021FA02F1C2F1200200FAB5
:1050280002FC5FEA310040F1000053EA4C0308BF7C
:1050380020EADC70704792F0000F00F0004C02BFCD
:10504800400010F4000F013AF9D040EA0C0093F048
:10505800000F01F0004C02BF490011F4000F013BA2
:10506800F9D041EA0C018FE70CEAD15392EA0C0F10
:1050780018BF93EA0C0F0AD030F0004C18BF31F07B
:10508800004CD8D180EA010000F00040704790F051
:10509800000F17BF90F0004F084691F0000F91F0F5
:1050A800004F14D092EA0C0F01D142020FD193EABB
:1050B8000C0F03D14B0218BF084608D180EA010043
:1050C80000F0004040F0FE4040F40000704740F01F
:1050D800FE4040F4400070474FF0FF0C1CEAD052ED
:1050E8001EBF1CEAD15392EA0C0F93EA0C0F69D049
:1050F800A2EB030280EA010C49024FEA402037D0B4
:105108004FF0805343EA111143EA10130CF00040AA
:105118008B4238BF5B0042F17D024FF4000C8B429A
:1051280024BF5B1A40EA0C00B3EB510F24BFA3EB7A
:10513800510340EA5C00B3EB910F24BFA3EB91034A
:1051480040EA9C00B3EBD10F24BFA3EBD10340EAA4
:10515800DC001B0118BF5FEA1C1CE0D1FD2A3FF6EA
:1051680050AF8B4240EBC25008BF20F0010070479F
:105178000CF0004C4CEA50207F32C2BFD2F1FF0342
:1051880040EAC250704740F400004FF00003013A73
:1051980037E792F0000F00F0004C02BF400010F417
:1051A800000F013AF9D040EA0C0093F0000F01F02B
:1051B800004C02BF490011F4000F013BF9D041EA4D
:1051C8000C0195E70CEAD15392EA0C0F08D1420280
:1051D8007FF47DAF93EA0C0F7FF470AF084676E753
:1051E80093EA0C0F04D14B023FF44CAF08466EE72C
:1051F80030F0004C18BF31F0004CCAD130F00042FA
:105208007FF45CAF31F000437FF43CAF5FE700BF51
:105218004FF0FF3C06E000BF4FF0010C02E000BF7A
:105228004FF0010C4DF804CD4FEA40024FEA41031C
:105238007FEA226C18BF7FEA236C11D001B052EAD2
:10524800530C18BF90EA010F58BFB2EB030088BF98
:10525800C81738BF6FEAE17018BF40F00100704707
:105268007FEA226C02D15FEA402C05D17FEA236CE9
:10527800E4D15FEA412CE1D05DF8040B704700BF30
:10528800844608466146FFE70FB5FFF7C9FF0028C7
:1052980048BF10F1000F0FBD4DF808EDFFF7F4FF00
:1052A8000CBF012000205DF808FB00BF4DF808ED99
:1052B800FFF7EAFF34BF012000205DF808FB00BFBC
:1052C8004DF808EDFFF7E0FF94BF012000205DF8DE
:1052D80008FB00BF4DF808EDFFF7D2FF94BF01208F
:1052E80000205DF808FB00BF4DF808EDFFF7C8FF88
:1052F80034BF012000205DF808FB00BF42000ED239
:10530800B2F1FE4F0BD34FF09E03B3EB126209D4F8
:105318004FEA002343F0004323FA02F070474FF0AE
:105328000000704712F1610F01D1420202D14FF023
:10533800FF3070474FF00000704700BF10B5054CB4
:1053480013462CB10A4601460220AFF3008010BD77
:10535800204610BD0000000010B5431E0A449142CB
:1053680004D011F8014B03F8014FF8E710BD0346CC
:105378000244934202D003F8011BFAE77047034640
:1053880013F8012B002AFBD1181A013870470000C6
:105398001D000A085D000A0889000A088D000A082D
:1053A800000000000000000000000000B1020A0830
:1053B800F1020A0891010A084D6F76696E6720624A
:1053C80061636B77617264732061206E75646765D1
:1053D800005475726E696E67203138300046494E48
:1053E8004953484544204445414C494E4720574974
:1053F800544820544845204C494E4500576169742B
:10540800696E6720666F72205374617274005374FA
:10541800617274696E6720696E2035207365636FE9
:105428006E64732E2E2E00474F210046756C6C203B
:105438004C65667400536D616C6C204C6566740035
:1054480043656E74657200536D616C6C20526967B8
:1054580068740046756C6C20526967687400535410
:105468004F50504544004261636B2074726967670E
:10547800657265642C206D6F76696E6720666F7241
:10548800776172640053746F70706564206265663A
:105498006F726520646561746800446F696E672087
:1054A80046757A7A790000000000000000000000CC
:1054B80061230A0863230A08B7230A086F230A0826
:1054C800646576696365206E6F7420666F756E64B7
:1054D80000726573657474696E67206C6173744DCE
:1054E8006F76656D656E7420696E74315F73726373
:1054F8003D3078257800726563616C696272617409
:10550800696E67000000000000000000A5370A0867
:10551800A7370A0866006C6E00666E00636F6465E4
:105528000064657461696C000D0A002530313075BE
:1055380020005D20002564002C200028293A200046
:10554800205B00636F6465203D2000256900646569
:105558007461696C73203D20006261756400536555
:105568007269616C0055534253657269616C310010
:105578007479706500706172616D00636D640069B3
:105588006400686E64007374726D0066696C740000
:105598006C766C0061646448616E646C657200725C
:1055A800656D6F766548616E646C657200656E75D1
:1055B8006D48616E646C657273004A534F4E537444
:1055C8007265616D4C6F6748616E646C65720061ED
:1055D8007070006E6F6E6500747261636500696E4D
:1055E800666F007761726E006572726F720070612B
:1055F8006E696300616C6C005A00252B3033643A85
:10560800253032750025592D256D2D2564542548E2
:105618003A254D3A2553257A0061736374696D659F
:105628000000000000000000000000000B3C0A0819
:10563800FD3B0A08FF3B0A080000000000000000CC
:10564800753C0A08B93C0A08933C0A087D390A08DF
:105658008D3C0A08773C0A087F3C0A08B33C0A08D4
:10566800873C0A08713C0A0800000000000000009E
:10567800353E0A08593E0A08653E0A087D390A0877
:10568800413E0A084D3E0A08473E0A08533E0A08AA
:10569800373E0A083B3E0A080000000000000000F0
:1056A800093F0A08533F0A082B3F0A080B3F0A081C
:1056B800333F0A083B3F0A08433F0A084B3F0A08A2
:1056C8000000000000000000DB3F0A08D9160A08A5
:1056D8005D230A08B1250A08A1380A085D3A0A08B4
:1056E8006D3A0A08E53F0A08C9400A080D410A0848
:1056F80089410A080D420A08D1420A0895430A0856
:08570800000000000000000099
:045710000000000095
:105714000400000001000000030000000E0000006F
:105724000100000005000000060000000700000062
:10573400010000000101000002000000010000005F
:0457440021560A08D8
:10574800FFFFFFFF00000102030405060708090A1E
:105758000B0C0D0E0F101112131415161718191A19
:085768001B1C1D1E1F20280060
:045770007856341221
:04000005080A0018CD
:00000001FF
